:020000040800F2
:1000000000000120B51600087909000881090008E0
:1000100089090008910900089909000800000000FA
:1000200000000000000000000000000021A7000800
:10003000A10900080000000001A9000849A9000862
:100040000517000805170008AD0900080517000886
:100050000517000805170008051700080517000810
:100060000517000805170008051700080517000800
:100070000517000805170008D5090008C109000880
:10008000E9090008FD090008051700080517000820
:1000900000000000051700080517000805170008F4
:1000A00005170008051700080517000805170008C0
:1000B00005170008051700080517000805170008B0
:1000C00005170008051700080517000805170008A0
:1000D000110A0008250A000805170008051700087E
:1000E0000517000805170008390A00080517000859
:1000F00005170008000000000000000005170008B8
:1001000005170008051700084D0A00080517000824
:10011000051700080517000805170008051700084F
:10012000051700080517000805170008051700083F
:0801300005170008051700087F
:1001400010B5054C237833B9044B13B10448AFF311
:1001500000800123237010BD280100200000000052
:10016000302E010808B5034B1BB103490348AFF318
:10017000008008BD000000002C010020302E010886
:10018000034613F8012B002AFBD1181A01387047D7
:1001900001F0FF01102A2BDB10F0070F08D010F838
:1001A000013B013A8B422DD010F0070F42B3F6D13C
:1001B000F0B441EA012141EA014122F007047FF055
:1001C00000070023F0E80256083C85EA010586EAAC
:1001D000010685FA47F5A3FA87F586FA47F6A5FAE8
:1001E00087F68EB9EED1F0BC01F0FF0102F00702F4
:1001F00032B110F8013B013A83EA010313B1F8D19F
:100200000020704701387047002D06BF354603387F
:10021000073815F0010F07D1013015F4807F02BFB8
:10022000013015F4C03F0130F0BC0138704700BF09
:1002300053B94AB9002908BF00281CBF4FF0FF314D
:100240004FF0FF3000F088B9ADF1080C6DE904CE35
:1002500000F006F8DDF804E0DDE9022304B07047A1
:100260002DE9F047089D0F4604468C46002B48D1E7
:100270008A42164661D9B2FA82F34BB1C3F1200229
:1002800001FA03FC20FA02F29E4042EA0C0C9C4068
:100290004FEA164EB7B2BCFBFEF1220C0EFB11CC9E
:1002A00042EA0C4201FB07F0904209D9B21801F171
:1002B000FF3C80F0EE80904240F2EB800239324405
:1002C000121AA4B2B2FBFEF00EFB102244EA024462
:1002D00000FB07F7A74209D9341900F1FF3280F07B
:1002E000DA80A74240F2D7803444023840EA014025
:1002F000E41B00211DB1DC400023C5E90043BDE83B
:10030000F0878B4206D90DB1C5E9000100210846EE
:10031000BDE8F087B3FA83F1002948D1BB4202D38C
:10032000824200F20781841A67EB0302012094469F
:10033000002DE4D0C5E9004CE1E7002A00F09280EE
:10034000B2FA82F3002B40F0A8808A1A4FEA164EC8
:100350001FFA86FC0121200CB2FBFEF70EFB1722D0
:1003600040EA02420CFB07F0904207D9B21807F1AD
:10037000FF3802D2904200F2E2804746121AA4B23D
:10038000B2FBFEF00EFB102244EA02440CFB00FC20
:10039000A44507D9341900F1FF3202D2A44500F276
:1003A000CB801046A4EB0C0440EA0740A2E7C1F161
:1003B00020068B4022FA06FC4CEA030C07FA01F4F3
:1003C00020FA06F3F7404FEA1C49234300FA01F8EC
:1003D0001FFA8CFEB7FBF9F01C0C09FB107744EAFE
:1003E000074400FB0EF7A74202FA01F20AD91CEB00
:1003F000040400F1FF3A80F09B80A74240F298800D
:1004000002386444E41B9FB2B4FBF9F309FB1344C4
:1004100047EA044403FB0EFEA64509D91CEB04047D
:1004200003F1FF3780F08280A6457FD9023B644408
:1004300043EA0040A4EB0E04A0FB02E7BC42734673
:10044000B94663D360D05DB1B8EB030264EB090435
:1004500004FA06F622FA01F31E43CC40C5E9006413
:1004600000214CE76208480842EAC1710B0C43EADC
:1004700000438AB242EA0342B3FBF6F1E407B44612
:100480003746B6461F23B0FBF6F0D21B41EA0041C7
:1004900061E7614614E7104628E7C3F1200120FA1E
:1004A00001F29E4027FA01F19F403A434FEA164E6F
:1004B0001FFA86FCB1FBFEF70EFB1710110C41EA88
:1004C000004107FB0CF8884504FA03F43AD9711887
:1004D00007F1FF3001D288451FD8A1EB0801B1FB1D
:1004E000FEF808FB0CF70EFB181192B242EA01422B
:1004F000BA422FD2B21808F1FF31C6D2BA42C4D2E2
:10050000A8F102013244C0E7F0459CD2BEEB0203E1
:1005100067EB0C070138B94695E7A6EB080841449C
:10052000B81EB1FBFEF808FB0CF7DCE73B467FE7A3
:10053000504667E70846FBE63444023832E7023F9C
:1005400032441BE7A1EB08013846B1FBFEF808FB7B
:100550000CF7C8E7414698E7704700BF80B500AF89
:10056000044A0021044809F039FB0346034A13609A
:1005700000BF80BDF8300108810500084405002057
:1005800080B582B000AF786001F0BDF84FF48062B2
:100590000949012003F08EFD02F01AFF02F062FF0C
:1005A000064802F0D3FF02F08DFB00200BF088F923
:1005B00000BF0837BD4680BD4401002099420008B5
:1005C00080B485B000AF78604FF0B0439A6C4FF0C4
:1005D000B0417B6813438B644FF0B0439A6C7B68E7
:1005E0001340FB60FB6800BF1437BD4680BC7047FA
:1005F00080B500AF0420FFF7E3FF0120FFF7E0FF25
:10060000002205210E2004F000F80E2004F017F857
:10061000022205210F2003F0F8FF0F2004F00FF84D
:1006200000220521112003F0F0FF112004F007F84B
:1006300002220521102003F0E8FF102003F0FFFF45
:1006400000BF80BD80B485B000AF78604FF0B0438C
:10065000DA6C4FF0B0417B681343CB644FF0B0438A
:10066000DA6C7B681340FB60FB6800BF1437BD4643
:1006700080BC704780B586B000AF3B1D00221A6079
:100680005A609A60DA601A610220FFF7DBFF0120EE
:10069000FFF7D8FF0420FFF7D5FF00224FF4E271E7
:1006A0000A4804F0F7FD4FF4E2737B600123BB605E
:1006B0000023FB6000233B613B1D1946034804F007
:1006C00089FC00BF1837BD4680BD00BF000400484C
:1006D00080B483B000AF78604FF0B043D3F890306F
:1006E00023F018024FF0B0417B681343C1F89030FB
:1006F00000BF0C37BD4680BC704780B500AF03F02B
:100700009DFE00F00BF8FFF7B5FF09F0FFF9FFF7CA
:1007100025FF09F02DFA00BFFDE7000080B59AB073
:1007200000AF07F1200348220021184610F0CCFE4C
:1007300007F1080300221A605A609A60DA601A61B1
:100740005A6104F0BFFD0020FFF7C2FF264B1B6873
:1007500023F4C063244A43F400731360224B1B68E4
:1007600003F4C0637B607B6805233B624FF48033F6
:100770007B628123FB620023BB620223FB640323B1
:100780003B6510237B650923BB654FF40033FB6594
:100790004FF080437B664FF000733B6607F1200308
:1007A000184605F039F80346002B01D000F01EF87A
:1007B0004F23BB600323FB6000233B6100237B616D
:1007C0000023BB610023FB6107F1080302211846E7
:1007D00005F0A4FB0346002B01D000F007F800BF92
:1007E0006837BD4680BD00BF0004005880B400AF2C
:1007F00072B600BF00BFFDE780B400AF4FF0B0435A
:10080000D3F890304FF0B04243F40043C2F8903038
:1008100000BFBD4680BC704780B485B000AF786033
:100820004FF0B0439A6D4FF0B0417B6813438B6536
:100830004FF0B0439A6D7B681340FB60FB6800BFCC
:100840001437BD4680BC704780B58CB000AF3B1DEF
:100850002C220021184610F037FE224B224A1A6043
:10086000204B1F229A601F4B00221A611D4B002251
:100870005A611C4B00229A611A4B4FF08042DA6198
:10088000184B00221A62174B4FF480725A621548B7
:1008900006F000F80346002B01D0FFF7A7FF114830
:1008A00006F0F6FA0346002B01D0FFF79FFF002366
:1008B0003B620023BB600023BB614FF00053FB6130
:1008C0004FF48073FB623B1D00221946054806F079
:1008D00063F80346002B01D0FFF788FF00BF3037D5
:1008E000BD4680BD480500200028004080B590B07E
:1008F00000AF786007F1080338220021184610F095
:10090000E3FD7B681B68164A934225D14FF4803380
:10091000BB604FF48073FB6307F10803184605F0D2
:100920009FFE0346002B01D0FFF760FFFFF764FF37
:100930004FF48060FFF770FF00220521022003F0D2
:1009400064FE022003F07BFE002205212A2003F032
:100950005CFE2A2003F073FE00BF4037BD4680BD19
:100960000028004080B500AF00220F216FF0010089
:1009700003F04BFE00BF80BD80B400AF00BFFDE7B9
:1009800080B400AF00BFFDE780B400AF00BFFDE75B
:1009900080B400AF00BFFDE780B400AF00BFFDE74B
:1009A00080B400AF00BFBD4680BC704780B500AFCB
:1009B000024806F0A9FA00BF80BD00BF480500202C
:1009C00080B500AF024804F02DF800BF80BD00BF25
:1009D0009407002080B500AF024804F023F800BF60
:1009E00080BD00BF5408002080B500AF024804F06D
:1009F00019F800BF80BD00BF3407002080B500AFEC
:100A0000024804F00FF800BF80BD00BFF4070020CB
:100A100080B500AF024807F099F900BF80BD00BF64
:100A20009C05002080B500AF024807F08FF900BF99
:100A300080BD00BF6806002080B500AF024806F008
:100A400013F900BF80BD00BF4805002080B500AF8E
:100A5000024806F0C7FD00BF80BD00BF8005002032
:100A600080B485B000AF78604FF0B0435A6E4FF05D
:100A7000B0417B6813434B664FF0B0435A6E7B68BE
:100A80001340FB60FB6800BF1437BD4680BC704755
:100A900080B500AF064B08221A60054806F020FB1F
:100AA0000346002B01D0FFF7A1FE00BF80BD00BFB1
:100AB0008005002080B582B000AF78600120FFF78C
:100AC000CFFF00220521322003F09FFD322003F0EA
:100AD000B6FD00BF0837BD4680BD80B483B000AF0F
:100AE00078604FF0B0439B6823F400424FF0B04170
:100AF0007B6813438B6000BF0C37BD4680BC7047DA
:100B000080B500AF0020FFF7E8FF0FF06DFD0A4B46
:100B100001221A7000F07CF80FF066FB07480FF016
:100B20007FFB00200FF08AFB0FF042FC0121012027
:100B30000FF07EFC00BF80BD8C050020410B00083B
:100B400080B586B002AF7860396007F108031846B7
:100B50000FF012FDBB68B7F90C200092074A102174
:100B6000786800F015F87868FFF70AFB03469AB238
:100B70003B681A8000BF1037BD4680BD542E010867
:100B800080B500AF002102200FF022FC00BF80BD25
:100B90000CB480B584B000AF7860396007F11C03F5
:100BA000FB603968FB68BA69786810F0C1F800BF6B
:100BB0001037BD46BDE8804002B0704780B483B0B6
:100BC00000AF7860002318460C37BD4680BC7047E4
:100BD00080B582B000AF00237B60064B1B78002BF2
:100BE00002D000F09DF978607B6818460837BD4652
:100BF00080BD00BF8C05002080B582B000AF78605A
:100C00007B68184600F013FA00BF0837BD4680BD68
:100C100080B500AF03F032FC03F036FC03F03AFC81
:100C200000BF80BD80B400AF01231846BD4680BC24
:100C3000704780B582B000AF7860396010F044FD35
:100C4000034616221A604FF0FF3318460837BD4698
:100C500080BD80B582B000AF78604FF0FF3178681A
:100C6000FFF7E7FF00BFFDE780B586B000AFF86093
:100C7000B9607A6000237B610AE0AFF3008001462F
:100C8000BB685A1CBA60CAB21A707B6901337B61B7
:100C90007A697B689A42F0DB7B6818461837BD4654
:100CA00080BD80B586B000AFF860B9607A6000237F
:100CB0007B6109E0BB685A1CBA601B781846AFF329
:100CC00000807B6901337B617A697B689A42F1DB42
:100CD0007B6818461837BD4680BD80B483B000AF2E
:100CE00078604FF0FF3318460C37BD4680BC704724
:100CF00080B483B000AF786039603B684FF4005235
:100D00005A60002318460C37BD4680BC704780B43B
:100D100083B000AF7860012318460C37BD4680BC15
:100D2000704780B485B000AFF860B9607A60002386
:100D300018461437BD4680BC7047000080B586B0A9
:100D400000AF7860144A154BD31A7B617B693B6115
:100D5000134B1B68002B02D1114B124A1A60104B27
:100D60001A687B6813443A699A4207D210F0ACFCC7
:100D700003460C221A604FF0FF3309E0084B1B6852
:100D8000FB60074B1A687B681344054A1360FB68D5
:100D900018461837BD4680BD00000120000800003D
:100DA000900500200000001080B483B000AF786090
:100DB0007B689B6818460C37BD4680BC70470000B6
:100DC00080B582B000AF0023FB71144B1B7883F019
:100DD0000103DBB2002B1BD0114B4FF0FF321A6323
:100DE000FFF732FD00F056F84FF480710C4805F023
:100DF000DFFE0B4B4FF0FF321A63094806F016F87E
:100E0000002000F0D3F900F05FF8044B01221A70C3
:100E1000FB7918460837BD4680BD00BF9405002009
:100E20004805002080B58EB000AF7860002387F8B9
:100E3000373007F108032C220021184610F044FB3C
:100E400000F028F8114B1B687A6813447B6000237C
:100E50007B627B68DB43FB600023FB614FF0005348
:100E60003B624FF480733B6307F10803012219468C
:100E7000074805F091FD0346002B01D0FFF7B6FCB3
:100E800097F8373018463837BD4680BD98050020A2
:100E90004805002080B582B000AF0023FB71084BED
:100EA0000122DA654FF48071064805F081FE054B9A
:100EB0004FF0FF321A63FB7918460837BD4680BDF4
:100EC000002800404805002080B500AF00F08EF9F2
:100ED0000346034A1360024B1B68184680BD00BFDF
:100EE0009805002080B400AF024B1B681846BD4631
:100EF00080BC70479805002080B582B000AF002309
:100F00007B6000F073F90246044B1B68D31A7B60C8
:100F10007B6818460837BD4680BD00BF9805002095
:100F200080B582B000AF00237B60064B1B78002B9E
:100F300002D000F05BF978607B6818460837BD4640
:100F400080BD00BF9405002080B483B000AF0023B3
:100F50007B6003237B607B6818460C37BD4680BCF2
:100F60007047B0B584B000AF78600021F96079684F
:100F700000200A460346950D94024FF47A724FF012
:100F8000000320462946FFF753F902460B46134655
:100F9000FB60FB6818461037BD46B0BD2DE9B00FA9
:100FA00085B000AF78600021F960796800200C46B8
:100FB0000546204629464FF0000A4FF0000B4FEA45
:100FC000411B4BEAD06B4FEA401A50465946021B70
:100FD00061EB05034FF000004FF00001990041EA7A
:100FE0009271900002460B4612EB040843EB050990
:100FF0004FF000024FF000034FEAC90343EA587371
:101000004FEAC80290469946404649464FF00002D2
:101010004FF00003820A42EA81528B0A1346FB60BA
:10102000FB6818461437BD46BDE8B00F704780B561
:1010300084B000AF78607868FFF793FFF86000F045
:10104000D5F8B86000E000BF00F0D0F80246BB68F9
:10105000D31AFA689A42F6D800BF00BF1037BD46CF
:1010600080BD80B582B000AF78600FF00BFC00BF90
:101070000837BD4680BD80B584B000AF786000F011
:10108000A5F8F860FB680133184600F08FF800BF40
:101090001037BD4680BD2DE9B04F8CB000AF7861F0
:1010A0000023FB6200F0A2F8B86200F08FF87862CB
:1010B0007B6A0022BB60FA604FF000024FF0000331
:1010C000B9680B000022B96A00200C46054612EBF5
:1010D000040843EB0509C7E90689D7E906014FF083
:1010E00000024FF00003820A42EA81528B0A134643
:1010F000FB62BB6900223B607A603B68C3F3090A6C
:101100004FF0000BC7E906ABBB691846FFF746FF77
:1011100003469AB27B691A80FB6A18463037BD468F
:10112000BDE8B08F80B582B000AF78607A680021EA
:10113000034805F00DFF00BF0837BD4680BD00BF66
:101140004805002080B582B000AF78607A68012140
:10115000034805F0FDFE00BF0837BD4680BD00BF57
:101160004805002080B582B000AF00237B600021DD
:10117000044805F005FF78607B6818460837BD46CF
:1011800080BD00BF4805002080B582B000AF0023BD
:101190007B600121044805F0F3FE78607B68184607
:1011A0000837BD4680BD00BF4805002080B582B02D
:1011B00000AF78607A680221034805F0C9FE00BFDD
:1011C0000837BD4680BD00BF4805002080B582B00D
:1011D00000AF0221044805F0D3FE78607B68184612
:1011E0000837BD4680BD00BF4805002080B582B0ED
:1011F00000AF0B48FFF7D8FD786003E00848FFF721
:10120000D3FD78600648FFF7CFFD02467B68934226
:10121000F4D17B68DB4318460837BD4680BD00BF6C
:101220000028004080B485B000AF78604FF0B04334
:10123000DA6C4FF0B0417B681343CB644FF0B0439E
:10124000DA6C7B681340FB60FB6800BF1437BD4657
:1012500080BC704780B485B000AF78604FF0B04379
:101260009A6D4FF0B0417B6813438B654FF0B043EC
:101270009A6D7B681340FB60FB6800BF1437BD4666
:1012800080BC704780B485B000AF78604FF0B04349
:101290001A6E4FF0B0417B6813430B664FF0B043BA
:1012A0001A6E7B681340FB60FB6800BF1437BD46B5
:1012B00080BC704780B500AF224B234A1A60214B97
:1012C0004FF4E1325A601F4B00229A601D4B0022FE
:1012D000DA601C4B00221A611A4B0C225A61194B1E
:1012E00000229A61174B0022DA61164B00221A6223
:1012F000144B00225A62134B00229A62114806F0E6
:101300003BFB0346002B01D0FFF770FA00210D488C
:1013100008F0F9F90346002B01D0FFF767FA002126
:10132000084808F02EFA0346002B01D0FFF75EFABA
:10133000044808F0B0F90346002B01D0FFF756FA35
:1013400000BF80BD9C0500200038014080B500AF83
:10135000224B234A1A60214B4FF4E1325A601F4B53
:1013600000229A601D4B0022DA601C4B00221A6199
:101370001A4B0C225A61194B00229A61174B00221A
:10138000DA61164B00221A62144B00225A62134B88
:1013900000229A62114806F0EFFA0346002B01D0B2
:1013A000FFF724FA00210D4808F0ADF90346002BA1
:1013B00001D0FFF71BFA0021084808F0E2F90346C4
:1013C000002B01D0FFF712FA044808F029F9034670
:1013D000002B01D0FFF70AFA00BF80BD680600208D
:1013E0000044004080B596B000AF786007F1440338
:1013F00000221A605A609A60DA601A6107F10C03E1
:1014000038220021184610F05FF87B681B688B4A71
:10141000934240F085800123FB604FF440333B61F1
:1014200007F10C03184605F01BF90346002B01D009
:10143000FFF7DCF94FF48040FFF724FF0120FFF7AE
:10144000F1FE4FF4C0637B640223BB640023FB64A2
:1014500003233B6507237B6507F1440319464FF0DF
:10146000904003F0B7FD764B764A1A60744B122217
:101470005A60734B10229A60714B0022DA60704BF5
:1014800080221A616E4B00225A616D4B00229A61D4
:101490006B4B0022DA616A4B00221A62684803F043
:1014A000DDF80346002B01D0FFF7A0F97B68644A02
:1014B000DA67634A7B689362634B644A1A60624BE3
:1014C00011225A60604B00229A605F4B0022DA6062
:1014D0005D4B80221A615C4B00225A615A4B0022FC
:1014E0009A61594B0022DA61574B4FF480521A62CD
:1014F000554803F0B3F80346002B01D0FFF776F907
:101500007B68514AC3F880204F4A7B68936200226F
:101510000521242003F079F8242003F090F888E0D6
:101520007B681B684A4A934240F083800223FB6039
:101530004FF440237B6107F10C03184605F090F847
:101540000346002B01D0FFF751F94FF40030FFF7AD
:1015500081FE0120FFF766FE0C237B640223BB643F
:101560000023FB6403233B6507237B6507F14403EA
:1015700019464FF0904003F02DFD364B364A1A6065
:10158000344B14225A60334B10229A60314B0022A4
:10159000DA60304B80221A612E4B00225A612D4BAB
:1015A00000229A612B4B0022DA612A4B00221A6238
:1015B000284803F053F80346002B01D0FFF716F933
:1015C0007B68244ADA67234A7B689362234B244A68
:1015D0001A60224B13225A60204B00229A601F4B44
:1015E0000022DA601D4B80221A611C4B00225A61D6
:1015F0001A4B00229A61194B0022DA61174B4FF403
:1016000080521A62154803F029F80346002B01D0D6
:10161000FFF7ECF87B68114AC3F880200F4A7B681B
:10162000936200220521252002F0EFFF252003F020
:1016300006F800BF5837BD4680BD00BF00380140E6
:10164000340700206C000240F407002080000240B4
:101650000044004094070020580002405408002035
:101660004400024080B483B000AF78600023184685
:101670000C37BD4680BC704780B400AF00231846CD
:10168000BD4680BC704780B483B000AF78600B4625
:101690007B80002318460C37BD4680BC704780B461
:1016A00083B000AF7860002318460C37BD4680BC7D
:1016B000704700000D48854602F090FE0C480D4929
:1016C0000D4A002302E0D458C4500433C4188C429D
:1016D000F9D30A4A0A4C002301E013600432A24203
:1016E000FBD30FF0F7FFFFF708F8FEE7000001203B
:1016F0000000002028010020A03901082801002056
:1017000018DD0020FEE780B500AFFFF7F9F902F021
:10171000B1F800BF80BD80B483B000AF78607B6853
:10172000D3E90023104619460C37BD4680BC7047EC
:1017300090B587B000AFF860B9601346FB80002316
:10174000FB8210E0FB8ADB00BA68D418F868FFF768
:10175000E2FF02460B46C4E90023FB680833FB6046
:10176000FB8A0133FB82FA8AFB889A42EAD300BFE4
:1017700000BF1C37BD4690BD80B58AB000AFF86091
:10178000B9601346FB8000233B620023FB842FE0FB
:10179000BB6803F10802BA60D3E90023C7E9062356
:1017A00003F0F4FAD7E90623F968012003F0AAFA56
:1017B0000346FB7503F00CFBFB7D002B12D003F0FE
:1017C00021FB386203F0E2FA4FF47A7003F024FB55
:1017D000D7E90623F968012003F094FA0346FB7564
:1017E00003F0F6FAFB680833FB60FB8C0133FB84E3
:1017F000FA8CFB889A42CBD300BF00BF2837BD4686
:1018000080BD000080B588B000AFF860B9601346B5
:10181000FB80FB68B3F1006FC0F08480FB68444A32
:1018200093427FD8FB6803F178433B613B69DB0A55
:10183000FB613B69C3F30A03DB087B837B8BC3F546
:1018400080733B83FA883B8B9A4201D8FB883B83A9
:10185000FB6903F58033DB024FF48072354918468B
:10186000FFF766FFFA8A3B8B9A4234D203F08EFA76
:10187000314B4CF2FA321A61F86903F093FB022003
:101880000AF092F82C4B5B692B4A23F47E7323F009
:101890000203536103F09CFA0023FB8210E0FB8AF1
:1018A000DB00BA681344F98A7A8B1144D3E9002328
:1018B0002048C9000144C1E90023FB8A0133FB82AF
:1018C000FA8A3B8B9A42EAD33B8B1A46B968F8688E
:1018D000FFF752FF05E03B8B1A46B968F868FFF73F
:1018E0004BFFFA883B8B9A421ED0FB690133FB61A8
:1018F00000237B833B8BDB00BA681344BB603B8BCC
:10190000FA681344FB60FA883B8BD31AFB80FB8890
:10191000B3F5807F03D94FF480733B8398E7FB884E
:101920003B8395E700BF00E000BF2037BD4680BD88
:10193000FFFF0308B80800200040005880B5A4B09D
:1019400000AFF860B9601346FB7107F11403682219
:10195000002118460FF0B8FD0123C7F88C30002392
:10196000C7F8883018E097F90730D7F88C209A42EA
:101970000CD0D7F888305A1CC7F88820D7F88C20AC
:1019800052B290333B4403F87C2C00E000BFD7F800
:101990008C300133C7F88C30D7F88C20BB689A4262
:1019A000E1DD0AF053F9034618460FF0C9FBBB68A6
:1019B000013BC7F8843032E00FF0F0FB0346D7F864
:1019C000842093FBF2F2D7F8841001FB02F29B1AF9
:1019D000DBB20133DBB287F87F3007F11402D7F8AE
:1019E000843013441B7887F87E3097F97F3090332A
:1019F0003B4413F97C1C07F11402D7F884301344DC
:101A00000A461A7097F97F3090333B4497F87E204E
:101A100003F87C2CD7F88430013BC7F88430D7F822
:101A20008430002BC8DCFB68002B06D0BA6807F1B5
:101A300014031946F8680FF074FE0023C7F88030CD
:101A400015E0D7F880200F4B83FB02131911D31731
:101A5000CB1A322101FB03F3D31A002B02D105204C
:101A600009F0A2FFD7F880300A33C7F88030D7F8E2
:101A70008020BB689A42E4DB00BF00BF9037BD46C0
:101A800080BD00BF1F85EB5180B584B000AF78608A
:101A900039607B68BB600023FB6012E0FA680D4B85
:101AA00083FB02131911D317CB1A322101FB03F365
:101AB000D31A002B02D1012009F076FFFB680A330C
:101AC000FB60FA683B689A42E8DB00BF00BF103752
:101AD000BD4680BD1F85EB5180B582B000AF0023AD
:101AE0003B600E4B19683B4601220D480BF06EF926
:101AF00078607B68002B0AD03B68002B07D0094B2D
:101B00004FF080521A60BFF34F8FBFF36F8F064BB9
:101B1000DB6A984700BF0837BD4680BDA01900208A
:101B2000EFA0000804ED00E05436010880B586B04F
:101B300000AFF860084611461A4603467B810B4603
:101B40003B811346FB7100233B61304B9B69012BAA
:101B500005D17B891A46F9682D4801F0B1FD2D4A5F
:101B60003B8913802C4AFB7913707B89FF2B28BF9C
:101B7000FF239BB21A46294B5A60284B04221A6055
:101B80007B89FF2B28BFFF239BB21A46F9682448A4
:101B90000FF0C7FD1D4B5B6E002B04D1214B5B6B1F
:101BA0004FF4FA609847194B5B6E012B0AD1002362
:101BB0003B611D4B196807F1100304221B480BF011
:101BC00005F978611A4B1B68184609F03DFC03467D
:101BD000002B16D1164B186807F1100200230F498D
:101BE00009F080F978617B69002B0AD03B69002BF2
:101BF00007D0104B4FF080521A60BFF34F8FBFF3E6
:101C00006F8F00BF1837BD4680BD00BFB8100020E1
:101C10007C1A0020781A00207A1A0020901A0020DE
:101C2000981A002054360108A0190020EFA00008DF
:101C30009819002004ED00E080B400AF034B0122AE
:101C40001A6000BFBD4680BC704700BF6C1A002000
:101C500080B582B000AF00237B600E4B01221A607A
:101C60000D4B1B68002B11D00B4B19683B1D082234
:101C70000A480BF0ABF87B68002B07D0084B4FF0FD
:101C800080521A60BFF34F8FBFF36F8F00BF0837CA
:101C9000BD4680BD701A0020A0190020EFA00008EA
:101CA00004ED00E080B582B000AF00237B60134BF1
:101CB00001221A60124B5B6E002B04D1114B5B6B3F
:101CC0004FF4FA609847104B1B68002B11D00E4B55
:101CD00019683B1D10220D480BF078F87B68002B2B
:101CE00007D00B4B4FF080521A60BFF34F8FBFF3FA
:101CF0006F8F00BF0837BD4680BD00BF741A00203B
:101D0000B810002054360108A0190020EFA00008E8
:101D100004ED00E080B400AF024B1846BD4680BC25
:101D2000704700BFB810002080B500AF0A4B0B4AC7
:101D30001A60094B0A4A9A60074B0A4A5A60064BD6
:101D4000094ADA60044B094A1A61094B1B680248C8
:101D500098470023184680BD501A0020D91A000861
:101D60002D1B0008391C0008511C0008A51C000888
:101D70005436010890B58FB00AAFF860B9607A6048
:101D8000FB70144BDB68F8689847124BDC6997F9D5
:101D900020107B6A089300230793002306930023F7
:101DA0000593012304930023039306230293FB78F6
:101DB00001937B680093BB6800220120A047054B7C
:101DC0005B6DFF2101209847002318461437BD465C
:101DD00090BD00BF5436010890B58FB00AAFF860CF
:101DE000B9607A60FB70164BDB68F8689847144B53
:101DF0009C69FB7801220992002208920022079236
:101E000000220692012205920022049200220392EF
:101E10000522029206220192002200927A68B96895
:101E20000120A047064B5B6DFF2101209847044B22
:101E30005B6B386A9847002318461437BD4690BD3F
:101E40005436010880B483B000AF78607B68074ADD
:101E5000934205D97B68064A934201D8012300E0EA
:101E6000002318460C37BD4680BC7047806DC335D3
:101E7000FF27503780B487B000AF78607B68254A71
:101E8000A2FB03239B093B613B69224AA2FB03128D
:101E900092094FF47A7101FB02F29B1AFB60002356
:101EA0007B61FB68F92B02D87D237B6123E0FB6813
:101EB000F92B07D9FB68B3F5FA7F03D240F2771309
:101EC0007B6118E0FB68B3F5FA7F08D3FB6840F24A
:101ED000ED22934203D840F271237B610BE0FB6853
:101EE00040F2ED22934206D9FB68B3F57A7F02D225
:101EF00040F26B337B613A697B6913444FF47A7229
:101F000002FB03F33B613B6918461C37BD4680BCAE
:101F1000704700BFD34D621080B582B000AF7860CB
:101F2000294B1B680133284A13607B681C221A6006
:101F30007B680A225A74244B1A687B68DA607B68D3
:101F4000224A5A60224B1B69DAB27B681A747B689A
:101F500003F112001E4B1A6913469B0013445B00E9
:101F600020331B4A13440A2219460FF0DAFB184BA0
:101F70001A6913469B0013445B002033144A9818D7
:101F80007B681733052219460FF0CBFB104B1A69FB
:101F900013469B0013445B00053320330C4A98180A
:101FA0007B681233052219460FF0BBFB7B681B6868
:101FB0001946786801F034FC02467B68DA6100BF9C
:101FC0000837BD4680BD00BFB41B0020EDFEEDFE0E
:101FD000A819002080B485B000AF78600023FB739F
:101FE0007A680A4B13440A4AA2FB03239B09BB608D
:101FF000BB68074AA2FB03231B09FB7397F90F3049
:1020000018461437BD4680BC704700BF80923CCA5A
:10201000D34D621080B485B000AF7860094A7B6808
:102020001344123393F90030FB60FB68064A03FB4C
:1020300002F2064B1344BB60BB6818461437BD461A
:1020400080BC7047301A002090D00300C855C535B9
:1020500080B483B000AF0023FB711C4B1A681C4B8B
:102060001B689A4229D1194BDA69194BDB699A42EC
:1020700023D1164B1A6B164B1B6B9A421DD1134B77
:102080009A6C134B9B6C9A4217D1104BDA6C104B25
:10209000DB6C9A4211D10D4B1A6D0D4B1B6D9A42A0
:1020A0000BD10A4B5A6D0A4B5B6D9A4205D1074B17
:1020B000DA6D074BDB6D9A4201D00123FB71FB798E
:1020C00018460C37BD4680BC704700BF2011002069
:1020D000B810002080B592B002AF0523FB63022345
:1020E000BB6301237B63644B1B6B7B624FF0FF334D
:1020F0003B630023FB620CE0604AFB6A52F833301A
:102100007A6A9A4202D1FB6A3B6305E0FB6A0133BB
:10211000FB62FB6A022BEFDD3B6BB3F1FF3F12D09A
:10212000564A3B6BDB0013441B79BB63534A3B6B42
:10213000DB0013445B79FB63504A3B6BDB001344C9
:102140009B797B6303E04C4B4FF416421A634A4B76
:102150009B69002B03D0484B9B6B032B74D100234E
:10216000BB62454BDB69002B23D1434B9B6CBB62AD
:10217000414BDA6D3B1D424918460FF011F93B1DEA
:102180001846FDF7FDFF03469AB23B1D114618465F
:1021900001F0C0FB7B6BDAB2374BDB6D5BB242F216
:1021A0001071019100931346FA6BB96BB86AFFF78F
:1021B000E1FD314BDB69012B0CD12F4BDB6CBB629A
:1021C0007B6BDBB24FF4FA620092FA6BB96BB86AC0
:1021D000FFF702FEB86AFFF735FE0346002B30D04A
:1021E000254B01225A66B86AFFF744FE0346254A8A
:1021F0001360244ABB6B5360224AFB6B93607B6B7A
:10220000DAB2204B1A731F4B00221A611D4B0022B9
:102210005A611C4B00229A61B86AFFF7DBFE034645
:102220001A46184BDA61174B1B68184600F032F853
:10223000144BDB695BB21A4665211348FFF77EFB3E
:1022400002E00D4B00225A66FFF702FF0346002B07
:102250000CD00E4A084B1046194668231A460FF058
:1022600060FA0D2209490A48FFF7CCFA0023184604
:102270004037BD4680BD00BFB81000206C3101085A
:10228000602E0108A8190020C81900202011002084
:1022900000E80308B0B58CB00AAF78602A4B5B6EDB
:1022A000012B4DD1284BDB69002B23D1274BDB6859
:1022B00078689847254BDC69234BDB6D59B2244B7A
:1022C0005868234B9B68224A127B42F2107508958E
:1022D00000250795002506950025059501250495FF
:1022E00000250395062502950192009303460022DE
:1022F0000120A047144BDB69012B21D1134BDB6874
:1023000078689847114B9C69114B5968104B9A6833
:102310000F4B1B7B012009900020089000200790A4
:1023200000200690012005900020049000200390DA
:102330000520029006200190002000900120A04777
:1023400000BF0837BD46B0BDB810002054360108A4
:10235000A819002080B584B002AF78600022042163
:10236000074802F097FF0023009300230022032177
:1023700078680AF0F3F900BF0837BD4680BD00BF9A
:102380000004004880B582B000AF786000220421CC
:10239000034802F07FFF00BF0837BD4680BD00BF85
:1023A0000004004880B582B002AF104B00930023B8
:1023B00000225A2100200AF073F903460C4A1360E8
:1023C000002300930B4B00224FF0FF310A480EF020
:1023D0001BF94FF4C87108480EF02AFA00220421B4
:1023E000064802F057FF00BFBD4680BD55230008D8
:1023F000981B0020852300089C1B00200004004837
:1024000090B583B002AF104B1B6818460AF0B4FCBD
:102410000346002B13D1012204210C4802F03AFF9D
:102420000B480EF027F9084B1C6809F00FFC024618
:10243000002300930023012120460AF08FF900BFFA
:102440000437BD4690BD00BF981B00200004004823
:102450009C1B002080B586B002AF786039600523F0
:10246000FB60074B1868FB68009300230122796822
:1024700007F0A6FCB860BB6818461037BD4680BDA3
:10248000A0190020B0B5D2B000AF07F5A473A3F532
:10249000A27318600023C7F83431002387F847314E
:1024A0000023C7F840310023C7F83C31282009F049
:1024B0007BFAB64BDB69042B01D001F073FA4FF0C5
:1024C000FF33C7F830311E23C7F83031AF4B1B69DB
:1024D000002B07D0AD4B5B69002B03D1AB4BDB6905
:1024E000012B11D0AA4B1B68184608F079FE034651
:1024F0000A2B05D0A64B1B680021184608F0A8FA45
:102500000A2009F051FA7EE1A14B1B6807F1100186
:10251000D7F83021184608F081FD0346002B00F063
:10252000458107F5A473A3F59C735B68002BCDD0A0
:10253000964B5B6E012B40F0E88097F8473183F0B3
:102540000103DBB2002B00F0958007F5A473A3F51F
:102550009C735B68202B40F08D8007F110030833DB
:10256000C7F82831D7F828315B688A4A934240F08F
:102570008180D7F828311B681C2B7BD1864B1B68C8
:102580001C21184607F0EEFCD7F828311B681A46C4
:1025900007F1100308331146184601F041F9C7F856
:1025A0002401D7F828311B6807F1100208321344C0
:1025B0001B681A4607F5A473A3F59E731A6007F506
:1025C000A473A3F59E731B68D7F824219A421ED0EA
:1025D000724B1B68C7F83431714AD7F8283114465A
:1025E0001D460FCD0FC495E80F0084E80F00D7F803
:1025F0003401FFF74FFE6B4B5B6B4FF4FA6098476B
:102600000023C7F83C310023C7F84031FBE000232A
:10261000C7F84031012387F84731614AD7F828319C
:1026200014461D460FCD0FC495E80F0084E80F0037
:102630000023C7F83C31D7F83C01FFF7EBFCC7F8A3
:102640003401D7F83401FFF725FE564B5B6BC820E9
:102650009847D7F840310133C7F84031D7F83C31BB
:102660000133C7F83C314E4B5B7C19464E48FFF7AF
:102670000BFAC8E097F84731002B46D0D7F8403125
:102680000133C7F8403107F5A473A3F59C735B6869
:10269000FE2B15D8002387F84731404B1B68C7F83D
:1026A0003431202200213E480EF00EFFD7F83401CD
:1026B000FFF7F0FD3B4B5B6B4FF4FA60984724E06B
:1026C000D7F83C01FFF7A6FCC7F83401D7F83C3136
:1026D0000133C7F83C31D7F83C31092B0DDD2F4BC6
:1026E0001B68C7F83431D7F83401FFF7D3FD2D4B01
:1026F0005B6B4FF4FA60984707E0D7F83401FFF7B7
:10270000C9FD284B5B6BC8209847FFF779FE8023F3
:10271000C7F820310023C7F838312CE007F5A4733F
:10272000A3F59C735A68D7F83831D31AD7F820210B
:10273000934228BF1346C7F81C3107F11002D7F89F
:10274000383108331344C7F81831D7F81C319BB21D
:102750001946D7F8180100F0CFFED7F83831002B12
:1027600002D10520FEF748FAD7F83821D7F82031F2
:102770001344C7F8383107F5A473A3F59C735B685D
:10278000D7F838219A42C9D3A0E600BFB81000207C
:1027900098190020EDFEEDFEA0190020A8190020D8
:1027A000301A002054360108421A0020164B5B6E86
:1027B000012B7FF48BAE00211820FFF74BFEC7F8EA
:1027C0002C01D7F82C3103F01803002B3FF47EAE18
:1027D000202200210D480EF077FE0D4B1B68C7F834
:1027E0003431002387F847310023C7F83C310023F8
:1027F000C7F84031D7F83401FFF74CFD054B5B6B50
:102800004FF4FA60984761E6B8100020301A0020B3
:10281000A81900205436010880B500AF074B0122EB
:102820005A61064B0022DA60142009F0BDF8034B10
:1028300000225A610023184680BD00BFB810002056
:1028400080B500AF054B01225A61044B0122DA60CA
:10285000142009F0A9F80023184680BDB810002004
:1028600080B5CCB000AF07F59873A3F596731860E8
:102870000023C7F80C310023C7F82C3107F59873F3
:10288000A3F5927318464FF480731A4600210EF098
:102890001BFE002387F82B310023C7F82431A84BF7
:1028A0001B69002B07D0A64B5B69002B03D1A44BFF
:1028B000DB69002B14D0A34B1B68184608F090FC72
:1028C0000346142B08D09F4B1B680021184608F0C4
:1028D000BFF89D4800F086FF0A2009F065F8ABE1DB
:1028E0009A4B1B68012B15D1954BDB69002B0BD143
:1028F000934B9B69012B07D1FFF7ECFB944B1B68B3
:102900000121184607F067FB904B00221A60022055
:1029100009F04AF88B4B1B6807F5867105221846AB
:1029200008F07CFBC7F82001874800F06BFFC7F870
:102930002C01834BDB68002B40F07681D7F82C31DB
:10294000002B00F07181D7F82C31002B69D07C4B23
:102950005B6E012B65D197F82B3183F00103DBB25D
:10296000002B5ED0012387F82B317A4B00225A616D
:102970007948FFF7D1FA012009F016F80A217748C3
:10298000FFF782F8734B1B690133724A1361714B75
:102990001B690A2B02D16F4B00221A616D4B1B6819
:1029A000C7F824316E4BDB68D7F82401984707F14C
:1029B0000C032022684918460EF0B3FE694B1B68D1
:1029C0000133694A136064210120FFF743FDC7F812
:1029D0001C01D7F81C3103F00103002B0DD001209E
:1029E00008F0E2FF5E4B9B6A07F10C0220211046C3
:1029F0009847082008F0D8FF09E0052008F0D4FF28
:102A0000574B9B6A07F10C02202110469847554B03
:102A10001B680133534A13604B4800F0F3FEC7F8BC
:102A20002C01D7F82C31FE2B40F2A28007F10C03C9
:102A3000FF221946444800F08BFEFFF7E1FCC82155
:102A40000120FFF707FDC7F814013D4B5B6E012B1A
:102A50001ED1404B5B691846FFF7DCFAC7F824012A
:102A60003F4BDB68D7F8240198473A4B5B69013349
:102A7000384A5361374B5B69092B09DD354B5B697C
:102A800019463A4800F0D2FD002387F82B31D3E0F5
:102A9000D7F8143103F00103002B0CD0314B1B6825
:102AA0000133314A13602E4B9B6A07F10C02FF2160
:102AB000104698471FE02B4B1B6801332A4A1360CE
:102AC00064210120FFF7C6FCC7F81001D7F81031C8
:102AD00003F00103002B07D1214B9B6A07F10C0285
:102AE000FF211046984706E01D4B9B6A07F10C0238
:102AF000FF2110469847124B1B6BB3F5964F03D13D
:102B00000C2008F051FF15E00D4B1B6BB3F5164F71
:102B100003D1082008F048FF0CE0094B1B6B4FF273
:102B20002442934203D1052008F03EFF02E00A2030
:102B300008F03AFF0B4B1B6801330A4A13607AE036
:102B4000B81000209C190020881100206C1A002069
:102B5000A0190020A8190020301A0020421A0020D5
:102B600054360108A41900208C1A0020702E010888
:102B7000D7F82031002B5ED1D7F82C31002B5AD05A
:102B8000D7F82C31FE2B56D82C4B5B6E012B29D15C
:102B9000D7F82C31C7F81831032008F005FF284872
:102BA00000F030FEC7F82C01D7F82C21D7F81831E7
:102BB0009A4207D9D7F82C21D7F81811214800F0EC
:102BC00035FD39E0204B5B691846FFF723FAC7F85B
:102BD0002401D7F82401FFF75DFB1B4B5B69013330
:102BE000194A5361002387F82B3107F10C03D7F8FA
:102BF0002C211946124800F0ABFD144B9B6AD7F804
:102C00002C21D1B207F10C0210469847104B1B68DB
:102C10000133104A1360082008F0C6FE0C4B1B68F5
:102C200001330B4A136006E0084BDB6A98470A2021
:102C300008F0BAFE33E600BF31E600BFB81000204E
:102C400088110020802E0108A819002054360108A0
:102C5000A41900208C1A002080B584B000AF7860E1
:102C60000B467B80134B1B69002B1DD0114BDB687F
:102C7000002B19D10F4BDB69002B15D17B881A462D
:102C800079680D4800F01CFD7B88FB600B4B1868D1
:102C900007F10C010023002208F022F80346002B64
:102CA00002D1074800F0C2FC002318461037BD4689
:102CB00080BD00BFB8100020881100209C190020A2
:102CC000A42E010880B584B002AF604B00221A61C7
:102CD0005E4B00225A6607F059F803465C4A1360BF
:102CE000FFF722F800224FF484710A2007F097FFC3
:102CF0000346584A136000220421142007F08FFF76
:102D00000346554A13604FF400625449544800F09A
:102D1000BBFC4FF400625149524800F0B5FC05205D
:102D200008F042FE002301933623009300234FF462
:102D300080624D494D4808F069FC7860052008F034
:102D400033FE002301933623009300234FF4806267
:102D50004749484808F05AFC78603D4B1B680421FD
:102D6000184607F038F93A4B1B680121184607F05E
:102D700032F9FFF717FB354B3F4A1A60334B0122FC
:102D80001A61324B00229A61304B01225A612F4B5B
:102D90000122DA602D4B0122DA612C4B374A9A640A
:102DA0002A4B364ADA64294BFA229A62274BFA22D6
:102DB000DA62264B4FF416421A63244B03225A63FD
:102DC000224B5B6B214A9363204B0A22DA650D226A
:102DD0002B492C48FEF7ACFC294B1B68264A934232
:102DE0000DD0274A194B1046194668231A460EF093
:102DF00098FC0D2222492348FEF704FD1BE0204BDE
:102E0000DB69124AD3611E4B9B6C104A93641C4BC6
:102E1000DB6C0E4AD3641A4B1B6B0C4A1363184BC2
:102E20005B6B0A4A5363164B9B6B084A9363144BC4
:102E3000DB6D064AD365054B0422DA61034B0122A0
:102E4000DA60002318460837BD4680BDB810002060
:102E5000A0190020981900209C190020981100202A
:102E6000881100207C1A0020B82E01086128000873
:102E7000C42E010885240008EFBEEDFEC0CA8936C5
:102E80002011002000E8030880B483B000AF786010
:102E9000064BD3F8802005497B681343C1F8803086
:102EA00000BF0C37BD4680BC704700BF000800580B
:102EB00080B5ACB000AF78600B467B800023FB6030
:102EC0007B88C7F8A43000237B6100233B61D7F8DF
:102ED000A430002B40F392807B681B68494A9342E0
:102EE00043D17B681B6F022B03D07B681B6F002BC9
:102EF0003BD10023C7F8AC302EE0D7F8A420D7F898
:102F0000AC30D31A802BA8BF8023C7F8A030D7F8E5
:102F1000AC303D4A9918D7F8A02007F110030833C8
:102F200018460EF0FEFBD7F8A0307B61374B1B68CC
:102F3000184608F089FA0346002B08D1334B18686D
:102F400007F10C0207F11001002307F0CBFFD7F8BF
:102F5000AC308033C7F8AC30D7F8AC20D7F8A43009
:102F60009A42CADB786800F099F87B681B68284AA7
:102F7000934243D17B681B6F022B03D07B681B6F8E
:102F8000002B3BD10023C7F8A8302EE0D7F8A420AF
:102F9000D7F8A830D31A802BA8BF8023C7F89C305D
:102FA000D7F8A8301B4A9918D7F89C2007F11003CE
:102FB000083318460EF0B5FBD7F89C307B61164BF2
:102FC0001B68184608F040FA0346002B08D1124B44
:102FD000186807F10C0207F11001002307F082FFC7
:102FE000D7F8A8308033C7F8A830D7F8A820D7F88A
:102FF000A4309A42CADB786800F050F800BFB037BE
:10300000BD4680BD00380140D01B0020B81B002009
:1030100000440040D4210020BC1B002080B584B0B7
:1030200000AF78600023BB607B681B68154A934241
:1030300008D1154B196807F108030122134809F05C
:10304000C5FEF8607B681B68114A934208D1114B9A
:10305000196807F1080302220C4809F0B7FEF8606E
:10306000FB68002B0AD0BB68002B07D00A4B4FF03F
:1030700080521A60BFF34F8FBFF36F8F00BF1037BE
:10308000BD4680BD00380140C01B0020EFA00008F5
:1030900000440040C41B002004ED00E080B584B073
:1030A00000AF78600123FB737B681B681F4A934263
:1030B00018D14FF4C0621E49786806F0A0FB0346A1
:1030C000FB737B68D3F88030002B0BD07B68D3F880
:1030D00080301B681A687B68D3F880301B6822F048
:1030E00004021A607B681B68124A934218D14FF49D
:1030F000C0621149786806F082FB0346FB737B6867
:10310000D3F88030002B0BD07B68D3F880301B685D
:103110001A687B68D3F880301B6822F004021A60BA
:10312000FB7B18461037BD4680BD00BF003801400C
:10313000D01B002000440040D421002080B5ACB05A
:1031400000AF78607B68D3F89030102B02D178689C
:10315000FFF7A4FF7B68D3F89030082B40F09D80E8
:103160000023C7F894307B681B684E4A934247D1CE
:103170007B68B3F85E309BB2C7F8A430D7F8A430B0
:10318000002B3ADD0023BB600023C7F8AC302EE0F3
:10319000D7F8A420D7F8AC30D31A802BA8BF80234F
:1031A000C7F8A030D7F8AC303F4A9918D7F8A0201C
:1031B00007F10803083318460EF0B3FAD7F8A03029
:1031C000FB603A4B1B68184608F03EF90346002B9B
:1031D00008D1364B186807F1940207F10801002363
:1031E00007F080FED7F8AC308033C7F8AC30D7F8A2
:1031F000AC20D7F8A4309A42CADB7868FFF74EFFBC
:103200007B681B682A4A934247D17B68B3F85E30DB
:103210009BB2C7F89C30D7F89C30002B3ADD0023D6
:10322000BB600023C7F8A8302EE0D7F89C20D7F861
:10323000A830D31A802BA8BF8023C7F89830D7F8BE
:10324000A8301C4A9918D7F8982007F108030833CA
:1032500018460EF066FAD7F89830FB60164B1B68DC
:10326000184608F0F1F80346002B08D1124B1868F5
:1032700007F1940207F10801002307F033FED7F8A5
:10328000A8308033C7F8A830D7F8A820D7F89C30EA
:103290009A42CADB7868FFF701FF00BFB037BD462E
:1032A00080BD00BF00380140D01B0020B81B0020AB
:1032B00000440040D4210020BC1B002080B5A8B0F1
:1032C00000AF78607B681B68C7F894300023C7F8AC
:1032D0009C300023C7F89830D7F89430012B04D0E5
:1032E000D7F89430022B07D00EE0294BC7F89C305A
:1032F000284BC7F898300BE0274BC7F89C30274B7A
:10330000C7F8983000BF03E0002008F0D9FA3CE08D
:10331000D7F89C301B6807F108014FF0FF321846C0
:1033200007F07CFE0346012BF2D1BB68012B03D9C9
:10333000033B012B25D827E0D7F898301B68002BDA
:1033400011D1FB68002B1ED000F0ECFF0346002BD0
:1033500019D0FB689AB207F10803083311461846E2
:10336000FFF77AFC0FE0FB68002B0CD0D7F8983001
:103370001B68FA6891B207F10802083210469847B4
:1033800001E000BFC4E700BFC2E7A037BD4680BD73
:10339000B81B0020C81B0020BC1B0020CC1B002039
:1033A00080B500AFFDF724F9FDF7D0FF4FF00060C6
:1033B000FFF76AFD00BF80BD80B500AFFDF718F9CB
:1033C000FDF778FF4FF08060FFF75EFD00BF80BD26
:1033D00080B582B002AF00228C21142007F01FFCC0
:1033E0000346174A136006F0D1FC0346154A1360E2
:1033F000FFF7E2FF134B1B680121184606F0EBFDB7
:1034000000230193372300930F4B4FF400620F49C1
:103410000F4808F0FBF80F4A01210F4804F00CFB9D
:103420000E490D4804F0C0FB0D4A04210A4804F07F
:1034300003FB0948FFF732FE00231846BD4680BD56
:10344000B81B0020C01B002084310108D02E0108C9
:10345000BD3200081D3000089C050020B12E000878
:103460003D31000880B582B002AF00228C211420CB
:1034700007F0D5FB0346174A136006F087FC0346A6
:10348000154A1360FFF78CFF134B1B680221184687
:1034900006F0A1FD00230193372300930F4B4FF457
:1034A00000620F490F4808F0B1F80F4A01210F4898
:1034B00004F0C2FA0E490D4804F076FB0D4A0421CF
:1034C0000A4804F0B9FA0948FFF7E8FD0023184656
:1034D000BD4680BDBC1B0020C41B002088310108F4
:1034E000DC2E0108BD3200081D30000868060020EF
:1034F000B12E00083D31000880B588B002AF786079
:103500000B467B8005233B610E4B18683B6900939B
:1035100000230122012106F053FCF8604FF0FF3335
:103520007B617B881A467968074804F07BFB034679
:10353000002B01D100237B617B6918461837BD46FB
:1035400080BD00BFC01B00209C05002080B483B05C
:1035500000AF7860044A7B681360002318460C377C
:10356000BD4680BC704700BFCC1B002080B588B032
:1035700002AF7860396005233B610F4B18683B69E7
:10358000009300230122022106F01AFCF8604FF09C
:10359000FF337B613B689BB21A467968074804F0A9
:1035A00041FB0346002B01D100237B617B69184658
:1035B0001837BD4680BD00BFC41B00206806002030
:1035C0000CB480B584B000AF7860396007F11C039B
:1035D000FB603968FB68BA6978680DF0A9FB00BF29
:1035E0001037BD46BDE8804002B0704780B586B058
:1035F00002AF7860396007F1080318460CF0BCFF91
:10360000BB68B7F90C200092074A10217868FFF7D1
:10361000D7FF7868FCF7B4FD03469AB23B681A807E
:1036200000BF1037BD4680BDE82E01080FB480B53D
:1036300084B000AF0023FB80BB1D19461148FFF783
:10364000D5FF07F11C03BB60FB881A460D4BD01851
:10365000BB68BA694FF480710DF06AFB0346FB81C9
:10366000FA88FB891344FB81FB891946054800F061
:1036700051F9FB8918461037BD46BDE8804004B0BB
:10368000704700BFD827002080B584B000AFF86035
:10369000B9607A6010220021F8680DF015FFFB6810
:1036A000BA68DA60FB6800229A60FB6800225A6000
:1036B000FB687A681A60002318461037BD4680BD43
:1036C00080B588B000AFF860B9607A60FB681A68AE
:1036D000FB689B68D21AFB685B681344FB617A68DD
:1036E000FB69934228BF13467B60FB689A68FB68BE
:1036F0001B68013B1340BB61FB681A68BB69D31AA6
:103700007A68934228BF13467B61FB68DA68BB691D
:1037100013447A69B96818460EF003F87A687B6931
:103720009A420AD9FB68D868BA687B69D1187A6866
:103730007B69D31A1A460DF0F4FFFB689A687B6820
:103740001A44FB689A607B6818462037BD4680BDE6
:1037500080B588B000AFF860B9607A60FB689A689D
:10376000FB685B68D31AFB61FB69002B01D1002366
:1037700034E07A68FB69934228BF13467B60FB689C
:103780005A68FB681B68013B1340BB61FB681A6801
:10379000BB69D31A7A68934228BF13467B61FB68E2
:1037A000DA68BB6913447A691946B8680DF0B9FF45
:1037B0007A687B699A420AD9BA687B69D018FB6833
:1037C000D9687A687B69D31A1A460DF0AAFFFB689C
:1037D0005A687B681A44FB685A607B681846203731
:1037E000BD4680BD80B483B000AF78607B680022A6
:1037F0005A607B685A687B689A6000BF0C37BD4688
:1038000080BC704780B483B000AF78607B689A68F2
:103810007B685B68D31A18460C37BD4680BC70477E
:1038200080B485B000AF786039600023FB6000236E
:10383000BB6012E0FB681B0223F07F42FB681B0C9D
:10384000B9687868014409784B40094951F8233038
:103850005340FB60BB680133BB60BA683B689A4267
:10386000E8DBFB6818461437BD4680BC704700BFD4
:103870008C31010880B500AF0A4B0B4A1A60094B26
:103880000A4A9A60074B0A4A5A60064B094ADA60AC
:10389000044B094A1A61094B1B680248984700BF4C
:1038A00080BD00BFD8280020C1380008CD380008EE
:1038B000F1380008FD3800080939000854360108BD
:1038C00080B400AF00BFBD4680BC704780B485B0F7
:1038D00000AFF860084611461A4603467B810B4646
:1038E0003B811346FB7100BF1437BD4680BC704757
:1038F00080B400AF00BFBD4680BC704780B400AF4D
:1039000000BFBD4680BC704780B400AF00BFBD465D
:1039100080BC704780B582B000AF78600B467B807A
:103920000A4B1B68002B06D17B8819467868FFF785
:10393000E3FD034605E07B8819467868FFF716FE2D
:10394000034618460837BD4680BD00BFF428002056
:1039500080B584B000AF786039603B68FB600E4989
:103960007A6813469B0013449B000B440C330222DD
:103970001A700A4A0A49F8680DF012FDFEF7AAFB10
:10398000FEF74AFFF868FCF7FBFBB860BB68184617
:103990001037BD4680BD00BFF8280020F42E010876
:1039A000082F010880B590B000AF3B4640220021AF
:1039B00018460DF089FD064B1B681A463B46194612
:1039C0001046FFF7C5FF00BF4037BD4680BD00BFB2
:1039D000F428002080B584B000AF786039600D4BCA
:1039E0001A680D4913469B0013449B000B440C338B
:1039F00000221A700323FB60FB689BB2194607483C
:103A0000FFF788FFFEF71CFF002318461037BD465E
:103A100080BD00BFF4280020F82800200C2F0108EA
:103A200080B584B000AF786039603B68FB600422E9
:103A3000124938680DF05EFD0346002B0ED0F86881
:103A4000FCF79EFB0246FB6813440D4918460DF037
:103A5000A7FCF868FCF794FB03460BE00023BB606F
:103A6000084A0949F8680DF09BFCF868FCF788FBE8
:103A7000B860BB6818461037BD4680BD102F0108DE
:103A8000182F0108242F01082C2F010880B586B0BB
:103A900000AF786039603B687B61FEF73BF93861C5
:103AA0003B69DB69FB603B69DB69FB60FA680649DF
:103AB00078690DF075FC7869FCF762FB03461846DF
:103AC0001837BD4680BD00BF402F010880B586B0C5
:103AD00000AF786039603B687B61FEF71BF93861A5
:103AE0000023FB6007F10C031A46174978690DF0B3
:103AF00079FC0346002B0FDA7869FCF741FB02469C
:103B00007B691344114A124918460DF049FC786943
:103B1000FCF736FB034612E07869FCF731FB0246FE
:103B20007B6913440B4A0A4918460DF039FCFB68BF
:103B30001A463B69DA617869FCF722FB03461846AE
:103B40001837BD4680BD00BF542F0108182F01084B
:103B5000082F0108642F010880B586B000AF786097
:103B600039603B687B61FEF7D5F838610023FB6064
:103B700007F10C031A46154978690DF033FC03462A
:103B8000002B0BDA7869FCF7FBFA02467B691344D9
:103B90000F4A104918460DF003FC0EE0FB681A4668
:103BA0003B699A617869FCF7EBFA02467B6913443A
:103BB000094A084918460DF0F3FB7869FCF7E0FA6A
:103BC000034618461837BD4680BD00BF6C2F01085C
:103BD000182F0108082F0108642F010880B584B050
:103BE00000AF786039603B68FB60FEF793F8B8601F
:103BF000BB689B691A460649F8680DF0D1FBF86866
:103C0000FCF7BEFA034618461037BD4680BD00BF1C
:103C10007C2F010880B586B000AF786039603B68C2
:103C20007B61FEF777F838610023FB6007F10C0336
:103C30001A46154978690DF0D5FB0346002B0BDABF
:103C40007869FCF79DFA02467B6913440F4A1049D4
:103C500018460DF0A5FB0EE0FB681A463B69DA65D5
:103C60007869FCF78DFA02467B691344094A0849D2
:103C700018460DF095FB7869FCF782FA0346184662
:103C80001837BD4680BD00BF902F0108182F0108CE
:103C9000082F0108642F010880B584B000AF786058
:103CA0003960FEF737F8F8603B68BB60FB68DB6D96
:103CB0001A460649B8680DF073FBB868FCF760FA5D
:103CC000034618461037BD4680BD00BF9C2F010833
:103CD00080B58AB002AF786039603B68FB61FEF75F
:103CE00019F8B86107F10C0107F1140207F1080394
:103CF000019307F1100300930B462049F8690DF07A
:103D000071FB0346002B0BDAF869FCF739FA02461F
:103D1000FB6913441A4A1B4918460DF041FB24E085
:103D20007B69194A03FB02F2FB684FF47A7101FBCD
:103D300003F313441A46BB699A643B69124A03FBB6
:103D400002F2BB684FF47A7101FB03F313441A4685
:103D5000BB69DA64F869FCF713FA0246FB6913449D
:103D60000A4A084918460DF01BFBF869FCF708FAE7
:103D7000034618462037BD4680BD00BFB02F01085E
:103D8000182F0108082F010840420F00642F010876
:103D9000B0B586B002AF78603960FDF7BBFFF86060
:103DA0003B68BB60FB689B6C1C4AA2FB03239B0C1B
:103DB0001C46FB689A6C194BA3FB02139B0C184919
:103DC00001FB03F3D31A174AA2FB03239B091D46E9
:103DD000FB68DB6C114AA2FB03239B0C1846FB68B3
:103DE000DA6C0E4BA3FB02139B0C0D4901FB03F392
:103DF000D31A0C4AA2FB03239B09019300902B4684
:103E000022460949B8680DF0CBFAB868FCF7B8F952
:103E1000034618461037BD46B0BD00BF83DE1B43C6
:103E200040420F00D34D6210CC2F010880B586B000
:103E300000AF786039603B687B61FDF76BFF3861EC
:103E40004FF4FA73BB604FF4FA73FB6007F1080399
:103E500007F10802164978690DF0C4FA0346002BF1
:103E60000BDA7869FCF78CF902467B691344114A36
:103E7000114918460DF094FA11E0BB681A463B69E7
:103E80009A62FA683B69DA627869FCF779F9024666
:103E90007B691344094A084918460DF081FA78698C
:103EA000FCF76EF9034618461837BD4680BD00BFC3
:103EB000EC2F0108182F0108082F0108642F0108B2
:103EC00080B584B000AF78603960FDF723FFF860FB
:103ED0003B68BB60FB689A6AFB68DB6A0549B868A7
:103EE0000DF05EFAB868FCF74BF903461846103738
:103EF000BD4680BDFC2F010880B586B000AF78605C
:103F000039603B687B61FDF705FF386107F10C0301
:103F10001A46154978690DF065FA0346002B0BDA4D
:103F20007869FCF72DF902467B6913440F4A104962
:103F300018460DF035FA0EE0FB681A463B691A6325
:103F40007869FCF71DF902467B691344094A084960
:103F500018460DF025FA7869FCF712F90346184661
:103F60001837BD4680BD00BF14300108182F010866
:103F7000082F0108642F010880B584B000AF786075
:103F80003960FDF7C7FEF8603B68BB60FB681B6BE0
:103F90001A460649B8680DF003FAB868FCF7F0F85D
:103FA000034618461037BD4680BD00BF20300108CB
:103FB00080B58AB000AFB9607B600346FB731346DF
:103FC000BB7300237B62FA7B13469B0013449B0068
:103FD000344A13443B623B6A1B69FB610023BB61AB
:103FE0003B6A1B7B022B17D12F49B8680DF0A2FA50
:103FF0000346002B0ED03B6A00229A603B6A5B6846
:104000001A460021F8690DF05FFAFB7BF969184642
:10401000FFF7E0FC002340E0BA7B3B6A9B681A4450
:104020003B6A5B689A420BD93B6A00229A603B6A02
:104030005B681A460021F8690DF046FA00232CE06F
:104040003B6A1A693B6A9B681344BA7BB968184695
:104050000DF067FB3B6A9B685A003B6A9A60134904
:10406000F8690DF067FAB8611149F8690DF062FA64
:1040700078617B69002B0FD0BB69002B0CD07A696B
:10408000BB69D31A02337B623B6A00229A607B6869
:10409000BA691A607B6A00E0002318462837BD46DB
:1040A00080BD00BFF82800200C2F01083430010823
:1040B0003830010880B485B000AF0346B9607A603B
:1040C000FB73BB68002B37D07B687F2B34D9FA7B1E
:1040D0001C4913469B0013449B000B441033BA68E1
:1040E0001A60FA7B174913469B0013449B000B444C
:1040F00004337A681A60FA7B124913469B00134412
:104100009B000B440C3300221A70FA7B0D491346B6
:104110009B0013449B000B4400221A60FA7B094960
:1041200013469B0013449B000B44083300221A6083
:10413000FB7B054A136000E000BF1437BD4680BC1E
:10414000704700BFF8280020F428002080B588B010
:1041500000AFF860B9607A603B600023FB61002328
:104160007B613B683B617B68402B02D94FF0FF339A
:1041700089E00023BB6181E04549BA6913469B0091
:1041800013449B000B441B78002B74D0BA69134670
:104190009B0013449B003E4A134401331946B86800
:1041A0000DF0C8F978617B69002B64D08022002172
:1041B00038690DF089F97A68B96838690DF0B1FA93
:1041C0003F21B8680DF088F90346002B22D0304912
:1041D000BA6913469B0013449B000B4410331B68C1
:1041E000002B48D02A49BA6913469B0013449B0010
:1041F0000B4410331B683969F86898470346FB6124
:10420000FB69002B37DDFB699BB219463869FFF764
:1042100081FB30E01E49BA6913469B0013449B00A2
:104220000B440C331B68002B17D01949BA6913468D
:104230009B0013449B000B440C331B683969F868DE
:1042400098470346FB61FB69002B14DDFB699BB2B9
:1042500019463869FFF75EFB0DE0BA690D49386908
:104260000DF09EF83869FBF78BFF03469BB21946A9
:104270003869FFF74FFBBB690133BB61BB69082B92
:104280007FF77AAFFB6918462037BD4680BD00BF77
:10429000000000203C30010880B586B000AF786097
:1042A0000B467B8000237B6100233B610023FB6086
:1042B000194B1B68002B29DB174B1B68D8B27B8876
:1042C000DAB207F10C037968FFF772FE03463B612F
:1042D0003B69002B1ADD3B69802B17DC8022002113
:1042E0000E480DF0F1F8802200210D480DF0ECF899
:1042F000FB683A69194609480DF013FA064B1B682A
:1043000018463A69064B0549FFF720FF7B691846B6
:104310001837BD4680BD00BFF428002020290020AA
:10432000A429002080B582B000AF0023FB710D4BA3
:104330001A680D4913469B0013449B000B440C3331
:104340001B78022B08D1FDF7E5FC38603B68DB6980
:10435000002B01D10123FB71FB7918460837BD46BC
:1043600080BD00BFF4280020F828002080B500AFF1
:1043700005F0FEFA0346184680BD80B582B000AF56
:104380000346FB71FB79184605F032FB03461846DD
:104390000837BD4680BD80B500AF05F089FB0346F8
:1043A000184680BD80B500AF05F089FB034618466E
:1043B00080BD80B500AF05F089FB0346184680BD7F
:1043C00080B582B000AF0346FB71FB79184605F05B
:1043D00084FB034618460837BD4680BD80B400AF55
:1043E00000BFBD4680BC704780B400AF044B5B6823
:1043F000034A23F00103536000BFBD4680BC7047F1
:10440000002004E080B400AF044B5B68034A23F053
:104410000203536000BFBD4680BC7047002004E02B
:1044200080B400AF044B5B68034A23F0040353607D
:1044300000BFBD4680BC7047002004E080B582B05C
:1044400000AF0023FB71032000F0D4F801F02AFF35
:104450000346094A13600F20FCF7B0FB0346002B0C
:1044600002D00123FB7101E0FCF77CFAFB791846CE
:104470000837BD4680BD00BFB400002080B500AF46
:10448000FFF7B2FF00BF80BD80B500AFFFF7BAFFF6
:1044900000BF80BD80B500AFFFF7C2FF00BF80BD89
:1044A00080B485B000AF78607B6803F00703FB60E1
:1044B0000C4BDB68BB60BA684FF6FF031340BB6070
:1044C000FB681A02BB68134343F0BF6343F4003335
:1044D000BB60044ABB68D36000BF1437BD4680BCD4
:1044E000704700BF00ED00E080B400AF044BDB6814
:1044F0001B0A03F007031846BD4680BC704700BF87
:1045000000ED00E080B483B000AF0346FB7197F983
:104510000730002B0BDBFB7903F01F02064997F9EC
:1045200007305B09012000FA02F241F8232000BFA6
:104530000C37BD4680BC704700E100E080B483B01A
:1045400000AF03463960FB7197F90730002B0ADB97
:104550003B68DAB20C4997F907301201D2B20B442A
:1045600083F800230AE03B68DAB20849FB7903F0DC
:104570000F03043B1201D2B20B441A7600BF0C3772
:10458000BD4680BC704700BF00E100E000ED00E0E8
:1045900080B489B000AFF860B9607A60FB6803F05E
:1045A0000703FB61FB69C3F10703042B28BF042346
:1045B000BB61FB690433062B02D9FB69033B00E0B6
:1045C00000237B614FF0FF32BB6902FA03F3DA4349
:1045D000BB681A407B699A404FF0FF317B6901FA52
:1045E00003F3D9437B680B40134318462437BD4679
:1045F00080BC704780B582B000AF78607868FFF704
:104600004FFF00BF0837BD4680BD80B586B000AF04
:104610000346B9607A60FB73FFF766FF78617A68DA
:10462000B9687869FFF7B4FF024697F90F30114671
:104630001846FFF783FF00BF1837BD4680BD80B521
:1046400082B000AF0346FB7197F907301846FFF7B9
:1046500059FF00BF0837BD4680BD000080B582B05D
:1046600000AF78607B68002B01D101238EE07B686E
:104670001B681A46474B9A420FD87B681B681A463C
:10468000454B1344454AA2FB03231B099A007B6850
:104690005A647B68424A1A640EE07B681B681A46BB
:1046A000404B13443D4AA2FB03231B099A007B683D
:1046B0005A647B683C4A1A647B68022283F825208E
:1046C0007B681B681B687A68126823F4FF4323F039
:1046D000700313607B681B6819687B689A687B6845
:1046E000DB681A437B681B691A437B685B691A4362
:1046F0007B689B691A437B68DB691A437B681B6A8A
:104700001A437B681B680A431A60786800F08EFAC7
:104710007B689B68B3F5804F02D17B6800225A60AA
:104720007B685A687B689B6C02F07F021A607B682A
:10473000DB6C7A68126D5A607B685B68002B10D066
:104740007B685B68042B0CD8786800F0B7FA7B684C
:104750005B6D00221A607B689B6D7A68D26D5A602F
:1047600008E07B6800225A657B6800229A657B68B6
:104770000022DA657B680022DA637B68012283F815
:1047800025207B68002283F8242000231846083760
:10479000BD4680BD07040240F8FFFDBFCDCCCCCCA8
:1047A00000000240F8FBFDBF0004024080B586B067
:1047B00000AFF860B9607A603B600023FB75FB686E
:1047C00093F82430012B01D1022369E0FB68012218
:1047D00083F82420FB6893F82530DBB2012B55D1F8
:1047E000FB68022283F82520FB680022DA63FB685D
:1047F0001B681A68FB681B6822F001021A603B689C
:104800007A68B968F86800F0D3F9FB681B6B002B75
:1048100008D0FB681B681A68FB681B6842F00E0230
:104820001A600FE0FB681B681A68FB681B6822F0BF
:1048300004021A60FB681B681A68FB681B6842F078
:104840000A021A60FB689B6C1B6803F48033002B20
:1048500007D0FB689B6C1A68FB689B6C42F4807203
:104860001A60FB685B6D002B07D0FB685B6D1A68F4
:10487000FB685B6D42F480721A60FB681B681A6803
:10488000FB681B6842F001021A6008E0FB688022A6
:10489000DA63FB68002283F824200123FB75FB7D8B
:1048A00018461837BD4680BD80B483B000AF78602D
:1048B0007B68002B01D101234FE07B6893F8253002
:1048C000DBB2022B08D07B680422DA637B6800220B
:1048D00083F82420012340E07B681B681A687B680A
:1048E0001B6822F00E021A607B689B6C1A687B685A
:1048F0009B6C22F480721A607B681B681A687B6864
:104900001B6822F001021A607B685B6C03F01C02DA
:104910007B681B6C012101FA02F25A607B68DB6C38
:104920007A68126D5A607B685B6D002B0CD07B68D7
:104930005B6D1A687B685B6D22F480721A607B681D
:104940009B6D7A68D26D5A607B68012283F82520BE
:104950007B68002283F82420002318460C37BD46CC
:1049600080BC704780B584B000AF78600023FB73D3
:104970007B6893F82530DBB2022B05D07B680422DC
:10498000DA630123FB7347E07B681B681A687B6866
:104990001B6822F00E021A607B681B681A687B682D
:1049A0001B6822F001021A607B689B6C1A687B68A6
:1049B0009B6C22F480721A607B685B6C03F01C02B3
:1049C0007B681B6C012101FA02F25A607B68DB6C88
:1049D0007A68126D5A607B685B6D002B0CD07B6827
:1049E0005B6D1A687B685B6D22F480721A607B686D
:1049F0009B6D7A68D26D5A607B68012283F825200E
:104A00007B68002283F824207B689B6B002B03D0FB
:104A10007B689B6B78689847FB7B18461037BD46D0
:104A200080BD000080B584B000AF78607B681B6CEF
:104A30001B68FB607B681B681B68BB607B685B6CEA
:104A400003F01C0304229A40FB681340002B27D07C
:104A5000BB6803F00403002B22D07B681B681B6833
:104A600003F02003002B07D17B681B681A687B6862
:104A70001B6822F004021A607B685B6C03F01C0266
:104A80007B681B6C042101FA02F25A607B681B6B85
:104A9000002B00F081807B681B6B786898477BE077
:104AA0007B685B6C03F01C0302229A40FB68134096
:104AB000002B3DD0BB6803F00203002B38D07B688D
:104AC0001B681B6803F02003002B0BD17B681B685D
:104AD0001A687B681B6822F00A021A607B68012250
:104AE00083F825207B681B681A462E4B9A4209D909
:104AF0007B685B6C03F01C032B4A022101FA03F371
:104B0000536008E07B685B6C03F01C03274A0221BA
:104B100001FA03F353607B68002283F824207B684A
:104B2000DB6A002B38D07B68DB6A7868984733E013
:104B30007B685B6C03F01C0308229A40FB681340FF
:104B4000002B2AD0BB6803F00803002B25D07B681C
:104B50001B681A687B681B6822F00E021A607B686B
:104B60005B6C03F01C027B681B6C012101FA02F2F2
:104B70005A607B680122DA637B68012283F8252072
:104B80007B68002283F824207B685B6B002B04D0B9
:104B90007B685B6B7868984700BF00BF1037BD46E5
:104BA00080BD00BF800002400004024000000240BF
:104BB00080B485B000AFF860B9607A603B60FB6894
:104BC000DB6CFA68126D5A60FB685B6D002B04D0D9
:104BD000FB689B6DFA68D26D5A60FB685B6C03F0F2
:104BE0001C02FB681B6C012101FA02F25A60FB688F
:104BF0001B683A685A60FB689B68102B08D1FB68F9
:104C00001B687A689A60FB681B68BA68DA6007E01C
:104C1000FB681B68BA689A60FB681B687A68DA6090
:104C200000BF1437BD4680BC7047000080B485B01B
:104C300000AF78607B681B681A461C4B9A4213D8F9
:104C40007B685B6C9B089B0003F1804303F5023398
:104C50007A6893647B681B68DBB2083B144AA2FB4A
:104C600003231B09FB6011E07B685B6C9B089A00C7
:104C7000104B13447A6893647B681B68DBB2083B73
:104C80000B4AA2FB03231B090733FB607B680A4A1C
:104C9000DA64FB6803F01F0301229A407B681A65FF
:104CA00000BF1437BD4680BC704700BF07040240F8
:104CB000CDCCCCCC1C0802408008024080B485B02A
:104CC00000AF78607B685B6803F07F03FB60FA6885
:104CD0000A4B13449B001A467B685A657B68084A56
:104CE0009A65FB68013B03F0030301229A407B684D
:104CF000DA6500BF1437BD4680BC70473F820010A4
:104D00004009024080B586B000AFF860B960C7E9DD
:104D100000231C4B1B78012B01D102232DE0194BE2
:104D200001221A70174B00225A604FF47A7000F07B
:104D300073F80346FB75FB7D002B1AD1FB68012B32
:104D400005D1D7E90023B86800F0C8F804E03B6853
:104D50001946B86800F0E8F84FF47A7000F05CF893
:104D60000346FB75084B5A69FB68DB430649134051
:104D70004B61044B00221A70FB7D18461837BD4664
:104D800080BD00BF282A00200040005880B483B0B6
:104D900000AF0023FB710B4B5B69002B0BDA094B57
:104DA000094A9A60074B094A9A60064B5B69002BD7
:104DB00001DA0123FB71FB7918460C37BD4680BC34
:104DC000704700BF0040005823016745AB89EFCD15
:104DD00080B483B000AF0023FB71094B5B69084AC4
:104DE00043F000435361064B5B69002B01DB012359
:104DF000FB71FB7918460C37BD4680BC704700BF7D
:104E00000040005880B400AF024B5B681846BD46B6
:104E100080BC7047282A002080B584B000AF78603D
:104E2000FBF7D6FEF86009E0FBF7D2FE0246FB680E
:104E3000D31A7A689A4201D8032346E0254B1B69AE
:104E400003F48033B3F5803FEED0224B1B69BB6087
:104E5000BB6803F00103002B02D01E4B01221A6134
:104E6000BA684CF2FA331340BB60BB68B3F1804FB1
:104E700007D3184B9A69BB6803F0404315491343A5
:104E80008B61BB6823F04043002B04D0114ABB6800
:104E900023F040431361BB68002B0ED00E4ABB6861
:104EA0005360012311E0FBF793FE0246FB68D31A1F
:104EB0007A689A4201D8032307E0064B1B6903F482
:104EC0008023B3F5802FEED0002318461037BD465F
:104ED00080BD00BF00400058282A002080B485B063
:104EE00000AFF860C7E900230E4B5B690D4A43F041
:104EF00001035361FB683A681A60BFF36F8F00BF0C
:104F0000D7E900014FF000024FF000030A00002330
:104F1000F968043113460B6000BF1437BD4680BCEE
:104F2000704700BF0040005880B489B000AF78607F
:104F300039604023FB777B68BB613B687B61184B22
:104F40005B69174A43F480235361EFF31083FB60DE
:104F5000FB683B6172B600BF7B691A68BB691A6067
:104F6000BB690433BB617B6904337B61FB7F013B1D
:104F7000FB77FB7F002BEFD100BF094B1B6903F4CC
:104F80008033B3F5803FF8D03B69BB60BB6883F3E7
:104F9000108800BF00BF2437BD4680BC704700BFEB
:104FA0000040005880B483B000AF7860084B5B6964
:104FB00023F47E727B68DB001343054A43F480339D
:104FC00043F00203536100BF0C37BD4680BC7047FD
:104FD0000040005880B487B000AF7860396000238B
:104FE0007B6140E13B681A6801217B6901FA03F3A8
:104FF0001340FB60FB68002B00F032813B685B686C
:1050000003F00303012B05D03B685B6803F0030347
:10501000022B30D17B689B683B617B695B0003227C
:1050200002FA03F3DB433A6913403B613B68DA68F9
:105030007B695B0002FA03F33A6913433B617B68C7
:105040003A699A607B685B683B6101227B6902FA7E
:1050500003F3DB433A6913403B613B685B681B0920
:1050600003F001027B6902FA03F33A6913433B61DF
:105070007B683A695A603B685B6803F00303032B63
:1050800017D07B68DB683B617B695B00032202FA17
:1050900003F3DB433A6913403B613B689A687B69E1
:1050A0005B0002FA03F33A6913433B617B683A6998
:1050B000DA603B685B6803F00303022B23D17B6952
:1050C000DA087B68083253F822303B617B6903F0D1
:1050D00007039B000F2202FA03F3DB433A691340F4
:1050E0003B613B681A697B6903F007039B0002FA86
:1050F00003F33A6913433B617B69DA087B68083242
:10510000396943F822107B681B683B617B695B004F
:10511000032202FA03F3DB433A6913403B613B6825
:105120005B6803F003027B695B0002FA03F33A69F0
:1051300013433B617B683A691A603B685B6803F420
:105140004033002B00F08C804E4A7B699B08023371
:1051500052F823303B617B6903F003039B00072275
:1051600002FA03F3DB433A6913403B617B68B3F116
:10517000904F0DD07B68444A934207D07B68434AE6
:10518000934201D1022304E0072302E0012300E05F
:1051900000237A6902F00302920093403A691343B4
:1051A0003B6138497B699B0802333A6941F8232007
:1051B000374B1B683B61FB68DB433A6913403B613B
:1051C0003B685B6803F48013002B03D03A69FB68EB
:1051D00013433B612E4A3B6913602D4B5B683B6177
:1051E000FB68DB433A6913403B613B685B6803F44F
:1051F0000013002B03D03A69FB6813433B61244A38
:105200003B695360224BD3F880303B61FB68DB4342
:105210003A6913403B613B685B6803F48033002BC1
:1052200003D03A69FB6813433B61194A3B69C2F8F2
:105230008030174BD3F884303B61FB68DB433A691D
:1052400013403B613B685B6803F40033002B03D0E1
:105250003A69FB6813433B610D4A3B69C2F88430ED
:105260007B6901337B613B681A687B6922FA03F32F
:10527000002B7FF4B7AE00BF00BF1C37BD4680BC1B
:10528000704700BF000001400004004800080048CB
:105290000008005880B483B000AF78600B467B8074
:1052A00013467B707B78002B03D07A887B689A61E9
:1052B00002E07A887B689A6200BF0C37BD4680BCEA
:1052C0007047000080B400AF044B1B68034A43F4EE
:1052D0008073136000BFBD4680BC70470004005857
:1052E00080B400AF034B1B6803F4C0631846BD468F
:1052F00080BC70470004005880B400AF064B1B68A8
:1053000003F48073B3F5807F01D1012300E0002313
:105310001846BD4680BC70470004005880B400AFFA
:105320004FF0B0431B684FF0B04243F400131360DA
:1053300000BFBD4680BC704780B400AF4FF0B043A3
:105340001B684FF0B04223F40013136000BFBD464A
:1053500080BC704780B400AF4FF0B0431B6803F4CB
:105360008013B3F5801F01D1012300E0002318460C
:10537000BD4680BC704780B400AF4FF0B0431B689F
:105380004FF0B04243F48033136000BFBD4680BC91
:10539000704780B400AF4FF0B0431B684FF0B0428D
:1053A00023F48033136000BFBD4680BC704780B4D7
:1053B00000AF4FF0B0431B6803F40033B3F5003F78
:1053C00001D1012300E000231846BD4680BC704790
:1053D00080B400AF4FF0B0431B684FF0B04243F4CD
:1053E0008073136000BFBD4680BC704780B400AFBF
:1053F0004FF0B0431B684FF0B04223F4807313604A
:1054000000BFBD4680BC704780B400AF4FF0B043D2
:105410001B6803F48063B3F5806F01D1012300E0C2
:1054200000231846BD4680BC704780B483B000AFEF
:1054300078604FF0B0435B6823F0FE427B681B0648
:105440004FF0B04113434B6000BF0C37BD4680BCEA
:10545000704780B400AF4FF0B043D3F8903003F002
:105460000203022B01D1012300E000231846BD46B0
:1054700080BC704780B400AF4FF0B043D3F8943095
:105480004FF0B04243F00103C2F8943000BFBD4674
:1054900080BC704780B400AF4FF0B043D3F8943075
:1054A0004FF0B04223F00103C2F8943000BFBD4674
:1054B00080BC704780B400AF4FF0B043D3F8943055
:1054C00003F00203022B01D1012300E00023184660
:1054D000BD4680BC704780B400AF4FF0B0431B683E
:1054E0004FF0B04243F00103136000BFBD4680BCE3
:1054F000704780B400AF4FF0B0431B684FF0B0422C
:1055000023F00103136000BFBD4680BC704780B428
:1055100000AF4FF0B0431B6803F00203022B01D130
:10552000012300E000231846BD4680BC704780B4CC
:1055300000AF4FF0B0431B6803F00803082B01D104
:10554000012300E000231846BD4680BC704780B4AC
:1055500000AF4FF0B0431B6803F0F0031846BD46A0
:1055600080BC704780B400AF4FF0B043D3F89430A4
:1055700003F470631846BD4680BC704780B483B0A6
:1055800000AF78604FF0B0435B6823F47F427B68E4
:105590001B024FF0B04113434B6000BF0C37BD46B8
:1055A00080BC704780B483B000AF78604FF0B043E8
:1055B0009B6823F003024FF0B0417B6813438B607C
:1055C00000BF0C37BD4680BC704780B400AF4FF0C1
:1055D000B0439B6803F00C031846BD4680BC70477F
:1055E00080B483B000AF78604FF0B0439B6823F085
:1055F000F0024FF0B0417B6813438B6000BF0C3763
:10560000BD4680BC704780B483B000AF78604FF077
:10561000B043D3F8083123F00F027B681B094FF029
:10562000B0411343C1F8083100BF0C37BD4680BC00
:10563000704780B483B000AF78604FF0B0439B6890
:1056400023F4E0624FF0B0417B6813438B6000BFEE
:105650000C37BD4680BC704780B483B000AF786023
:105660004FF0B0439B6823F460524FF0B0417B6829
:1056700013438B6000BF0C37BD4680BC704780B4BD
:1056800000AF4FF0B0439B6803F0F0031846BD46EF
:1056900080BC704780B400AF4FF0B043D3F80831FE
:1056A0001B0103F0F0031846BD4680BC704780B470
:1056B00000AF4FF0B0439B6803F4E0631846BD466B
:1056C00080BC704780B400AF4FF0B0439B6803F4D8
:1056D00060531846BD4680BC704780B400AF4FF0A1
:1056E000B0431B684FF0B04243F08073136000BFBB
:1056F000BD4680BC704780B400AF4FF0B0431B681C
:105700004FF0B04223F08073136000BFBD4680BCF1
:10571000704780B400AF4FF0B0431B6803F00073D4
:10572000B3F1007F01D1012300E000231846BD46FC
:1057300080BC704780B400AF4FF0B043DB681B0AF9
:1057400003F07F031846BD4680BC704780B400AFAD
:105750004FF0B043DB6803F060431846BD4680BCA1
:10576000704780B400AF4FF0B043DB6803F07003C4
:105770001846BD4680BC704780B400AF4FF0B043C0
:10578000DB6803F003031846BD4680BC704780B455
:1057900000AF4FF0B0439B6803F48033B3F5803F14
:1057A00001D1012300E000231846BD4680BC7047AC
:1057B00080B400AF4FF0B043D3F8083103F4803326
:1057C000B3F5803F01D1012300E000231846BD4618
:1057D00080BC704780B400AF4FF0B0439B6803F4C7
:1057E0000033B3F5003F01D1012300E00023184648
:1057F000BD4680BC704780B400AF4FF0B0439B689B
:1058000003F48023B3F5802F01D1012300E00023AE
:105810001846BD4680BC704780B588B000AF786040
:105820007B68002B01D101236FE3FFF7CEFEF86107
:10583000FFF7A2FFB8617B681B6803F02003002B11
:1058400000F0C480FB69002B05D0FB690C2B76D1DE
:10585000BB69012B73D17B681B6A002B01D101232B
:1058600053E37B689A6A4FF0B0431B6803F0080368
:10587000002B05D04FF0B0431B6803F0F00306E0A7
:105880004FF0B043D3F894301B0903F0F003934278
:1058900022D27B689B6A184600F03CFD0346002B31
:1058A00001D0012331E34FF0B0431B684FF0B04209
:1058B00043F0080313604FF0B0431B6823F0F0027D
:1058C0007B689B6A4FF0B04113430B607B685B6A57
:1058D0001846FFF753FE21E04FF0B0431B684FF02E
:1058E000B04243F0080313604FF0B0431B6823F04D
:1058F000F0027B689B6A4FF0B04113430B607B68FA
:105900005B6A1846FFF73AFE7B689B6A184600F010
:1059100001FD0346002B01D00123F6E200F0C2FC9A
:105920000346A74A1360A74B1B681846FBF746F9C6
:105930000346FB74FB7C002B47D0FB7CE5E27B68D5
:105940001B6A002B2CD0FFF7C6FDFBF741F97861ED
:1059500008E0FBF73DF902467B69D31A022B01D917
:105960000323D2E2FFF7D3FD0346002BF1D04FF023
:10597000B0431B684FF0B04243F0080313604FF090
:10598000B0431B6823F0F0027B689B6A4FF0B04184
:1059900013430B607B685B6A1846FFF7EFFD15E069
:1059A000FFF7A7FDFBF714F9786108E0FBF710F9A2
:1059B00002467B69D31A022B01D90323A5E2FFF724
:1059C000A6FD0346002BF1D100E000BF7B681B68F9
:1059D00003F00103002B58D0FB69082B05D0FB69AD
:1059E0000C2B08D1BB69032B05D17B685B68002BAE
:1059F0004BD1012389E24FF0B0431B6823F480129E
:105A00007B689B684FF0B04113430B607B685B6819
:105A1000B3F5803F02D1FFF7AEFC0DE07B685B6819
:105A2000B3F5041F04D1FFF779FCFFF7A4FC03E0F2
:105A3000FFF7AFFCFFF780FC7B685B68002B12D0A0
:105A4000FBF7C6F8786108E0FBF7C2F802467B690D
:105A5000D31A642B01D9032357E2FFF7A8FC0346AE
:105A6000002BF1D011E0FBF7B3F8786108E0FBF709
:105A7000AFF802467B69D31A642B01D9032344E2B1
:105A8000FFF795FC0346002BF1D17B681B6803F000
:105A90000203002B46D0FB69042B05D0FB690C2BBD
:105AA0000ED1BB69022B0BD17B681B69002B01D186
:105AB00001232AE27B685B691846FFF7B6FC31E0F8
:105AC0007B681B69002B19D0FFF782FCFBF780F87D
:105AD000786108E0FBF77CF802467B69D31A022B59
