:020000040800F2
:100000000000012035190008750900087D09000865
:10001000850900088D090008950900080000000006
:1000200000000000000000000000000091BB00087C
:100030009D0900080000000071BD0008B9BD00085E
:100040008519000885190008A90900088519000804
:100050008519000885190008851900088519000808
:1000600085190008851900088519000885190008F8
:100070008519000885190008D1090008BD09000884
:10008000E5090008F9090008851900088519000824
:10009000000000008519000885190008851900086E
:1000A00085190008851900088519000885190008B8
:1000B00085190008851900088519000885190008A8
:1000C0008519000885190008851900088519000898
:1000D0000D0A0008210A0008851900088519000882
:1000E0008519000885190008350A000885190008D7
:1000F00085190008000000000000000085190008B4
:100100008519000885190008490A000885190008A2
:100110008519000885190008851900088519000847
:100120008519000885190008851900088519000837
:0801300085190008851900087B
:1001400010B5054C237833B9044B13B10448AFF311
:1001500000800123237010BD280100200000000052
:10016000B042010808B5034B1BB103490348AFF384
:10017000008008BD000000002C010020B0420108F2
:10018000034613F8012B002AFBD1181A01387047D7
:1001900001F0FF01102A2BDB10F0070F08D010F838
:1001A000013B013A8B422DD010F0070F42B3F6D13C
:1001B000F0B441EA012141EA014122F007047FF055
:1001C00000070023F0E80256083C85EA010586EAAC
:1001D000010685FA47F5A3FA87F586FA47F6A5FAE8
:1001E00087F68EB9EED1F0BC01F0FF0102F00702F4
:1001F00032B110F8013B013A83EA010313B1F8D19F
:100200000020704701387047002D06BF354603387F
:10021000073815F0010F07D1013015F4807F02BFB8
:10022000013015F4C03F0130F0BC0138704700BF09
:1002300053B94AB9002908BF00281CBF4FF0FF314D
:100240004FF0FF3000F088B9ADF1080C6DE904CE35
:1002500000F006F8DDF804E0DDE9022304B07047A1
:100260002DE9F047089D0F4604468C46002B48D1E7
:100270008A42164661D9B2FA82F34BB1C3F1200229
:1002800001FA03FC20FA02F29E4042EA0C0C9C4068
:100290004FEA164EB7B2BCFBFEF1220C0EFB11CC9E
:1002A00042EA0C4201FB07F0904209D9B21801F171
:1002B000FF3C80F0EE80904240F2EB800239324405
:1002C000121AA4B2B2FBFEF00EFB102244EA024462
:1002D00000FB07F7A74209D9341900F1FF3280F07B
:1002E000DA80A74240F2D7803444023840EA014025
:1002F000E41B00211DB1DC400023C5E90043BDE83B
:10030000F0878B4206D90DB1C5E9000100210846EE
:10031000BDE8F087B3FA83F1002948D1BB4202D38C
:10032000824200F20781841A67EB0302012094469F
:10033000002DE4D0C5E9004CE1E7002A00F09280EE
:10034000B2FA82F3002B40F0A8808A1A4FEA164EC8
:100350001FFA86FC0121200CB2FBFEF70EFB1722D0
:1003600040EA02420CFB07F0904207D9B21807F1AD
:10037000FF3802D2904200F2E2804746121AA4B23D
:10038000B2FBFEF00EFB102244EA02440CFB00FC20
:10039000A44507D9341900F1FF3202D2A44500F276
:1003A000CB801046A4EB0C0440EA0740A2E7C1F161
:1003B00020068B4022FA06FC4CEA030C07FA01F4F3
:1003C00020FA06F3F7404FEA1C49234300FA01F8EC
:1003D0001FFA8CFEB7FBF9F01C0C09FB107744EAFE
:1003E000074400FB0EF7A74202FA01F20AD91CEB00
:1003F000040400F1FF3A80F09B80A74240F298800D
:1004000002386444E41B9FB2B4FBF9F309FB1344C4
:1004100047EA044403FB0EFEA64509D91CEB04047D
:1004200003F1FF3780F08280A6457FD9023B644408
:1004300043EA0040A4EB0E04A0FB02E7BC42734673
:10044000B94663D360D05DB1B8EB030264EB090435
:1004500004FA06F622FA01F31E43CC40C5E9006413
:1004600000214CE76208480842EAC1710B0C43EADC
:1004700000438AB242EA0342B3FBF6F1E407B44612
:100480003746B6461F23B0FBF6F0D21B41EA0041C7
:1004900061E7614614E7104628E7C3F1200120FA1E
:1004A00001F29E4027FA01F19F403A434FEA164E6F
:1004B0001FFA86FCB1FBFEF70EFB1710110C41EA88
:1004C000004107FB0CF8884504FA03F43AD9711887
:1004D00007F1FF3001D288451FD8A1EB0801B1FB1D
:1004E000FEF808FB0CF70EFB181192B242EA01422B
:1004F000BA422FD2B21808F1FF31C6D2BA42C4D2E2
:10050000A8F102013244C0E7F0459CD2BEEB0203E1
:1005100067EB0C070138B94695E7A6EB080841449C
:10052000B81EB1FBFEF808FB0CF7DCE73B467FE7A3
:10053000504667E70846FBE63444023832E7023F9C
:1005400032441BE7A1EB08013846B1FBFEF808FB7B
:100550000CF7C8E7414698E7704700BF80B500AF89
:10056000044A002104480AF061FD0346034A13606F
:1005700000BF80BD784501088105000844050020C2
:1005800080B582B000AF786001F0FDF94FF4806271
:100590000849012003F02CFE02F0F6FF064803F0A4
:1005A00069F802F087FC00200CF0CAFB00BF083796
:1005B000BD4680BD44010020D543000880B485B00D
:1005C00000AF78604FF0B0439A6C4FF0B0417B6859
:1005D00013438B644FF0B0439A6C7B681340FB600D
:1005E000FB6800BF1437BD4680BC704780B500AFC4
:1005F0000420FFF7E3FF0120FFF7E0FF00220521C1
:100600000E2004F0A0F80E2004F0B7F80222052115
:100610000F2004F098F80F2004F0AFF80022052115
:10062000112004F090F8112004F0A7F8022205210F
:10063000102004F088F8102004F09FF800BF80BD5F
:1006400080B485B000AF78604FF0B043DA6C4FF003
:10065000B0417B681343CB644FF0B043DA6C7B68E6
:100660001340FB60FB6800BF1437BD4680BC704779
:1006700080B586B000AF3B1D00221A605A609A60B8
:10068000DA601A610220FFF7DBFF0120FFF7D8FFD5
:100690000420FFF7D5FF00224FF4E2710A4805F06D
:1006A00009F84FF4E2737B600123BB600023FB6019
:1006B00000233B613B1D1946034804F0CDFD00BFFC
:1006C0001837BD4680BD00BF0004004880B483B029
:1006D00000AF78604FF0B043D3F8903023F01802A9
:1006E0004FF0B0417B681343C1F8903000BF0C3726
:1006F000BD4680BC704780B500AF03F019FF00F025
:100700000BF8FFF7B5FF0AF029FCFFF727FF0AF007
:1007100057FC00BFFDE7000080B59AB000AF07F1BD
:10072000200348220021184612F00EF907F10803B1
:1007300000221A605A609A60DA601A615A6104F005
:10074000D1FF0020FFF7C2FF264B1B6823F4C063D4
:10075000244A43F400731360224B1B6803F4C06304
:100760007B607B6805233B624FF480337B6281238F
:10077000FB620023BB620223FB6403233B6510235F
:100780007B650923BB654FF40033FB654FF0804365
:100790007B664FF000733B6607F12003184605F0B7
:1007A0004BFA0346002B01D000F01EF84F23BB602C
:1007B0000323FB6000233B6100237B610023BB61BB
:1007C0000023FB6107F108030221184605F0B6FD7E
:1007D0000346002B01D000F007F800BF6837BD4684
:1007E00080BD00BF0004005880B400AF72B600BFE7
:1007F00000BFFDE780B400AF4FF0B043D3F89030B6
:100800004FF0B04243F40043C2F8903000BFBD4601
:1008100080BC704780B485B000AF78604FF0B043C3
:100820009A6D4FF0B0417B6813438B654FF0B04336
:100830009A6D7B681340FB60FB6800BF1437BD46B0
:1008400080BC704780B58CB000AF3B1D2C220021CE
:10085000184612F079F8224B224A1A60204B1F22C8
:100860009A601F4B00221A611D4B00225A611C4BDB
:1008700000229A611A4B4FF08042DA61184B002235
:100880001A62174B4FF480725A62154806F012FA3A
:100890000346002B01D0FFF7A7FF114806F008FD23
:1008A0000346002B01D0FFF79FFF00233B6200238C
:1008B000BB600023BB614FF00053FB614FF48073BA
:1008C000FB623B1D00221946054806F075FA0346F7
:1008D000002B01D0FFF788FF00BF3037BD4680BD39
:1008E000480500200028004080B590B000AF786037
:1008F00007F1080338220021184612F025F87B681A
:100900001B68164A934225D14FF48033BB604FF4E5
:100910008073FB6307F10803184606F0B1F803463D
:10092000002B01D0FFF760FFFFF764FF4FF48060FA
:10093000FFF770FF00220521022003F004FF0220D0
:1009400003F01BFF002205212A2003F0FCFE2A20D1
:1009500003F013FF00BF4037BD4680BD00280040B4
:1009600080B500AF00220F216FF0010003F0EBFE15
:1009700000BF80BD80B400AF00BFFDE780B400AF12
:1009800000BFFDE780B400AF00BFFDE780B400AF5B
:1009900000BFFDE780B400AF00BFFDE780B400AF4B
:1009A00000BFBD4680BC704780B500AF024806F06E
:1009B000BBFC00BF80BD00BF4805002080B500AF74
:1009C000024804F071F900BF80BD00BF9407002009
:1009D00080B500AF024804F067F900BF80BD00BFDA
:1009E0005408002080B500AF024804F05DF900BF54
:1009F00080BD00BF3407002080B500AF024804F07E
:100A000053F900BF80BD00BFF407002080B500AFE0
:100A1000024807F077FC00BF80BD00BF9C050020A6
:100A200080B500AF024807F06DFC00BF80BD00BF7D
:100A30006806002080B500AF024806F025FB00BF25
:100A400080BD00BF4805002080B500AF024806F019
:100A5000D9FF00BF80BD00BF8005002080B485B0F5
:100A600000AF78604FF0B0435A6E4FF0B0417B68F2
:100A700013434B664FF0B0435A6E7B681340FB60E4
:100A8000FB6800BF1437BD4680BC704780B500AF1F
:100A9000064B08221A60054806F032FD0346002B7B
:100AA00001D0FFF7A1FE00BF80BD00BF8005002080
:100AB00080B582B000AF78600120FFF7CFFF002241
:100AC0000521322003F03FFE322003F056FE00BF26
:100AD0000837BD4680BD80B483B000AF78604FF06A
:100AE000B0439B6823F400424FF0B0417B6813434E
:100AF0008B6000BF0C37BD4680BC704780B500AF2F
:100B00000020FFF7E8FF10F0AFFF0A4B01221A7038
:100B100000F090F810F0A8FD074810F0C1FD022089
:100B200010F0CCFD10F084FE0121012010F0C0FE79
:100B300000BF80BD8C0500203D0B000880B586B04D
:100B400002AF7860396007F10803184610F054FFCF
:100B5000BB68B7F90C200092074A1021786800F0B2
:100B600015F87868FFF70CFB03469AB23B681A80C9
:100B700000BF1037BD4680BDD442010880B500AF2C
:100B80000021022010F064FE00BF80BD0CB480B5CF
:100B900084B000AF7860396007F11C03FB603968EE
:100BA000FB68BA69786811F003FB00BF1037BD46D7
:100BB000BDE8804002B0704780B483B000AF786079
:100BC000002318460C37BD4680BC704780B582B004
:100BD00000AF00237B60064B1B78002B02D000F097
:100BE000B5F978607B6818460837BD4680BD00BF00
:100BF0008C05002080B582B000AF78607B68184615
:100C000000F02BFA00BF0837BD4680BD80B483B02A
:100C100000AF7860064BD3F8902005497B681343FA
:100C2000C1F8903000BF0C37BD4680BC704700BF94
:100C30000008005880B500AF4FF48040FFF7E6FF92
:100C400003F096FC03F09AFC03F09EFC00BF80BD0D
:100C500080B400AF01231846BD4680BC704780B504
:100C600082B000AF7860396011F06EFF0346162243
:100C70001A604FF0FF3318460837BD4680BD80B577
:100C800082B000AF78604FF0FF317868FFF7E7FF80
:100C900000BFFDE780B586B000AFF860B9607A604C
:100CA00000237B610AE0AFF300800146BB685A1C59
:100CB000BA60CAB21A707B6901337B617A697B685A
:100CC0009A42F0DB7B6818461837BD4680BD80B578
:100CD00086B000AFF860B9607A6000237B6109E0FC
:100CE000BB685A1CBA601B781846AFF300807B695A
:100CF00001337B617A697B689A42F1DB7B68184635
:100D00001837BD4680BD80B483B000AF78604FF027
:100D1000FF3318460C37BD4680BC704780B483B0A3
:100D200000AF786039603B684FF400525A6000238E
:100D300018460C37BD4680BC704780B483B000AF06
:100D40007860012318460C37BD4680BC704780B4DC
:100D500085B000AFF860B9607A6000231846143798
:100D6000BD4680BC7047000080B586B000AF78609B
:100D7000144A154BD31A7B617B693B61134B1B688B
:100D8000002B02D1114B124A1A60104B1A687B6873
:100D900013443A699A4207D211F0D6FE03460C2258
:100DA0001A604FF0FF3309E0084B1B68FB60074BEC
:100DB0001A687B681344054A1360FB6818461837A5
:100DC000BD4680BD00000120000800009005002005
:100DD0000000001080B483B000AF78607B689B682F
:100DE00018460C37BD4680BC7047000080B582B005
:100DF00000AF0023FB71144B1B7883F00103DBB2BF
:100E0000002B1BD0114B4FF0FF321A63FFF71AFD76
:100E100000F056F84FF480710C4806F0D9F80B4BEF
:100E20004FF0FF321A63094806F010FA002000F074
:100E3000D3F900F05FF8044B01221A70FB791846D1
:100E40000837BD4680BD00BF94050020480500203E
:100E500080B58EB000AF7860002387F8373007F197
:100E600008032C220021184611F06EFD00F028F82E
:100E7000114B1B687A6813447B6000237B627B689C
:100E8000DB43FB600023FB614FF000533B624FF4F8
:100E900080733B6307F1080301221946074805F0F8
:100EA0008BFF0346002B01D0FFF79EFC97F83730ED
:100EB00018463837BD4680BD9805002048050020FB
:100EC00080B582B000AF0023FB71084B0122DA65C8
:100ED0004FF48071064806F07BF8054B4FF0FF3267
:100EE0001A63FB7918460837BD4680BD00280040CC
:100EF0004805002080B500AF00F08EF90346034A94
:100F00001360024B1B68184680BD00BF9805002087
:100F100080B400AF024B1B681846BD4680BC7047CA
:100F20009805002080B582B000AF00237B6000F000
:100F300073F90246044B1B68D31A7B607B68184622
:100F40000837BD4680BD00BF9805002080B582B03F
:100F500000AF00237B60064B1B78002B02D000F013
:100F60005BF978607B6818460837BD4680BD00BFD6
:100F70009405002080B483B000AF00237B6003237E
:100F80007B607B6818460C37BD4680BC7047B0B5A7
:100F900084B000AF78600021F960796800200A46CB
:100FA0000346950D94024FF47A724FF000032046E9
:100FB0002946FFF73DF902460B461346FB60FB68E6
:100FC00018461037BD46B0BD2DE9B00F85B000AF53
:100FD00078600021F960796800200C4605462046BB
:100FE00029464FF0000A4FF0000B4FEA411B4BEA35
:100FF000D06B4FEA401A50465946021B61EB05037D
:101000004FF000004FF00001990041EA927190000A
:1010100002460B4612EB040843EB05094FF00002B1
:101020004FF000034FEAC90343EA58734FEAC8027E
:1010300090469946404649464FF000024FF0000363
:10104000820A42EA81528B0A1346FB60FB6818460B
:101050001437BD46BDE8B00F704780B584B000AF0F
:1010600078607868FFF793FFF86000F0D5F8B86013
:1010700000E000BF00F0D0F80246BB68D31AFA685F
:101080009A42F6D800BF00BF1037BD4680BD80B57C
:1010900082B000AF786010F035FE00BF0837BD4663
:1010A00080BD80B584B000AF786000F0A5F8F8602E
:1010B000FB680133184600F08FF800BF1037BD46BB
:1010C00080BD2DE9B04F8CB000AF78610023FB628A
:1010D00000F0A2F8B86200F08FF878627B6A002214
:1010E000BB60FA604FF000024FF00003B9680B00DC
:1010F0000022B96A00200C46054612EB040843EBB7
:101100000509C7E90689D7E906014FF000024FF04B
:101110000003820A42EA81528B0A1346FB62BB69D2
:1011200000223B607A603B68C3F3090A4FF0000B72
:10113000C7E906ABBB691846FFF746FF03469AB2FC
:101140007B691A80FB6A18463037BD46BDE8B08F10
:1011500080B582B000AF78607A680021034806F05D
:1011600007F900BF0837BD4680BD00BF4805002015
:1011700080B582B000AF78607A680121034806F03C
:10118000F7F800BF0837BD4680BD00BF4805002006
:1011900080B582B000AF00237B600021044806F0D8
:1011A000FFF878607B6818460837BD4680BD00BFF1
:1011B0004805002080B582B000AF00237B6001218C
:1011C000044806F0EDF878607B6818460837BD469D
:1011D00080BD00BF4805002080B582B000AF7860B8
:1011E0007A680221034806F0C3F800BF0837BD46FD
:1011F00080BD00BF4805002080B582B000AF02214D
:10120000044806F0CDF878607B6818460837BD467C
:1012100080BD00BF4805002080B582B000AF0B48FC
:10122000FFF7D8FD786003E00848FFF7D3FD78604A
:101230000648FFF7CFFD02467B689342F4D17B68F6
:10124000DB4318460837BD4680BD00BF002800407C
:1012500080B485B000AF78604FF0B043DA6C4FF0E7
:10126000B0417B681343CB644FF0B043DA6C7B68CA
:101270001340FB60FB6800BF1437BD4680BC70475D
:1012800080B485B000AF78604FF0B0439A6D4FF0F6
:10129000B0417B6813438B654FF0B0439A6D7B6818
:1012A0001340FB60FB6800BF1437BD4680BC70472D
:1012B00080B483B000AF78604FF0B0439A6D7B6824
:1012C000DB434FF0B04113408B6500BF0C37BD4688
:1012D00080BC704780B485B000AF78604FF0B043F9
:1012E0001A6E4FF0B0417B6813430B664FF0B0436A
:1012F0001A6E7B681340FB60FB6800BF1437BD4665
:1013000080BC704780B483B000AF78604FF0B043CA
:101310001A6E7B68DB434FF0B04113400B6600BF91
:101320000C37BD4680BC704780B500AF224B234AC6
:101330001A60214B4FF4E1325A601F4B00229A6031
:101340001D4B0022DA601C4B00221A611A4B0C2242
:101350005A61194B00229A61174B0022DA61164B31
:1013600000221A62144B00225A62134B00229A6226
:10137000114806F011FD0346002B01D0FFF734FAA7
:1013800000210D4809F0C5FB0346002B01D0FFF7F3
:101390002BFA0021084809F0FAFB0346002B01D084
:1013A000FFF722FA044809F07CFB0346002B01D02A
:1013B000FFF71AFA00BF80BD9C05002000380140ED
:1013C00080B500AF224B234A1A60214B4FF4E13223
:1013D0005A601F4B00229A601D4B0022DA601C4BA2
:1013E00000221A611A4B0C225A61194B00229A6191
:1013F000174B0022DA61164B00221A62144B0022AE
:101400005A62134B00229A62114806F0C5FC03464B
:10141000002B01D0FFF7E8F900210D4809F079FB16
:101420000346002B01D0FFF7DFF90021084809F03F
:10143000AEFB0346002B01D0FFF7D6F9044809F0B4
:10144000F5FA0346002B01D0FFF7CEF900BF80BDAF
:10145000680600200044004080B596B000AF786078
:1014600007F1440300221A605A609A60DA601A6138
:1014700007F10C0338220021184611F065FA7B6849
:101480001B688B4A934240F085800123FB604FF438
:1014900040333B6107F10C03184605F0F1FA0346AF
:1014A000002B01D0FFF7A0F94FF48040FFF712FFA7
:1014B0000120FFF7CDFE4FF4C0637B640223BB64C1
:1014C0000023FB6403233B6507237B6507F144038B
:1014D00019464FF0904003F0BFFE764B764A1A60F3
:1014E000744B12225A60734B10229A60714B002287
:1014F000DA60704B80221A616E4B00225A616D4B8C
:1015000000229A616B4B0022DA616A4B00221A6258
:10151000684803F04FF90346002B01D0FFF764F948
:101520007B68644ADA67634A7B689362634B644A08
:101530001A60624B11225A60604B00229A605F4B26
:101540000022DA605D4B80221A615C4B00225A61F6
:101550005A4B00229A61594B0022DA61574B4FF4E3
:1015600080521A62554803F025F90346002B01D03A
:10157000FFF73AF97B68514AC3F880204F4A7B68ED
:10158000936200220521242003F0DDF8242003F0DB
:10159000F4F888E07B681B684A4A934240F08380F5
:1015A0000223FB604FF440237B6107F10C031846D4
:1015B00005F066FA0346002B01D0FFF715F94FF44A
:1015C0000030FFF75DFE0120FFF742FE0C237B6435
:1015D0000223BB640023FB6403233B6507237B6575
:1015E00007F1440319464FF0904003F035FE364BA7
:1015F000364A1A60344B14225A60334B10229A60D8
:10160000314B0022DA60304B80221A612E4B0022CF
:101610005A612D4B00229A612B4B0022DA612A4B32
:1016200000221A62284803F0C5F80346002B01D0B7
:10163000FFF7DAF87B68244ADA67234A7B6893620B
:10164000234B244A1A60224B13225A60204B00225B
:101650009A601F4B0022DA601D4B80221A611C4BDE
:1016600000225A611A4B00229A61194B0022DA615A
:10167000174B4FF480521A62154803F09BF803464B
:10168000002B01D0FFF7B0F87B68114AC3F8802027
:101690000F4A7B68936200220521252003F053F84E
:1016A000252003F06AF800BF5837BD4680BD00BF53
:1016B00000380140340700206C000240F40700208D
:1016C000800002400044004094070020580002407F
:1016D000540800204400024080B582B000AF78601A
:1016E0007B681B68174A934212D14FF48040FFF782
:1016F00009FE4FF4C0614FF0904003F00DFF7B688E
:10170000DB6F184603F0FEF8242003F044F815E0E0
:101710007B681B680C4A934210D14FF40030FFF7EE
:10172000C7FD0C214FF0904003F0F6FE7B68DB6FA5
:10173000184603F0E7F8252003F02DF800BF08371E
:10174000BD4680BD003801400044004080B483B0F5
:1017500000AF78604FF0B0431A6C4FF0B0417B6837
:1017600013430B6400BF0C37BD4680BC704780B488
:1017700083B000AF78604FF0B0431A6C7B68DB43F6
:101780004FF0B04113400B6400BF0C37BD4680BC26
:101790007047000080B483B000AF7860064BD3F888
:1017A000802005497B681343C1F8803000BF0C37A7
:1017B000BD4680BC704700BF0008005880B582B0AD
:1017C00000AF7860074A7B681360FEF70FFFFFF7F2
:1017D000ABFD4FF08060FFF7DDFF002318460837B0
:1017E000BD4680BDB808002080B500AF4FF48040F2
:1017F000FFF7ACFF4FF48040FFF7B9FF0448FFF755
:101800006BFF0F2002F0C7FF0023184680BD00BF0A
:101810009C05002080B582B000AF78600B467B80CD
:101820007B881A467968044806F0ECFC00231846C9
:101830000837BD4680BD00BF9C05002080B584B040
:1018400000AF7860194A7B6813604FF40013BB60E7
:1018500007F1080393E80600154809F05AF800BF9D
:10186000134B1B68DB6903F48033B3F5803FF7D07B
:1018700000BF0F4B1B68DB6903F48003B3F5800FD7
:10188000F7D10B4B1B689A68094B1B6842F4800226
:101890009A60074809F098F801220649044806F0C2
:1018A00065FC002318461037BD4680BDBC080020EB
:1018B0009C050020B408002080B582B000AF78609D
:1018C0007B681B68054A934203D1054B1B680020C7
:1018D000984700BF0837BD4680BD00BF00380140B3
:1018E000B808002080B582B000AF78607B681B68C4
:1018F0000D4A934213D10D4B1B68002B0AD07B6815
:10190000D3F89030002B05D1084B1B680022012131
:101910000748984701220649786806F027FC00BF6F
:101920000837BD4680BD00BF00380140BC0800201C
:10193000B40800200D48854602F0CAFD0C480D4948
:101940000D4A002302E0D458C4500433C4188C421A
:10195000F9D30A4A0A4C002301E013600432A24280
:10196000FBD311F0F7F8FEF7C6FEFEE700000120FA
:101970000000002028010020184E01082801002046
:1019800038DD0020FEE780B500AFFFF7B7F802F0C2
:1019900007F800BF80BD80B483B000AF78607B687B
:1019A000D3E90023104619460C37BD4680BC70476A
:1019B00090B587B000AFF860B9601346FB80002394
:1019C000FB8210E0FB8ADB00BA68D418F868FFF7E6
:1019D000E2FF02460B46C4E90023FB680833FB60C4
:1019E000FB8A0133FB82FA8AFB889A42EAD300BF62
:1019F00000BF1C37BD4690BD80B58AB000AFF8600F
:101A0000B9601346FB8000233B620023FB842FE078
:101A1000BB6803F10802BA60D3E90023C7E90623D3
:101A200003F0F6FAD7E90623F968012003F0ACFACF
:101A30000346FB7503F00EFBFB7D002B12D003F079
:101A400023FB386203F0E4FA4FF47A7003F026FBCC
:101A5000D7E90623F968012003F096FA0346FB75DF
:101A600003F0F8FAFB680833FB60FB8C0133FB845E
:101A7000FA8CFB889A42CBD300BF00BF2837BD4603
:101A800080BD000080B588B000AFF860B960134633
:101A9000FB80FB68B3F1006FC0F08480FB68444AB0
:101AA00093427FD8FB6803F178433B613B69DB0AD3
:101AB000FB613B69C3F30A03DB087B837B8BC3F5C4
:101AC00080733B83FA883B8B9A4201D8FB883B8327
:101AD000FB6903F58033DB024FF480723549184609
:101AE000FFF766FFFA8A3B8B9A4234D203F090FAF2
:101AF000314B4CF2FA321A61F86903F095FB02207F
:101B00000BF092F92C4B5B692B4A23F47E7323F084
:101B10000203536103F09EFA0023FB8210E0FB8A6C
:101B2000DB00BA681344F98A7A8B1144D3E90023A5
:101B30002048C9000144C1E90023FB8A0133FB822C
:101B4000FA8A3B8B9A42EAD33B8B1A46B968F8680B
:101B5000FFF752FF05E03B8B1A46B968F868FFF7BC
:101B60004BFFFA883B8B9A421ED0FB690133FB6125
:101B700000237B833B8BDB00BA681344BB603B8B49
:101B8000FA681344FB60FA883B8BD31AFB80FB880E
:101B9000B3F5807F03D94FF480733B8398E7FB88CC
:101BA0003B8395E700BF00E000BF2037BD4680BD06
:101BB000FFFF0308C00800200040005880B5A4B013
:101BC00000AFF860B9601346FB7107F11403682297
:101BD0000021184610F0B8FE0123C7F88C3000230E
:101BE000C7F8883018E097F90730D7F88C209A4268
:101BF0000CD0D7F888305A1CC7F88820D7F88C202A
:101C000052B290333B4403F87C2C00E000BFD7F87D
:101C10008C300133C7F88C30D7F88C20BB689A42DF
:101C2000E1DD0BF053FA0346184610F0C9FCBB681F
:101C3000013BC7F8843032E010F0F0FC0346D7F8DF
:101C4000842093FBF2F2D7F8841001FB02F29B1A76
:101C5000DBB20133DBB287F87F3007F11402D7F82B
:101C6000843013441B7887F87E3097F97F309033A7
:101C70003B4413F97C1C07F11402D7F88430134459
:101C80000A461A7097F97F3090333B4497F87E20CC
:101C900003F87C2CD7F88430013BC7F88430D7F8A0
:101CA0008430002BC8DCFB68002B06D0BA6807F133
:101CB00014031946F86810F074FF0023C7F8803049
:101CC00015E0D7F880200F4B83FB02131911D317AF
:101CD000CB1A322101FB03F3D31A002B02D10520CA
:101CE0000BF0A2F8D7F880300A33C7F88030D7F865
:101CF0008020BB689A42E4DB00BF00BF9037BD463E
:101D000080BD00BF1F85EB5180B584B000AF786007
:101D100039607B68BB600023FB6012E0FA680D4B02
:101D200083FB02131911D317CB1A322101FB03F3E2
:101D3000D31A002B02D101200BF076F8FB680A338E
:101D4000FB60FA683B689A42E8DB00BF00BF1037CF
:101D5000BD4680BD1F85EB5180B582B000AF00232A
:101D60003B600E4B1B683A460121184609F016FCF1
:101D700078607B68002B0AD03B68002B07D0084BAB
:101D80004FF080521A60BFF34F8FBFF36F8F054B38
:101D9000DB6A984700BF0837BD4680BDA819002000
:101DA00004ED00E0CC4A010880B586B000AFF860D1
:101DB000084611461A4603467B810B463B81134673
:101DC000FB7100233B612B4B9B69012B05D17B8968
:101DD0001A46F968284801F009FD284A3B89138012
:101DE000274AFB7913707B89264A5360254B0422CE
:101DF0001A607B891A46F968234810F0D2FE1D4B01
:101E00005B6E002B04D1214B5B6B4FF4FA6098475B
:101E1000184B5B6E012B0AD100233B611C4B1B68E6
:101E200007F110020421184609F0B8FB7861194B3C
:101E30001B6818460AF044FD0346002B16D1154BCB
:101E4000186807F1100200230E490AF087FA78613A
:101E50007B69002B0AD03B69002B07D00E4B4FF05B
:101E600080521A60BFF34F8FBFF36F8F00BF1837D8
:101E7000BD4680BDC0100020841A0020801A0020BA
:101E8000821A0020981A0020A01A0020CC4A0108CB
:101E9000A8190020A019002004ED00E080B400AFD4
:101EA000034B01221A6000BFBD4680BC704700BFD3
:101EB000741A002080B582B000AF00237B600E4B07
:101EC00001221A600D4B1B68002B11D00B4B1B68B5
:101ED0003A1D0821184609F061FB7B68002B07D0EA
:101EE000074B4FF080521A60BFF34F8FBFF36F8FD5
:101EF00000BF0837BD4680BD781A0020A819002011
:101F000004ED00E080B582B000AF00237B60134B8E
:101F100001221A60124B5B6E002B04D1114B5B6BDC
:101F20004FF4FA609847104B1B68002B11D00E4BF2
:101F30001B683A1D1021184609F030FB7B68002B06
:101F400007D00A4B4FF080521A60BFF34F8FBFF398
:101F50006F8F00BF0837BD4680BD00BF7C1A0020D0
:101F6000C0100020CC4A0108A819002004ED00E0B0
:101F700080B400AF024B1846BD4680BC704700BF1E
:101F8000C010002080B500AF0A4B0B4A1A60094B05
:101F90000A4A9A60074B0A4A5A60064B094ADA60B5
:101FA000044B094A1A61094B1B68024898470023F1
:101FB000184680BD581A0020591D0008A91D0008A8
:101FC0009D1E0008B51E0008051F0008CC4A010828
:101FD00090B58FB00AAFF860B9607A60FB70144BAF
:101FE000DB68F8689847124BDC6997F920107B6A28
:101FF00008930023079300230693002305930123EE
:1020000004930023039306230293FB7801937B68D8
:102010000093BB6800220120A047054B5B6DFF21A8
:1020200001209847002318461437BD4690BD00BFD5
:10203000CC4A010890B58FB00AAFF860B9607A60F9
:10204000FB70164BDB68F8689847144B9C69FB786B
:102050000122099200220892002207920022069291
:10206000012205920022049200220392052202928C
:1020700006220192002200927A68B9680120A047E6
:10208000064B5B6DFF2101209847044B5B6B386A60
:102090009847002318461437BD4690BDCC4A010826
:1020A00080B483B000AF78607B68074A934205D95B
:1020B0007B68064A934201D8012300E000231846BA
:1020C0000C37BD4680BC7047806DC335FF27503745
:1020D00080B487B000AF78607B68254AA2FB0323F9
:1020E0009B093B613B69224AA2FB031292094FF410
:1020F0007A7101FB02F29B1AFB6000237B61FB6893
:10210000F92B02D87D237B6123E0FB68F92B07D9EB
:10211000FB68B3F5FA7F03D240F277137B6118E0D6
:10212000FB68B3F5FA7F08D3FB6840F2ED229342D7
:1021300003D840F271237B610BE0FB6840F2ED2293
:10214000934206D9FB68B3F57A7F02D240F26B3333
:102150007B613A697B6913444FF47A7202FB03F3A3
:102160003B613B6918461C37BD4680BC704700BFC9
:10217000D34D621080B582B000AF7860294B1B68E8
:102180000133284A13607B681C221A607B680A228C
:102190005A74244B1A687B68DA607B68224A5A605A
:1021A000224B1B69DAB27B681A747B6803F1120058
:1021B0001E4B1A6913469B0013445B0020331B4AD5
:1021C00013440A22194610F0ECFC184B1A69134606
:1021D0009B0013445B002033144A98187B68173324
:1021E0000522194610F0DDFC104B1A6913469B00BE
:1021F00013445B00053320330C4A98187B68123374
:102200000522194610F0CDFC7B681B6819467868DA
:1022100001F09CFB02467B68DA6100BF0837BD46CF
:1022200080BD00BFBC1B0020EDFEEDFEB0190020FC
:1022300080B485B000AF78600023FB737A680A4BE6
:1022400013440A4AA2FB03239B09BB60BB68074AED
:10225000A2FB03231B09FB7397F90F3018461437B1
:10226000BD4680BC704700BF80923CCAD34D62100F
:1022700080B485B000AF7860094A7B68134412339C
:1022800093F90030FB60FB68064A03FB02F2064B41
:102290001344BB60BB6818461437BD4680BC70470A
:1022A000381A002090D00300C855C53580B483B0DB
:1022B00000AF0023FB711C4B1A681C4B1B689A4231
:1022C00029D1194BDA69194BDB699A4223D1164B94
:1022D0001A6B164B1B6B9A421DD1134B9A6C134B06
:1022E0009B6C9A4217D1104BDA6C104BDB6C9A4204
:1022F00011D10D4B1A6D0D4B1B6D9A420BD10A4B30
:102300005A6D0A4B5B6D9A4205D1074BDA6D074B4C
:10231000DB6D9A4201D00123FB71FB7918460C3723
:10232000BD4680BC704700BF28110020C0100020AF
:1023300080B592B002AF0523FB630223BB63012388
:102340007B63644B1B6B7B624FF0FF333B6300236B
:10235000FB620CE0604AFB6A52F833307A6A9A42B8
:1023600002D1FB6A3B6305E0FB6A0133FB62FB6A57
:10237000022BEFDD3B6BB3F1FF3F12D0564A3B6BB4
:10238000DB0013441B79BB63534A3B6BDB001344F4
:102390005B79FB63504A3B6BDB0013449B797B63A7
:1023A00003E04C4B4FF416421A634A4B9B69002BD7
:1023B00003D0484B9B6B032B74D10023BB62454B6E
:1023C000DB69002B23D1434B9B6CBB62414BDA6D25
:1023D0003B1D4249184610F023FA3B1D1846FDF7F5
:1023E000CFFE03469AB23B1D1146184601F028FB6A
:1023F0007B6BDAB2374BDB6D5BB242F2107101914D
:1024000000931346FA6BB96BB86AFFF7E1FD314BE5
:10241000DB69012B0CD12F4BDB6CBB627B6BDBB21E
:102420004FF4FA620092FA6BB96BB86AFFF702FEDA
:10243000B86AFFF735FE0346002B30D0254B01224A
:102440005A66B86AFFF744FE0346254A1360244AD9
:10245000BB6B5360224AFB6B93607B6BDAB2204B01
:102460001A731F4B00221A611D4B00225A611C4B2C
:1024700000229A61B86AFFF7DBFE03461A46184B42
:10248000DA61174B1B68184600F032F8144BDB6911
:102490005BB21A4665211348FFF790FB02E00D4B33
:1024A00000225A66FFF702FF0346002B0CD00E4AAB
:1024B000084B1046194668231A4610F072FB0D228D
:1024C00009490A48FFF7DEFA002318464037BD469F
:1024D00080BD00BFC0100020EC450108E0420108AB
:1024E000B0190020D01900202811002000E80308AE
:1024F000B0B58CB00AAF78602A4B5B6E012B4DD122
:10250000284BDB69002B23D1274BDB687868984781
:10251000254BDC69234BDB6D59B2244B5868234BA8
:102520009B68224A127B42F2107508950025079598
:1025300000250695002505950125049500250395A0
:102540000625029501920093034600220120A04730
:10255000144BDB69012B21D1134BDB68786898475A
:10256000114B9C69114B5968104B9A680F4B1B7BA0
:10257000012009900020089000200790002006907C
:102580000120059000200490002003900520029077
:1025900006200190002000900120A04700BF0837CE
:1025A000BD46B0BDC0100020CC4A0108B0190020C3
:1025B00080B584B002AF786000220421074803F0A0
:1025C00079F80023009300230022032178680BF0A0
:1025D00005FB00BF0837BD4680BD00BF00040048B2
:1025E00080B582B000AF786000220421034803F078
:1025F00061F800BF0837BD4680BD00BF0004004839
:1026000080B582B002AF104B0093002300225A2104
:1026100000200BF085FA03460C4A13600023009358
:102620000B4B00224FF0FF310A480FF02DFA4FF408
:10263000C87108480FF03CFB00220421064803F053
:1026400039F800BFBD4680BDB1250008A01B0020A1
:10265000E1250008A41B00200004004890B583B0C9
:1026600002AF104B1B6818460BF0C6FD0346002B4B
:1026700013D1012204210C4803F01CF80B480FF081
:1026800039FA084B1C680AF021FD0246002300932A
:102690000023012120460BF0A1FA00BF0437BD46FC
:1026A00090BD00BFA01B002000040048A41B002018
:1026B00080B586B002AF786039600523FB60074BB8
:1026C0001868FB68009300230122796808F0A0FDD8
:1026D000B860BB6818461037BD4680BDA8190020F9
:1026E000B0B5CEB000AF07F59C73A3F59A73186030
:1026F0000023C7F82831002387F837310023C7F8B3
:1027000030310023C7F82C3128200AF08DFBB54B5F
:10271000DB69042B01D001F0DDF94FF0FF33C7F87E
:1027200024311E23C7F82431AE4B1B69002B07D080
:10273000AC4B5B69002B03D1AA4BDB69012B11D099
:10274000A94B1B68184609F087FF03460A2B05D0E2
:10275000A54B1B680021184609F0B2FB0A200AF0BD
:1027600063FB3DE1A04B1B6807F11001D7F8242162
:10277000184609F08FFE0346002B00F0048107F590
:102780009C73A3F594735B68002BCDD0954B5B6E67
:10279000012B40F0E88097F8373183F00103DBB27A
:1027A000002B00F0958007F59C73A3F594735B688C
:1027B000202B40F08D8007F110030833C7F81C313F
:1027C000D7F81C315B68894A934240F08180D7F882
:1027D0001C311B681C2B7BD1854B1B681C211846A8
:1027E00008F0E8FDD7F81C311B681A4607F1100302
:1027F00008331146184601F0A9F8C7F81801D7F8B0
:102800001C311B6807F11002083213441B681A467A
:1028100007F59C73A3F596731A6007F59C73A3F5EF
:1028200096731B68D7F818219A421ED0714B1B680B
:10283000C7F82831704AD7F81C3114461D460FCD11
:102840000FC495E80F0084E80F00D7F82801FFF7C0
:102850004FFE6A4B5B6B4FF4FA6098470023C7F852
:102860002C310023C7F83031BAE00023C7F83031EB
:10287000012387F83731604AD7F81C3114461D46CA
:102880000FCD0FC495E80F0084E80F000023C7F8B0
:102890002C31D7F82C01FFF7EBFCC7F82801D7F84B
:1028A0002801FFF725FE554B5B6BC8209847D7F8EA
:1028B00030310133C7F83031D7F82C310133C7F844
:1028C0002C314D4B5B7C19464D48FFF71DFA87E0D4
:1028D00097F83731002B46D0D7F830310133C7F89D
:1028E000303107F59C73A3F594735B68FE2B15D804
:1028F000002387F837313F4B1B68C7F82831202267
:1029000000213D4810F020F8D7F82801FFF7F0FD2E
:102910003A4B5B6B4FF4FA60984724E0D7F82C01F0
:10292000FFF7A6FCC7F82801D7F82C310133C7F808
:102930002C31D7F82C31092B0DDD2E4B1B68C7F835
:102940002831D7F82801FFF7D3FD2C4B5B6B4FF4F0
:10295000FA60984707E0D7F82801FFF7C9FD274B31
:102960005B6BC8209847FFF779FE07F59C73A3F5CA
:1029700094735B689AB207F1100308331946214833
:1029800005F060FBD0E6174B5B6E012B7FF4CCAEFD
:1029900000211820FFF78CFEC7F82001D7F820315E
:1029A00003F01803002B3FF4BFAE20220021124891
:1029B0000FF0CAFF0F4B1B68C7F82831002387F8B8
:1029C00037310023C7F82C310023C7F83031D7F84E
:1029D0002801FFF78DFD094B5B6B4FF4FA609847B8
:1029E000A2E600BFC0100020A0190020EDFEEDFE01
:1029F000A8190020B0190020381A0020CC4A01087C
:102A00004A1A00209C05002080B500AF074B012228
:102A10005A61064B0022DA6014200AF005FA034BD3
:102A200000225A610023184680BD00BFC01000205C
:102A300080B500AF054B01225A61044B0122DA60D8
:102A400014200AF0F1F90023184680BDC0100020C0
:102A500080B5CCB000AF07F59873A3F596731860F6
:102A60000023C7F80C310023C7F82C3107F5987301
:102A7000A3F5927318464FF480731A4600210FF0A5
:102A800063FF002387F82B310023C7F82431A84BBC
:102A90001B69002B07D0A64B5B69002B03D1A44B0D
:102AA000DB69002B14D0A34B1B68184609F0D4FD3A
:102AB0000346142B08D09F4B1B680021184609F0D1
:102AC000FFF99D4800F024FF0A200AF0ADF9ABE1C0
:102AD0009A4B1B68012B15D1954BDB69002B0BD151
:102AE000934B9B69012B07D1FFF722FC944B1B688A
:102AF0000121184608F097FC904B00221A60022032
:102B00000AF092F98B4B1B6807F58671052218466F
:102B100009F0C0FCC7F82001874800F009FFC7F89A
:102B20002C01834BDB68002B40F07681D7F82C31E9
:102B3000002B00F07181D7F82C31002B69D07C4B31
:102B40005B6E012B65D197F82B3183F00103DBB26B
:102B5000002B5ED0012387F82B317A4B00225A617B
:102B60007948FFF707FB01200AF05EF90A21774850
:102B7000FFF7CAF8734B1B690133724A1361714B3B
:102B80001B690A2B02D16F4B00221A616D4B1B6827
:102B9000C7F824316E4BDB68D7F82401984707F15A
:102BA0000C032022684918460FF0FBFF694B1B6895
:102BB0000133694A136064210120FFF779FDC7F8EA
:102BC0001C01D7F81C3103F00103002B0DD00120AC
:102BD0000AF02AF95E4B9B6A07F10C02202110468D
:102BE000984708200AF020F909E005200AF01CF9AE
:102BF000574B9B6A07F10C02202110469847554B12
:102C00001B680133534A13604B4800F091FEC7F82C
:102C10002C01D7F82C31FE2B40F2A28007F10C03D7
:102C2000FF221946444800F029FEFFF717FDC8218E
:102C30000120FFF73DFDC7F814013D4B5B6E012BF2
:102C40001ED1404B5B691846FFF712FBC7F8240101
:102C50003F4BDB68D7F8240198473A4B5B69013357
:102C6000384A5361374B5B69092B09DD354B5B698A
:102C700019463A4800F06EFD002387F82B31D3E067
:102C8000D7F8143103F00103002B0CD0314B1B6833
:102C90000133314A13602E4B9B6A07F10C02FF216E
:102CA000104698471FE02B4B1B6801332A4A1360DC
:102CB00064210120FFF7FCFCC7F81001D7F81031A0
:102CC00003F00103002B07D1214B9B6A07F10C0293
:102CD000FF211046984706E01D4B9B6A07F10C0246
:102CE000FF2110469847124B1B6BB3F5964F03D14B
:102CF0000C200AF099F815E00D4B1B6BB3F5164F3D
:102D000003D108200AF090F80CE0094B1B6B4FF23E
:102D10002442934203D105200AF086F802E00A20FB
:102D20000AF082F80B4B1B6801330A4A13607AE001
:102D3000C0100020A419002090110020741A002057
:102D4000A8190020B0190020381A00204A1A0020C3
:102D5000CC4A0108AC190020941A0020F042010866
:102D6000D7F82031002B5ED1D7F82C31002B5AD068
:102D7000D7F82C31FE2B56D82C4B5B6E012B29D16A
:102D8000D7F82C31C7F8183103200AF04DF828483D
:102D900000F0CEFDC7F82C01D7F82C21D7F8183158
:102DA0009A4207D9D7F82C21D7F81811214800F0FA
:102DB000D1FC39E0204B5B691846FFF759FAC7F898
:102DC0002401D7F82401FFF793FB1B4B5B69013308
:102DD000194A5361002387F82B3107F10C03D7F808
:102DE0002C211946124800F049FD144B9B6AD7F874
:102DF0002C21D1B207F10C0210469847104B1B68EA
:102E00000133104A136008200AF00EF80C4B1B68BF
:102E100001330B4A136006E0084BDB6A98470A202F
:102E20000AF002F833E600BF31E600BFC010002010
:102E30009011002000430108B0190020CC4A01087D
:102E4000AC190020941A002080B584B000AF7860DF
:102E50000B467B80134B1B69002B1DD0114BDB688D
:102E6000002B19D10F4BDB69002B15D17B881A463B
:102E700079680D4800F0BAFC7B88FB600B4B186842
:102E800007F10C010023002209F066F90346002B2C
:102E900002D1074800F05EFC002318461037BD46FB
:102EA00080BD00BFC010002090110020A419002098
:102EB0002443010880B584B002AF604B00221A6140
:102EC0005E4B00225A6608F089F903465C4A13609B
:102ED000FFF758F800224FF484710A2009F0D7F860
:102EE0000346584A136000220421142009F0CFF849
:102EF0000346554A13604FF400625449544800F0A9
:102F000059FC4FF400625149524800F053FC05202F
:102F100009F08AFF002301933623009300234FF426
:102F200080624D494D4809F0ADFD7860052009F0FB
:102F30007BFF002301933623009300234FF480622C
:102F40004749484809F09EFD78603D4B1B680421C5
:102F5000184608F068FA3A4B1B680121184608F039
:102F600062FAFFF74DFB354B3F4A1A60334B0122A3
:102F70001A61324B00229A61304B01225A612F4B69
:102F80000122DA602D4B0122DA612C4B374A9A6418
:102F90002A4B364ADA64294BFA229A62274BFA22E4
:102FA000DA62264B4FF416421A63244B03225A630B
:102FB000224B5B6B214A9363204B0A22DA650D2278
:102FC0002B492C48FEF7F4FC294B1B68264A9342F8
:102FD0000DD0274A194B1046194668231A460FF0A0
:102FE000E0FD0D2222492348FEF74CFD1BE0204B5B
:102FF000DB69124AD3611E4B9B6C104A93641C4BD5
:10300000DB6C0E4AD3641A4B1B6B0C4A1363184BD0
:103010005B6B0A4A5363164B9B6B084A9363144BD2
:10302000DB6D064AD365054B0422DA61034B0122AE
:10303000DA60002318460837BD4680BDC010002066
:10304000A8190020A0190020A4190020A011002018
:1030500090110020841A002038430108512A0008EA
:1030600044430108E1260008EFBEEDFEC0CA8936E0
:103070002811002000E8030880B483B000AF786016
:10308000064BD3F8802005497B681343C1F8803094
:1030900000BF0C37BD4680BC704700BF0008005819
:1030A00080B5ACB000AF78600B467B800023FB603E
:1030B0007B88C7F8A43000237B6100233B61D7F8ED
:1030C000A430002B40F39580D7F8A4307B617B6857
:1030D0001B684A4A934243D17B681B6F022B03D083
:1030E0007B681B6F002B3BD10023C7F8AC302EE070
:1030F000D7F8A420D7F8AC30D31A802BA8BF8023F0
:10310000C7F8A030D7F8AC303D4A9918D7F8A020BE
:1031100007F11003083318460FF043FDD7F8A0302D
:103120007B61384B1B68184609F0CAFB0346002B2D
:1031300008D1344B186807F10C0207F11001002385
:1031400009F00CF9D7F8AC308033C7F8AC30D7F8B9
:10315000AC20D7F8A4309A42CADB786800F098F81F
:103160007B681B68284A934243D17B681B6F022B04
:1031700003D07B681B6F002B3BD10023C7F8A8301E
:103180002EE0D7F8A420D7F8A830D31A802BA8BFF8
:103190008023C7F89C30D7F8A8301C4A9918D7F874
:1031A0009C2007F11003083318460FF0FAFCD7F8FB
:1031B0009C307B61164B1B68184609F081FB034667
:1031C000002B08D1124B186807F10C0207F110010F
:1031D000002309F0C3F8D7F8A8308033C7F8A83027
:1031E000D7F8A820D7F8A4309A42CADB786800F054
:1031F0004FF800BFB037BD4680BD00BF003801406A
:10320000D81B0020C01B002000440040DC2100200F
:10321000C41B002080B584B000AF78600023BB6081
:103220007B681B68154A934208D1154B1B6807F150
:1032300008020121184608F0B1F9F8607B681B68A4
:10324000104A934208D1104B1B6807F10802022173
:10325000184608F0A3F9F860FB68002B0AD0BB6899
:10326000002B07D0094B4FF080521A60BFF34F8FED
:10327000BFF36F8F00BF1037BD4680BD00380140DF
:10328000C81B002000440040CC1B002004ED00E0DF
:1032900080B584B000AF78600123FB737B681B6846
:1032A0001F4A934218D14FF4C0621E49786807F054
:1032B000ACFC0346FB737B68D3F88030002B0BD04B
:1032C0007B68D3F880301B681A687B68D3F880303D
:1032D0001B6822F004021A607B681B68124A934242
:1032E00018D14FF4C0621149786807F08EFC03468C
:1032F000FB737B68D3F88030002B0BD07B68D3F84E
:1033000080301B681A687B68D3F880301B6822F015
:1033100004021A60FB7B18461037BD4680BD00BF13
:1033200000380140D81B002000440040DC21002070
:1033300080B5ACB000AF78607B68D3F89030102BCC
:1033400002D17868FFF7A4FF7B68D3F89030082B90
:1033500040F09D800023C7F894307B681B684E4A7C
:10336000934247D17B68B3F85E309BB2C7F8A43074
:10337000D7F8A430002B3ADD0023BB600023C7F848
:10338000AC302EE0D7F8A420D7F8AC30D31A802B7D
:10339000A8BF8023C7F8A030D7F8AC303F4A9918AF
:1033A000D7F8A02007F10803083318460FF0F9FBFF
:1033B000D7F8A030FB603A4B1B68184609F080FA3A
:1033C0000346002B08D1364B186807F1940207F129
:1033D0000801002308F0C2FFD7F8AC308033C7F8EB
:1033E000AC30D7F8AC20D7F8A4309A42CADB786862
:1033F000FFF74EFF7B681B682A4A934247D17B68E0
:10340000B3F85E309BB2C7F89C30D7F89C30002BE5
:103410003ADD0023BB600023C7F8A8302EE0D7F8C0
:103420009C20D7F8A830D31A802BA8BF8023C7F8D8
:103430009830D7F8A8301C4A9918D7F8982007F187
:103440000803083318460FF0ACFBD7F89830FB6040
:10345000164B1B68184609F033FA0346002B08D1B7
:10346000124B186807F1940207F10801002308F0D5
:1034700075FFD7F8A8308033C7F8A830D7F8A82050
:10348000D7F89C309A42CADB7868FFF701FF00BF8B
:10349000B037BD4680BD00BF00380140D81B0020BA
:1034A000C01B002000440040DC210020C41B002081
:1034B00080B5A8B000AF78607B681B68C7F894300F
:1034C0000023C7F89C300023C7F89830D7F8943011
:1034D000012B04D0D7F89430022B07D00EE0204BFC
:1034E000C7F89C301F4BC7F898300BE01E4BC7F84D
:1034F0009C301E4BC7F8983000BF03E0002009F055
:103500001FFC2AE0D7F89C301B6807F108014FF038
:10351000FF32184608F0BEFF0346002BF2D0BB680E
:10352000012B03D9033B012B13D815E0D7F89830B2
:103530001B68002B0FD0FB68002B0CD0D7F89830FD
:103540001B68FA6891B207F10802083210469847E2
:1035500001E000BFD6E700BFD4E7A037BD4680BD7D
:10356000C01B0020D01B0020C41B0020D41B002047
:1035700080B500AFFDF73AF8FDF722FF4FF000608D
:10358000FFF77AFD00BF80BD80B584B002AF022393
:103590007B6000228C21142008F079FD0346184A34
:1035A000136007F01BFE0346164A1360FFF7E0FFA7
:1035B000144B1B680221184607F035FF3B1D002203
:1035C0000192372200924FF440620F490F4809F0F0
:1035D00059FA0F4A01210F4804F03EFC0E490D48EC
:1035E00004F0F2FC0D4A04210A4804F035FC0948B5
:1035F000FFF74EFE002318460837BD4680BD00BFCA
:10360000C41B0020CC1B00205C430108B13400081F
:103610001532000868060020A13000083133000888
:1036200080B588B002AF78600B467B8005233B6194
:103630000E4B18683B69009300230122012107F01B
:10364000E7FDF8604FF0FF337B617B881A467968AD
:10365000074804F0F7FC0346002B01D100237B61EF
:103660007B6918461837BD4680BD00BFC81B0020C7
:103670009C05002080B483B000AF7860044A7B686A
:103680001360002318460C37BD4680BC704700BF4E
:10369000D41B002080B588B002AF78603960052364
:1036A0003B610F4B18683B69009300230122022104
:1036B00007F0AEFDF8604FF0FF337B613B689BB2D3
:1036C0001A467968074804F0BDFC0346002B01D177
:1036D00000237B617B6918461837BD4680BD00BF5B
:1036E000CC1B0020680600200CB480B584B000AF6D
:1036F0007860396007F11C03FB603968FB68BA69C0
:1037000078680EF055FD00BF1037BD46BDE880401B
:1037100002B0704780B586B002AF7860396007F1BB
:10372000080318460EF068F9BB68B7F90C20009240
:10373000074A10217868FFF7D7FF7868FCF720FD6B
:1037400003469AB23B681A8000BF1037BD4680BD61
:10375000684301080FB480B584B000AF0023FB803C
:103760000023FB81BB1D19461148FFF7D3FF07F16A
:103770001C03BB60FB881A460D4BD018BB68BA69A6
:103780004FF480710EF014FD0346BB81FA88BB89AB
:103790001344BB81BB891946054800F051F9BB8928
:1037A00018461037BD46BDE8804004B0704700BFE2
:1037B000E027002080B584B000AFF860B9607A607F
:1037C00010220021F8680FF0BFF8FB68BA68DA60D1
:1037D000FB6800229A60FB6800225A60FB687A68E6
:1037E0001A60002318461037BD4680BD80B588B0EA
:1037F00000AFF860B9607A60FB681A68FB689B6884
:10380000D21AFB685B681344FB617A68FB699342D8
:1038100028BF13467B60FB689A68FB681B68013B06
:103820001340BB61FB681A68BB69D31A7A6893427C
:1038300028BF13467B61FB68DA68BB6913447A6969
:10384000B96818460FF0ADF97A687B699A420AD9CF
:10385000FB68D868BA687B69D1187A687B69D31A23
:103860001A460FF09EF9FB689A687B681A44FB6859
:103870009A607B6818462037BD4680BD80B588B009
:1038800000AFF860B9607A60FB689A68FB685B68B3
:10389000D31AFB61FB69002B01D1002334E07A6865
:1038A000FB69934228BF13467B60FB685A68FB683C
:1038B0001B68013B1340BB61FB681A68BB69D31AE4
:1038C0007A68934228BF13467B61FB68DA68BB695C
:1038D00013447A691946B8680FF063F97A687B690E
:1038E0009A420AD9BA687B69D018FB68D9687A68A5
:1038F0007B69D31A1A460FF054F9FB685A687B6843
:103900001A44FB685A607B6818462037BD4680BD64
:1039100080B483B000AF78607B6800225A607B6817
:103920005A687B689A6000BF0C37BD4680BC704700
:1039300080B483B000AF78607B689A687B685B680E
:10394000D31A18460C37BD4680BC704780B485B08A
:1039500000AF786039600023FB600023BB6012E099
:10396000FB681B0223F07F42FB681B0CB968786878
:10397000014409784B40094951F823305340FB601A
:10398000BB680133BB60BA683B689A42E8DBFB68FE
:1039900018461437BD4680BC704700BF0446010876
:1039A00080B500AF0A4B0B4A1A60094B0A4A9A606D
:1039B000074B0A4A5A60064B094ADA60044B094A27
:1039C0001A61094B1B680248984700BF80BD00BFC1
:1039D000E0280020ED390008F93900081D3A0008F8
:1039E000293A0008353A0008CC4A010880B400AFF3
:1039F00000BFBD4680BC704780B485B000AFF860A2
:103A0000084611461A4603467B810B463B81134606
:103A1000FB7100BF1437BD4680BC704780B400AF57
:103A200000BFBD4680BC704780B400AF00BFBD463C
:103A300080BC704780B400AF00BFBD4680BC7047FB
:103A400080B582B000AF78600B467B800A4B1B6864
:103A5000002B06D17B8819467868FFF7E1FD034605
:103A600005E07B8819467868FFF714FE0346184680
:103A70000837BD4680BD00BFFC28002080B584B05B
:103A800000AF786039603B68FB600E4B1A680E49E6
:103A900013469B0013449B000B440C3302221A7004
:103AA0000A4A0B49F8680EF0BBFEFEF741FCFEF730
:103AB000ABFFF868FCF764FBB860BB6818461037CA
:103AC000BD4680BDFC280020002900207443010869
:103AD0008843010880B590B000AF3B4640220021EA
:103AE00018460EF031FF064B1B681A463B46194636
:103AF0001046FFF7C3FF00BF4037BD4680BD00BF83
:103B0000FC28002080B584B000AF786039600D4B90
:103B10001A680D4913469B0013449B000B440C3359
:103B200000221A700323FB60FB689BB2194607480A
:103B3000FFF786FFFEF77CFF002318461037BD46CF
:103B400080BD00BFFC280020002900208C43010814
:103B500080B584B000AF786039603B68FB600422B8
:103B6000124938680EF006FF0346002B0ED0F868A5
:103B7000FCF706FB0246FB6813440D4918460EF09D
:103B80004FFEF868FCF7FCFA03460BE00023BB602D
:103B9000084A0949F8680EF043FEF868FCF7F0FAA5
:103BA000B860BB6818461037BD4680BD9043010819
:103BB00098430108A4430108AC43010880B586B0CE
:103BC00000AF786039603B687B61FEF7D1F93861FE
:103BD0003B69DB69FB603B69DB69FB60FA680649AE
:103BE00078690EF01DFE7869FCF7CAFA034618469C
:103BF0001837BD4680BD00BFC043010880B586B000
:103C000000AF786039603B687B61FEF7B1F93861DD
:103C10000023FB6007F10C031A46174978690EF080
:103C200021FE0346002B0FDA7869FCF7A9FA024659
:103C30007B691344114A124918460EF0F1FD786968
:103C4000FCF79EFA034612E07869FCF799FA0246FF
:103C50007B6913440B4A0A4918460EF0E1FDFB68E4
:103C60001A463B69DA617869FCF78AFA0346184616
:103C70001837BD4680BD00BFD443010898430108F2
:103C800088430108E443010880B586B000AF78603E
:103C900039603B687B61FEF76BF938610023FB609C
:103CA00007F10C031A46154978690EF0DBFD03464F
:103CB000002B0BDA7869FCF763FA02467B69134440
:103CC0000F4A104918460EF0ABFD0EE0FB681A468D
:103CD0003B699A617869FCF753FA02467B691344A1
:103CE000094A084918460EF09BFD7869FCF748FA26
:103CF000034618461837BD4680BD00BFEC43010897
:103D00009843010888430108E443010880B584B062
:103D100000AF786039603B68FB60FEF729F9B86056
:103D2000BB689B691A460649F8680EF079FDF86889
:103D3000FCF726FA034618461037BD4680BD00BF83
:103D4000FC43010880B586B000AF786039603B68FD
:103D50007B61FEF70DF938610023FB6007F10C036E
:103D60001A46154978690EF07DFD0346002B0BDAE3
:103D70007869FCF705FA02467B6913440F4A10493B
:103D800018460EF04DFD0EE0FB681A463B69DA65F9
:103D90007869FCF7F5F902467B691344094A08493A
:103DA00018460EF03DFD7869FCF7EAF9034618461F
:103DB0001837BD4680BD00BF104401089843010874
:103DC00088430108E443010880B584B000AF7860FF
:103DD0003960FEF7CDF8F8603B68BB60FB68DB6DCF
:103DE0001A460649B8680EF01BFDB868FCF7C8F91A
:103DF000034618461037BD4680BD00BF1C4401086D
:103E000080B58AB002AF786039603B68FB61FEF72D
:103E1000AFF8B86107F10C0107F1140207F10803CC
:103E2000019307F1100300930B462049F8690EF047
:103E300019FD0346002B0BDAF869FCF7A1F90246DD
:103E4000FB6913441A4A1B4918460EF0E9FC24E0AA
:103E50007B69194A03FB02F2FB684FF47A7101FB9C
:103E600003F313441A46BB699A643B69124A03FB85
:103E700002F2BB684FF47A7101FB03F313441A4654
:103E8000BB69DA64F869FCF77BF90246FB69134405
:103E90000A4A084918460EF0C3FCF869FCF770F9A5
:103EA000034618462037BD4680BD00BF3044010898
:103EB000984301088843010840420F00E443010889
:103EC000B0B586B002AF78603960FEF751F8F8609F
:103ED0003B68BB60FB689B6C1C4AA2FB03239B0CEA
:103EE0001C46FB689A6C194BA3FB02139B0C1849E8
:103EF00001FB03F3D31A174AA2FB03239B091D46B8
:103F0000FB68DB6C114AA2FB03239B0C1846FB6881
:103F1000DA6C0E4BA3FB02139B0C0D4901FB03F360
:103F2000D31A0C4AA2FB03239B09019300902B4652
:103F300022460949B8680EF073FCB868FCF720F90E
:103F4000034618461037BD46B0BD00BF83DE1B4395
:103F500040420F00D34D62104C44010880B586B03A
:103F600000AF786039603B687B61FEF701F838612B
:103F70004FF4FA73BB604FF4FA73FB6007F1080368
:103F800007F10802164978690EF06CFC0346002B15
:103F90000BDA7869FCF7F4F802467B691344114A9E
:103FA000114918460EF03CFC11E0BB681A463B690B
:103FB0009A62FA683B69DA627869FCF7E1F80246CE
:103FC0007B691344094A084918460EF029FC7869B0
:103FD000FCF7D6F8034618461837BD4680BD00BF2B
:103FE0006C4401089843010888430108E443010830
:103FF00080B584B000AF78603960FDF7B9FFF86034
:104000003B68BB60FB689A6AFB68DB6A0549B86875
:104010000EF006FCB868FCF7B3F8034618461037F4
:10402000BD4680BD7C44010880B586B000AF786095
:1040300039603B687B61FDF79BFF386107F10C033A
:104040001A46154978690EF00DFC0346002B0BDA71
:104050007869FCF795F802467B6913440F4A1049CA
:1040600018460EF0DDFB0EE0FB681A463B691A634A
:104070007869FCF785F802467B691344094A0849C8
:1040800018460EF0CDFB7869FCF77AF8034618461F
:104090001837BD4680BD00BF94440108984301080D
:1040A00088430108E443010880B584B000AF78601C
:1040B0003960FDF75DFFF8603B68BB60FB681B6B18
:1040C0001A460649B8680EF0ABFBB868FCF758F81A
:1040D000034618461037BD4680BD00BFA044010806
:1040E00080B58AB000AFB9607B600346FB731346AE
:1040F000BB7300237B62FA7B13469B0013449B0037
:10410000374A13443B623B6A1B69FB610023BB6176
:104110003B6A1B7B022B1ED13249B8680EF04AFC69
:104120000346002B0FD03B6A00229A603B6A5B6813
:104130001A460021F8690EF007FCFB7BF969184666
:10414000FFF7E0FC05E0BB7B9BB21946B868FEF7C1
:104150007BFE002340E0BA7B3B6A9B681A443B6AC3
:104160005B689A420BD93B6A00229A603B6A5B68A3
:104170001A460021F8690EF0E7FB00232CE03B6AA9
:104180001A693B6A9B681344BA7BB96818460EF0FB
:1041900008FD3B6A9B685A003B6A9A601249F869BD
:1041A0000EF008FCB8611149F8690EF003FC786163
:1041B0007B69002B0FD0BB69002B0CD07A69BB69DF
:1041C000D31A02337B623B6A00229A607B68BA6929
:1041D0001A607B6A00E0002318462837BD4680BD80
:1041E000002900208C430108B4440108B8440108A8
:1041F00080B485B000AF0346B9607A60FB73BB68DA
:10420000002B37D07B687F2B34D9FA7B1C491346AF
:104210009B0013449B000B441033BA681A60FA7B6E
:10422000174913469B0013449B000B4404337A68E0
:104230001A60FA7B124913469B0013449B000B44FF
:104240000C3300221A70FA7B0D4913469B0013446D
:104250009B000B4400221A60FA7B094913469B001D
:1042600013449B000B44083300221A60FB7B054A71
:10427000136000E000BF1437BD4680BC704700BF2C
:1042800000290020FC28002080B588B000AFF8602D
:10429000B9607A603B600023FB6100237B613B686F
:1042A0003B617B68402B02D94FF0FF3389E000234C
:1042B000BB6181E04549BA6913469B0013449B00EA
:1042C0000B441B78002B74D0BA6913469B0013442F
:1042D0009B003E4A134401331946B8680EF06AFB4E
:1042E00078617B69002B64D08022002138690EF050
:1042F0002BFB7A68B96838690EF053FC3F21B86827
:104300000EF02AFB0346002B22D03049BA6913462F
:104310009B0013449B000B4410331B68002B48D0B8
:104320002A49BA6913469B0013449B000B4410337F
:104330001B683969F86898470346FB61FB69002BE5
:1043400037DDFB699BB219463869FFF779FB30E02E
:104350001E49BA6913469B0013449B000B440C335F
:104360001B68002B17D01949BA6913469B001344E8
:104370009B000B440C331B683969F8689847034667
:10438000FB61FB69002B14DDFB699BB219463869A0
:10439000FFF756FB0DE0BA690D4938690EF040FA97
:1043A0003869FBF7EDFE03469BB219463869FFF703
:1043B00047FBBB690133BB61BB69082B7FF77AAF51
:1043C000FB6918462037BD4680BD00BF00000020B5
:1043D000BC44010880B586B000AF78600B467B8096
:1043E00000237B6100233B610023FB60194B1B68AA
:1043F000002B29DB174B1B68D8B27B88DAB207F198
:104400000C037968FFF76CFE03463B613B69002BA8
:104410001ADD3B69802B17DC802200210E480EF04C
:1044200093FA802200210D480EF08EFAFB683A695B
:10443000194609480EF0B5FB064B1B6818463A6949
:10444000064B0549FFF720FF7B6918461837BD4624
:1044500080BD00BFFC28002028290020AC290020B6
:1044600080B500AF06F0ACFC0346184680BD80B5B1
:1044700082B000AF0346FB71FB79184606F0E0FC02
:10448000034618460837BD4680BD80B500AF06F02C
:1044900037FD0346184680BD80B500AF06F037FDF6
:1044A0000346184680BD80B500AF06F037FD0346D1
:1044B000184680BD80B582B000AF0346FB71FB7922
:1044C000184606F032FD034618460837BD4680BD43
:1044D00080B400AF00BFBD4680BC704780B400AF61
:1044E000044B5B68034A43F00103536000BFBD46C1
:1044F00080BC7047002004E080B400AF044B5B68D0
:10450000034A43F00203536000BFBD4680BC7047BE
:10451000002004E080B400AF044B5B68034A43F022
:104520000403536000BFBD4680BC7047002004E018
:1045300080B582B000AF0023FB71032000F0F8F8D3
:1045400002F0C0F80346094A13600F20FCF734FB61
:104550000346002B02D00123FB7101E0FCF700FAB7
:10456000FB7918460837BD4680BD00BFB400002067
:1045700080B500AFFFF7B2FF00BF80BD80B500AFD0
:10458000FFF7BAFF00BF80BD80B500AFFFF7C2FFE5
:1045900000BF80BD80B485B000AF78607B6803F059
:1045A0000703FB600C4BDB68BB60BA684FF6FF0388
:1045B0001340BB60FB681A02BB68134343F0BF6340
:1045C00043F40033BB60044ABB68D36000BF1437B8
:1045D000BD4680BC704700BF00ED00E080B400AF76
:1045E000044BDB681B0A03F007031846BD4680BC7A
:1045F000704700BF00ED00E080B483B000AF034619
:10460000FB7197F90730002B0BDBFB7903F01F02DE
:10461000064997F907305B09012000FA02F241F8D8
:10462000232000BF0C37BD4680BC704700E100E08E
:1046300080B483B000AF0346FB7197F90730002BBD
:1046400012DBFB7903F01F020A4997F907305B0977
:10465000012000FA02F2203341F82320BFF34F8FEC
:1046600000BFBFF36F8F00BF00BF0C37BD4680BCDB
:10467000704700BF00E100E080B483B000AF0346A4
:104680003960FB7197F90730002B0ADB3B68DAB21F
:104690000C4997F907301201D2B20B4483F800237A
:1046A0000AE03B68DAB20849FB7903F00F03043BE8
:1046B0001201D2B20B441A7600BF0C37BD4680BC43
:1046C000704700BF00E100E000ED00E080B489B079
:1046D00000AFF860B9607A60FB6803F00703FB6124
:1046E000FB69C3F10703042B28BF0423BB61FB69EB
:1046F0000433062B02D9FB69033B00E000237B61F6
:104700004FF0FF32BB6902FA03F3DA43BB681A4089
:104710007B699A404FF0FF317B6901FA03F3D9437B
:104720007B680B40134318462437BD4680BC704756
:1047300080B582B000AF78607868FFF72BFF00BFCC
:104740000837BD4680BD80B586B000AF0346B9606E
:104750007A60FB73FFF742FF78617A68B96878691D
:10476000FFF7B4FF024697F90F3011461846FFF7DE
:1047700083FF00BF1837BD4680BD80B582B000AF53
:104780000346FB7197F907301846FFF735FF00BF66
:104790000837BD4680BD80B582B000AF0346FB71CF
:1047A00097F907301846FFF743FF00BF0837BD46AB
:1047B00080BD000080B582B000AF78607B68002BC0
:1047C00001D101238EE07B681B681A46474B9A4251
:1047D0000FD87B681B681A46454B1344454AA2FB19
:1047E00003231B099A007B685A647B68424A1A6457
:1047F0000EE07B681B681A46404B13443D4AA2FBFF
:1048000003231B099A007B685A647B683C4A1A643C
:104810007B68022283F825207B681B681B687A6806
:10482000126823F4FF4323F0700313607B681B6856
:1048300019687B689A687B68DB681A437B681B6928
:104840001A437B685B691A437B689B691A437B68E0
:10485000DB691A437B681B6A1A437B681B680A433F
:104860001A60786800F024FB7B689B68B3F5804F82
:1048700002D17B6800225A607B685A687B689B6C17
:1048800002F07F021A607B68DB6C7A68126D5A60F6
:104890007B685B68002B10D07B685B68042B0CD8AE
:1048A000786800F04DFB7B685B6D00221A607B68C6
:1048B0009B6D7A68D26D5A6008E07B6800225A6569
:1048C0007B6800229A657B680022DA657B6800229B
:1048D000DA637B68012283F825207B68002283F855
:1048E0002420002318460837BD4680BD0704024037
:1048F000F8FFFDBFCDCCCCCC00000240F8FBFDBFE3
:104900000004024080B582B000AF78607B68002B65
:1049100001D101237BE07B681B681A687B681B68F8
:1049200022F001021A607B681B681A463A4B9A42D1
:104930000FD87B681B681A46384B1344384AA2FBD1
:1049400003231B099A007B685A647B68354A1A6402
:104950000EE07B681B681A46334B1344304AA2FBB7
:1049600003231B099A007B685A647B682F4A1A64E8
:104970007B681B6800221A607B685B6C03F01C027A
:104980007B681B6C012101FA02F25A60786800F022
:104990008FFA7B689B6C00221A607B68DB6C7A68FC
:1049A000126D5A607B685B68002B0FD07B685B6878
:1049B000042B0BD8786800F0C3FA7B685B6D00228B
:1049C0001A607B689B6D7A68D26D5A607B680022A2
:1049D0005A657B6800229A657B680022DA657B68ED
:1049E0000022DA627B6800221A637B6800225A6325
:1049F0007B6800229A637B680022DA637B6800226E
:104A000083F825207B68002283F8242000231846A1
:104A10000837BD4680BD00BF07040240F8FFFDBF58
:104A2000CDCCCCCC00000240F8FBFDBF000402401E
:104A300080B586B000AFF860B9607A603B60002353
:104A4000FB75FB6893F82430012B01D1022369E048
:104A5000FB68012283F82420FB6893F82530DBB241
:104A6000012B55D1FB68022283F82520FB68002228
:104A7000DA63FB681B681A68FB681B6822F0010296
:104A80001A603B687A68B968F86800F0D3F9FB6887
:104A90001B6B002B08D0FB681B681A68FB681B683F
:104AA00042F00E021A600FE0FB681B681A68FB6890
:104AB0001B6822F004021A60FB681B681A68FB6816
:104AC0001B6842F00A021A60FB689B6C1B6803F4C7
:104AD0008033002B07D0FB689B6C1A68FB689B6CCB
:104AE00042F480721A60FB685B6D002B07D0FB6894
:104AF0005B6D1A68FB685B6D42F480721A60FB683C
:104B00001B681A68FB681B6842F001021A6008E023
:104B1000FB688022DA63FB68002283F824200123EB
:104B2000FB75FB7D18461837BD4680BD80B483B049
:104B300000AF78607B68002B01D101234FE07B68D8
:104B400093F82530DBB2022B08D07B680422DA63AD
:104B50007B68002283F82420012340E07B681B68E7
:104B60001A687B681B6822F00E021A607B689B6CD7
:104B70001A687B689B6C22F480721A607B681B68E1
:104B80001A687B681B6822F001021A607B685B6C04
:104B900003F01C027B681B6C012101FA02F25A60CF
:104BA0007B68DB6C7A68126D5A607B685B6D002BEA
:104BB0000CD07B685B6D1A687B685B6D22F4807239
:104BC0001A607B689B6D7A68D26D5A607B6801229F
:104BD00083F825207B68002283F8242000231846D0
:104BE0000C37BD4680BC704780B584B000AF78609C
:104BF0000023FB737B6893F82530DBB2022B05D0D2
:104C00007B680422DA630123FB7347E07B681B683F
:104C10001A687B681B6822F00E021A607B681B68AA
:104C20001A687B681B6822F001021A607B689B6C23
:104C30001A687B689B6C22F480721A607B685B6CDC
:104C400003F01C027B681B6C012101FA02F25A601E
:104C50007B68DB6C7A68126D5A607B685B6D002B39
:104C60000CD07B685B6D1A687B685B6D22F4807288
:104C70001A607B689B6D7A68D26D5A607B680122EE
:104C800083F825207B68002283F824207B689B6BB7
:104C9000002B03D07B689B6B78689847FB7B18469A
:104CA0001037BD4680BD000080B584B000AF78608D
:104CB0007B681B6C1B68FB607B681B681B68BB60A8
:104CC0007B685B6C03F01C0304229A40FB68134072
:104CD000002B27D0BB6803F00403002B22D07B6895
:104CE0001B681B6803F02003002B07D17B681B683F
:104CF0001A687B681B6822F004021A607B685B6C90
:104D000003F01C027B681B6C042101FA02F25A605A
:104D10007B681B6B002B00F081807B681B6B7868C5
:104D200098477BE07B685B6C03F01C0302229A408F
:104D3000FB681340002B3DD0BB6803F00203002B3F
:104D400038D07B681B681B6803F02003002B0BD155
:104D50007B681B681A687B681B6822F00A021A606D
:104D60007B68012283F825207B681B681A462E4B3E
:104D70009A4209D97B685B6C03F01C032B4A022121
:104D800001FA03F3536008E07B685B6C03F01C03DB
:104D9000274A022101FA03F353607B68002283F85B
:104DA00024207B68DB6A002B38D07B68DB6A78685C
:104DB000984733E07B685B6C03F01C0308229A4041
:104DC000FB681340002B2AD0BB6803F00803002BBC
:104DD00025D07B681B681A687B681B6822F00E026E
:104DE0001A607B685B6C03F01C027B681B6C012102
:104DF00001FA02F25A607B680122DA637B680122C1
:104E000083F825207B68002283F824207B685B6B75
:104E1000002B04D07B685B6B7868984700BF00BFAD
:104E20001037BD4680BD00BF800002400004024034
:104E30000000024080B485B000AFF860B9607A60CD
:104E40003B60FB68DB6CFA68126D5A60FB685B6D57
:104E5000002B04D0FB689B6DFA68D26D5A60FB682A
:104E60005B6C03F01C02FB681B6C012101FA02F26F
:104E70005A60FB681B683A685A60FB689B68102B95
:104E800008D1FB681B687A689A60FB681B68BA687F
:104E9000DA6007E0FB681B68BA689A60FB681B6809
:104EA0007A68DA6000BF1437BD4680BC70470000E6
:104EB00080B485B000AF78607B681B681A461C4BD5
:104EC0009A4213D87B685B6C9B089B0003F180437C
:104ED00003F502337A6893647B681B68DBB2083B96
:104EE000144AA2FB03231B09FB6011E07B685B6C87
:104EF0009B089A00104B13447A6893647B681B6884
:104F0000DBB2083B0B4AA2FB03231B090733FB6000
:104F10007B680A4ADA64FB6803F01F0301229A40A7
:104F20007B681A6500BF1437BD4680BC704700BF60
:104F300007040240CDCCCCCC1C08024080080240C3
:104F400080B485B000AF78607B685B6803F07F0356
:104F5000FB60FA680A4B13449B001A467B685A654B
:104F60007B68084A9A65FB68013B03F00303012252
:104F70009A407B68DA6500BF1437BD4680BC704735
:104F80003F8200104009024080B586B000AFF86053
:104F9000B960C7E900231C4B1B78012B01D1022308
:104FA0002DE0194B01221A70174B00225A604FF462
:104FB0007A7000F073F80346FB75FB7D002B1AD165
:104FC000FB68012B05D1D7E90023B86800F0C8F8C9
:104FD00004E03B681946B86800F0E8F84FF47A70CE
:104FE00000F05CF80346FB75084B5A69FB68DB432D
:104FF000064913404B61044B00221A70FB7D184692
:105000001837BD4680BD00BF302A00200040005840
:1050100080B483B000AF0023FB710B4B5B69002BA6
:105020000BDA094B094A9A60074B094A9A60064B0A
:105030005B69002B01DA0123FB71FB7918460C3701
:10504000BD4680BC704700BF004000582301674543
:10505000AB89EFCD80B483B000AF0023FB71094B67
:105060005B69084A43F000435361064B5B69002BC0
:1050700001DB0123FB71FB7918460C37BD4680BC70
:10508000704700BF0040005880B400AF024B5B681F
:105090001846BD4680BC7047302A002080B584B0D9
:1050A00000AF7860FBF792FDF86009E0FBF78EFD3A
:1050B0000246FB68D31A7A689A4201D8032346E075
:1050C000254B1B6903F48033B3F5803FEED0224BB0
:1050D0001B69BB60BB6803F00103002B02D01E4BB1
:1050E00001221A61BA684CF2FA331340BB60BB6804
:1050F000B3F1804F07D3184B9A69BB6803F0404364
:10510000154913438B61BB6823F04043002B04D047
:10511000114ABB6823F040431361BB68002B0ED0DB
:105120000E4ABB685360012311E0FBF74FFD0246B6
:10513000FB68D31A7A689A4201D8032307E0064B2A
:105140001B6903F48023B3F5802FEED000231846AB
:105150001037BD4680BD00BF00400058302A0020F7
:1051600080B485B000AFF860C7E900230E4B5B69DF
:105170000D4A43F001035361FB683A681A60BFF3BC
:105180006F8F00BFD7E900014FF000024FF000031E
:105190000A000023F968043113460B6000BF14377E
:1051A000BD4680BC704700BF0040005880B489B045
:1051B00000AF786039604023FB777B68BB613B6858
:1051C0007B61184B5B69174A43F480235361EFF30B
:1051D0001083FB60FB683B6172B600BF7B691A6895
:1051E000BB691A60BB690433BB617B6904337B61B3
:1051F000FB7F013BFB77FB7F002BEFD100BF094B0F
:105200001B6903F48033B3F5803FF8D03B69BB6082
:10521000BB6883F3108800BF00BF2437BD4680BC45
:10522000704700BF0040005880B483B000AF786082
:10523000084B5B6923F47E727B68DB001343054AED
:1052400043F4803343F00203536100BF0C37BD4683
:1052500080BC70470040005880B487B000AF7860D1
:10526000396000237B6140E13B681A6801217B695A
:1052700001FA03F31340FB60FB68002B00F032815E
:105280003B685B6803F00303012B05D03B685B6858
:1052900003F00303022B30D17B689B683B617B6981
:1052A0005B00032202FA03F3DB433A6913403B61DC
:1052B0003B68DA687B695B0002FA03F33A691343DF
:1052C0003B617B683A699A607B685B683B6101225D
:1052D0007B6902FA03F3DB433A6913403B613B68A5
:1052E0005B681B0903F001027B6902FA03F33A6968
:1052F00013433B617B683A695A603B685B6803F023
:105300000303032B17D07B68DB683B617B695B0081
:10531000032202FA03F3DB433A6913403B613B6823
:105320009A687B695B0002FA03F33A6913433B61B5
:105330007B683A69DA603B685B6803F00303022B21
:1053400023D17B69DA087B68083253F822303B614D
:105350007B6903F007039B000F2202FA03F3DB4390
:105360003A6913403B613B681A697B6903F00703A4
:105370009B0002FA03F33A6913433B617B69DA0845
:105380007B680832396943F822107B681B683B61EF
:105390007B695B00032202FA03F3DB433A691340A3
:1053A0003B613B685B6803F003027B695B0002FAC8
:1053B00003F33A6913433B617B683A691A603B68BF
:1053C0005B6803F44033002B00F08C804E4A7B690D
:1053D0009B08023352F823303B617B6903F00303DF
:1053E0009B00072202FA03F3DB433A6913403B6157
:1053F0007B68B3F1904F0DD07B68444A934207D04D
:105400007B68434A934201D1022304E0072302E070
:10541000012300E000237A6902F003029200934026
:105420003A6913433B6138497B699B0802333A6907
:1054300041F82320374B1B683B61FB68DB433A692B
:1054400013403B613B685B6803F48013002B03D07F
:105450003A69FB6813433B612E4A3B6913602D4B4D
:105460005B683B61FB68DB433A6913403B613B6827
:105470005B6803F40013002B03D03A69FB68134305
:105480003B61244A3B695360224BD3F880303B6137
:10549000FB68DB433A6913403B613B685B6803F49C
:1054A0008033002B03D03A69FB6813433B61194AF0
:1054B0003B69C2F88030174BD3F884303B61FB68FE
:1054C000DB433A6913403B613B685B6803F400339C
:1054D000002B03D03A69FB6813433B610D4A3B69DB
:1054E000C2F884307B6901337B613B681A687B6951
:1054F00022FA03F3002B7FF4B7AE00BF00BF1C37C6
:10550000BD4680BC704700BF000001400004004859
:10551000000800480008005880B487B000AF7860E9
:10552000396000237B61AFE001227B6902FA03F35B
:105530003A6813403B613B69002B00F0A280594A56
:105540007B699B08023352F82330FB607B6903F0D0
:1055500003039B00072202FA03F3FA681340FB607F
:105560007B68B3F1904F0DD07B684F4A934207D0D0
:105570007B684E4A934201D1022304E0072302E0F4
:10558000012300E000237A6902F0030292009340B5
:10559000FA689A4236D1464BD3F880203B69DB4308
:1055A00043491340C1F88030414BD3F884203B6914
:1055B000DB433F491340C1F884303D4B1A683B69D7
:1055C000DB433B4913400B60394B5A683B69DB4373
:1055D000374913404B607B6903F003039B000722AC
:1055E00002FA03F3FB602F4A7B699B08023352F8EF
:1055F0002310FB68DA432B487B699B080A4002337F
:1056000040F823207B681A687B695B00032101FA5C
:1056100003F31A437B681A607B69DA087B680832F7
:1056200053F822107B6903F007039B000F2202FA54
:1056300003F3DB437A69D20819407B68083243F8E8
:1056400022107B689A687B695B00032101FA03F3EF
:10565000DB431A407B689A607B685A6801217B694A
:1056600001FA03F3DB431A407B685A607B68DA680F
:105670007B695B00032101FA03F3DB431A407B687B
:10568000DA607B6901337B613A687B6922FA03F354
:10569000002B7FF449AF00BF00BF1C37BD4680BC64
:1056A000704700BF000001400004004800080048A7
:1056B0000008005880B483B000AF78600B467B8050
:1056C00013467B707B78002B03D07A887B689A61C5
:1056D00002E07A887B689A6200BF0C37BD4680BCC6
:1056E0007047000080B400AF044B1B68034A43F4CA
:1056F0008073136000BFBD4680BC70470004005833
:1057000080B400AF034B1B6803F4C0631846BD466A
:1057100080BC70470004005880B400AF064B1B6883
:1057200003F48073B3F5807F01D1012300E00023EF
:105730001846BD4680BC70470004005880B400AFD6
:105740004FF0B0431B684FF0B04243F400131360B6
:1057500000BFBD4680BC704780B400AF4FF0B0437F
:105760001B684FF0B04223F40013136000BFBD4626
:1057700080BC704780B400AF4FF0B0431B6803F4A7
:105780008013B3F5801F01D1012300E000231846E8
:10579000BD4680BC704780B400AF4FF0B0431B687B
:1057A0004FF0B04243F48033136000BFBD4680BC6D
:1057B000704780B400AF4FF0B0431B684FF0B04269
:1057C00023F48033136000BFBD4680BC704780B4B3
:1057D00000AF4FF0B0431B6803F40033B3F5003F54
:1057E00001D1012300E000231846BD4680BC70476C
:1057F00080B400AF4FF0B0431B684FF0B04243F4A9
:105800008073136000BFBD4680BC704780B400AF9A
:105810004FF0B0431B684FF0B04223F48073136025
:1058200000BFBD4680BC704780B400AF4FF0B043AE
:105830001B6803F48063B3F5806F01D1012300E09E
:1058400000231846BD4680BC704780B483B000AFCB
:1058500078604FF0B0435B6823F0FE427B681B0624
:105860004FF0B04113434B6000BF0C37BD4680BCC6
:10587000704780B400AF4FF0B043D3F8903003F0DE
:105880000203022B01D1012300E000231846BD468C
:1058900080BC704780B400AF4FF0B043D3F8943071
:1058A0004FF0B04243F00103C2F8943000BFBD4650
:1058B00080BC704780B400AF4FF0B043D3F8943051
:1058C0004FF0B04223F00103C2F8943000BFBD4650
:1058D00080BC704780B400AF4FF0B043D3F8943031
:1058E00003F00203022B01D1012300E0002318463C
:1058F000BD4680BC704780B400AF4FF0B0431B681A
:105900004FF0B04243F00103136000BFBD4680BCBE
:10591000704780B400AF4FF0B0431B684FF0B04207
:1059200023F00103136000BFBD4680BC704780B404
:1059300000AF4FF0B0431B6803F00203022B01D10C
:10594000012300E000231846BD4680BC704780B4A8
:1059500000AF4FF0B0431B6803F00803082B01D1E0
:10596000012300E000231846BD4680BC704780B488
:1059700000AF4FF0B0431B6803F0F0031846BD467C
:1059800080BC704780B400AF4FF0B043D3F8943080
:1059900003F470631846BD4680BC704780B483B082
:1059A00000AF78604FF0B0435B6823F47F427B68C0
:1059B0001B024FF0B04113434B6000BF0C37BD4694
:1059C00080BC704780B483B000AF78604FF0B043C4
:1059D0009B6823F003024FF0B0417B6813438B6058
:1059E00000BF0C37BD4680BC704780B400AF4FF09D
:1059F000B0439B6803F00C031846BD4680BC70475B
:105A000080B483B000AF78604FF0B0439B6823F060
:105A1000F0024FF0B0417B6813438B6000BF0C373E
:105A2000BD4680BC704780B483B000AF78604FF053
:105A3000B043D3F8083123F00F027B681B094FF005
:105A4000B0411343C1F8083100BF0C37BD4680BCDC
:105A5000704780B483B000AF78604FF0B0439B686C
:105A600023F4E0624FF0B0417B6813438B6000BFCA
:105A70000C37BD4680BC704780B483B000AF7860FF
:105A80004FF0B0439B6823F460524FF0B0417B6805
:105A900013438B6000BF0C37BD4680BC704780B499
:105AA00000AF4FF0B0439B6803F0F0031846BD46CB
:105AB00080BC704780B400AF4FF0B043D3F80831DA
:105AC0001B0103F0F0031846BD4680BC704780B44C
:105AD00000AF4FF0B0439B6803F4E0631846BD4647
