:020000040800F2
:100000000000012075190008A5090008AD090008C5
:10001000B5090008BD090008C50900080000000076
:1000200000000000000000000000000081C6000881
:10003000CD0900080000000061C80008A9C8000838
:10004000C5190008C5190008D9090008C519000814
:10005000C5190008C5190008C5190008C519000808
:10006000C5190008C5190008C5190008C5190008F8
:10007000C5190008C5190008010A0008ED090008A3
:10008000150A0008290A0008C5190008C519000842
:1000900000000000C5190008C5190008C5190008AE
:1000A000C5190008C5190008C5190008C5190008B8
:1000B000C5190008C5190008C5190008C5190008A8
:1000C000C5190008C5190008C5190008C519000898
:1000D0003D0A0008510A0008C5190008C5190008A2
:1000E000C5190008C5190008650A0008C5190008E7
:1000F000C51900080000000000000000C519000834
:10010000C5190008C5190008790A0008C5190008B2
:10011000C5190008C5190008C5190008C519000847
:10012000C5190008C5190008C5190008C519000837
:08013000C5190008C5190008FB
:1001400010B5054C237833B9044B13B10448AFF311
:1001500000800123237010BD280100200000000052
:10016000BC51010808B5034B1BB103490348AFF369
:10017000008008BD000000002C010020BC510108D7
:10018000034613F8012B002AFBD1181A01387047D7
:1001900001F0FF01102A2BDB10F0070F08D010F838
:1001A000013B013A8B422DD010F0070F42B3F6D13C
:1001B000F0B441EA012141EA014122F007047FF055
:1001C00000070023F0E80256083C85EA010586EAAC
:1001D000010685FA47F5A3FA87F586FA47F6A5FAE8
:1001E00087F68EB9EED1F0BC01F0FF0102F00702F4
:1001F00032B110F8013B013A83EA010313B1F8D19F
:100200000020704701387047002D06BF354603387F
:10021000073815F0010F07D1013015F4807F02BFB8
:10022000013015F4C03F0130F0BC0138704700BF09
:1002300053B94AB9002908BF00281CBF4FF0FF314D
:100240004FF0FF3000F088B9ADF1080C6DE904CE35
:1002500000F006F8DDF804E0DDE9022304B07047A1
:100260002DE9F047089D0F4604468C46002B48D1E7
:100270008A42164661D9B2FA82F34BB1C3F1200229
:1002800001FA03FC20FA02F29E4042EA0C0C9C4068
:100290004FEA164EB7B2BCFBFEF1220C0EFB11CC9E
:1002A00042EA0C4201FB07F0904209D9B21801F171
:1002B000FF3C80F0EE80904240F2EB800239324405
:1002C000121AA4B2B2FBFEF00EFB102244EA024462
:1002D00000FB07F7A74209D9341900F1FF3280F07B
:1002E000DA80A74240F2D7803444023840EA014025
:1002F000E41B00211DB1DC400023C5E90043BDE83B
:10030000F0878B4206D90DB1C5E9000100210846EE
:10031000BDE8F087B3FA83F1002948D1BB4202D38C
:10032000824200F20781841A67EB0302012094469F
:10033000002DE4D0C5E9004CE1E7002A00F09280EE
:10034000B2FA82F3002B40F0A8808A1A4FEA164EC8
:100350001FFA86FC0121200CB2FBFEF70EFB1722D0
:1003600040EA02420CFB07F0904207D9B21807F1AD
:10037000FF3802D2904200F2E2804746121AA4B23D
:10038000B2FBFEF00EFB102244EA02440CFB00FC20
:10039000A44507D9341900F1FF3202D2A44500F276
:1003A000CB801046A4EB0C0440EA0740A2E7C1F161
:1003B00020068B4022FA06FC4CEA030C07FA01F4F3
:1003C00020FA06F3F7404FEA1C49234300FA01F8EC
:1003D0001FFA8CFEB7FBF9F01C0C09FB107744EAFE
:1003E000074400FB0EF7A74202FA01F20AD91CEB00
:1003F000040400F1FF3A80F09B80A74240F298800D
:1004000002386444E41B9FB2B4FBF9F309FB1344C4
:1004100047EA044403FB0EFEA64509D91CEB04047D
:1004200003F1FF3780F08280A6457FD9023B644408
:1004300043EA0040A4EB0E04A0FB02E7BC42734673
:10044000B94663D360D05DB1B8EB030264EB090435
:1004500004FA06F622FA01F31E43CC40C5E9006413
:1004600000214CE76208480842EAC1710B0C43EADC
:1004700000438AB242EA0342B3FBF6F1E407B44612
:100480003746B6461F23B0FBF6F0D21B41EA0041C7
:1004900061E7614614E7104628E7C3F1200120FA1E
:1004A00001F29E4027FA01F19F403A434FEA164E6F
:1004B0001FFA86FCB1FBFEF70EFB1710110C41EA88
:1004C000004107FB0CF8884504FA03F43AD9711887
:1004D00007F1FF3001D288451FD8A1EB0801B1FB1D
:1004E000FEF808FB0CF70EFB181192B242EA01422B
:1004F000BA422FD2B21808F1FF31C6D2BA42C4D2E2
:10050000A8F102013244C0E7F0459CD2BEEB0203E1
:1005100067EB0C070138B94695E7A6EB080841449C
:10052000B81EB1FBFEF808FB0CF7DCE73B467FE7A3
:10053000504667E70846FBE63444023832E7023F9C
:1005400032441BE7A1EB08013846B1FBFEF808FB7B
:100550000CF7C8E7414698E7704700BF80B500AF89
:10056000044A002104480BF0CFFA0346034A136003
:1005700000BF80BD8C5E0108810500084405002095
:1005800080B584B002AF786001F01DFA4FF480624C
:100590001249012004F072FB03F0FAFC104803F04A
:1005A00079FD0BF0A1FE034600930E4B01220021C2
:1005B000022011F04BFE03F043F80BF095FE0346CA
:1005C0000093094B01220021022011F03FFE002080
:1005D0000DF02EF900BF0837BD4680BD4401002054
:1005E000994E0008E05101081852010880B485B006
:1005F00000AF78604FF0B0439A6C4FF0B0417B6829
:1006000013438B644FF0B0439A6C7B681340FB60DC
:10061000FB6800BF1437BD4680BC704780B500AF93
:100620000420FFF7E3FF0120FFF7E0FF0022052190
:100630000E2004F0F6FD0E2004F00DFE022205212E
:100640000F2004F0EEFD0F2004F005FE002205212E
:10065000112004F0E6FD112004F0FDFD0222052129
:10066000102004F0DEFD102004F0F5FD00BF80BD79
:1006700080B485B000AF78604FF0B043DA6C4FF0D3
:10068000B0417B681343CB644FF0B043DA6C7B68B6
:100690001340FB60FB6800BF1437BD4680BC704749
:1006A00080B586B000AF3B1D00221A605A609A6088
:1006B000DA601A610220FFF7DBFF0120FFF7D8FFA5
:1006C0000420FFF7D5FF00224FF4E2710A4805F03D
:1006D0005FFD4FF4E2737B600123BB600023FB608E
:1006E00000233B613B1D1946034805F023FB00BF77
:1006F0001837BD4680BD00BF0004004880B483B0F9
:1007000000AF78604FF0B043D3F8903023F0180278
:100710004FF0B0417B681343C1F8903000BF0C37F5
:10072000BD4680BC704780B500AF04F06FFC00F0A0
:100730000BF8FFF7B5FF0BF07FF9FFF70FFF0BF09A
:10074000ADF900BFFDE7000080B59AB000AF07F13A
:10075000200348220021184613F07CF807F1080313
:1007600000221A605A609A60DA601A615A6105F0D4
:1007700027FD0020FFF7C2FF264B1B6823F4C06350
:10078000244A43F400731360224B1B6803F4C063D4
:100790007B607B6805233B624FF480337B6281235F
:1007A000FB620023BB620223FB6403233B6510232F
:1007B0007B650923BB654FF40033FB654FF0804335
:1007C0007B664FF000733B6607F12003184605F087
:1007D000A1FF0346002B01D000F01EF84F23BB60A1
:1007E0000323FB6000233B6100237B610023BB618B
:1007F0000023FB6107F108030221184606F00CFBF9
:100800000346002B01D000F007F800BF6837BD4653
:1008100080BD00BF0004005880B400AF72B600BFB6
:1008200000BFFDE780B400AF4FF0B043D3F8903085
:100830004FF0B04243F40043C2F8903000BFBD46D1
:1008400080BC704780B485B000AF78604FF0B04393
:100850009A6D4FF0B0417B6813438B654FF0B04306
:100860009A6D7B681340FB60FB6800BF1437BD4680
:1008700080BC704780B58CB000AF3B1D2C2200219E
:10088000184612F0E7FF224B224A1A60204B1F2223
:100890009A601F4B00221A611D4B00225A611C4BAB
:1008A00000229A611A4B4FF08042DA61184B002205
:1008B0001A62174B4FF480725A62154806F068FFAF
:1008C0000346002B01D0FFF7A7FF114807F05EFA9F
:1008D0000346002B01D0FFF79FFF00233B6200235C
:1008E000BB600023BB614FF00053FB614FF480738A
:1008F000FB623B1D00221946054806F0CBFF03466C
:10090000002B01D0FFF788FF00BF3037BD4680BD08
:10091000480500200028004080B590B000AF786006
:1009200007F1080338220021184612F093FF7B6874
:100930001B68164A934225D14FF48033BB604FF4B5
:100940008073FB6307F10803184606F007FE0346B1
:10095000002B01D0FFF760FFFFF764FF4FF48060CA
:10096000FFF770FF00220521022004F05AFC02204C
:1009700004F071FC002205212A2004F052FC2A20F8
:1009800004F069FC00BF4037BD4680BD0028004030
:1009900080B500AF00220F216FF0010004F041FC90
:1009A00000BF80BD80B400AF00BFFDE780B400AFE2
:1009B00000BFFDE780B400AF00BFFDE780B400AF2B
:1009C00000BFFDE780B400AF00BFFDE780B400AF1B
:1009D00000BFBD4680BC704780B500AF024807F03D
:1009E00011FA00BF80BD00BF4805002080B500AFF0
:1009F000024804F0C7FE00BF80BD00BF940700207E
:100A000080B500AF024804F0BDFE00BF80BD00BF4E
:100A10005408002080B500AF024804F0B3FE00BFC8
:100A200080BD00BF3407002080B500AF024804F04D
:100A3000A9FE00BF80BD00BFF407002080B500AF55
:100A4000024808F0CDF900BF80BD00BF9C05002022
:100A500080B500AF024808F0C3F900BF80BD00BFF9
:100A60006806002080B500AF024807F07BF800BFA1
:100A700080BD00BF4805002080B500AF024807F0E8
:100A80002FFD00BF80BD00BF8005002080B485B071
:100A900000AF78604FF0B0435A6E4FF0B0417B68C2
:100AA00013434B664FF0B0435A6E7B681340FB60B4
:100AB000FB6800BF1437BD4680BC704780B500AFEF
:100AC000064B08221A60054807F088FA0346002BF7
:100AD00001D0FFF7A1FE00BF80BD00BF8005002050
:100AE00080B582B000AF78600120FFF7CFFF002211
:100AF0000521322004F095FB322004F0ACFB00BF4E
:100B00000837BD4680BD80B483B000AF78604FF039
:100B1000B0439B6823F400424FF0B0417B6813431D
:100B20008B6000BF0C37BD4680BC704780B500AFFE
:100B30000020FFF7E8FF11F01DFF0A4B01221A7099
:100B400000F098F811F066FB074811F0FFFB022057
:100B500011F00AFC11F0F2FD0121012011F02EFE2E
:100B600000BF80BD8C0500206D0B000880B586B0ED
:100B700002AF7860396007F10803184611F0C2FE31
:100B8000BB68B7F90C200092074A1021786800F082
:100B90001DF87868FFF7F4FA03469AB23B681A80AA
:100BA00000BF1037BD4680BD4852010880B500AF78
:100BB0000121022011F0D2FD00BF80BD80B500AF41
:100BC0000021022011F0CAFD00BF80BD0CB480B529
:100BD00084B000AF7860396007F11C03FB603968AE
:100BE000FB68BA69786812F069FA00BF1037BD4631
:100BF000BDE8804002B0704780B483B000AF786039
:100C0000002318460C37BD4680BC704780B582B0C3
:100C100000AF00237B60064B1B78002B02D000F056
:100C2000B5F978607B6818460837BD4680BD00BFBF
:100C30008C05002080B582B000AF78607B681846D4
:100C400000F02BFA00BF0837BD4680BD80B483B0EA
:100C500000AF7860064BD3F8902005497B681343BA
:100C6000C1F8903000BF0C37BD4680BC704700BF54
:100C70000008005880B500AF4FF48040FFF7E6FF52
:100C800004F0E4F904F0E8F904F0ECF900BF80BDE9
:100C900080B400AF01231846BD4680BC704780B5C4
:100CA00082B000AF7860396012F0D4FE034616229D
:100CB0001A604FF0FF3318460837BD4680BD80B537
:100CC00082B000AF78604FF0FF317868FFF7E7FF40
:100CD00000BFFDE780B586B000AFF860B9607A600C
:100CE00000237B610AE0AFF300800146BB685A1C19
:100CF000BA60CAB21A707B6901337B617A697B681A
:100D00009A42F0DB7B6818461837BD4680BD80B537
:100D100086B000AFF860B9607A6000237B6109E0BB
:100D2000BB685A1CBA601B781846AFF300807B6919
:100D300001337B617A697B689A42F1DB7B681846F4
:100D40001837BD4680BD80B483B000AF78604FF0E7
:100D5000FF3318460C37BD4680BC704780B483B063
:100D600000AF786039603B684FF400525A6000234E
:100D700018460C37BD4680BC704780B483B000AFC6
:100D80007860012318460C37BD4680BC704780B49C
:100D900085B000AFF860B9607A6000231846143758
:100DA000BD4680BC7047000080B586B000AF78605B
:100DB000144A154BD31A7B617B693B61134B1B684B
:100DC000002B02D1114B124A1A60104B1A687B6833
:100DD00013443A699A4207D212F03CFE03460C22B1
:100DE0001A604FF0FF3309E0084B1B68FB60074BAC
:100DF0001A687B681344054A1360FB681846183765
:100E0000BD4680BD000001200008000090050020C4
:100E10000000001080B483B000AF78607B689B68EE
:100E200018460C37BD4680BC7047000080B582B0C4
:100E300000AF0023FB71144B1B7883F00103DBB27E
:100E4000002B1BD0114B4FF0FF321A63FFF712FD3E
:100E500000F056F84FF480710C4806F027FE0B4B5B
:100E60004FF0FF321A63094806F05EFF002000F0E1
:100E7000D3F900F05FF8044B01221A70FB79184691
:100E80000837BD4680BD00BF9405002048050020FE
:100E900080B58EB000AF7860002387F8373007F157
:100EA00008032C220021184612F0D4FC00F028F888
:100EB000114B1B687A6813447B6000237B627B685C
:100EC000DB43FB600023FB614FF000533B624FF4B8
:100ED00080733B6307F1080301221946074806F0B7
:100EE000D9FC0346002B01D0FFF796FC97F837306A
:100EF00018463837BD4680BD9805002048050020BB
:100F000080B582B000AF0023FB71084B0122DA6587
:100F10004FF48071064806F0C9FD054B4FF0FF32D3
:100F20001A63FB7918460837BD4680BD002800408B
:100F30004805002080B500AF00F08EF90346034A53
:100F40001360024B1B68184680BD00BF9805002047
:100F500080B400AF024B1B681846BD4680BC70478A
:100F60009805002080B582B000AF00237B6000F0C0
:100F700073F90246044B1B68D31A7B607B681846E2
:100F80000837BD4680BD00BF9805002080B582B0FF
:100F900000AF00237B60064B1B78002B02D000F0D3
:100FA0005BF978607B6818460837BD4680BD00BF96
:100FB0009405002080B483B000AF00237B6003233E
:100FC0007B607B6818460C37BD4680BC7047B0B567
:100FD00084B000AF78600021F960796800200A468B
:100FE0000346950D94024FF47A724FF000032046A9
:100FF0002946FFF71DF902460B461346FB60FB68C6
:1010000018461037BD46B0BD2DE9B00F85B000AF12
:1010100078600021F960796800200C46054620467A
:1010200029464FF0000A4FF0000B4FEA411B4BEAF4
:10103000D06B4FEA401A50465946021B61EB05033C
:101040004FF000004FF00001990041EA92719000CA
:1010500002460B4612EB040843EB05094FF0000271
:101060004FF000034FEAC90343EA58734FEAC8023E
:1010700090469946404649464FF000024FF0000323
:10108000820A42EA81528B0A1346FB60FB681846CB
:101090001437BD46BDE8B00F704780B584B000AFCF
:1010A00078607868FFF793FFF86000F0D5F8B860D3
:1010B00000E000BF00F0D0F80246BB68D31AFA681F
:1010C0009A42F6D800BF00BF1037BD4680BD80B53C
:1010D00082B000AF786011F09BFD00BF0837BD46BD
:1010E00080BD80B584B000AF786000F0A5F8F860EE
:1010F000FB680133184600F08FF800BF1037BD467B
:1011000080BD2DE9B04F8CB000AF78610023FB6249
:1011100000F0A2F8B86200F08FF878627B6A0022D3
:10112000BB60FA604FF000024FF00003B9680B009B
:101130000022B96A00200C46054612EB040843EB76
:101140000509C7E90689D7E906014FF000024FF00B
:101150000003820A42EA81528B0A1346FB62BB6992
:1011600000223B607A603B68C3F3090A4FF0000B32
:10117000C7E906ABBB691846FFF746FF03469AB2BC
:101180007B691A80FB6A18463037BD46BDE8B08FD0
:1011900080B582B000AF78607A680021034806F01D
:1011A00055FE00BF0837BD4680BD00BF4805002082
:1011B00080B582B000AF78607A680121034806F0FC
:1011C00045FE00BF0837BD4680BD00BF4805002072
:1011D00080B582B000AF00237B600021044806F098
:1011E0004DFE78607B6818460837BD4680BD00BF5D
:1011F0004805002080B582B000AF00237B6001214C
:10120000044806F03BFE78607B6818460837BD4608
:1012100080BD00BF4805002080B582B000AF786077
:101220007A680221034806F011FE00BF0837BD4668
:1012300080BD00BF4805002080B582B000AF02210C
:10124000044806F01BFE78607B6818460837BD46E8
:1012500080BD00BF4805002080B582B000AF0B48BC
:10126000FFF7D8FD786003E00848FFF7D3FD78600A
:101270000648FFF7CFFD02467B689342F4D17B68B6
:10128000DB4318460837BD4680BD00BF002800403C
:1012900080B485B000AF78604FF0B043DA6C4FF0A7
:1012A000B0417B681343CB644FF0B043DA6C7B688A
:1012B0001340FB60FB6800BF1437BD4680BC70471D
:1012C00080B485B000AF78604FF0B0439A6D4FF0B6
:1012D000B0417B6813438B654FF0B0439A6D7B68D8
:1012E0001340FB60FB6800BF1437BD4680BC7047ED
:1012F00080B483B000AF78604FF0B0439A6D7B68E4
:10130000DB434FF0B04113408B6500BF0C37BD4647
:1013100080BC704780B485B000AF78604FF0B043B8
:101320001A6E4FF0B0417B6813430B664FF0B04329
:101330001A6E7B681340FB60FB6800BF1437BD4624
:1013400080BC704780B483B000AF78604FF0B0438A
:101350001A6E7B68DB434FF0B04113400B6600BF51
:101360000C37BD4680BC704780B500AF224B234A86
:101370001A60214B4FF4E1325A601F4B00229A60F1
:101380001D4B0022DA601C4B00221A611A4B0C2202
:101390005A61194B00229A61174B0022DA61164BF1
:1013A00000221A62144B00225A62134B00229A62E6
:1013B000114807F05FFA0346002B01D0FFF72CFA23
:1013C00000210D480AF013F90346002B01D0FFF766
:1013D00023FA002108480AF048F90346002B01D0FF
:1013E000FFF71AFA04480AF0CAF80346002B01D0A6
:1013F000FFF712FA00BF80BD9C05002000380140B5
:1014000080B500AF224B234A1A60214B4FF4E132E2
:101410005A601F4B00229A601D4B0022DA601C4B61
:1014200000221A611A4B0C225A61194B00229A6150
:10143000174B0022DA61164B00221A62144B00226D
:101440005A62134B00229A62114807F013FA0346BE
:10145000002B01D0FFF7E0F900210D480AF0C7F892
:101460000346002B01D0FFF7D7F9002108480AF006
:10147000FCF80346002B01D0FFF7CEF904480AF030
:1014800043F80346002B01D0FFF7C6F900BF80BD2B
:10149000680600200044004080B596B000AF786038
:1014A00007F1440300221A605A609A60DA601A61F8
:1014B00007F10C0338220021184612F0CBF97B68A3
:1014C0001B688B4A934240F085800123FB604FF4F8
:1014D00040333B6107F10C03184606F03FF8034622
:1014E000002B01D0FFF798F94FF48040FFF712FF6F
:1014F0000120FFF7CDFE4FF4C0637B640223BB6481
:101500000023FB6403233B6507237B6507F144034A
:1015100019464FF0904004F00DFC764B764A1A6065
:10152000744B12225A60734B10229A60714B002246
:10153000DA60704B80221A616E4B00225A616D4B4B
:1015400000229A616B4B0022DA616A4B00221A6218
:10155000684803F09DFE0346002B01D0FFF75CF9BD
:101560007B68644ADA67634A7B689362634B644AC8
:101570001A60624B11225A60604B00229A605F4BE6
:101580000022DA605D4B80221A615C4B00225A61B6
:101590005A4B00229A61594B0022DA61574B4FF4A3
:1015A00080521A62554803F073FE0346002B01D0A7
:1015B000FFF732F97B68514AC3F880204F4A7B68B5
:1015C000936200220521242003F02BFE242003F047
:1015D00042FE88E07B681B684A4A934240F0838061
:1015E0000223FB604FF440237B6107F10C03184694
:1015F00005F0B4FF0346002B01D0FFF70DF94FF4BF
:101600000030FFF75DFE0120FFF742FE0C237B64F4
:101610000223BB640023FB6403233B6507237B6534
:1016200007F1440319464FF0904004F083FB364B1A
:10163000364A1A60344B14225A60334B10229A6097
:10164000314B0022DA60304B80221A612E4B00228F
:101650005A612D4B00229A612B4B0022DA612A4BF2
:1016600000221A62284803F013FE0346002B01D023
:10167000FFF7D2F87B68244ADA67234A7B689362D3
:10168000234B244A1A60224B13225A60204B00221B
:101690009A601F4B0022DA601D4B80221A611C4B9E
:1016A00000225A611A4B00229A61194B0022DA611A
:1016B000174B4FF480521A62154803F0E9FD0346B8
:1016C000002B01D0FFF7A8F87B68114AC3F88020EF
:1016D0000F4A7B68936200220521252003F0A1FDBB
:1016E000252003F0B8FD00BF5837BD4680BD00BFC0
:1016F00000380140340700206C000240F40700204D
:10170000800002400044004094070020580002403E
:10171000540800204400024080B582B000AF7860D9
:101720007B681B68174A934212D14FF48040FFF741
:1017300009FE4FF4C0614FF0904004F05BFC7B6801
:10174000DB6F184603F04CFE242003F092FD15E0F9
:101750007B681B680C4A934210D14FF40030FFF7AE
:10176000C7FD0C214FF0904004F044FC7B68DB6F18
:10177000184603F035FE252003F07BFD00BF083737
:10178000BD4680BD003801400044004080B483B0B5
:1017900000AF78604FF0B0431A6C4FF0B0417B68F7
:1017A00013430B6400BF0C37BD4680BC704780B448
:1017B00083B000AF78604FF0B0431A6C7B68DB43B6
:1017C0004FF0B04113400B6400BF0C37BD4680BCE6
:1017D0007047000080B483B000AF7860064BD3F848
:1017E000802005497B681343C1F8803000BF0C3767
:1017F000BD4680BC704700BF0008005880B582B06D
:1018000000AF7860074A7B681360FEF707FFFFF7B9
:10181000ABFD4FF08060FFF7DDFF0023184608376F
:10182000BD4680BDB808002080B500AF4FF48040B1
:10183000FFF7ACFF4FF48040FFF7B9FF0448FFF714
:101840006BFF0B2003F015FD0023184680BD00BF81
:101850009C05002080B582B000AF78600B467B808D
:101860007B881A467968044807F03AFA002318463C
:101870000837BD4680BD00BF9C05002080B584B000
:1018800000AF7860194A7B6813604FF40013BB60A7
:1018900007F1080393E80600154809F0A8FD00BF0A
:1018A000134B1B68DB6903F48033B3F5803FF7D03B
:1018B00000BF0F4B1B68DB6903F48003B3F5800F97
:1018C000F7D10B4B1B689A68094B1B6842F48002E6
:1018D0009A60074809F0E6FD01220649044807F02E
:1018E000B3F9002318461037BD4680BDBC08002060
:1018F0009C050020B408002080B582B000AF78605D
:101900007B681B68054A934203D1054B1B68002086
:10191000984700BF0837BD4680BD00BF0038014072
:10192000B808002080B582B000AF78607B681B6883
:101930000D4A934213D10D4B1B68002B0AD07B68D4
:10194000D3F89030002B05D1084B1B6800220121F1
:101950000748984701220649786807F075F900BFE3
:101960000837BD4680BD00BF00380140BC080020DC
:10197000B40800200D48854603F018FB0C480D49BB
:101980000D4A002302E0D458C4500433C4188C42DA
:10199000F9D30A4A0A4C002301E013600432A24240
:1019A000FBD312F05DF8FEF7BEFEFEE7000001205B
:1019B00000000020280100202C67010828010020D9
:1019C00038DE0020FEE780B500AFFFF7AFF802F089
:1019D000F7FC00BF80BD80B483B000AF78607B6847
:1019E000D3E90023104619460C37BD4680BC70472A
:1019F00090B587B000AFF860B9601346FB80002354
:101A0000FB8210E0FB8ADB00BA68D418F868FFF7A5
:101A1000E2FF02460B46C4E90023FB680833FB6083
:101A2000FB8A0133FB82FA8AFB889A42EAD300BF21
:101A300000BF1C37BD4690BD80B58EB004AFF860C6
:101A4000B9601346FB8000233B62FB880193FB686F
:101A50000093274B00220021002010F0F7FB002309
:101A6000FB843BE0BB6803F10802BA60D3E90023C2
:101A7000C7E9062304F03AF8D7E90623F9680120FC
:101A800003F0F0FF0346FB7504F052F8FB7D002BDA
:101A90001ED004F067F8386204F028F84FF47A702A
:101AA00004F06AF8D7E90623F968012003F0DAFFA9
:101AB0000346FB7504F03CF8FB7D3A6A0292019301
:101AC000FB6800930B4B00220021002010F0BEFBAE
:101AD000FB680833FB60FB8C0133FB84FA8CFB88CA
:101AE0009A42BFD300BF00BF2837BD4680BD00BFAC
:101AF000545201088452010880B588B000AFF860E4
:101B0000B9601346FB80FB68B3F1006FC0F08480BE
:101B1000FB68444A93427FD8FB6803F178433B61FA
:101B20003B69DB0AFB613B69C3F30A03DB087B8388
:101B30007B8BC3F580733B83FA883B8B9A4201D839
:101B4000FB883B83FB6903F58033DB024FF4807233
:101B500035491846FFF74CFFFA8A3B8B9A4234D23C
:101B600003F0C4FF314B4CF2FA321A61F86904F009
:101B7000C9F802200BF0D0FE2C4B5B692B4A23F4F2
:101B80007E7323F00203536103F0D2FF0023FB8234
:101B900010E0FB8ADB00BA681344F98A7A8B11449F
:101BA000D3E900232048C9000144C1E90023FB8A8E
:101BB0000133FB82FA8A3B8B9A42EAD33B8B1A466B
:101BC000B968F868FFF738FF05E03B8B1A46B9683B
:101BD000F868FFF731FFFA883B8B9A421ED0FB6909
:101BE0000133FB6100237B833B8BDB00BA6813442A
:101BF000BB603B8BFA681344FB60FA883B8BD31ABB
:101C0000FB80FB88B3F5807F03D94FF480733B835F
:101C100098E7FB883B8395E700BF00E000BF2037D3
:101C2000BD4680BDFFFF0308C008002000400058EB
:101C3000F0B5B5B00CAFF861B9611346FB7507F1AB
:101C4000240368220021184611F004FE0123C7F87E
:101C50009C300023C7F8983022E097F91730D7F866
:101C60009C209A4209D197F917300093834B0022A8
:101C70000021002010F0EAFA0DE0D7F898305A1C45
:101C8000C7F89820D7F89C2052B2903307F1100182
:101C90000B4403F87C2CD7F89C300133C7F89C30F8
:101CA000D7F89C20BB699A42D7DD0BF087FF03462B
:101CB000184611F00BFCBB69013BC7F8943036E0C5
:101CC00011F032FC0346D7F8942093FBF2F2D7F8D8
:101CD000941001FB02F29B1ADBB20133DBB287F8EE
:101CE0008F3007F12402D7F8943013441B7887F81B
:101CF0008E3097F98F30903307F11002134413F9A7
:101D00007C1C07F12402D7F8943013440A461A7059
:101D100097F98F30903307F11002134497F88E2013
:101D200003F87C2CD7F89430013BC7F89430D7F8EF
:101D30009430002BC4DCFB69002B06D0BA6907F194
:101D400024031946F86911F0B2FE0023C7F8903059
:101D500081E0D7F890304A4A82FB03129210DB17D9
:101D6000D31AD7F89020F9690A4492F90020104656
:101D7000D7F890200132F9690A4492F900201446FC
:101D8000D7F890200232F9690A4492F900201546EA
:101D9000D7F890200332F9690A4492F900201646D8
:101DA000D7F890200432F9690A4492F900203A6188
:101DB000D7F890200532F9690A4492F90020FA60B8
:101DC000D7F890200632F9690A4492F90020BA60E7
:101DD000D7F890200732F9690A4492F900207A6016
:101DE000D7F890200832F9690A4492F900203A6045
:101DF000D7F890200932F9690A4492F900200A9232
:101E00003968099179680891B9680791F96806916C
:101E10003A69059204960395029401900093194B38
:101E200000220021002010F011FAD7F89020164B64
:101E300083FB02131911D317CB1A322101FB03F3D1
:101E4000D31A002B02D105200BF066FDD7F8903095
:101E50000A33C7F89030D7F89020BB699A42FFF652
:101E600078AFBB690093094B00220021002010F0DD
:101E7000EDF900BFA437BD46F0BD00BFB052010868
:101E800067666666C05201081F85EB51FC52010867
:101E9000F0B597B00CAFF861B961FB693B62002304
:101EA0007B6273E07B6A3E4A82FB03129210DB176F
:101EB000D31A7A6A396A0A4492F9002010467A6A7B
:101EC0000132396A0A4492F9002014467A6A0232D1
:101ED000396A0A4492F9002015467A6A0332396A4F
:101EE0000A4492F9002016467A6A0432396A0A4492
:101EF00092F900207A617A6A0532396A0A4492F9C5
:101F000000203A617A6A0632396A0A4492F900205E
:101F1000FA607A6A0732396A0A4492F90020BA6094
:101F20007A6A0832396A0A4492F900207A607A6A39
:101F30000932396A0A4492F900200A9279680991B3
:101F4000B9680891F9680791396906917A6905922B
:101F500004960395029401900093124B00220021F5
:101F6000002010F073F97A6A0F4B83FB02131911EA
:101F7000D317CB1A322101FB03F3D31A002B02D162
:101F800001200BF0C9FC7B6A0A337B627A6ABB6969
:101F90009A4287DB00BF00BF2C37BD46F0BD00BFB3
:101FA00067666666C05201081F85EB5180B584B034
:101FB00002AF144B1B680093134B01220021022037
:101FC00010F044F900233B60104B1B683A46012196
:101FD00018460AF051F878607B68002B0AD03B68FD
:101FE000002B07D00A4B4FF080521A60BFF34F8F7F
:101FF000BFF36F8F074BDB6A984700BF0837BD46BA
:1020000080BD00BF941A002008530108A8190020C1
:1020100004ED00E0E063010890B589B002AFF8601C
:10202000084611461A4603467B810B463B81134600
:10203000FB7100233B617B8900933E4B0122002111
:10204000022010F003F9B7F9083097F90720019240
:102050000093394B01220021022010F0F7F8374B92
:102060009B69012B0FD17C897B891A46F96834481A
:1020700002F0CCF803469C4205D0324B01220021ED
:10208000002010F0E3F8304A3B8913802F4AFB7997
:1020900013707B892E4A53602D4B04221A607B8972
:1020A0001A46F9682B4811F002FD244B5B6E002B99
:1020B00005D1294B5B6B4FF4FA60984708E0274B3A
:1020C0001B7C0093264B01220021022010F0BEF859
:1020D0001A4B5B6E012B0AD100233B61214B1B681D
:1020E00007F110020421184609F0C6FF78611E4B63
:1020F0001B6818460BF05CF90346002B16D11A4BEF
:10210000186807F11002002311490AF09FFE786158
:102110007B69002B0AD03B69002B07D0134B4FF093
:1021200080521A60BFF34F8FBFF36F8F00BF1C3711
:10213000BD4690BD185301082C530108C010002063
:10214000841A002050530108801A0020821A0020AF
:10215000981A0020A01A0020E0630108381A002015
:102160005C530108A8190020A019002004ED00E02C
:1021700080B500AF054B01220021022010F066F867
:10218000034B01221A6000BF80BD00BF6C530108E1
:10219000741A002080B584B002AF00237B60184B16
:1021A00001220021022010F051F8164B5B6E002B2B
:1021B00008D0154B1B7C0093144B012200210220F8
:1021C00010F044F8124B01221A60124B1B68002BCE
:1021D00011D0104B1B683A1D0821184609F04CFF1E
:1021E0007B68002B07D00C4B4FF080521A60BFF376
:1021F0004F8FBFF36F8F00BF0837BD4680BD00BF54
:102200007C530108C0100020381A00205C530108DC
:10221000781A0020A819002004ED00E080B584B0F1
:1022200002AF00237B601B4B01220021022010F033
:102230000DF8194B01221A60184B5B6E002B05D16B
:10224000174B5B6B4FF4FA60984708E0154B1B7C0B
:102250000093154B0122002102200FF0F7FF134BD2
:102260001B68002B11D0114B1B683A1D102118461A
:1022700009F002FF7B68002B07D00D4B4FF0805216
:102280001A60BFF34F8FBFF36F8F00BF0837BD4693
:1022900080BD00BF8C5301087C1A0020C0100020B4
:1022A000E0630108381A00205C530108A8190020D7
:1022B00004ED00E080B400AF024B1846BD4680BC80
:1022C000704700BFC010002080B584B004AF002369
:1022D00002930323019301230093144B0022002156
:1022E00002200FF0B3FF0023029303230193012385
:1022F00000930F4B0022002102200FF0A7FF0D4B8F
:102300000D4A1A600B4B0D4A9A600A4B0C4A5A60F0
:10231000084B0C4ADA60074B0B4A1A610B4B1B68DF
:102320000448984700231846BD4680BD98530108CD
:10233000C0530108581A0020AD1F000819200008DA
:1023400071210008952100081D220008E0630108A2
:1023500090B58FB00AAFF860B9607A60FB70194B26
:10236000DB68F8689847174BDC6997F920107B6A9F
:10237000089300230793002306930023059301236A
:1023800004930023039306230293FB7801937B6855
:102390000093BB6800220120A0470A4B5B6DFF2120
:1023A00001209847BB680193FB680093064B01220C
:1023B000002102200FF04AFF002318461437BD46C3
:1023C00090BD00BFE0630108E853010890B58FB0ED
:1023D0000AAFF860B9607A60FB701B4BDB68F86885
:1023E0009847194B9C69FB780122099200220892B8
:1023F00000220792002206920122059200220492F6
:1024000000220392052202920622019200220092EB
:102410007A68B9680120A0470B4B5B6DFF21012052
:102420009847094B5B6B386A9847BB680193FB6818
:102430000093064B0122002102200FF007FF00232A
:1024400018461437BD4690BDE063010800540108EA
:1024500080B483B000AF78607B68074A934205D9A7
:102460007B68064A934201D8012300E00023184606
:102470000C37BD4680BC7047806DC335FF27503791
:1024800080B487B000AF78607B68254AA2FB032345
:102490009B093B613B69224AA2FB031292094FF45C
:1024A0007A7101FB02F29B1AFB6000237B61FB68DF
:1024B000F92B02D87D237B6123E0FB68F92B07D938
:1024C000FB68B3F5FA7F03D240F277137B6118E023
:1024D000FB68B3F5FA7F08D3FB6840F2ED22934224
:1024E00003D840F271237B610BE0FB6840F2ED22E0
:1024F000934206D9FB68B3F57A7F02D240F26B3380
:102500007B613A697B6913444FF47A7202FB03F3EF
:102510003B613B6918461C37BD4680BC704700BF15
:10252000D34D621080B582B000AF7860294B1B6834
:102530000133284A13607B681C221A607B680A22D8
:102540005A74244B1A687B68DA607B68224A5A60A6
:10255000224B1B69DAB27B681A747B6803F11200A4
:102560001E4B1A6913469B0013445B0020331B4A21
:1025700013440A22194611F09AFA184B1A691346A5
:102580009B0013445B002033144A98187B68173370
:102590000522194611F08BFA104B1A6913469B005D
:1025A00013445B00053320330C4A98187B681233C0
:1025B0000522194611F07BFA7B681B68194678687A
:1025C00001F0D4FE02467B68DA6100BF0837BD46E1
:1025D00080BD00BFBC1B0020EDFEEDFEB019002049
:1025E00080B485B000AF78600023FB737A680A4B33
:1025F00013440A4AA2FB03239B09BB60BB68074A3A
:10260000A2FB03231B09FB7397F90F3018461437FD
:10261000BD4680BC704700BF80923CCAD34D62105B
:1026200080B588B004AF78600F4A7B6813441233DA
:1026300093F90030FB60FB680C4A03FB02F20C4B81
:102640001344BB60BB680293FB6801937B680093F3
:10265000084B0122002102200FF0F8FDBB6818464C
:102660001037BD4680BD00BF381A002090D003004F
:10267000C855C5351854010880B483B000AF002395
:10268000FB711C4B1A681C4B1B689A4229D1194BD1
:10269000DA69194BDB699A4223D1164B1A6B164B38
:1026A0001B6B9A421DD1134B9A6C134B9B6C9A4235
:1026B00017D1104BDA6C104BDB6C9A4211D10D4BD9
:1026C0001A6D0D4B1B6D9A420BD10A4B5A6D0A4B7A
:1026D0005B6D9A4205D1074BDA6D074BDB6D9A4271
:1026E00001D00123FB71FB7918460C37BD4680BC35
:1026F000704700BF28110020C0100020F0B59BB02B
:1027000008AF05237B6402233B640123FB638D4BED
:102710001B6BFB624FF0FF33BB6300237B630CE05A
:10272000894A7B6B52F83330FA6A9A4202D17B6B4A
:10273000BB6305E07B6B01337B637B6B022BEFDDBF
:10274000BB6BB3F1FF3F12D07F4ABB6BDB0013447E
:102750001B793B647C4ABB6BDB0013445B797B6475
:10276000794ABB6BDB0013449B79FB6309E0774B31
:102770000122002102200FF069FD724B4FF4164236
:102780001A63704B9B69002B04D06E4B9B6B032B21
:1027900040F0928000233B636A4BDB69002B37D10A
:1027A000684B9B6C3B63674BDB6D0493FB6B039344
:1027B0007B6C02933B6C01933B6B0093644B012257
:1027C000002102200FF042FD5E4BDA6D07F10C0391
:1027D0006049184610F0AAFF07F10C031846FDF7F0
:1027E000CFFC03469AB207F10C031146184601F0DC
:1027F00037FEFB6BDAB2534BDB6D5BB242F210710A
:102800000191009313467A6C396C386BFFF7A0FD89
:102810004C4BDB69012B0CD14A4BDB6C3B63FB6BF4
:10282000DBB24FF4FA6200927A6C396C386BFFF7C6
:10283000CDFD386BFFF70CFE0346002B39D0414B22
:1028400001225A66386BFFF71BFE0346424A1360AB
:10285000414A3B6C5360404A7B6C9360FB6BDAB23D
:102860003D4B1A733C4B00221A613B4B00225A61CC
:10287000394B00229A61386BFFF7B2FE03461A46C5
:10288000354BDA61344B1B680093344B0122002135
:1028900002200FF0DBFC304B1B68184600F06AF892
:1028A0002D4BDB695BB21A4665212D48FFF7C0F955
:1028B00002E0244B00225A66FFF7DEFE0346002B9F
:1028C0003BD0284B0122002102200FF0BFFC264AFA
:1028D0001C4B1046194668231A4611F0E8F8224BA3
:1028E0001B68214AD2692049096B1F48806C1E4C25
:1028F000E46C1D4D2D6D1C4E766DDFF86CC0C7F875
:1029000004C0D7F804C0DCF85CC0C7F804C0D7F82E
:1029100004C0CDF81CC0069605950494039002915E
:1029200001920093114B0122002102200FF08EFC36
:102930000D220D490E48FFF7DFF8002318464C37EB
:10294000BD46F0BDC0100020005F01083C540108E6
:10295000505401087C540108B01900208C5401081F
:10296000D01900209C54010828110020AC54010803
:1029700000E80308B0B58CB00AAF7860384B5B6EE6
:102980007A6801920093374B0122002102200FF058
:102990005DFC334B5B6E012B5DD1314BDB69002B52
:1029A0002BD17B680093304B0122002102200FF0D5
:1029B0004DFC2E4BDB68786898472C4BDC69284B24
:1029C000DB6D59B22A4B5868294B9B68284A127B09
:1029D00042F21075089500250795002506950025FB
:1029E000059501250495002503950625029501927C
:1029F0000093034600220120A047194BDB69012BFD
:102A000029D17B6800931B4B0122002102200FF08B
:102A10001DFC164BDB6878689847144B9C69144B77
:102A20005968134B9A68124B1B7B012009900020B8
:102A300008900020079000200690012005900020BB
:102A400004900020039005200290062001900020B1
:102A500000900120A04700BF0837BD46B0BD00BFB1
:102A6000C0100020F454010808550108E063010873
:102A7000B01900201855010880B584B002AF786005
:102A800000220421074803F083FB00230093002366
:102A90000022032178680BF03DFE00BF0837BD46D9
:102AA00080BD00BF0004004880B582B000AF7860F0
:102AB00000220421034803F06BFB00BF0837BD462A
:102AC00080BD00BF0004004880B582B002AF104B4B
:102AD0000093002300225A2100200BF0BDFD034685
:102AE0000C4A1360002300930B4B00224FF0FF3180
:102AF0000A480FF04FFF4FF4C871084810F05EF815
:102B000000220421064803F043FB00BFBD4680BD00
:102B1000792A0008A01B0020A92A0008A41B002075
:102B20000004004890B583B002AF104B1B681846F4
:102B30000CF0FEF80346002B13D1012204210C48AF
:102B400003F026FB0B480FF05BFF084B1C680BF0F3
:102B500035F80246002300930023012120460BF0A4
:102B6000D9FD00BF0437BD4690BD00BFA01B0020AB
:102B700000040048A41B002080B586B002AF786036
:102B800039600523FB60074B1868FB68009300233E
:102B90000122796809F0AAF8B860BB6818461037B6
:102BA000BD4680BDA8190020B0B5D6B004AF07F56A
:102BB000A473A3F5A27318600023C7F83031002373
:102BC00087F847310023C7F840310023C7F83C316C
:102BD00028200AF0A1FEBF4BDB69042B0BD009F0C3
:102BE00083FB03460093BC4B0122002102200FF01F
:102BF0002DFB01F087FC4FF0FF33C7F82C311E236B
:102C0000C7F82C31B34B1B69002B07D0B14B5B6964
:102C1000002B03D1AF4BDB69012B11D0AF4B1B68ED
:102C200018460AF091FA03460A2B05D0AB4B1B68F5
:102C30000021184609F0BCFE0A200AF06DFEEBE107
:102C4000A64B1B6807F11001D7F82C2118460AF093
:102C500099F90346002B00F0AC8107F5A473A3F5A6
:102C60009C735B68002BCDD09A4B5B6E012B40F0C0
:102C7000578197F8473183F00103DBB2002B00F056
:102C8000C98007F5A473A3F59C735B68202B40F003
:102C9000C18007F110030833C7F82431D7F8243175
:102CA0005B688F4A934240F0B580D7F824311B68A7
:102CB0001C2B40F0AF808B4B1B681C21184609F081
:102CC000E7F8D7F824311B681A4607F110030833D8
:102CD0001146184601F04AFBC7F82001D7F8243105
:102CE0001B6807F11002083213441B681A4607F5E7
:102CF000A473A3F59E731A6007F5A473A3F59E73DE
:102D00001B68D7F820219A422DD007F5A473A3F5AC
:102D10009E731B680193D7F820310093724B0122F8
:102D2000002102200FF092FA704B1B68C7F8303177
:102D30006F4AD7F8243114461D460FCD0FC495E8CD
:102D40000F0084E80F00D7F83001FFF713FE694B3E
:102D50005B6B4FF4FA6098470023C7F83C310023BF
:102D6000C7F8403158E10023C7F84031012387F804
:102D700047315F4AD7F8243114461D460FCD0FC4A2
:102D800095E80F0084E80F000023C7F83C31D7F81E
:102D90003C01FFF745FCC7F83001554BDB68544A4E
:102DA000127C1046D7F830215349A1FB0212920938
:102DB000029201900093514B0122002102200FF05A
:102DC00045FAD7F83001FFF7D5FD4A4B5B6BC820B9
:102DD0009847D7F83031484AA2FB03239B09019357
:102DE000D7F83C310093464B0122002102200FF01E
:102DF0002DFAD7F840310133C7F84031D7F83C31CC
:102E00000133C7F83C313A4B5B7C19463D48FFF72C
:102E10003FF801E197F84731002B00F08180D7F8A7
:102E200040310133C7F8403107F5A473A3F59C7313
:102E30005B68FE2B21D807F5A473A3F59C735B6830
:102E40000093314B0122002102200FF0FFF90023F3
:102E500087F84731254B1B68C7F830312022002105
:102E6000234810F0F7FCD7F83001FFF783FD214B22
:102E70005B6B4FF4FA60984752E0D7F83C01FFF7DC
:102E8000CFFBC7F83001D7F830311B4AA2FB032330
:102E90009B090193D7F83C3100931C4B0122002180
:102EA00002200FF0D3F9D7F83C310133C7F83C3199
:102EB000D7F83C31092B2BDD0C4B1B68C7F83031A0
:102EC000D7F83001FFF756FD0A4B5B6B4FF4FA6001
:102ED000984725E0C010002028550108A0190020BF
:102EE000EDFEEDFEA819002064550108B019002080
:102EF000381A0020E0630108D34D62109455010890
:102F0000BC5501084A1A0020D4550108F45501089F
:102F1000D7F83001FFF72EFD404B5B6BC820984778
:102F2000FFF700FE07F5A473A3F59C735B6800939D
:102F30003B4B0122002102200FF088F907F5A47312
:102F4000A3F59C735B68C7F81C3107F110030833C5
:102F5000C7F838310023C7F8343123E0D7F83431CB
:102F6000D7F81C21D31A802B28BF8023C7F818312B
:102F7000D7F83431D7F838211344C7F83831D7F8A7
:102F800018311946D7F8380101F094F8D7F83431E0
:102F9000002B02D10520FDF74DFED7F834318033E8
:102FA000C7F83431D7F83431D7F81C219A42D5D834
:102FB00028E61C4B5B6E012B7FF424AE0021182009
:102FC000FFF7DAFDC7F82801D7F8283103F0180316
:102FD000002B3FF417AE20220021134810F03AFCDA
:102FE000124B1B68C7F83031002387F847310023A4
:102FF000C7F83C310023C7F84031D7F83001FFF75C
:10300000B9FC064B5B6B4FF4FA609847084B012202
:10301000002102200FF01AF9F4E500BFE063010877
:103020000C560108C0100020381A0020B0190020EA
:103030001C56010880B500AF074B01225A61064BB0
:103040000022DA6014200AF067FC034B00225A6168
:103050000023184680BD00BFC010002080B500AF1F
:10306000054B01225A61044B0122DA6014200AF058
:1030700053FC0023184680BDC010002090B5D1B08D
:1030800004AF07F59873A3F5967318600023C7F88B
:103090000C310023C7F82C3107F59873A3F5927310
:1030A00018464FF480731A46002110F0D3FB00231A
:1030B00087F82B310023C7F82431AA4B1B69002B5A
:1030C00007D0A84B5B69002B03D1A64BDB69002B13
:1030D00014D0A54B1B6818460AF036F80346142B8B
:1030E00008D0A14B1B680021184609F061FC9F48DD
:1030F00001F01EF90A200AF00FFC3CE29C4B1B6811
:10310000012B1BD1974BDB69002B11D1954B9B6990
:10311000012B0DD1FFF7F2FA964B1B6801211846DF
:1031200008F0EFFE944B0122002102200FF08EF8F0
:103130008F4B00221A6002200AF0EEFB8A4B1B68BC
:1031400007F586710522184609F01CFFC7F8200113
:10315000864801F0FDF8C7F82C01824BDB68002B94
:1031600040F00182D7F82C31002B00F0FC81D7F819
:103170002C31002B7FD07B4B5B6E012B7BD197F8E2
:103180002B3183F00103DBB2002B74D0012387F8CD
:103190002B317A4B00225A617948FFF7C3F901209D
:1031A0000AF0BAFB0A217748FEF772FE734B1B69DF
:1031B0000133724A1361714B1B690A2B02D16F4BA9
:1031C00000221A616D4B1B68C7F824316E4BDB6817
:1031D000D7F82401984707F10C03202268491846C4
:1031E00010F065FC694B1B680133694A1360642168
:1031F0000120FFF7C1FCC7F81C01D7F81C3103F010
:103200000103002B18D001200AF086FB5E4B9B6A5D
:1032100007F10C022021104698475D4B1B68019373
:10322000202300935B4B0122002102200FF00EF8B7
:1032300008200AF071FB14E005200AF06DFB524BE8
:103240009B6A07F10C02202110469847504B1B68DF
:10325000019320230093504B0122002102200EF005
:10326000F5FF4A4B1B680133484A13603F4801F0A1
:103270006FF8C7F82C01D7F82C31FE2B40F2F38001
:1032800007F10C03FF221946384801F007F8FFF751
:1032900049FCC8210120FFF76FFCC7F81401314B2E
:1032A0005B6E012B40D1354B5B691846FFF7B8F9CF
:1032B000C7F82401344BDB68D7F824019847304B1A
:1032C000DB682F4A127C14462C4A5269D7F8241125
:1032D0003248A0FB010189090391029201940093F5
:1032E0002F4B0122002102200EF0B0FF234B5B691F
:1032F0000133224A5361214B5B69092B14DD1F4BBB
:103300005B690A2201920093264B012200210220D0
:103310000EF09CFF194B5B691946234800F02AFF09
:10332000002387F82B3126E1D7F8143103F001038D
:10333000002B3DD0154B1B680133154A1360144B0D
:103340001B68FF2201920093184B012200210220EA
:103350000EF07CFF0C4B9B6A07F10C02FF2110461C
:1033600098475BE0C0100020A419002090110020B5
:10337000741A0020A819002030560108B019002046
:10338000381A00204A1A0020E0630108AC19002016
:10339000941A00205C56010884560108D34D62102F
:1033A000B0560108E45601081057010820570108DB
:1033B000714B1B680133714A136064210120FFF7D0
:1033C000DBFBC7F81001D7F8103103F00103002B25
:1033D00012D16B4B9B6A07F10C02FF2110469847F4
:1033E000664B1B68FF2201920093664B012200216D
:1033F00002200EF02BFF11E0614B9B6A07F10C02DB
:10340000FF21104698475D4B1B68FF2201920093F5
:103410005D4B0122002102200EF018FF5B4B1B6B5D
:10342000B3F5964F03D10C200AF076FA15E0574B0E
:103430001B6BB3F5164F03D108200AF06DFA0CE0B0
:10344000524B1B6B4FF22442934203D105200AF0EA
:1034500063FA02E00A200AF05FFA474B1B68013367
:10346000454A136086E0D7F82031002B40F0828077
:10347000D7F82C31002B7DD0D7F82C31FE2B79D802
:10348000424B5B6E012B40D1D7F82C31C7F8183175
:1034900003200AF041FA3E4800F05AFFC7F82C0119
:1034A000D7F82C21D7F818319A4207D9D7F82C2110
:1034B000D7F81811374800F05DFE5CE0364B5B69C9
:1034C0001846FFF7ADF8C7F82401D7F82401FFF735
:1034D00051FA324BDB68314A127C14462E4A52694B
:1034E000D7F824112E48A0FB01018909039102920B
:1034F000019400932B4B0122002102200EF0A6FE26
:10350000254B5B690133244A5361002387F82B3133
:1035100007F10C03D7F82C2119461D4800F0BEFE18
:10352000174B9B6AD7F82C21D1B207F10C02104639
:103530009847114B1B680133104A13600F4B1B68EF
:10354000D7F82C2101920093174B01220021022071
:103550000EF07CFE08200AF0DFF9074B1B680133F0
:10356000054A136006E0064BDB6A98470A200AF01A
:10357000D3F9A2E500BFA0E5AC190020941A002001
:10358000E0630108385701085C570108C0100020AB
:103590009011002074570108B0190020381A00203B
:1035A000D34D621098570108C857010890B585B0EF
:1035B00000AF78600B467B801B4B1B69002B2DD026
:1035C000194BDB68002B29D1174BDB69002B25D168
:1035D0007C887B881A467968144800F017FE0346F9
:1035E0009C4205D0124B0122002102200EF02EFE3B
:1035F0007B88FB600F4B186807F10C010023002249
:1036000009F022FB0346002B08D10B4B01220021BD
:1036100002200EF01BFE094800F0ACFD0023184606
:103620001437BD4690BD00BFC0100020901100208F
:10363000E8570108A4190020FC5701081458010894
:1036400080B586B004AF854B00221A61834B0022FF
:103650005A6608F031FB0346814A1360FEF734FED8
:1036600000224FF484710A2009F089FA03467D4A4A
:10367000136000220421142009F081FA03467A4ADB
:1036800013604FF400627949794800F0A3FD4FF4CC
:1036900000627649774800F09DFD05200AF03CF96C
:1036A000002301933623009300234FF48062724974
:1036B000724809F05FFF78607B68012B05D0704B82
:1036C0000122002102200EF0C1FD05200AF024F99C
:1036D000002301933623009300234FF4806269494D
:1036E000694809F047FF78607B68012B05D0674B7C
:1036F0000122002102200EF0A9FD594B1B68042174
:10370000184608F0FEFB564B1B680121184608F0CE
:10371000F8FBFFF7D9F908F0E7FD034600935C4B8F
:103720000122002102200EF091FD4C4B594A1A60F3
:103730004A4B01221A61494B00229A61474B0122F0
:103740005A61464B0122DA60444B0122DA61434B55
:10375000514A9A64414B504ADA64404BFA229A62C9
:103760003E4BFA22DA623D4B4FF416421A633B4B52
:1037700003225A63394B5B6B384A9363374B0A22F7
:10378000DA650D2245494648FEF732F9434B1B687E
:103790000093444B0122002102200EF057FD3F4BC5
:1037A0001B683C4A934213D03F4B01220021022068
:1037B0000EF04CFD394A294B1046194668231A462B
:1037C00010F075F90D2235493548FEF795F92DE0D1
:1037D000324BDB69214AD361304B9B6C1F4A9364A7
:1037E0002E4BDB6C1D4AD3642C4B1B6B1B4A1363A3
:1037F0002A4B5B6B194A5363284B9B6B174A9363A5
:10380000264BDB6D154AD365244BDB69234A126BCB
:103810002249896C2148406B0390029101920093E8
:10382000224B0122002102200EF010FD0B4B04223E
:10383000DA610A4B0122DA6008F056FD0346019373
:103840001B4B00931B4B0122002102200EF0FEFCBB
:10385000002318460837BD4680BD00BFC0100020B9
:10386000A8190020A0190020A4190020A0110020F0
:1038700090110020841A0020285801087D3000088B
:10388000345801084C580108A92B00085858010861
:1038900070580108EFBEEDFEC0CA8936281100201D
:1038A00000E80308AC580108C0580108DC580108BA
:1038B0003C5901080459010880B483B000AF786016
:1038C000064BD3F8802005497B681343C1F880304C
:1038D00000BF0C37BD4680BC704700BF00080058D1
:1038E00080B5AEB002AF78600B467B800023FB60F2
:1038F0007B88C7F8A43000237B6100233B617B8871
:103900007A68126F01920093584B01220021002027
:103910000EF09CFCD7F8A430002B40F3A380D7F81E
:10392000A4307B617B681B68514A93424AD17B6813
:103930001B6F022B03D07B681B6F002B42D100232F
:10394000C7F8AC3035E0D7F8A420D7F8AC30D31A9C
:10395000802BA8BF8023C7F8A030D7F8AC30454AE9
:103960009918D7F8A02007F110030833184610F073
:103970009EF8D7F8A0307B613F4B1B68184609F0D2
:1039800017FD0346002B09D13B4B186807F10C02C9
:1039900007F11001002309F059FA05E0374B012225
:1039A000002100200EF052FCD7F8AC308033C7F86D
:1039B000AC30D7F8AC20D7F8A4309A42C3DB786893
:1039C00000F0B2F87B681B682D4A93424AD17B68AD
:1039D0001B6F022B03D07B681B6F002B42D100238F
:1039E000C7F8A83035E0D7F8A420D7F8A830D31A04
:1039F000802BA8BF8023C7F89C30D7F8A830214A75
:103A00009918D7F89C2007F110030833184610F0D6
:103A10004EF8D7F89C307B611B4B1B68184609F0A9
:103A2000C7FC0346002B09D1174B186807F10C029D
:103A300007F11001002309F009FA05E00F4B0122FC
:103A4000002100200EF002FCD7F8A8308033C7F820
:103A5000A830D7F8A820D7F8A4309A42C3DB7868FA
:103A600000F062F800BFB037BD4680BD7459010850
:103A700000380140D81B0020C01B002084590108D9
:103A800000440040DC210020C41B002080B584B02D
:103A900000AF78600023BB607B681B681B4A9342C1
:103AA0000ED11B4B1B6807F108020121184608F0D4
:103AB000E3FAF860174B0122002100200EF0C6FB4C
:103AC0007B681B68144A93420ED1144B1B6807F1A4
:103AD00008020221184608F0CFFAF860104B0122C4
:103AE000002100200EF0B2FBFB68002B0AD0BB685F
:103AF000002B07D00B4B4FF080521A60BFF34F8F53
:103B0000BFF36F8F00BF1037BD4680BD0038014046
:103B1000C81B00209059010800440040CC1B002025
:103B2000A059010804ED00E080B586B002AF7860CE
:103B30000123FB737B681B68294A934220D14FF411
:103B4000C0622849786807F0CEFD0346FB737B68A6
:103B5000D3F88030002B0BD07B68D3F880301B6803
:103B60001A687B68D3F880301B6822F004021A6060
:103B7000FB7B00931C4B0122002100200EF066FB12
:103B80007B681B68194A934224D14FF4C0621849DC
:103B9000786807F0A8FD0346FB737B68D3F8803094
:103BA000002B0BD07B68D3F880301B681A687B68C9
:103BB000D3F880301B6822F004021A60FB7B7A681D
:103BC000D2F88020019200930A4B012200210020AC
:103BD0000EF03CFBFB7B18461037BD4680BD00BF96
:103BE00000380140D81B0020B059010800440040B3
:103BF000DC210020CC59010880B5AEB002AF78605E
:103C00007B681B68704A93420CBF01230023DBB220
:103C10001A467B68D3F89030019300926B4B0122D7
:103C2000002100200EF012FB7B68D3F89030102B9F
:103C300002D17868FFF778FF7B68D3F89030082BC3
:103C400040F0BD800023C7F894307B681B68604A51
:103C5000934257D17B68B3F85E309BB2C7F8A4306B
:103C6000D7F8A430002B41DD0023BB600023C7F848
:103C7000AC3035E0D7F8A420D7F8AC30D31A802B7D
:103C8000A8BF8023C7F8A030D7F8AC30514A9918A4
:103C9000D7F8A02007F10803083318460FF007FFF4
:103CA000D7F8A030FB604C4B1B68184609F080FB2E
:103CB0000346002B09D1484B186807F1940207F11D
:103CC0000801002309F0C2F805E0444B012200215D
:103CD00000200EF0BBFAD7F8AC308033C7F8AC3018
:103CE000D7F8AC20D7F8A4309A42C3DB7868FFF746
:103CF0001BFFD7F8A4300093394B0122002100208C
:103D00000EF0A4FA7B681B682F4A934257D17B6858
:103D1000B3F85E309BB2C7F89C30D7F89C30002BCC
:103D200041DD0023BB600023C7F8A83035E0D7F899
:103D30009C20D7F8A830D31A802BA8BF8023C7F8BF
:103D40009830D7F8A830274A9918D7F8982007F163
:103D50000803083318460FF0AAFED7F89830FB6026
:103D6000214B1B68184609F023FB0346002B09D1A1
:103D70001D4B186807F1940207F10801002309F0B0
:103D800065F805E0154B0122002100200EF05EFAD7
:103D9000D7F8A8308033C7F8A830D7F8A820D7F8CC
:103DA0009C309A42C3DB7868FFF7BEFED7F89C30A0
:103DB00000930E4B0122002100200EF047FA00BFB5
:103DC000B037BD4680BD00BF00440040F459010833
:103DD00000380140D81B0020C01B00208459010876
:103DE000105A0108DC210020C41B0020245A0108BD
:103DF00080B5AAB002AF78607B681B68C7F89430C2
:103E00000023C7F89C300023C7F898304F4B01229D
:103E1000002100200EF01AFA08F066FA034600931B
:103E20004B4B0122002100200EF010FAD7F89430FD
:103E3000012B04D0D7F89430022B12D024E0454B4C
:103E4000C7F89C30444BC7F8983037230193D7F814
:103E500094300093414B0122002100200EF0F6F92E
:103E600024E03F4BC7F89C303E4BC7F898303723CF
:103E70000193D7F894300093384B012200210020A1
:103E80000EF0E4F900BF11E0002009F0A5FE0346A2
:103E90000193D7F894300093334B01220021002086
:103EA0000EF0D4F9002009F0C3FC4BE0D7F89C30A9
:103EB0001B6807F108014FF0FF32184609F062F85D
:103EC0000346002BF2D0BB68012B03D9033B012B27
:103ED0002AD836E0FB680193D7F894300093234B3F
:103EE0000122002100200EF0B1F9D7F898301B68AC
:103EF000002B0BD1FB680193D7F8943000931C4B37
:103F00000122002100200EF0A1F919E0FB68002B2E
:103F100016D0D7F898301B68FA6891B207F10802FA
:103F20000832104698470BE0BB680193D7F89430ED
:103F30000093104B0122002100200EF087F900E0D1
:103F400000BFB3E7A037BD4680BD00BF3C5A0108A3
:103F5000545A0108C01B0020D01B0020885A0108B9
:103F6000C41B0020D41B0020B05A0108C45A010809
:103F7000DC5A0108F85A010880B500AFFCF74EFB87
:103F8000FDF73EFA4FF00060FFF796FC00BF80BDE2
:103F900080B584B002AF02237B6000228C21142004
:103FA00008F0EDFD03461D4A136007F085FE034649
:103FB0001B4A1360FFF7E0FF194B1B6802211846EC
:103FC00007F09FFF3B1D00220192372200924FF421
:103FD00040621449144809F0CDFA144A01211448EA
:103FE00004F0A8FC1349124804F05CFD124A0421B5
:103FF0000F4804F09FFC0E48FFF796FD08F074F997
:10400000034600930D4B0122002100200EF01EF903
:10401000002318460837BD4680BD00BFC41B0020E2
:10402000CC1B0020545B0108F13D00088D3A0008CC
:1040300068060020E1380008F93B0008205B010811
:1040400080B588B002AF78600B467B8005233B616A
:104050000E4B18683B69009300230122012107F0F1
:1040600045FEF8604FF0FF337B617B881A46796824
:10407000074804F055FD0346002B01D100237B6166
:104080007B6918461837BD4680BD00BFC81B00209D
:104090009C05002080B483B000AF7860044A7B6840
:1040A0001360002318460C37BD4680BC704700BF24
:1040B000D41B002080B588B002AF7860396005233A
:1040C0003B610F4B18683B690093002301220221DA
:1040D00007F00CFEF8604FF0FF337B613B689BB24A
:1040E0001A467968074804F01BFD0346002B01D1EE
:1040F00000237B617B6918461837BD4680BD00BF31
:10410000CC1B0020680600200CB480B584B000AF42
:104110007860396007F11C03FB603968FB68BA6995
:1041200078680EF0CBFF00BF1037BD46BDE8804079
:1041300002B0704780B586B002AF7860396007F191
:10414000080318460EF0DEFBBB68B7F90C2000929E
:10415000074A10217868FFF7D7FF7868FCF710F856
:1041600003469AB23B681A8000BF1037BD4680BD37
:10417000605B01080FB480B584B000AF0023FB8002
:104180000023FB81BB1D19461148FFF7D3FF07F140
:104190001C03BB60FB881A460D4BD018BB68BA697C
:1041A0004FF480710EF08AFF0346BB81FA88BB8909
:1041B0001344BB81BB891946054800F051F9BB89FE
:1041C00018461037BD46BDE8804004B0704700BFB8
:1041D000E027002080B584B000AFF860B9607A6055
:1041E00010220021F8680FF035FBFB68BA68DA602E
:1041F000FB6800229A60FB6800225A60FB687A68BC
:104200001A60002318461037BD4680BD80B588B0BF
:1042100000AFF860B9607A60FB681A68FB689B6859
:10422000D21AFB685B681344FB617A68FB699342AE
:1042300028BF13467B60FB689A68FB681B68013BDC
:104240001340BB61FB681A68BB69D31A7A68934252
:1042500028BF13467B61FB68DA68BB6913447A693F
:10426000B96818460FF023FC7A687B699A420AD92C
:10427000FB68D868BA687B69D1187A687B69D31AF9
:104280001A460FF014FCFB689A687B681A44FB68B6
:104290009A607B6818462037BD4680BD80B588B0DF
:1042A00000AFF860B9607A60FB689A68FB685B6889
:1042B000D31AFB61FB69002B01D1002334E07A683B
:1042C000FB69934228BF13467B60FB685A68FB6812
:1042D0001B68013B1340BB61FB681A68BB69D31ABA
:1042E0007A68934228BF13467B61FB68DA68BB6932
:1042F00013447A691946B8680FF0D9FB7A687B696C
:104300009A420AD9BA687B69D018FB68D9687A687A
:104310007B69D31A1A460FF0CAFBFB685A687B68A0
:104320001A44FB685A607B6818462037BD4680BD3A
:1043300080B483B000AF78607B6800225A607B68ED
:104340005A687B689A6000BF0C37BD4680BC7047D6
:1043500080B483B000AF78607B689A687B685B68E4
:10436000D31A18460C37BD4680BC704780B485B060
:1043700000AF786039600023FB600023BB6012E06F
:10438000FB681B0223F07F42FB681B0CB96878684E
:10439000014409784B40094951F823305340FB60F0
:1043A000BB680133BB60BA683B689A42E8DBFB68D4
:1043B00018461437BD4680BC704700BF185F01081F
:1043C00080B500AF0A4B0B4A1A60094B0A4A9A6043
:1043D000074B0A4A5A60064B094ADA60044B094AFD
:1043E0001A61094B1B680248984700BF80BD00BF97
:1043F000E02800200D440008194400083D4400084E
:104400004944000855440008E063010880B400AF47
:1044100000BFBD4680BC704780B485B000AFF86077
:10442000084611461A4603467B810B463B811346DC
:10443000FB7100BF1437BD4680BC704780B400AF2D
:1044400000BFBD4680BC704780B400AF00BFBD4612
:1044500080BC704780B400AF00BFBD4680BC7047D1
:1044600080B582B000AF78600B467B800A4B1B683A
:10447000002B06D17B8819467868FFF7E1FD0346DB
:1044800005E07B8819467868FFF714FE0346184656
:104490000837BD4680BD00BFFC28002080B584B031
:1044A00000AF786039603B68FB60114B1A681149B6
:1044B00013469B0013449B000B440C3302221A70DA
:1044C0000D4A0E49F8680FF031F9FEF717F9FEF7BB
:1044D000B1FDF868FBF754FEB860094B01220021DA
:1044E00002200DF0B3FEBB6818461037BD4680BDF4
:1044F000FC280020002900206C5B0108805B01087B
:10450000845B010880B590B000AF3B46402200219B
:1045100018460FF09FF9094B0122002102200DF0EF
:1045200095FE074B1B681A463B4619461046FFF797
:10453000B5FF00BF4037BD4680BD00BF945B01089A
:10454000FC28002080B584B000AF78603960104B43
:104550001A68104913469B0013449B000B440C330C
:1045600000221A700323FB60FB689BB219460A48BD
:10457000FFF776FFFEF772FD084B012200210220B3
:104580000DF064FE002318461037BD4680BD00BF05
:10459000FC28002000290020AC5B0108B05B01086A
:1045A00080B584B000AF786039603B68FB6004225E
:1045B000124938680FF064F90346002B0ED0F868F2
:1045C000FBF7DEFD0246FB6813440D4918460FF069
:1045D000ADF8F868FBF7D4FD03460BE00023BB60A1
:1045E000084A0949F8680FF0A1F8F868FBF7C8FD18
:1045F000B860BB6818461037BD4680BDC05B010877
:10460000C85B0108D45B0108DC5B010880B586B09B
:1046100000AF786039603B687B61FDF74BFE386125
:104620003B69DB69FB603B69DB69FB60FA68064953
:1046300078690FF07BF87869FBF7A2FD034618460E
:104640001837BD4680BD00BFF05B010880B586B05D
:1046500000AF786039603B687B61FDF72BFE386105
:104660000023FB6007F10C031A46174978690FF025
:104670007FF80346002B0FDA7869FBF781FD0246CD
:104680007B691344114A124918460FF04FF87869B4
:10469000FBF776FD034612E07869FBF771FD0246F1
:1046A0007B6913440B4A0A4918460FF03FF8FB6830
:1046B0001A463B69DA617869FBF762FD03461846E2
:1046C0001837BD4680BD00BF045C0108C85B010807
:1046D000805B0108145C010880B586B000AF78608B
:1046E00039603B687B61FDF7E5FD38610023FB60C5
:1046F00007F10C031A46154978690FF039F803469B
:10470000002B0BDA7869FBF73BFD02467B6913440B
:104710000F4A104918460FF009F80EE0FB681A46D8
:104720003B699A617869FBF72BFD02467B6913446C
:10473000094A084918460EF0F9FF7869FBF720FD91
:10474000034618461837BD4680BD00BF1C5C0108F3
:10475000C85B0108805B0108145C010880B584B067
:1047600000AF786039603B68FB60FDF7A3FDB8607F
:10477000BB689B691A460649F8680EF0D7FFF868CF
:10478000FBF7FEFC034618461037BD4680BD00BF50
:104790002C5C010880B586B000AF786039603B685A
:1047A0007B61FDF787FD38610023FB6007F10C0397
:1047B0001A46154978690EF0DBFF0346002B0BDA29
:1047C0007869FBF7DDFC02467B6913440F4A104908
:1047D00018460EF0ABFF0EE0FB681A463B69DA653F
:1047E0007869FBF7CDFC02467B691344094A084906
:1047F00018460EF09BFF7869FBF7C2FC034618468B
:104800001837BD4680BD00BF405C0108C85B010889
:10481000805B0108145C010880B584B000AF78604B
:104820003960FDF747FDF8603B68BB60FB68DB6DF6
:104830001A460649B8680EF079FFB868FBF7A0FC85
:10484000034618461037BD4680BD00BF4C5C0108CA
:1048500080B58AB002AF786039603B68FB61FDF7D4
:1048600029FDB86107F10C0107F1140207F10803F3
:10487000019307F1100300930B462049F8690EF0ED
:1048800077FF0346002B0BDAF869FBF779FC024649
:10489000FB6913441A4A1B4918460EF047FF24E0EF
:1048A0007B69194A03FB02F2FB684FF47A7101FB42
:1048B00003F313441A46BB699A643B69124A03FB2B
:1048C00002F2BB684FF47A7101FB03F313441A46FA
:1048D000BB69DA64F869FBF753FC0246FB691344D1
:1048E0000A4A084918460EF021FFF869FBF748FC10
:1048F000034618462037BD4680BD00BF605C0108F6
:10490000C85B0108805B010840420F00145C01088D
:10491000B0B586B002AF78603960FDF7CBFCF860C7
:104920003B68BB60FB689B6C1C4AA2FB03239B0C8F
:104930001C46FB689A6C194BA3FB02139B0C18498D
:1049400001FB03F3D31A174AA2FB03239B091D465D
:10495000FB68DB6C114AA2FB03239B0C1846FB6827
:10496000DA6C0E4BA3FB02139B0C0D4901FB03F306
:10497000D31A0C4AA2FB03239B09019300902B46F8
:1049800022460949B8680EF0D1FEB868FBF7F8FB7B
:10499000034618461037BD46B0BD00BF83DE1B433B
:1049A00040420F00D34D62107C5C010880B586B098
:1049B00000AF786039603B687B61FDF77BFC386154
:1049C0004FF4FA73BB604FF4FA73FB6007F108030E
:1049D00007F10802164978690EF0CAFE0346002B5B
:1049E0000BDA7869FBF7CCFB02467B691344114A6A
:1049F000114918460EF09AFE11E0BB681A463B6951
:104A00009A62FA683B69DA627869FBF7B9FB024699
:104A10007B691344094A084918460EF087FE7869F5
:104A2000FBF7AEFB034618461837BD4680BD00BFF6
:104A30009C5C0108C85B0108805B0108145C0108EC
:104A400080B584B000AF78603960FDF733FCF86062
:104A50003B68BB60FB689A6AFB68DB6A0549B8681B
:104A60000EF064FEB868FBF78BFB03461846103760
:104A7000BD4680BDAC5C010880B586B000AF7860F3
:104A800039603B687B61FDF715FC386107F10C0369
:104A90001A46154978690EF06BFE0346002B0BDAB7
:104AA0007869FBF76DFB02467B6913440F4A104996
:104AB00018460EF03BFE0EE0FB681A463B691A638F
:104AC0007869FBF75DFB02467B691344094A084994
:104AD00018460EF02BFE7869FBF752FB034618468A
:104AE0001837BD4680BD00BFC45C0108C85B010823
:104AF000805B0108145C010880B584B000AF786069
:104B00003960FDF7D7FBF8603B68BB60FB681B6B47
:104B10001A460649B8680EF009FEB868FBF730FB84
:104B2000034618461037BD4680BD00BFD05C010863
:104B300080B58CB002AFB9607B600346FB7313464F
:104B4000BB7300237B62FA7B13469B0013449B00DC
:104B5000434A13443B623B6A1B69FB610023BB6110
:104B60003B6A1B7B022B2CD13E49B8680EF0A8FE95
:104B70000346002B15D03C4B0122002102200DF0F2
:104B800065FB3B6A00229A603B6A5B681A4600211B
:104B9000F8690EF05FFEFB7BF9691846FFF7D2FC5F
:104BA0000DE0BB7B0093314B0122002102200DF070
:104BB0004DFBBB7B9BB21946B868FEF7F7FC0023A0
:104BC00049E0BA7B3B6A9B681A443B6A5B689A423D
:104BD0000BD93B6A00229A603B6A5B681A46002147
:104BE000F8690EF037FE002335E03B6A1A693B6A2C
:104BF0009B681344BA7BB96818460EF058FF3B6AAD
:104C00009B685A003B6A9A601949F8690EF058FE91
:104C1000B8611849F8690EF053FE78617B69002B82
:104C200018D0BB69002B15D07A69BB69D31A02333F
:104C30007B623B6A00229A603B6A1B6900930E4BC1
:104C40000122002102200DF001FB7B68BA691A6085
:104C50007B6A00E0002318462837BD4680BD00BFB0
:104C600000290020AC5B0108E45C0108EC5C010851
:104C7000F85C0108FC5C0108005D010880B586B0A5
:104C800002AF0346B9607A60FB73BB68002B02D0A9
:104C90007B687F2B08D87B680093234B012200217F
:104CA00002200DF0D3FA3BE0FA7B204913469B002B
:104CB00013449B000B441033BA681A60FA7B1B49FB
:104CC00013469B0013449B000B4404337A681A601C
:104CD000FA7B164913469B0013449B000B440C338C
:104CE00000221A70FA7B114913469B0013449B0063
:104CF0000B4400221A60FA7B0C4913469B001344B4
:104D00009B000B44083300221A60FB7B084A1360A7
:104D1000FB7B0093074B0022002102200DF096FA46
:104D20001037BD4680BD00BF105D0108002900207E
:104D3000FC2800202C5D010880B58AB002AFF86025
:104D4000B9607A603B600023FB6100237B613B68B4
:104D50003B617B68402B02D94FF0FF3391E0002389
:104D6000BB6189E04949BA6913469B0013449B0023
:104D70000B441B78002B7CD0BA6913469B0013446C
:104D80009B00424A134401331946B8680EF098FD5F
:104D900078617B69002B6CD0BB6800933C4B01228F
:104DA000002102200DF052FA8022002138690EF015
:104DB00051FD7A68B96838690EF079FE3F21B8680C
:104DC0000EF050FD0346002B22D03049BA6913463D
:104DD0009B0013449B000B4410331B68002B48D0EE
:104DE0002A49BA6913469B0013449B000B441033B5
:104DF0001B683969F86898470346FB61FB69002B1B
:104E000037DDFB699BB219463869FFF729FB30E0B3
:104E10001E49BA6913469B0013449B000B440C3394
:104E20001B68002B17D01949BA6913469B0013441D
:104E30009B000B440C331B683969F868984703469C
:104E4000FB61FB69002B14DDFB699BB219463869D5
:104E5000FFF706FB0DE0BA690E4938690EF066FCF3
:104E60003869FBF78DF903469BB219463869FFF79D
:104E7000F7FABB690133BB61BB69082B7FF772AFDF
:104E8000FB6918462037BD4680BD00BF00000020EA
:104E9000445D0108505D010880B588B002AF7860BC
:104EA0000B467B8000237B6100233B610023FB607A
:104EB0001E4B1B687A88019200931D4B0122002132
:104EC00002200DF0C3F9194B1B68002B29DB174B8F
:104ED0001B68D8B27B88DAB207F10C037968FFF758
:104EE00027FE03463B613B69002B1ADD3B69802BA3
:104EF00017DC802200210F480EF0ACFC802200213C
:104F00000D480EF0A7FCFB683A69194609480EF0F7
:104F1000CEFD064B1B6818463A69074B0549FFF75B
:104F20000BFF7B6918461837BD4680BDFC28002062
:104F3000645D010828290020AC29002080B500AF5D
:104F400006F0ACFC0346184680BD80B582B000AFC9
:104F50000346FB71FB79184606F0E0FC0346184651
:104F60000837BD4680BD80B500AF06F037FD03466B
:104F7000184680BD80B500AF06F037FD03461846E1
:104F800080BD80B500AF06F037FD0346184680BDF2
:104F900080B582B000AF0346FB71FB79184606F07E
:104FA00032FD034618460837BD4680BD80B400AFC9
:104FB00000BFBD4680BC704780B400AF044B5B6847
:104FC000034A43F00103536000BFBD4680BC7047F5
:104FD000002004E080B400AF044B5B68034A43F058
:104FE0000203536000BFBD4680BC7047002004E050
:104FF00080B400AF044B5B68034A43F00403536082
:1050000000BFBD4680BC7047002004E080B582B080
:1050100000AF0023FB71032000F0F8F802F0C0F8A5
:105020000346094A13600F20FBF7E6FD0346002BF9
:1050300002D00123FB7101E0FBF7AAFCFB791846C3
:105040000837BD4680BD00BFB400002080B500AF6A
:10505000FFF7B2FF00BF80BD80B500AFFFF7BAFF1A
:1050600000BF80BD80B500AFFFF7C2FF00BF80BDAD
:1050700080B485B000AF78607B6803F00703FB6005
:105080000C4BDB68BB60BA684FF6FF031340BB6094
:10509000FB681A02BB68134343F0BF6343F4003359
:1050A000BB60044ABB68D36000BF1437BD4680BCF8
:1050B000704700BF00ED00E080B400AF044BDB6838
:1050C0001B0A03F007031846BD4680BC704700BFAB
:1050D00000ED00E080B483B000AF0346FB7197F9A8
:1050E0000730002B0BDBFB7903F01F02064997F911
:1050F00007305B09012000FA02F241F8232000BFCB
:105100000C37BD4680BC704700E100E080B483B03E
:1051100000AF0346FB7197F90730002B12DBFB79D8
:1051200003F01F020A4997F907305B09012000FAD2
:1051300002F2203341F82320BFF34F8F00BFBFF3AB
:105140006F8F00BF00BF0C37BD4680BC704700BFEB
:1051500000E100E080B483B000AF03463960FB712A
:1051600097F90730002B0ADB3B68DAB20C4997F954
:1051700007301201D2B20B4483F800230AE03B68E7
:10518000DAB20849FB7903F00F03043B1201D2B2F3
:105190000B441A7600BF0C37BD4680BC704700BF79
:1051A00000E100E000ED00E080B489B000AFF860FD
:1051B000B9607A60FB6803F00703FB61FB69C3F128
:1051C0000703042B28BF0423BB61FB690433062BB0
:1051D00002D9FB69033B00E000237B614FF0FF3203
:1051E000BB6902FA03F3DA43BB681A407B699A4051
:1051F0004FF0FF317B6901FA03F3D9437B680B4021
:10520000134318462437BD4680BC704780B582B032
:1052100000AF78607868FFF72BFF00BF0837BD4606
:1052200080BD80B586B000AF0346B9607A60FB737D
:10523000FFF742FF78617A68B9687869FFF7B4FFD1
:10524000024697F90F3011461846FFF783FF00BF5B
:105250001837BD4680BD80B582B000AF0346FB71F4
:1052600097F907301846FFF735FF00BF0837BD46EE
:1052700080BD80B582B000AF0346FB7197F907305F
:105280001846FFF743FF00BF0837BD4680BD00004A
:1052900080B582B000AF78607B68002B01D101231C
:1052A0008EE07B681B681A46474B9A420FD87B6892
:1052B0001B681A46454B1344454AA2FB03231B09AE
:1052C0009A007B685A647B68424A1A640EE07B68E5
:1052D0001B681A46404B13443D4AA2FB03231B099B
:1052E0009A007B685A647B683C4A1A647B68022295
:1052F00083F825207B681B681B687A68126823F492
:10530000FF4323F0700313607B681B6819687B6898
:105310009A687B68DB681A437B681B691A437B6861
:105320005B691A437B689B691A437B68DB691A4394
:105330007B681B6A1A437B681B680A431A6078689B
:1053400000F024FB7B689B68B3F5804F02D17B683B
:1053500000225A607B685A687B689B6C02F07F026F
:105360001A607B68DB6C7A68126D5A607B685B68D8
:10537000002B10D07B685B68042B0CD8786800F099
:105380004DFB7B685B6D00221A607B689B6D7A68C1
:10539000D26D5A6008E07B6800225A657B68002263
:1053A0009A657B680022DA657B680022DA637B6895
:1053B000012283F825207B68002283F82420002323
:1053C00018460837BD4680BD07040240F8FFFDBF00
:1053D000CDCCCCCC00000240F8FBFDBF0004024065
:1053E00080B582B000AF78607B68002B01D10123CB
:1053F0007BE07B681B681A687B681B6822F00102EF
:105400001A607B681B681A463A4B9A420FD87B6831
:105410001B681A46384B1344384AA2FB03231B0966
:105420009A007B685A647B68354A1A640EE07B6890
:105430001B681A46334B1344304AA2FB03231B0953
:105440009A007B685A647B682F4A1A647B681B68E1
:1054500000221A607B685B6C03F01C027B681B6C8B
:10546000012101FA02F25A60786800F08FFA7B6835
:105470009B6C00221A607B68DB6C7A68126D5A6044
:105480007B685B68002B0FD07B685B68042B0BD8B4
:10549000786800F0C3FA7B685B6D00221A607B6855
:1054A0009B6D7A68D26D5A607B6800225A657B6872
:1054B00000229A657B680022DA657B680022DA6246
:1054C0007B6800221A637B6800225A637B68002293
:1054D0009A637B680022DA637B68002283F82520C8
:1054E0007B68002283F82420002318460837BD4635
:1054F00080BD00BF07040240F8FFFDBFCDCCCCCC7F
:1055000000000240F8FBFDBF0004024080B586B0F9
:1055100000AFF860B9607A603B600023FB75FB6800
:1055200093F82430012B01D1022369E0FB680122AA
:1055300083F82420FB6893F82530DBB2012B55D18A
:10554000FB68022283F82520FB680022DA63FB68EF
:105550001B681A68FB681B6822F001021A603B682E
:105560007A68B968F86800F0D3F9FB681B6B002B08
:1055700008D0FB681B681A68FB681B6842F00E02C3
:105580001A600FE0FB681B681A68FB681B6822F052
:1055900004021A60FB681B681A68FB681B6842F00B
:1055A0000A021A60FB689B6C1B6803F48033002BB3
:1055B00007D0FB689B6C1A68FB689B6C42F4807296
:1055C0001A60FB685B6D002B07D0FB685B6D1A6887
:1055D000FB685B6D42F480721A60FB681B681A6896
:1055E000FB681B6842F001021A6008E0FB68802239
:1055F000DA63FB68002283F824200123FB75FB7D1E
:1056000018461837BD4680BD80B483B000AF7860BF
:105610007B68002B01D101234FE07B6893F8253094
:10562000DBB2022B08D07B680422DA637B6800229D
:1056300083F82420012340E07B681B681A687B689C
:105640001B6822F00E021A607B689B6C1A687B68EC
:105650009B6C22F480721A607B681B681A687B68F6
:105660001B6822F001021A607B685B6C03F01C026D
:105670007B681B6C012101FA02F25A607B68DB6CCB
:105680007A68126D5A607B685B6D002B0CD07B686A
:105690005B6D1A687B685B6D22F480721A607B68B0
:1056A0009B6D7A68D26D5A607B68012283F8252051
:1056B0007B68002283F82420002318460C37BD465F
:1056C00080BC704780B584B000AF78600023FB7366
:1056D0007B6893F82530DBB2022B05D07B6804226F
:1056E000DA630123FB7347E07B681B681A687B68F9
:1056F0001B6822F00E021A607B681B681A687B68C0
:105700001B6822F001021A607B689B6C1A687B6838
:105710009B6C22F480721A607B685B6C03F01C0245
:105720007B681B6C012101FA02F25A607B68DB6C1A
:105730007A68126D5A607B685B6D002B0CD07B68B9
:105740005B6D1A687B685B6D22F480721A607B68FF
:105750009B6D7A68D26D5A607B68012283F82520A0
:105760007B68002283F824207B689B6B002B03D08E
:105770007B689B6B78689847FB7B18461037BD4663
:1057800080BD000080B584B000AF78607B681B6C82
:105790001B68FB607B681B681B68BB607B685B6C7D
:1057A00003F01C0304229A40FB681340002B27D00F
:1057B000BB6803F00403002B22D07B681B681B68C6
:1057C00003F02003002B07D17B681B681A687B68F5
:1057D0001B6822F004021A607B685B6C03F01C02F9
:1057E0007B681B6C042101FA02F25A607B681B6B18
:1057F000002B00F081807B681B6B786898477BE00A
:105800007B685B6C03F01C0302229A40FB68134028
:10581000002B3DD0BB6803F00203002B38D07B681F
:105820001B681B6803F02003002B0BD17B681B68EF
:105830001A687B681B6822F00A021A607B680122E2
:1058400083F825207B681B681A462E4B9A4209D99B
:105850007B685B6C03F01C032B4A022101FA03F303
:10586000536008E07B685B6C03F01C03274A02214D
:1058700001FA03F353607B68002283F824207B68DD
:10588000DB6A002B38D07B68DB6A7868984733E0A6
:105890007B685B6C03F01C0308229A40FB68134092
:1058A000002B2AD0BB6803F00803002B25D07B68AF
:1058B0001B681A687B681B6822F00E021A607B68FE
:1058C0005B6C03F01C027B681B6C012101FA02F285
:1058D0005A607B680122DA637B68012283F8252005
:1058E0007B68002283F824207B685B6B002B04D04C
:1058F0007B685B6B7868984700BF00BF1037BD4678
:1059000080BD00BF80000240000402400000024051
:1059100080B485B000AFF860B9607A603B60FB6826
:10592000DB6CFA68126D5A60FB685B6D002B04D06B
:10593000FB689B6DFA68D26D5A60FB685B6C03F084
:105940001C02FB681B6C012101FA02F25A60FB6821
:105950001B683A685A60FB689B68102B08D1FB688B
:105960001B687A689A60FB681B68BA68DA6007E0AF
:10597000FB681B68BA689A60FB681B687A68DA6023
:1059800000BF1437BD4680BC7047000080B485B0AE
:1059900000AF78607B681B681A461C4B9A4213D88C
:1059A0007B685B6C9B089B0003F1804303F502332B
:1059B0007A6893647B681B68DBB2083B144AA2FBDD
:1059C00003231B09FB6011E07B685B6C9B089A005A
:1059D000104B13447A6893647B681B68DBB2083B06
:1059E0000B4AA2FB03231B090733FB607B680A4AAF
:1059F000DA64FB6803F01F0301229A407B681A6592
:105A000000BF1437BD4680BC704700BF070402408A
:105A1000CDCCCCCC1C0802408008024080B485B0BC
:105A200000AF78607B685B6803F07F03FB60FA6817
:105A30000A4B13449B001A467B685A657B68084AE8
:105A40009A65FB68013B03F0030301229A407B68DF
:105A5000DA6500BF1437BD4680BC70473F82001036
:105A60004009024080B586B000AFF860B960C7E970
:105A700000231C4B1B78012B01D102232DE0194B75
:105A800001221A70174B00225A604FF47A7000F00E
:105A900073F80346FB75FB7D002B1AD1FB68012BC5
:105AA00005D1D7E90023B86800F0C8F804E03B68E6
:105AB0001946B86800F0E8F84FF47A7000F05CF826
:105AC0000346FB75084B5A69FB68DB4306491340E4
:105AD0004B61044B00221A70FB7D18461837BD46F7
