:020000040800F2
:1000000000000120B51600087909000881090008E0
:1000100089090008910900089909000800000000FA
:1000200000000000000000000000000091A900088E
:10003000A10900080000000071AB0008B9AB00087E
:100040000517000805170008AD0900080517000886
:100050000517000805170008051700080517000810
:100060000517000805170008051700080517000800
:100070000517000805170008D5090008C109000880
:10008000E9090008FD090008051700080517000820
:1000900000000000051700080517000805170008F4
:1000A00005170008051700080517000805170008C0
:1000B00005170008051700080517000805170008B0
:1000C00005170008051700080517000805170008A0
:1000D000110A0008250A000805170008051700087E
:1000E0000517000805170008390A00080517000859
:1000F00005170008000000000000000005170008B8
:1001000005170008051700084D0A00080517000824
:10011000051700080517000805170008051700084F
:10012000051700080517000805170008051700083F
:0801300005170008051700087F
:1001400010B5054C237833B9044B13B10448AFF311
:1001500000800123237010BD740000200000000007
:10016000A030010808B5034B1BB103490348AFF3A6
:10017000008008BD0000000078000020A0300108C9
:10018000034613F8012B002AFBD1181A01387047D7
:1001900001F0FF01102A2BDB10F0070F08D010F838
:1001A000013B013A8B422DD010F0070F42B3F6D13C
:1001B000F0B441EA012141EA014122F007047FF055
:1001C00000070023F0E80256083C85EA010586EAAC
:1001D000010685FA47F5A3FA87F586FA47F6A5FAE8
:1001E00087F68EB9EED1F0BC01F0FF0102F00702F4
:1001F00032B110F8013B013A83EA010313B1F8D19F
:100200000020704701387047002D06BF354603387F
:10021000073815F0010F07D1013015F4807F02BFB8
:10022000013015F4C03F0130F0BC0138704700BF09
:1002300053B94AB9002908BF00281CBF4FF0FF314D
:100240004FF0FF3000F088B9ADF1080C6DE904CE35
:1002500000F006F8DDF804E0DDE9022304B07047A1
:100260002DE9F047089D0F4604468C46002B48D1E7
:100270008A42164661D9B2FA82F34BB1C3F1200229
:1002800001FA03FC20FA02F29E4042EA0C0C9C4068
:100290004FEA164EB7B2BCFBFEF1220C0EFB11CC9E
:1002A00042EA0C4201FB07F0904209D9B21801F171
:1002B000FF3C80F0EE80904240F2EB800239324405
:1002C000121AA4B2B2FBFEF00EFB102244EA024462
:1002D00000FB07F7A74209D9341900F1FF3280F07B
:1002E000DA80A74240F2D7803444023840EA014025
:1002F000E41B00211DB1DC400023C5E90043BDE83B
:10030000F0878B4206D90DB1C5E9000100210846EE
:10031000BDE8F087B3FA83F1002948D1BB4202D38C
:10032000824200F20781841A67EB0302012094469F
:10033000002DE4D0C5E9004CE1E7002A00F09280EE
:10034000B2FA82F3002B40F0A8808A1A4FEA164EC8
:100350001FFA86FC0121200CB2FBFEF70EFB1722D0
:1003600040EA02420CFB07F0904207D9B21807F1AD
:10037000FF3802D2904200F2E2804746121AA4B23D
:10038000B2FBFEF00EFB102244EA02440CFB00FC20
:10039000A44507D9341900F1FF3202D2A44500F276
:1003A000CB801046A4EB0C0440EA0740A2E7C1F161
:1003B00020068B4022FA06FC4CEA030C07FA01F4F3
:1003C00020FA06F3F7404FEA1C49234300FA01F8EC
:1003D0001FFA8CFEB7FBF9F01C0C09FB107744EAFE
:1003E000074400FB0EF7A74202FA01F20AD91CEB00
:1003F000040400F1FF3A80F09B80A74240F298800D
:1004000002386444E41B9FB2B4FBF9F309FB1344C4
:1004100047EA044403FB0EFEA64509D91CEB04047D
:1004200003F1FF3780F08280A6457FD9023B644408
:1004300043EA0040A4EB0E04A0FB02E7BC42734673
:10044000B94663D360D05DB1B8EB030264EB090435
:1004500004FA06F622FA01F31E43CC40C5E9006413
:1004600000214CE76208480842EAC1710B0C43EADC
:1004700000438AB242EA0342B3FBF6F1E407B44612
:100480003746B6461F23B0FBF6F0D21B41EA0041C7
:1004900061E7614614E7104628E7C3F1200120FA1E
:1004A00001F29E4027FA01F19F403A434FEA164E6F
:1004B0001FFA86FCB1FBFEF70EFB1710110C41EA88
:1004C000004107FB0CF8884504FA03F43AD9711887
:1004D00007F1FF3001D288451FD8A1EB0801B1FB1D
:1004E000FEF808FB0CF70EFB181192B242EA01422B
:1004F000BA422FD2B21808F1FF31C6D2BA42C4D2E2
:10050000A8F102013244C0E7F0459CD2BEEB0203E1
:1005100067EB0C070138B94695E7A6EB080841449C
:10052000B81EB1FBFEF808FB0CF7DCE73B467FE7A3
:10053000504667E70846FBE63444023832E7023F9C
:1005400032441BE7A1EB08013846B1FBFEF808FB7B
:100550000CF7C8E7414698E7704700BF80B500AF89
:10056000044A0021044809F073FC0346034A13605F
:1005700000BF80BD9434010881050008900400206C
:1005800080B582B000AF786001F0BDF84FF48062B2
:100590000949012003F0B6FD02F03AFF02F082FFA4
:1005A000064802F0F3FF02F059FB00200BF0C0FAFE
:1005B00000BF0837BD4680BD90000020C54200083E
:1005C00080B485B000AF78604FF0B0439A6C4FF0C4
:1005D000B0417B6813438B644FF0B0439A6C7B68E7
:1005E0001340FB60FB6800BF1437BD4680BC7047FA
:1005F00080B500AF0420FFF7E3FF0120FFF7E0FF25
:10060000002205210E2004F03AF90E2004F051F9E1
:10061000022205210F2004F032F90F2004F049F9DD
:1006200000220521112004F02AF9112004F041F9DB
:1006300002220521102004F022F9102004F039F9DB
:1006400000BF80BD80B485B000AF78604FF0B0438C
:10065000DA6C4FF0B0417B681343CB644FF0B0438A
:10066000DA6C7B681340FB60FB6800BF1437BD4643
:1006700080BC704780B586B000AF3B1D00221A6079
:100680005A609A60DA601A610220FFF7DBFF0120EE
:10069000FFF7D8FF0420FFF7D5FF00224FF4E271E7
:1006A0000A4804F031FF4FF4E2737B600123BB6022
:1006B0000023FB6000233B613B1D1946034804F007
:1006C000C3FD00BF1837BD4680BD00BF0004004811
:1006D00080B483B000AF78604FF0B043D3F890306F
:1006E00023F018024FF0B0417B681343C1F89030FB
:1006F00000BF0C37BD4680BC704780B500AF03F02B
:10070000D7FF00F00BF8FFF7B5FF09F039FBFFF753
:1007100025FF09F067FB00BFFDE7000080B59AB038
:1007200000AF07F1200348220021184611F004F819
:1007300007F1080300221A605A609A60DA601A61B1
:100740005A6104F0F9FE0020FFF7C2FF264B1B6838
:1007500023F4C063244A43F400731360224B1B68E4
:1007600003F4C0637B607B6805233B624FF48033F6
:100770007B628123FB620023BB620223FB640323B1
:100780003B6510237B650923BB654FF40033FB6594
:100790004FF080437B664FF000733B6607F1200308
:1007A000184605F073F90346002B01D000F01EF83F
:1007B0004F23BB600323FB6000233B6100237B616D
:1007C0000023BB610023FB6107F1080302211846E7
:1007D00005F0DEFC0346002B01D000F007F800BF57
:1007E0006837BD4680BD00BF0004005880B400AF2C
:1007F00072B600BF00BFFDE780B400AF4FF0B0435A
:10080000D3F890304FF0B04243F40043C2F8903038
:1008100000BFBD4680BC704780B485B000AF786033
:100820004FF0B0439A6D4FF0B0417B6813438B6536
:100830004FF0B0439A6D7B681340FB60FB6800BFCC
:100840001437BD4680BC704780B58CB000AF3B1DEF
:100850002C220021184610F06FFF224B224A1A600A
:10086000204B1F229A601F4B00221A611D4B002251
:100870005A611C4B00229A611A4B4FF08042DA6198
:10088000184B00221A62174B4FF480725A621548B7
:1008900006F03AF90346002B01D0FFF7A7FF1148F5
:1008A00006F030FC0346002B01D0FFF79FFF00232A
:1008B0003B620023BB600023BB614FF00053FB6130
:1008C0004FF48073FB623B1D00221946054806F079
:1008D0009DF90346002B01D0FFF788FF00BF30379A
:1008E000BD4680BD940400200028004080B590B033
:1008F00000AF786007F1080338220021184610F095
:100900001BFF7B681B68164A934225D14FF4803346
:10091000BB604FF48073FB6307F10803184605F0D2
:10092000D9FF0346002B01D0FFF760FFFFF764FFFC
:100930004FF48060FFF770FF00220521022003F0D2
:100940009EFF022003F0B5FF002205212A2003F0BC
:1009500096FF2A2003F0ADFF00BF4037BD4680BDA3
:100960000028004080B500AF00220F216FF0010089
:1009700003F085FF00BF80BD80B400AF00BFFDE77E
:1009800080B400AF00BFFDE780B400AF00BFFDE75B
:1009900080B400AF00BFFDE780B400AF00BFFDE74B
:1009A00080B400AF00BFBD4680BC704780B500AFCB
:1009B000024806F0E3FB00BF80BD00BF94040020A6
:1009C00080B500AF024804F067F900BF80BD00BFEA
:1009D000E006002080B500AF024804F05DF900BFDA
:1009E00080BD00BFA007002080B500AF024804F022
:1009F00053F900BF80BD00BF8006002080B500AF66
:100A0000024804F049F900BF80BD00BF4007002044
:100A100080B500AF024807F0D3FA00BF80BD00BF29
:100A2000E804002080B500AF024807F0C9FA00BF13
:100A300080BD00BFB405002080B500AF024806F0BD
:100A40004DFA00BF80BD00BF9404002080B500AF08
:100A5000024806F001FF00BF80BD00BFCC040020AB
:100A600080B485B000AF78604FF0B0435A6E4FF05D
:100A7000B0417B6813434B664FF0B0435A6E7B68BE
:100A80001340FB60FB6800BF1437BD4680BC704755
:100A900080B500AF064B08221A60054806F05AFCE4
:100AA0000346002B01D0FFF7A1FE00BF80BD00BFB1
:100AB000CC04002080B582B000AF78600120FFF741
:100AC000CFFF00220521322003F0D9FE322003F0AF
:100AD000F0FE00BF0837BD4680BD80B483B000AFD4
:100AE00078604FF0B0439B6823F400424FF0B04170
:100AF0007B6813438B6000BF0C37BD4680BC7047DA
:100B000080B500AF0020FFF7E8FF0FF0A5FE0A4B0D
:100B100001221A7000F07CF80FF09EFC07480FF0DD
:100B2000B7FC00200FF0C2FC0FF07AFD012101207C
:100B30000FF0B6FD00BF80BDD8040020410B0008B7
:100B400080B586B002AF7860396007F108031846B7
:100B50000FF04AFEBB68B7F90C200092074A10213B
:100B6000786800F015F87868FFF70AFB03469AB238
:100B70003B681A8000BF1037BD4680BDC4300108F5
:100B800080B500AF002102200FF05AFD00BF80BDEC
:100B90000CB480B584B000AF7860396007F11C03F5
:100BA000FB603968FB68BA69786810F0F9F900BF32
:100BB0001037BD46BDE8804002B0704780B483B0B6
:100BC00000AF7860002318460C37BD4680BC7047E4
:100BD00080B582B000AF00237B60064B1B78002BF2
:100BE00002D000F09DF978607B6818460837BD4652
:100BF00080BD00BFD804002080B582B000AF78600F
:100C00007B68184600F013FA00BF0837BD4680BD68
:100C100080B500AF03F06CFD03F070FD03F074FDD0
:100C200000BF80BD80B400AF01231846BD4680BC24
:100C3000704780B582B000AF7860396010F07CFEFC
:100C4000034616221A604FF0FF3318460837BD4698
:100C500080BD80B582B000AF78604FF0FF3178681A
:100C6000FFF7E7FF00BFFDE780B586B000AFF86093
:100C7000B9607A6000237B610AE0AFF3008001462F
:100C8000BB685A1CBA60CAB21A707B6901337B61B7
:100C90007A697B689A42F0DB7B6818461837BD4654
:100CA00080BD80B586B000AFF860B9607A6000237F
:100CB0007B6109E0BB685A1CBA601B781846AFF329
:100CC00000807B6901337B617A697B689A42F1DB42
:100CD0007B6818461837BD4680BD80B483B000AF2E
:100CE00078604FF0FF3318460C37BD4680BC704724
:100CF00080B483B000AF786039603B684FF4005235
:100D00005A60002318460C37BD4680BC704780B43B
:100D100083B000AF7860012318460C37BD4680BC15
:100D2000704780B485B000AFF860B9607A60002386
:100D300018461437BD4680BC7047000080B586B0A9
:100D400000AF7860144A154BD31A7B617B693B6115
:100D5000134B1B68002B02D1114B124A1A60104B27
:100D60001A687B6813443A699A4207D210F0E4FD8E
:100D700003460C221A604FF0FF3309E0084B1B6852
:100D8000FB60074B1A687B681344054A1360FB68D5
:100D900018461837BD4680BD00000120000800003D
:100DA000DC0400200000001080B483B000AF786045
:100DB0007B689B6818460C37BD4680BC70470000B6
:100DC00080B582B000AF0023FB71144B1B7883F019
:100DD0000103DBB2002B1BD0114B4FF0FF321A6323
:100DE000FFF732FD00F056F84FF480710C4806F022
:100DF00019F80B4B4FF0FF321A63094806F050F90F
:100E0000002000F0D3F900F05FF8044B01221A70C3
:100E1000FB7918460837BD4680BD00BFE0040020BE
:100E20009404002080B58EB000AF7860002387F86E
:100E3000373007F108032C220021184610F07CFC03
:100E400000F028F8114B1B687A6813447B6000237C
:100E50007B627B68DB43FB600023FB614FF0005348
:100E60003B624FF480733B6307F10803012219468C
:100E7000074805F0CBFE0346002B01D0FFF7B6FC78
:100E800097F8373018463837BD4680BDE404002057
:100E90009404002080B582B000AF0023FB71084BA2
:100EA0000122DA654FF48071064805F0BBFF054B5F
:100EB0004FF0FF321A63FB7918460837BD4680BDF4
:100EC000002800409404002080B500AF00F08EF9A7
:100ED0000346034A1360024B1B68184680BD00BFDF
:100EE000E404002080B400AF024B1B681846BD46E6
:100EF00080BC7047E404002080B582B000AF0023BE
:100F00007B6000F073F90246044B1B68D31A7B60C8
:100F10007B6818460837BD4680BD00BFE40400204A
:100F200080B582B000AF00237B60064B1B78002B9E
:100F300002D000F05BF978607B6818460837BD4640
:100F400080BD00BFE004002080B483B000AF002368
:100F50007B6003237B607B6818460C37BD4680BCF2
:100F60007047B0B584B000AF78600021F96079684F
:100F700000200A460346950D94024FF47A724FF012
:100F8000000320462946FFF753F902460B46134655
:100F9000FB60FB6818461037BD46B0BD2DE9B00FA9
:100FA00085B000AF78600021F960796800200C46B8
:100FB0000546204629464FF0000A4FF0000B4FEA45
:100FC000411B4BEAD06B4FEA401A50465946021B70
:100FD00061EB05034FF000004FF00001990041EA7A
:100FE0009271900002460B4612EB040843EB050990
:100FF0004FF000024FF000034FEAC90343EA587371
:101000004FEAC80290469946404649464FF00002D2
:101010004FF00003820A42EA81528B0A1346FB60BA
:10102000FB6818461437BD46BDE8B00F704780B561
:1010300084B000AF78607868FFF793FFF86000F045
:10104000D5F8B86000E000BF00F0D0F80246BB68F9
:10105000D31AFA689A42F6D800BF00BF1037BD46CF
:1010600080BD80B582B000AF78600FF043FD00BF57
:101070000837BD4680BD80B584B000AF786000F011
:10108000A5F8F860FB680133184600F08FF800BF40
:101090001037BD4680BD2DE9B04F8CB000AF7861F0
:1010A0000023FB6200F0A2F8B86200F08FF87862CB
:1010B0007B6A0022BB60FA604FF000024FF0000331
:1010C000B9680B000022B96A00200C46054612EBF5
:1010D000040843EB0509C7E90689D7E906014FF083
:1010E00000024FF00003820A42EA81528B0A134643
:1010F000FB62BB6900223B607A603B68C3F3090A6C
:101100004FF0000BC7E906ABBB691846FFF746FF77
:1011100003469AB27B691A80FB6A18463037BD468F
:10112000BDE8B08F80B582B000AF78607A680021EA
:10113000034806F047F800BF0837BD4680BD00BF32
:101140009404002080B582B000AF78607A680121F5
:10115000034806F037F800BF0837BD4680BD00BF22
:101160009404002080B582B000AF00237B60002192
:10117000044806F03FF878607B6818460837BD469B
:1011800080BD00BF9404002080B582B000AF002372
:101190007B600121044806F02DF878607B681846D2
:1011A0000837BD4680BD00BF9404002080B582B0E2
:1011B00000AF78607A680221034806F003F800BFA8
:1011C0000837BD4680BD00BF9404002080B582B0C2
:1011D00000AF0221044806F00DF878607B681846DD
:1011E0000837BD4680BD00BF9404002080B582B0A2
:1011F00000AF0B48FFF7D8FD786003E00848FFF721
:10120000D3FD78600648FFF7CFFD02467B68934226
:10121000F4D17B68DB4318460837BD4680BD00BF6C
:101220000028004080B485B000AF78604FF0B04334
:10123000DA6C4FF0B0417B681343CB644FF0B0439E
:10124000DA6C7B681340FB60FB6800BF1437BD4657
:1012500080BC704780B485B000AF78604FF0B04379
:101260009A6D4FF0B0417B6813438B654FF0B043EC
:101270009A6D7B681340FB60FB6800BF1437BD4666
:1012800080BC704780B485B000AF78604FF0B04349
:101290001A6E4FF0B0417B6813430B664FF0B043BA
:1012A0001A6E7B681340FB60FB6800BF1437BD46B5
:1012B00080BC704780B500AF224B234A1A60214B97
:1012C0004FF4E1325A601F4B00229A601D4B0022FE
:1012D000DA601C4B00221A611A4B0C225A61194B1E
:1012E00000229A61174B0022DA61164B00221A6223
:1012F000144B00225A62134B00229A62114806F0E6
:1013000075FC0346002B01D0FFF770FA00210D4851
:1013100008F033FB0346002B01D0FFF767FA0021EA
:10132000084808F068FB0346002B01D0FFF75EFA7F
:10133000044808F0EAFA0346002B01D0FFF756FAFA
:1013400000BF80BDE80400200038014080B500AF38
:10135000224B234A1A60214B4FF4E1325A601F4B53
:1013600000229A601D4B0022DA601C4B00221A6199
:101370001A4B0C225A61194B00229A61174B00221A
:10138000DA61164B00221A62144B00225A62134B88
:1013900000229A62114806F029FC0346002B01D076
:1013A000FFF724FA00210D4808F0E7FA0346002B66
:1013B00001D0FFF71BFA0021084808F01CFB034688
:1013C000002B01D0FFF712FA044808F063FA034635
:1013D000002B01D0FFF70AFA00BF80BDB405002042
:1013E0000044004080B596B000AF786007F1440338
:1013F00000221A605A609A60DA601A6107F10C03E1
:1014000038220021184610F097F97B681B688B4A38
:10141000934240F085800123FB604FF440333B61F1
:1014200007F10C03184605F055FA0346002B01D0CE
:10143000FFF7DCF94FF48040FFF724FF0120FFF7AE
:10144000F1FE4FF4C0637B640223BB640023FB64A2
:1014500003233B6507237B6507F1440319464FF0DF
:10146000904003F0F1FE764B764A1A60744B1222DC
:101470005A60734B10229A60714B0022DA60704BF5
:1014800080221A616E4B00225A616D4B00229A61D4
:101490006B4B0022DA616A4B00221A62684803F043
:1014A00017FA0346002B01D0FFF7A0F97B68644AC6
:1014B000DA67634A7B689362634B644A1A60624BE3
:1014C00011225A60604B00229A605F4B0022DA6062
:1014D0005D4B80221A615C4B00225A615A4B0022FC
:1014E0009A61594B0022DA61574B4FF480521A62CD
:1014F000554803F0EDF90346002B01D0FFF776F9CC
:101500007B68514AC3F880204F4A7B68936200226F
:101510000521242003F0B3F9242003F0CAF988E060
:101520007B681B684A4A934240F083800223FB6039
:101530004FF440237B6107F10C03184605F0CAF90C
:101540000346002B01D0FFF751F94FF40030FFF7AD
:1015500081FE0120FFF766FE0C237B640223BB643F
:101560000023FB6403233B6507237B6507F14403EA
:1015700019464FF0904003F067FE364B364A1A602A
:10158000344B14225A60334B10229A60314B0022A4
:10159000DA60304B80221A612E4B00225A612D4BAB
:1015A00000229A612B4B0022DA612A4B00221A6238
:1015B000284803F08DF90346002B01D0FFF716F9F8
:1015C0007B68244ADA67234A7B689362234B244A68
:1015D0001A60224B13225A60204B00229A601F4B44
:1015E0000022DA601D4B80221A611C4B00225A61D6
:1015F0001A4B00229A61194B0022DA61174B4FF403
:1016000080521A62154803F063F90346002B01D09B
:10161000FFF7ECF87B68114AC3F880200F4A7B681B
:10162000936200220521252003F029F9252003F0EB
:1016300040F900BF5837BD4680BD00BF00380140AB
:10164000800600206C00024040070020800002401D
:1016500000440040E006002058000240A00700209F
:101660004400024080B483B000AF78600023184685
:101670000C37BD4680BC704780B400AF00231846CD
:10168000BD4680BC704780B483B000AF78600B4625
:101690007B80002318460C37BD4680BC704780B461
:1016A00083B000AF7860002318460C37BD4680BC7D
:1016B000704700000D48854602F0CAFF0C480D49EE
:1016C0000D4A002302E0D458C4500433C4188C429D
:1016D000F9D30A4A0A4C002301E013600432A24203
:1016E000FBD310F02FF9FFF708F8FEE70000012008
:1016F0000000002074000020EC3D01087400002070
:1017000008D50020FEE780B500AFFFF7F9F902F039
:10171000D1F800BF80BD80B483B000AF78607B6833
:10172000D3E90023104619460C37BD4680BC7047EC
:1017300090B587B000AFF860B9601346FB80002316
:10174000FB8210E0FB8ADB00BA68D418F868FFF768
:10175000E2FF02460B46C4E90023FB680833FB6046
:10176000FB8A0133FB82FA8AFB889A42EAD300BFE4
:1017700000BF1C37BD4690BD80B58AB000AFF86091
:10178000B9601346FB8000233B620023FB842FE0FB
:10179000BB6803F10802BA60D3E90023C7E9062356
:1017A00003F02EFCD7E90623F968012003F0E4FBDF
:1017B0000346FB7503F046FCFB7D002B12D003F0C3
:1017C0005BFC386203F01CFC4FF47A7003F05EFCA3
:1017D000D7E90623F968012003F0CEFB0346FB7529
:1017E00003F030FCFB680833FB60FB8C0133FB84A7
:1017F000FA8CFB889A42CBD300BF00BF2837BD4686
:1018000080BD000080B586B000AFF860B9601346B7
:10181000FB80FB68B3F1006F2AD3FB68174A934241
:1018200026D8FB88202B25D8FB6803F178437B6101
:101830007B69DB0A3B6103F0E3FB114B4CF2FA32AC
:101840001A61386903F0E8FC02200AF0E5F90C4B54
:101850005B690B4A23F47E7323F00203536103F0A8
:10186000F1FBFB881A46B968F868FFF785FF02E0CC
:1018700000BF00E000BF1837BD4680BDFFFF030872
:101880000040005880B5A4B000AFF860B9601346BE
:10189000FB7107F114036822002118460FF04CFF7A
:1018A0000123C7F88C300023C7F8883018E097F977
:1018B0000730D7F88C209A420CD0D7F888305A1CC1
:1018C000C7F88820D7F88C2052B290333B4403F8F5
:1018D0007C2C00E000BFD7F88C300133C7F88C3087
:1018E000D7F88C20BB689A42E1DD0AF0E7FA03469C
:1018F00018460FF05DFDBB68013BC7F8843032E04D
:101900000FF084FD0346D7F8842093FBF2F2D7F85A
:10191000841001FB02F29B1ADBB20133DBB287F8C1
:101920007F3007F11402D7F8843013441B7887F80E
:101930007E3097F97F3090333B4413F97C1C07F1DC
:101940001402D7F8843013440A461A7097F97F308E
:1019500090333B4497F87E2003F87C2CD7F88430F2
:10196000013BC7F88430D7F88430002BC8DCFB6813
:10197000002B06D0BA6807F114031946F86810F076
:1019800008F80023C7F8803015E0D7F880200F4B07
:1019900083FB02131911D317CB1A322101FB03F376
:1019A000D31A002B02D105200AF036F9D7F880307F
:1019B0000A33C7F88030D7F88020BB689A42E4DB4E
:1019C00000BF00BF9037BD4680BD00BF1F85EB51F3
:1019D00080B584B000AF786039607B68BB6000235D
:1019E000FB6012E0FA680D4B83FB02131911D31749
:1019F000CB1A322101FB03F3D31A002B02D10120B1
:101A00000AF00AF9FB680A33FB60FA683B689A42FD
:101A1000E8DB00BF00BF1037BD4680BD1F85EB511E
:101A200080B582B000AF00233B600E4B19683B4687
:101A300001220D480BF002FB78607B68002B0AD076
:101A40003B68002B07D0094B4FF080521A60BFF360
:101A50004F8FBFF36F8F064BDB6A984700BF083785
:101A6000BD4680BD1811002063A3000804ED00E00E
:101A7000A03A010880B586B000AFF860084611466C
:101A80001A4603467B810B463B811346FB710023BC
:101A90003B61304B1B6D012B05D17B891A46F968E0
:101AA0002D4801F02DFE2D4A3B8913802C4AFB79ED
:101AB00013707B89FF2B28BFFF239BB21A46294B4B
:101AC0005A60284B04221A607B89FF2B28BFFF2312
:101AD0009BB21A46F96824480FF05BFF1D4BDB6E82
:101AE000002B04D1214B5B6B4FF4FA609847194BE4
:101AF000DB6E012B0AD100233B611D4B196807F1F6
:101B0000100304221B480BF099FA78611A4B1B68EA
:101B1000184609F0D1FD0346002B16D1164B186864
:101B200007F1100200230F4909F014FB78617B696B
:101B3000002B0AD03B69002B07D0104B4FF080528E
:101B40001A60BFF34F8FBFF36F8F00BF1837BD46CA
:101B500080BD00BF00080020F4110020F01100201B
:101B6000F21100200812002010120020A03A0108F3
:101B70001811002063A300081011002004ED00E0FC
:101B800080B400AF034B01221A6000BFBD4680BC89
:101B9000704700BFE411002080B582B000AF002381
:101BA0007B600E4B01221A600D4B1B68002B11D07D
:101BB0000B4B19683B1D08220A480BF03FFA7B6863
:101BC000002B07D0084B4FF080521A60BFF34F8FA5
:101BD000BFF36F8F00BF0837BD4680BDE8110020FE
:101BE0001811002063A3000804ED00E080B582B066
:101BF00000AF00237B60134B01221A60124BDB6E97
:101C0000002B04D1114B5B6B4FF4FA609847104BDB
:101C10001B68002B11D00E4B19683B1D10220D487C
:101C20000BF00CFA7B68002B07D00B4B4FF0805267
:101C30001A60BFF34F8FBFF36F8F00BF0837BD46E9
:101C400080BD00BFEC11002000080020A03A010870
:101C50001811002063A3000804ED00E080B400AF79
:101C6000024B1846BD4680BC704700BF00080020EC
:101C700080B500AF0A4B0B4A1A60094B0A4A9A60BA
:101C8000074B0A4A5A60064B094ADA60044B094A74
:101C90001A61094B1B68024898470023184680BD0B
:101CA000C8110020211A0008751A0008811B0008BD
:101CB000991B0008ED1B0008A03A010890B58FB0F1
:101CC0000AAFF860B9607A60FB70144BDB68F868A3
:101CD0009847124BDC6997F920107B6A0893002320
:101CE0000793002306930023059301230493002305
:101CF000039306230293FB7801937B680093BB68F0
:101D000000220120A047054B5B6DFF210120984771
:101D1000002318461437BD4690BD00BFA03A010805
:101D200090B58FB00AAFF860B9607A60FB70164B5F
:101D3000DB68F8689847144B9C69FB78012209928C
:101D400000220892002207920022069201220592A8
:101D5000002204920022039205220292062201929E
:101D6000002200927A68B9680120A047064B5B6D9B
:101D7000FF2101209847044B5B6B386A984700238A
:101D800018461437BD4690BDA03A010880B483B010
:101D900000AF78607B68074A934205D97B68064AA2
:101DA000934201D8012300E0002318460C37BD46BA
:101DB00080BC7047806DC335FF27503780B487B033
:101DC00000AF78607B68254AA2FB03239B093B6137
:101DD0003B69224AA2FB031292094FF47A7101FB7C
:101DE00002F29B1AFB6000237B61FB68F92B02D88F
:101DF0007D237B6123E0FB68F92B07D9FB68B3F5F2
:101E0000FA7F03D240F277137B6118E0FB68B3F5E9
:101E1000FA7F08D3FB6840F2ED22934203D840F2E8
:101E200071237B610BE0FB6840F2ED22934206D9FF
:101E3000FB68B3F57A7F02D240F26B337B613A697B
:101E40007B6913444FF47A7202FB03F33B613B69F5
:101E500018461C37BD4680BC704700BFD34D62108A
:101E600080B582B000AF7860294B1B680133284AE7
:101E700013607B681C221A607B680A225A74244B08
:101E80001A687B68DA607B68224A5A60224B1B69B9
:101E9000DAB27B681A747B6803F112001E4B1A6970
:101EA00013469B0013445B0020331B4A13440A2251
:101EB00019460FF06EFD184B1A6913469B00134428
:101EC0005B002033144A98187B68173305221946A3
:101ED0000FF05FFD104B1A6913469B0013445B0023
:101EE000053320330C4A98187B68123305221946B3
:101EF0000FF04FFD7B681B681946786801F0B0FC55
:101F000002467B68DA6100BF0837BD4680BD00BF6E
:101F10002C130020EDFEEDFE2011002080B485B0D2
:101F200000AF78600023FB737A680A4B13440A4AB7
:101F3000A2FB03239B09BB60BB68074AA2FB0323E8
:101F40001B09FB7397F90F3018461437BD4680BC48
:101F5000704700BF80923CCAD34D621080B485B0F8
:101F600000AF7860094A7B681344123393F900305C
:101F7000FB60FB68064A03FB02F2064B1344BB609E
:101F8000BB6818461437BD4680BC7047A8110020B6
:101F900090D00300C855C53580B483B000AF00238E
:101FA000FB71224B1A68224B1B689A4235D11F4B9A
:101FB000DA691F4BDB699A422FD11C4B5A6D1C4BBF
:101FC0005B6D9A4229D1194B9A6D194B9B6D9A42C0
:101FD00023D1164B1A6C164B1B6C9A421DD1134B16
:101FE0005A6C134B5B6C9A4217D1104B9A6A104B88
:101FF0009B6A9A4211D10D4BDA6A0D4BDB6A9A4209
:102000000BD10A4B5A6E0A4B5B6E9A4205D1074BB5
:102010001A6F074B1B6F9A4201D00123FB71FB79AA
:1020200018460C37BD4680BC704700BF80080020B2
:102030000008002080B592B002AF0523FB630223A5
:10204000BB6301237B636D4B9B6D7B624FF0FF3362
:102050003B630023FB620CE0694AFB6A52F83330B1
:102060007A6A9A4202D1FB6A3B6305E0FB6A01335C
:10207000FB62FB6A022BEFDD3B6BB3F1FF3F12D03B
:102080005F4A3B6BDB0013441B79BB635C4A3B6BD1
:10209000DB0013445B79FB63594A3B6BDB00134461
:1020A0009B797B6303E0554B4FF416429A65534B83
:1020B0001B6D002B03D0514B5B6B032B74D10023A2
:1020C000BB624E4B5B6D002B23D14C4B1B6CBB6238
:1020D0004A4B5A6E3B1D4B4918460FF099FA3B1D6F
:1020E0001846FEF74DF803469AB23B1D11461846B6
:1020F00001F030FC7B6BDAB2404B5B6E5BB242F2BC
:102100001071019100931346FA6BB96BB86AFFF72F
:10211000D5FD3A4B5B6D012B0CD1384B5B6CBB6230
:102120007B6BDBB24FF4FA620092FA6BB96BB86A60
:10213000FFF7F6FDB86AFFF729FE0346002B30D003
:102140002E4B0122DA66B86AFFF738FE03462E4AA4
:1021500013602D4ABB6B53602B4AFB6B93607B6B08
:10216000DAB2294B1A73284B00221A61264B00223F
:102170005A61254B00229A61B86AFFF7CFFE0346E9
:102180001A46214BDA61204B1B68184600F044F8D0
:102190001D4BDB695BB21A4665211C48FFF772FBD9
:1021A00002E0164B0022DA66FFF7F6FE0346002B2C
:1021B0001BD0124BDB69002B05DC154BDA690F4B8A
:1021C000DB699A4211D00D4B9B6F01330B4A936729
:1021D0000F4A0A4B1046194680231A460FF0D9FBC6
:1021E00010220B490B48FFF70DFB044B01225A61EB
:1021F000002318464037BD4680BD00BF00080020C0
:1022000008350108D03001082011002040110020BD
:102210008008002000E80308B0B58CB00AAF7860F1
:102220002A4BDB6E012B4DD1284B5B6D002B23D14C
:10223000274BDB6878689847254BDC69234B5B6E3E
:1022400059B2244B5868234B9B68224A127B42F2B6
:10225000107508950025079500250695002505951C
:10226000012504950025039506250295019200930A
:10227000034600220120A047144B5B6D012B21D1A6
:10228000134BDB6878689847114B9C69114B596870
:10229000104B9A680F4B1B7B01200990002008907F
:1022A0000020079000200690012005900020049057
:1022B000002003900520029006200190002000904D
:1022C0000120A04700BF0837BD46B0BD0008002070
:1022D000A03A01082011002080B584B002AF7860D8
:1022E00000220421074803F00FF900230093002384
:1022F0000022032178680AF069FB00BF0837BD4659
:1023000080BD00BF0004004880B582B000AF786097
:1023100000220421034803F0F7F800BF0837BD4648
:1023200080BD00BF0004004880B582B002AF104BF2
:102330000093002300225A2100200AF0E9FA034604
:102340000C4A1360002300930B4B00224FF0FF3127
:102350000A480EF091FA4FF4C87108480EF0A0FB3D
:1023600000220421064803F0CFF800BFBD4680BD1F
:10237000D92200081013002009230008141300209C
:102380000004004890B583B002AF104B1B6818469C
:102390000AF02AFE0346002B13D1012204210C4827
:1023A00003F0B2F80B480EF09DFA084B1C6809F0D8
:1023B00085FD0246002300930023012120460AF0F8
:1023C00005FB00BF0437BD4690BD00BF10130020C1
:1023D000000400481413002080B586B002AF786076
:1023E00039600523FB60074B1868FB6800930023E6
:1023F0000122796807F01EFEB860BB6818461037E6
:10240000BD4680BD18110020B0B5D2B000AF07F5B1
:10241000A473A3F5A27318600023C7F83431002316
:1024200087F847310023C7F840310023C7F83C3113
:10243000282009F0F1FBBB4B5B6D042B01D001F0B0
:10244000D1FA4FF0FF33C7F830311E23C7F83031CF
:10245000B44B5B69002B07D0B24B9B69002B03D1B7
:10246000B04B5B6D012B11D0AF4B1B68184608F0C9
:10247000EFFF03460A2B05D0AB4B1B680021184623
:1024800008F01EFC0A2009F0C7FB88E1A64B1B6878
:1024900007F11001D7F83021184608F0F7FE03467F
:1024A000002B00F04F8107F5A473A3F59C735B68C4
:1024B000002BCDD09B4BDB6E012B40F0E88097F8D2
:1024C000473183F00103DBB2002B00F0958007F564
:1024D000A473A3F59C735B68202B40F08D8007F1FB
:1024E00010030833C7F82831D7F828315B688F4AC2
:1024F000934240F08180D7F828311B681C2B7BD198
:102500008B4B1B681C21184607F066FED7F8283154
:102510001B681A4607F1100308331146184601F0EC
:102520009FF9C7F82401D7F828311B6807F110027A
:10253000083213441B681A4607F5A473A3F59E736B
:102540001A6007F5A473A3F59E731B68D7F82421BE
:102550009A421ED0774B1B68C7F83431764AD7F8B9
:10256000283114461D460FCD0FC495E80F0084E8AE
:102570000F00D7F83401FFF74FFE704B5B6B4FF441
:10258000FA6098470023C7F83C310023C7F8403170
:1025900005E10023C7F84031012387F84731664A37
:1025A000D7F8283114461D460FCD0FC495E80F000B
:1025B00084E80F000023C7F83C31D7F83C01FFF74F
:1025C000CDFCC7F83401D7F83401FFF725FE5B4B8B
:1025D0005B6BC8209847D7F840310133C7F84031CA
:1025E000D7F83C310133C7F83C31534B5B7C19467B
:1025F0005348FFF7EDF9D2E097F84731002B46D06A
:10260000D7F840310133C7F8403107F5A473A3F57B
:102610009C735B68FE2B15D8002387F84731454B28
:102620001B68C7F834312022002143480FF084F89A
:10263000D7F83401FFF7F0FD404B5B6B4FF4FA60C5
:10264000984724E0D7F83C01FFF788FCC7F834012D
:10265000D7F83C310133C7F83C31D7F83C31092B6E
:102660000DDD344B1B68C7F83431D7F83401FFF760
:10267000D3FD324B5B6B4FF4FA60984707E0D7F815
:102680003401FFF7C9FD2D4B5B6BC8209847FFF75E
:1026900079FE8023C7F820310023C7F8383137E0AE
:1026A00007F5A473A3F59C735A68D7F83831D31A89
:1026B000D7F82021934228BF1346C7F81C3107F1F1
:1026C0001002D7F8383108331344C7F81831154BC6
:1026D0001B6F002B08D1D7F81C319BB21946D7F8D5
:1026E000180100F029FF05E0D7F81C11D7F81801F0
:1026F00000F05CFFD7F83831002B02D10520FEF73F
:102700007BFAD7F83821D7F820311344C7F838318D
:1027100007F5A473A3F59C735B68D7F838219A4238
:10272000BED395E60008002010110020EDFEEDFE5E
:102730001811002020110020A8110020A03A010843
:10274000BA110020164BDB6E012B7FF481AE002105
:102750001820FFF741FEC7F82C01D7F82C3103F001
:102760001803002B3FF474AE202200210D480EF018
:10277000E3FF0D4B1B68C7F83431002387F847315E
:102780000023C7F83C310023C7F84031D7F83401A3
:10279000FFF742FD054B5B6B4FF4FA60984757E635
:1027A00000080020A811002020110020A03A0108F4
:1027B00080B500AF074B01229A61064B00221A61D7
:1027C000142009F029FA034B00229A6100231846CD
:1027D00080BD00BF0008002080B500AF054B01227E
:1027E0009A61044B01221A61142009F015FA0023A2
:1027F000184680BD0008002080B5CCB000AF07F5BA
:102800009873A3F5967318600023C7F80C31002362
:10281000C7F82C3107F59873A3F5927318464FF457
:1028200080731A4600210EF087FF002387F82B31B2
:102830000023C7F82431A84B5B69002B07D0A64BB7
:102840009B69002B03D1A44B5B6D002B14D0A34BD1
:102850001B68184608F0FCFD0346142B08D09F4B5C
:102860001B680021184608F02BFA9D4800F0DAFF9B
:102870000A2009F0D1F9ABE19A4B1B68012B15D165
:10288000954B5B6D002B0BD1934B1B6D012B07D12F
:10289000FFF7D0FB944B1B680121184607F0D5FCCD
:1028A000904B00221A60022009F0B6F98B4B1B688E
:1028B00007F586710522184608F0E8FCC7F82001E4
:1028C000874800F0BFFFC7F82C01834B1B69002B22
:1028D00040F07681D7F82C31002B00F07181D7F8C9
:1028E0002C31002B69D07C4BDB6E012B65D197F826
:1028F0002B3183F00103DBB2002B5ED0012387F87C
:102900002B317A4B00225A617948FFF7A9FA01204E
:1029100009F082F90A217748FFF75AF8734B1B69CF
:102920000133724A1361714B1B690A2B02D16F4B41
:1029300000221A616D4B1B68C7F824316E4BDB68AF
:10294000D7F82401984707F10C032022684918465C
:102950000FF01FF8694B1B680133694A136064214B
:102960000120FFF739FDC7F81C01D7F81C3103F02F
:102970000103002B0DD0012009F04EF95E4B9B6A3C
:1029800007F10C02202110469847082009F044F96D
:1029900009E0052009F040F9574B9B6A07F10C024A
:1029A000202110469847554B1B680133534A13604A
:1029B0004B4800F047FFC7F82C01D7F82C31FE2B0D
:1029C00040F2A28007F10C03FF221946444800F0B0
:1029D000DFFEFFF7D7FCC8210120FFF7FDFCC7F899
:1029E00014013D4BDB6E012B1ED1404B5B69184639
:1029F000FFF7B4FAC7F824013F4BDB68D7F824018E
:102A000098473A4B5B690133384A5361374B5B69EE
:102A1000092B09DD354B5B6919463A4800F026FE63
:102A2000002387F82B31D3E0D7F8143103F00103EA
:102A3000002B0CD0314B1B680133314A13602E4BF5
:102A40009B6A07F10C02FF21104698471FE02B4BB1
:102A50001B6801332A4A136064210120FFF7BCFC84
:102A6000C7F81001D7F8103103F00103002B07D18C
:102A7000214B9B6A07F10C02FF211046984706E0A4
:102A80001D4B9B6A07F10C02FF2110469847124B21
:102A90009B6DB3F5964F03D10C2009F0BDF815E0FE
:102AA0000D4B9B6DB3F5164F03D1082009F0B4F818
:102AB0000CE0094B9B6D4FF22442934203D1052059
:102AC00009F0AAF802E00A2009F0A6F80B4B1B68EF
:102AD00001330A4A13607AE0000800201411002034
:102AE00000090020E411002018110020201100200E
:102AF000A8110020BA110020A03A01081C110020E2
:102B000004120020E0300108D7F82031002B5ED1FC
:102B1000D7F82C31002B5AD0D7F82C31FE2B56D8B1
:102B20002C4BDB6E012B29D1D7F82C31C7F818318B
:102B3000032009F071F8284800F084FEC7F82C0142
:102B4000D7F82C21D7F818319A4207D9D7F82C2179
:102B5000D7F81811214800F089FD39E0204B5B6956
:102B60001846FFF7FBF9C7F82401D7F82401FFF74F
:102B700053FB1B4B5B690133194A5361002387F8F0
:102B80002B3107F10C03D7F82C211946124800F01D
:102B9000FFFD144B9B6AD7F82C21D1B207F10C0230
:102BA00010469847104B1B680133104A13600820E9
:102BB00009F032F80C4B1B6801330B4A136006E036
:102BC000084BDB6A98470A2009F026F833E600BF75
:102BD00031E600BF0008002000090020F0300108A5
:102BE00020110020A03A01081C110020041200202E
:102BF00080B584B000AF78600B467B80134B5B6977
:102C0000002B1DD0114B1B69002B19D10F4B5B6D95
:102C1000002B15D17B881A4679680D4800F070FDAD
:102C20007B88FB600B4B186807F10C010023002226
:102C300008F08EF90346002B02D1074800F016FD7C
:102C4000002318461037BD4680BD00BF0008002095
:102C500000090020141100201431010880B58AB049
:102C600002AF07F11003854A854918460EF0D0FCE3
:102C700007F1080107F10C0207F110003B1D00935A
:102C80000B4680490EF0E6FCFB681A46642303FB02
:102C900002F2BB6819460B469B000B445B001344D1
:102CA0007A681344FB61784B784A1A60764AFB696C
:102CB0005360754B00225A61734B00221A65724BA8
:102CC00001229A61704B01221A616F4B0022DA6176
:102CD0006D4B01225A656C4B6D4A1A646A4B6C4A03
:102CE0005A64694BFA229A62674BFA22DA62664B9F
:102CF0004FF416429A65644B03221A63624B1B6BB6
:102D0000614A5363604B0A225A665F4B0022DA66BF
:102D10005D4B01221A675C4B00229A675A4B5D4A51
:102D2000DA6707F06DF903465B4A1360FEF7A0FF10
:102D300000224FF484710A2008F0A9F80346574A8C
:102D4000136000220421142008F0A1F80346544A1D
:102D500013604FF400625349534800F0B5FC4FF440
:102D600000625049514800F0AFFC052008F054FFC4
:102D7000002301933623009300234FF480624C49D3
:102D80004C4808F07BFDB861052008F045FF0023A2
:102D900001933623009300234FF48062464947484D
:102DA00008F06CFDB8613C4B1B680421184607F025
:102DB0004CFA394B1B680121184607F046FAFFF719
:102DC000B3FA10223E493F48FEF7B2FC3C4B1B6869
:102DD0002E4A934209D13A4B5B68FA699A4204D170
:102DE000374BDB6F2B4A93420DD0354A264B1046AA
:102DF000194680231A460EF0CCFD10223049314886
:102E0000FEF700FD2FE02E4BDB691F4AD3612C4BF0
:102E10005B6D1D4A53652A4B1B6C1B4A1364284B80
:102E20005B6C194A5364264B9B6A174A9362244B86
:102E3000DB6A154AD362224B9B6D134A9365204B84
:102E40001B6B114A13631E4B5B6B0F4A53631C4B86
:102E50005B6E0D4A53661A4B1B6F0B4A1367184B78
:102E60009B6F094A9367084B04225A65064B01225F
:102E70001A61002318462037BD4680BD283101085D
:102E8000303101083431010800080020EFBEEDFEAA
:102E9000C0CA8936ADDEEFBE181100201011002027
:102EA000141100201009002000090020F411002056
:102EB00040310108F92700084C31010809240008B5
:102EC0008008002000E8030880B483B000AF786079
:102ED000064BD3F8802005497B681343C1F8803046
:102EE00000BF0C37BD4680BC704700BF00080058CB
:102EF00080B5ACB000AF78600B467B800023FB60F0
:102F00007B88C7F8A43000237B6100233B61D7F89E
:102F1000A430002B40F392807B681B68494A93429F
:102F200043D17B681B6F022B03D07B681B6F002B88
:102F30003BD10023C7F8AC302EE0D7F8A420D7F857
:102F4000AC30D31A802BA8BF8023C7F8A030D7F8A5
:102F5000AC303D4A9918D7F8A02007F11003083388
:102F600018460EF016FDD7F8A0307B61374B1B6872
:102F7000184608F0A1FB0346002B08D1334B186814
:102F800007F10C0207F11001002308F0E3F8D7F86D
:102F9000AC308033C7F8AC30D7F8AC20D7F8A430C9
:102FA0009A42CADB786800F099F87B681B68284A67
:102FB000934243D17B681B6F022B03D07B681B6F4E
:102FC000002B3BD10023C7F8A8302EE0D7F8A4206F
:102FD000D7F8A830D31A802BA8BF8023C7F89C301D
:102FE000D7F8A8301B4A9918D7F89C2007F110038E
:102FF000083318460EF0CDFCD7F89C307B61164B99
:103000001B68184608F058FB0346002B08D1124BEA
:10301000186807F10C0207F11001002308F09AF874
:10302000D7F8A8308033C7F8A830D7F8A820D7F849
:10303000A4309A42CADB786800F050F800BFB0377D
:10304000BD4680BD003801404813002030130020E9
:10305000004400404C1900203413002080B584B097
:1030600000AF78600023BB607B681B68154A934201
:1030700008D1154B196807F108030122134809F01C
:10308000DDFFF8607B681B68114A934208D1114B41
:10309000196807F1080302220C4809F0CFFFF86015
:1030A000FB68002B0AD0BB68002B07D00A4B4FF0FF
:1030B00080521A60BFF34F8FBFF36F8F00BF10377E
:1030C000BD4680BD003801403813002063A30008CE
:1030D000004400403C13002004ED00E080B584B0C3
:1030E00000AF78600123FB737B681B681F4A934223
:1030F00018D14FF4C0621E49786806F0BAFC034646
:10310000FB737B68D3F88030002B0BD07B68D3F83F
:1031100080301B681A687B68D3F880301B6822F007
:1031200004021A607B681B68124A934218D14FF45C
:10313000C0621149786806F09CFC0346FB737B680B
:10314000D3F88030002B0BD07B68D3F880301B681D
:103150001A687B68D3F880301B6822F004021A607A
:10316000FB7B18461037BD4680BD00BF00380140CC
:1031700048130020004400404C19002080B5ACB03A
:1031800000AF78607B68D3F89030102B02D178685C
:10319000FFF7A4FF7B68D3F89030082B40F09D80A8
:1031A0000023C7F894307B681B684E4A934247D18E
:1031B0007B68B3F85E309BB2C7F8A430D7F8A43070
:1031C000002B3ADD0023BB600023C7F8AC302EE0B3
:1031D000D7F8A420D7F8AC30D31A802BA8BF80230F
:1031E000C7F8A030D7F8AC303F4A9918D7F8A020DC
:1031F00007F10803083318460EF0CBFBD7F8A030D0
:10320000FB603A4B1B68184608F056FA0346002B41
:1032100008D1364B186807F1940207F10801002322
:1032200007F098FFD7F8AC308033C7F8AC30D7F848
:10323000AC20D7F8A4309A42CADB7868FFF74EFF7B
:103240007B681B682A4A934247D17B68B3F85E309B
:103250009BB2C7F89C30D7F89C30002B3ADD002396
:10326000BB600023C7F8A8302EE0D7F89C20D7F821
:10327000A830D31A802BA8BF8023C7F89830D7F87E
:10328000A8301C4A9918D7F8982007F1080308338A
:1032900018460EF07EFBD7F89830FB60164B1B6883
:1032A000184608F009FA0346002B08D1124B18689B
:1032B00007F1940207F10801002307F04BFFD7F84C
:1032C000A8308033C7F8A830D7F8A820D7F89C30AA
:1032D0009A42CADB7868FFF701FF00BFB037BD46EE
:1032E00080BD00BF0038014048130020301300208B
:1032F000004400404C1900203413002080B5A8B0D1
:1033000000AF78607B681B68C7F894300023C7F86B
:103310009C300023C7F89830D7F89430012B04D0A4
:10332000D7F89430022B07D00EE0294BC7F89C3019
:10333000284BC7F898300BE0274BC7F89C30274B39
:10334000C7F8983000BF03E0002008F0F1FB3CE034
:10335000D7F89C301B6807F108014FF0FF32184680
:1033600007F094FF0346012BF2D1BB68012B03D970
:10337000033B012B25D827E0D7F898301B68002B9A
:1033800011D1FB68002B1ED000F0E2FF0346002B9A
:1033900019D0FB689AB207F10803083311461846A2
:1033A000FFF726FC0FE0FB68002B0CD0D7F8983015
:1033B0001B68FA6891B207F1080208321046984774
:1033C00001E000BFC4E700BFC2E7A037BD4680BD33
:1033D0003013002040130020341300204413002039
:1033E00080B500AFFDF704F9FDF7B0FF4FF00060C6
:1033F000FFF76AFD00BF80BD80B500AFFDF7F8F8AC
:10340000FDF758FF4FF08060FFF75EFD00BF80BD05
:1034100080B582B002AF00228C21142007F037FD66
:103420000346174A136006F0EBFD0346154A136086
:10343000FFF7E2FF134B1B680121184606F005FF5A
:1034400000230193372300930F4B4FF400620F4981
:103450000F4808F013FA0F4A01210F4804F026FC28
:103460000E490D4804F0DAFC0D4A04210A4804F024
:103470001DFC0948FFF732FE00231846BD4680BDFB
:10348000301300203813002020350108583101087E
:10349000FD3200085D300008E8040020F12E00082D
:1034A0007D31000880B582B002AF00228C2114204B
:1034B00007F0EDFC0346174A136006F0A1FD034632
:1034C000154A1360FFF78CFF134B1B680221184647
:1034D00006F0BBFE00230193372300930F4B4FF4FC
:1034E00000620F490F4808F0C9F90F4A01210F483F
:1034F00004F0DCFB0E490D4804F090FC0D4A042159
:103500000A4804F0D3FB0948FFF7E8FD00231846FA
:10351000BD4680BD341300203C1300202435010833
:1035200064310108FD3200085D300008B405002058
:10353000F12E00087D31000880B588B002AF7860B8
:103540000B467B8005233B610E4B18683B6900935B
:1035500000230122012106F06DFDF8604FF0FF33DA
:103560007B617B881A467968074804F095FC03461E
:10357000002B01D100237B617B6918461837BD46BB
:1035800080BD00BF38130020E804002080B483B061
:1035900000AF7860044A7B681360002318460C373C
:1035A000BD4680BC704700BF4413002080B588B082
:1035B00002AF7860396005233B610F4B18683B69A7
:1035C000009300230122022106F034FDF8604FF041
:1035D000FF337B613B689BB21A467968074804F069
:1035E0005BFC0346002B01D100237B617B691846FD
:1035F0001837BD4680BD00BF3C130020B405002035
:103600000CB480B584B000AF7860396007F11C035A
:10361000FB603968FB68BA6978680DF0C1FC00BFCF
:103620001037BD46BDE8804002B0704780B586B017
:1036300002AF7860396007F1080318460DF0D4F83E
:10364000BB68B7F90C200092074A10217868FFF791
:10365000D7FF7868FCF794FD03469AB23B681A805E
:1036600000BF1037BD4680BD703101080FB480B572
:1036700084B000AF0023FB80BB1D19461148FFF743
:10368000D5FF07F11C03BB60FB881A460D4BD01811
:10369000BB68BA694FF480710DF082FC0346FB8170
:1036A000FA88FB891344FB81FB891946054800F021
:1036B00051F9FB8918461037BD46BDE8804004B07B
:1036C000704700BF501F002080B584B000AFF86085
:1036D000B9607A6010220021F8680EF02DF8FB68BE
:1036E000BA68DA60FB6800229A60FB6800225A60C0
:1036F000FB687A681A60002318461037BD4680BD03
:1037000080B588B000AFF860B9607A60FB681A686D
:10371000FB689B68D21AFB685B681344FB617A689C
:10372000FB69934228BF13467B60FB689A68FB687D
:103730001B68013B1340BB61FB681A68BB69D31A65
:103740007A68934228BF13467B61FB68DA68BB69DD
:1037500013447A69B96818460EF01BF97A687B69D8
:103760009A420AD9FB68D868BA687B69D1187A6826
:103770007B69D31A1A460EF00CF9FB689A687B68CD
:103780001A44FB689A607B6818462037BD4680BDA6
:1037900080B588B000AFF860B9607A60FB689A685D
:1037A000FB685B68D31AFB61FB69002B01D1002326
:1037B00034E07A68FB69934228BF13467B60FB685C
:1037C0005A68FB681B68013B1340BB61FB681A68C1
:1037D000BB69D31A7A68934228BF13467B61FB68A2
:1037E000DA68BB6913447A691946B8680EF0D1F8F3
:1037F0007A687B699A420AD9BA687B69D018FB68F3
:10380000D9687A687B69D31A1A460EF0C2F8FB6849
:103810005A687B681A44FB685A607B6818462037F0
:10382000BD4680BD80B483B000AF78607B68002265
:103830005A607B685A687B689A6000BF0C37BD4647
:1038400080BC704780B483B000AF78607B689A68B2
:103850007B685B68D31A18460C37BD4680BC70473E
:1038600080B485B000AF786039600023FB6000232E
:10387000BB6012E0FB681B0223F07F42FB681B0C5D
:10388000B9687868014409784B40094951F82330F8
:103890005340FB60BB680133BB60BA683B689A4227
:1038A000E8DBFB6818461437BD4680BC704700BF94
:1038B0002835010880B500AF0A4B0B4A1A60094B46
:1038C0000A4A9A60074B0A4A5A60064B094ADA606C
:1038D000044B094A1A61094B1B680248984700BF0C
:1038E00080BD00BF50200020013900080D390008BC
:1038F000313900083D39000849390008A03A01086B
:1039000080B400AF00BFBD4680BC704780B485B0B6
:1039100000AFF860084611461A4603467B810B4605
:103920003B811346FB7100BF1437BD4680BC704716
:1039300080B400AF00BFBD4680BC704780B400AF0C
:1039400000BFBD4680BC704780B400AF00BFBD461D
:1039500080BC704780B582B000AF78600B467B803A
:103960000A4B1B68002B06D17B8819467868FFF745
:10397000E3FD034605E07B8819467868FFF716FEED
:10398000034618460837BD4680BD00BF6C200020A6
:1039900080B584B000AF786039603B68FB600E4949
:1039A0007A6813469B0013449B000B440C3302229D
:1039B0001A700A4A0A49F8680DF02AFEF868FCF7FE
:1039C000DFFBB860FEF736FBFEF7F2FEBB68184679
:1039D0001037BD4680BD00BF70200020D8310108DF
:1039E000EC31010880B590B000AF3B464022002189
:1039F00018460DF0A1FE064B1B681A463B461946B9
:103A00001046FFF7C5FF00BF4037BD4680BD00BF71
:103A10006C20002080B584B000AF786039600D4B19
:103A20001A680D4913469B0013449B000B440C334A
:103A300000221A700323FB60FB689BB219460748FB
:103A4000FFF788FFFEF7C8FE002318461037BD4673
:103A500080BD00BF6C20002070200020F0310108E4
:103A600080B584B000AF786039603B68FB600422A9
:103A7000114938680DF076FE0346002B0ED0F86829
:103A8000FCF77EFB0246FB6813440C4918460DF018
:103A9000BFFDF868FCF774FB034608E0084A0949D3
:103AA000F8680DF0B5FDF868FCF76AFB03461846A8
:103AB0001037BD4680BD00BF7C310108F4310108DC
:103AC000003201080832010880B584B000AF786088
:103AD00039603B68FB60FEF7C1F8B860BB685B6D9E
:103AE0001A460649F8680DF093FDF868FCF748FBA4
:103AF000034618461037BD4680BD00BF1C32010882
:103B000080B586B000AF786039603B687B61FEF7B6
:103B1000A5F838610023FB6007F10C031A4617492A
:103B200078690DF097FD0346002B0FDC7869FCF7F0
:103B300027FB02467B691344114A124918460DF0CF
:103B400067FD7869FCF71CFB034612E07869FCF717
:103B500017FB02467B6913440B4A0A4918460DF0CD
:103B600057FDFB681A463B695A657869FCF708FB04
:103B7000034618461837BD4680BD00BF30320108E5
:103B8000F4310108EC3101084032010880B586B0FB
:103B900000AF786039603B687B61FEF75FF83861A1
:103BA0000023FB6007F10C031A46154978690DF0F4
:103BB00051FD0346002B0BDC7869FCF7E1FA024665
:103BC0007B6913440F4A104918460DF021FD0EE0A1
:103BD000FB681A463B691A657869FCF7D1FA024618
:103BE0007B691344094A084918460DF011FD7869AC
:103BF000FCF7C6FA034618461837BD4680BD00BF1D
:103C000048320108F4310108EC3101084032010862
:103C100080B584B000AF786039603B68FB60FEF728
:103C20001DF8B860BB681B6D1A460649F8680DF0B0
:103C3000EFFCF868FCF7A4FA034618461037BD46B7
:103C400080BD00BF5832010880B586B000AF7860F3
:103C500039603B687B61FEF701F838610023FB6047
:103C600007F10C031A46154978690DF0F3FC034679
:103C7000002B0BDC7869FCF783FA02467B6913445E
:103C80000F4A104918460DF0C3FC0EE0FB681A46B7
:103C90003B695A667869FCF773FA02467B691344FC
:103CA000094A084918460DF0B3FC7869FCF768FA30
:103CB000034618461837BD4680BD00BF6C32010868
:103CC000F4310108EC3101084032010880B584B0BC
:103CD00000AF78603960FDF7C1FFF8603B68BB60FA
:103CE000FB685B6E1A460649B8680DF091FCB8682F
:103CF000FCF746FA034618461037BD4680BD00BFA4
:103D00007832010880B58AB002AF786039603B68CC
:103D1000FB61FDF7A3FFB86107F10C0107F1140285
:103D200007F10803019307F1100300930B462149A3
:103D3000F8690DF08FFC0346032B0BDCF869FCF7E8
:103D40001FFA0246FB6913441B4A1C4918460DF032
:103D50005FFC26E07B691A46194B03FB02F2FB6805
:103D600019464FF47A7301FB03F31A44BB691A64D2
:103D70003B691A46124B03FB02F2BB6819464FF42B
:103D80007A7301FB03F31A44BB695A64F869FCF7C0
:103D9000F7F90246FB6913440A4A084918460DF030
:103DA00037FCF869FCF7ECF9034618462037BD46A6
:103DB00080BD00BF8C320108F4310108EC310108EC
:103DC00040420F0040320108B0B586B002AF7860C3
:103DD0003960FDF743FFF8603B68BB60FB681B6C14
:103DE0001C4AA2FB03239B0C1C46FB681A6C194B54
:103DF000A3FB02139B0C184901FB03F3D31A174AC8
:103E0000A2FB03239B091D46FB685B6C114AA2FBC6
:103E100003239B0C1846FB685A6C0E4BA3FB021342
:103E20009B0C0D4901FB03F3D31A0C4AA2FB03239D
:103E30009B09019300902B4622460949B8680DF072
:103E4000E7FBB868FCF79CF9034618461037BD46F7
:103E5000B0BD00BF83DE1B4340420F00D34D621054
:103E6000A832010880B586B000AF786039603B6841
:103E70007B61FDF7F3FE38614FF4FA73BB604FF4DA
:103E8000FA73FB6007F1080307F108021649786925
:103E90000DF0E0FB0346012B0BDC7869FCF770F9B1
:103EA00002467B691344114A114918460DF0B0FBD4
:103EB00011E0BB681A463B699A62FA683B69DA62AC
:103EC0007869FCF75DF902467B691344094A0849A1
:103ED00018460DF09DFB7869FCF752F90346184629
:103EE0001837BD4680BD00BFC8320108F431010853
:103EF000EC3101084032010880B584B000AF786031
:103F00003960FDF7ABFEF8603B68BB60FB689A6AFE
:103F1000FB68DB6A0549B8680DF07AFBB868FCF706
:103F20002FF9034618461037BD4680BDD832010828
:103F300080B586B000AF786039603B687B61FDF783
:103F40008DFE386107F10C031A46154978690DF0AA
:103F500081FB0346002B0BDC7869FCF711F9024664
:103F60007B6913440F4A104918460DF051FB0EE0CF
:103F7000FB681A463B699A657869FCF701F90246C5
:103F80007B691344094A084918460DF041FB7869DA
:103F9000FCF7F6F8034618461837BD4680BD00BF4B
:103FA000F0320108F4310108EC3101084032010817
:103FB00080B584B000AF78603960FDF74FFEF860DF
:103FC0003B68BB60FB689B6D1A460649B8680DF0FC
:103FD0001FFBB868FCF7D4F8034618461037BD46F7
:103FE00080BD00BFFC32010880B58AB000AFB96067
:103FF0007B600346FB731346BB7300237B62FA7B33
:1040000013469B0013449B003A4A13443B623B6AAD
:104010001B69FB610023BB613B6A1B7B022B23D125
:104020003549B8680DF0BEFB0346002B0FD03B6A44
:1040300000229A603B6A5B681A460021F8690DF01D
:104040007BFBFB7BF9691846FFF7E4FC0AE000F014
:104050007FF90346002B05D0BB7B9BB21946B8689D
:10406000FEF7C6FD002340E0BA7B3B6A9B681A441A
:104070003B6A5B689A420BD93B6A00229A603B6AB2
:104080005B681A460021F8690DF056FB00232CE00E
:104090003B6A1A693B6A9B681344BA7BB968184645
:1040A0000DF077FC3B6A9B685A003B6A9A601349A3
:1040B000F8690DF077FBB8611149F8690DF072FBF2
:1040C00078617B69002B0FD0BB69002B0CD07A691B
:1040D000BB69D31A02337B623B6A00229A607B6819
:1040E000BA691A607B6A00E0002318462837BD468B
:1040F00080BD00BF70200020F0310108103301089E
:104100001433010880B485B000AF0346B9607A600B
:10411000FB73BB68002B37D07B68BE2B34D9FA7B8E
:104120001C4913469B0013449B000B441033BA6890
:104130001A60FA7B174913469B0013449B000B44FB
:1041400004337A681A60FA7B124913469B001344C1
:104150009B000B440C3300221A70FA7B0D49134666
:104160009B0013449B000B4400221A60FA7B094910
:1041700013469B0013449B000B44083300221A6033
:10418000FB7B054A136000E000BF1437BD4680BCCE
:10419000704700BF702000206C20002080B588B0E0
:1041A00000AFF860B9607A603B600023FB610023D8
:1041B0007B613B683B617B68402B02D94FF0FF334A
:1041C00078E00023BB6170E03C4ABB691B011344EB
:1041D0001B78002B66D0394ABB691B01134404339A
:1041E0001B681946B8680DF0DDFA78617B69002B11
:1041F00058D0BF22002138690DF09EFA7A68B9685C
:1042000038690DF0C6FB3F21B8680DF09DFA0346F2
:10421000002B1CD0294ABB691B0113440C331B68BB
:10422000002B3FD0254ABB691B0113440C331B688C
:104230003969F86898470346FB61FB69002B31DD5B
:10424000FB699BB219463869FFF784FB2AE01B4AD9
:10425000BB691B01134408331B68002B14D0174A99
:10426000BB691B01134408331B683969F868984718
:104270000346FB61FB69002B14DDFB699BB2194609
:104280003869FFF767FB0DE0BA690D4938690DF031
:10429000BFF93869FBF774FF03469BB219463869CA
:1042A000FFF758FBBB690133BB610B22BB6993422B
:1042B0008ADBFB6918462037BD4680BD28390108D6
:1042C0001833010880B586B000AF78600B467B805C
:1042D00000237B6100233B610023FB60194B1B68BB
:1042E000002B29DB174B1B68D8B27B88DAB207F1A9
:1042F0000C037968FFF778FE03463B613B69002BAE
:104300001ADD3B69BF2B17DCC02200210E480DF0DF
:1043100013FAC02200210D480DF00EFAFB683A692D
:10432000194609480DF035FB064B1B6818463A69DB
:10433000064B0549FFF732FF7B6918461837BD4623
:1043400080BD00BF6C200020982000205821002054
:1043500080B582B000AF0023FB710D4B1A680D4988
:1043600013469B0013449B000B440C331B78022B19
:1043700008D1FDF773FC38603B685B6D002B01D101
:104380000123FB71FB7918460837BD4680BD00BF8D
:104390006C2000207020002080B586B000AF7860CF
:1043A00039603B687B61FDF759FC386107F10C030C
:1043B0001A46154978690DF04DF90346002B0BDCC0
:1043C0007869FBF7DDFE02467B6913440F4A10490A
:1043D00018460DF01DF90EE0FB681A463B691A6796
:1043E0007869FBF7CDFE02467B691344094A084908
:1043F00018460DF00DF97869FBF7C2FE0346184622
:104400001837BD4680BD00BF2C330108F4310108C8
:10441000EC3101084032010880B584B000AF78600B
:1044200039603B68FB60FDF719FCB8604149F868EA
:104430000DF0EEF8F868FBF7A3FE0246FB6898184B
:10444000BB685B681A463C490DF0E2F8F868FBF778
:1044500097FE0246FB689818BB685B6D1A463749A1
:104460000DF0D6F8F868FBF78BFE0246FB6898184B
:10447000BB681B6C1A4632490DF0CAF8F868FBF7A6
:104480007FFE0246FB689818BB685B6C1A462D4994
:104490000DF0BEF8F868FBF773FE0246FB6898184B
:1044A000BB689B6D1A4628490DF0B2F8F868FBF717
:1044B00067FE0246FB689818BB689B6A1A46234948
:1044C0000DF0A6F8F868FBF75BFE0246FB6898184B
:1044D000BB68DB6A1A461E490DF09AF8F868FBF7CC
:1044E0004FFE0246FB689818BB685B6E1A46194976
:1044F0000DF08EF8F868FBF743FE0246FB6898184B
:10450000BB681B6F1A4614490DF082F8F868FBF778
:1045100037FE0246FB681344104A114918460DF055
:1045200077F8F868FBF72CFE034618461037BD46AF
:1045300080BD00BF3C3301084C3301085C330108E7
:104540006C3301087C3301088C3301089C3301086B
:10455000AC330108BC330108CC33010840320108F8
:10456000EC31010880B586B000AF786039603B68F7
:104570007B61FDF773FB386107F10C031A461449A0
:1045800078690DF067F80346002B0BDC7869FBF7C0
:10459000F7FD02467B6913440E4A0F4918460DF099
:1045A00037F80DE0FA683B69DA617869FBF7E8FDF6
:1045B00002467B691344094A074918460DF028F85A
:1045C0007869FBF7DDFD034618461837BD4680BD08
:1045D000DC330108F4310108EC31010840320108F4
:1045E00080B500AF05F0FEFA0346184680BD80B5E1
:1045F00082B000AF0346FB71FB79184605F032FB31
:10460000034618460837BD4680BD80B500AF05F0AB
:1046100089FB0346184680BD80B500AF05F089FBD5
:104620000346184680BD80B500AF05F089FB034600
:10463000184680BD80B582B000AF0346FB71FB79A0
:10464000184605F084FB034618460837BD4680BD72
:1046500080B400AF00BFBD4680BC704780B400AFDF
:10466000044B5B68034A23F00103536000BFBD465F
:1046700080BC7047002004E080B400AF044B5B684E
:10468000034A23F00203536000BFBD4680BC70475D
:10469000002004E080B400AF044B5B68034A23F0C1
:1046A0000403536000BFBD4680BC7047002004E097
:1046B00080B582B000AF0023FB71032000F0D4F876
:1046C00001F02AFF0346094A13600F20FCF776FA2F
:1046D0000346002B02D00123FB7101E0FCF742F9F5
:1046E000FB7918460837BD4680BD00BF000000209A
:1046F00080B500AFFFF7B2FF00BF80BD80B500AF4F
:10470000FFF7BAFF00BF80BD80B500AFFFF7C2FF63
:1047100000BF80BD80B485B000AF78607B6803F0D7
:104720000703FB600C4BDB68BB60BA684FF6FF0306
:104730001340BB60FB681A02BB68134343F0BF63BE
:1047400043F40033BB60044ABB68D36000BF143736
:10475000BD4680BC704700BF00ED00E080B400AFF4
:10476000044BDB681B0A03F007031846BD4680BCF8
:10477000704700BF00ED00E080B483B000AF034697
:10478000FB7197F90730002B0BDBFB7903F01F025D
:10479000064997F907305B09012000FA02F241F857
:1047A000232000BF0C37BD4680BC704700E100E00D
:1047B00080B483B000AF03463960FB7197F90730CE
:1047C000002B0ADB3B68DAB20C4997F9073012017B
:1047D000D2B20B4483F800230AE03B68DAB20849FE
:1047E000FB7903F00F03043B1201D2B20B441A769B
:1047F00000BF0C37BD4680BC704700BF00E100E041
:1048000000ED00E080B489B000AFF860B9607A6074
:10481000FB6803F00703FB61FB69C3F10703042B8B
:1048200028BF0423BB61FB690433062B02D9FB6953
:10483000033B00E000237B614FF0FF32BB6902FACB
:1048400003F3DA43BB681A407B699A404FF0FF31AB
:104850007B6901FA03F3D9437B680B401343184685
:104860002437BD4680BC704780B582B000AF786009
:104870007868FFF74FFF00BF0837BD4680BD80B5A1
:1048800086B000AF0346B9607A60FB73FFF766FF3E
:1048900078617A68B9687869FFF7B4FF024697F9DA
:1048A0000F3011461846FFF783FF00BF1837BD468B
:1048B00080BD80B582B000AF0346FB7197F9073029
:1048C0001846FFF759FF00BF0837BD4680BD0000FE
:1048D00080B582B000AF78607B68002B01D10123E6
:1048E0008EE07B681B681A46474B9A420FD87B685C
:1048F0001B681A46454B1344454AA2FB03231B0978
:104900009A007B685A647B68424A1A640EE07B68AE
:104910001B681A46404B13443D4AA2FB03231B0964
:104920009A007B685A647B683C4A1A647B6802225E
:1049300083F825207B681B681B687A68126823F45B
:10494000FF4323F0700313607B681B6819687B6862
:104950009A687B68DB681A437B681B691A437B682B
:104960005B691A437B689B691A437B68DB691A435E
:104970007B681B6A1A437B681B680A431A60786865
:1049800000F08EFA7B689B68B3F5804F02D17B689C
:1049900000225A607B685A687B689B6C02F07F0239
:1049A0001A607B68DB6C7A68126D5A607B685B68A2
:1049B000002B10D07B685B68042B0CD8786800F063
:1049C000B7FA7B685B6D00221A607B689B6D7A6822
:1049D000D26D5A6008E07B6800225A657B6800222D
:1049E0009A657B680022DA657B680022DA637B685F
:1049F000012283F825207B68002283F824200023ED
:104A000018460837BD4680BD07040240F8FFFDBFC9
:104A1000CDCCCCCC00000240F8FBFDBF000402402E
:104A200080B586B000AFF860B9607A603B60002363
:104A3000FB75FB6893F82430012B01D1022369E058
:104A4000FB68012283F82420FB6893F82530DBB251
:104A5000012B55D1FB68022283F82520FB68002238
:104A6000DA63FB681B681A68FB681B6822F00102A6
:104A70001A603B687A68B968F86800F0D3F9FB6897
:104A80001B6B002B08D0FB681B681A68FB681B684F
:104A900042F00E021A600FE0FB681B681A68FB68A0
:104AA0001B6822F004021A60FB681B681A68FB6826
:104AB0001B6842F00A021A60FB689B6C1B6803F4D7
:104AC0008033002B07D0FB689B6C1A68FB689B6CDB
:104AD00042F480721A60FB685B6D002B07D0FB68A4
:104AE0005B6D1A68FB685B6D42F480721A60FB684C
:104AF0001B681A68FB681B6842F001021A6008E034
:104B0000FB688022DA63FB68002283F824200123FB
:104B1000FB75FB7D18461837BD4680BD80B483B059
:104B200000AF78607B68002B01D101234FE07B68E8
:104B300093F82530DBB2022B08D07B680422DA63BD
:104B40007B68002283F82420012340E07B681B68F7
:104B50001A687B681B6822F00E021A607B689B6CE7
:104B60001A687B689B6C22F480721A607B681B68F1
:104B70001A687B681B6822F001021A607B685B6C14
:104B800003F01C027B681B6C012101FA02F25A60DF
:104B90007B68DB6C7A68126D5A607B685B6D002BFA
:104BA0000CD07B685B6D1A687B685B6D22F4807249
:104BB0001A607B689B6D7A68D26D5A607B680122AF
:104BC00083F825207B68002283F8242000231846E0
:104BD0000C37BD4680BC704780B584B000AF7860AC
:104BE0000023FB737B6893F82530DBB2022B05D0E2
:104BF0007B680422DA630123FB7347E07B681B6850
:104C00001A687B681B6822F00E021A607B681B68BA
:104C10001A687B681B6822F001021A607B689B6C33
:104C20001A687B689B6C22F480721A607B685B6CEC
:104C300003F01C027B681B6C012101FA02F25A602E
:104C40007B68DB6C7A68126D5A607B685B6D002B49
:104C50000CD07B685B6D1A687B685B6D22F4807298
:104C60001A607B689B6D7A68D26D5A607B680122FE
:104C700083F825207B68002283F824207B689B6BC7
:104C8000002B03D07B689B6B78689847FB7B1846AA
:104C90001037BD4680BD000080B584B000AF78609D
:104CA0007B681B6C1B68FB607B681B681B68BB60B8
:104CB0007B685B6C03F01C0304229A40FB68134082
:104CC000002B27D0BB6803F00403002B22D07B68A5
:104CD0001B681B6803F02003002B07D17B681B684F
:104CE0001A687B681B6822F004021A607B685B6CA0
:104CF00003F01C027B681B6C042101FA02F25A606B
:104D00007B681B6B002B00F081807B681B6B7868D5
:104D100098477BE07B685B6C03F01C0302229A409F
:104D2000FB681340002B3DD0BB6803F00203002B4F
:104D300038D07B681B681B6803F02003002B0BD165
:104D40007B681B681A687B681B6822F00A021A607D
:104D50007B68012283F825207B681B681A462E4B4E
:104D60009A4209D97B685B6C03F01C032B4A022131
:104D700001FA03F3536008E07B685B6C03F01C03EB
:104D8000274A022101FA03F353607B68002283F86B
:104D900024207B68DB6A002B38D07B68DB6A78686C
:104DA000984733E07B685B6C03F01C0308229A4051
:104DB000FB681340002B2AD0BB6803F00803002BCC
:104DC00025D07B681B681A687B681B6822F00E027E
:104DD0001A607B685B6C03F01C027B681B6C012112
:104DE00001FA02F25A607B680122DA637B680122D1
:104DF00083F825207B68002283F824207B685B6B86
:104E0000002B04D07B685B6B7868984700BF00BFBD
:104E10001037BD4680BD00BF800002400004024044
:104E20000000024080B485B000AFF860B9607A60DD
:104E30003B60FB68DB6CFA68126D5A60FB685B6D67
:104E4000002B04D0FB689B6DFA68D26D5A60FB683A
:104E50005B6C03F01C02FB681B6C012101FA02F27F
:104E60005A60FB681B683A685A60FB689B68102BA5
:104E700008D1FB681B687A689A60FB681B68BA688F
:104E8000DA6007E0FB681B68BA689A60FB681B6819
:104E90007A68DA6000BF1437BD4680BC70470000F6
:104EA00080B485B000AF78607B681B681A461C4BE5
:104EB0009A4213D87B685B6C9B089B0003F180438C
:104EC00003F502337A6893647B681B68DBB2083BA6
:104ED000144AA2FB03231B09FB6011E07B685B6C97
:104EE0009B089A00104B13447A6893647B681B6894
:104EF000DBB2083B0B4AA2FB03231B090733FB6011
:104F00007B680A4ADA64FB6803F01F0301229A40B7
:104F10007B681A6500BF1437BD4680BC704700BF70
:104F200007040240CDCCCCCC1C08024080080240D3
:104F300080B485B000AF78607B685B6803F07F0366
:104F4000FB60FA680A4B13449B001A467B685A655B
:104F50007B68084A9A65FB68013B03F00303012262
:104F60009A407B68DA6500BF1437BD4680BC704745
:104F70003F8200104009024080B586B000AFF86063
:104F8000B960C7E900231C4B1B78012B01D1022318
:104F90002DE0194B01221A70174B00225A604FF472
:104FA0007A7000F073F80346FB75FB7D002B1AD175
:104FB000FB68012B05D1D7E90023B86800F0C8F8D9
:104FC00004E03B681946B86800F0E8F84FF47A70DE
:104FD00000F05CF80346FB75084B5A69FB68DB433D
:104FE000064913404B61044B00221A70FB7D1846A2
:104FF0001837BD4680BD00BF182200200040005871
:1050000080B483B000AF0023FB710B4B5B69002BB6
:105010000BDA094B094A9A60074B094A9A60064B1A
:105020005B69002B01DA0123FB71FB7918460C3711
:10503000BD4680BC704700BF004000582301674553
:10504000AB89EFCD80B483B000AF0023FB71094B77
:105050005B69084A43F000435361064B5B69002BD0
:1050600001DB0123FB71FB7918460C37BD4680BC80
:10507000704700BF0040005880B400AF024B5B682F
:105080001846BD4680BC70471822002080B584B009
:1050900000AF7860FBF79CFDF86009E0FBF798FD36
:1050A0000246FB68D31A7A689A4201D8032346E085
:1050B000254B1B6903F48033B3F5803FEED0224BC0
:1050C0001B69BB60BB6803F00103002B02D01E4BC1
:1050D00001221A61BA684CF2FA331340BB60BB6814
:1050E000B3F1804F07D3184B9A69BB6803F0404374
:1050F000154913438B61BB6823F04043002B04D058
:10510000114ABB6823F040431361BB68002B0ED0EB
:105110000E4ABB685360012311E0FBF759FD0246BC
:10512000FB68D31A7A689A4201D8032307E0064B3A
:105130001B6903F48023B3F5802FEED000231846BB
:105140001037BD4680BD00BF004000581822002027
:1051500080B485B000AFF860C7E900230E4B5B69EF
:105160000D4A43F001035361FB683A681A60BFF3CC
:105170006F8F00BFD7E900014FF000024FF000032E
:105180000A000023F968043113460B6000BF14378E
:10519000BD4680BC704700BF0040005880B489B055
:1051A00000AF786039604023FB777B68BB613B6868
:1051B0007B61184B5B69174A43F480235361EFF31B
:1051C0001083FB60FB683B6172B600BF7B691A68A5
:1051D000BB691A60BB690433BB617B6904337B61C3
:1051E000FB7F013BFB77FB7F002BEFD100BF094B1F
:1051F0001B6903F48033B3F5803FF8D03B69BB6093
:10520000BB6883F3108800BF00BF2437BD4680BC55
:10521000704700BF0040005880B483B000AF786092
:10522000084B5B6923F47E727B68DB001343054AFD
:1052300043F4803343F00203536100BF0C37BD4693
:1052400080BC70470040005880B487B000AF7860E1
:10525000396000237B6140E13B681A6801217B696A
:1052600001FA03F31340FB60FB68002B00F032816E
:105270003B685B6803F00303012B05D03B685B6868
:1052800003F00303022B30D17B689B683B617B6991
:105290005B00032202FA03F3DB433A6913403B61EC
:1052A0003B68DA687B695B0002FA03F33A691343EF
:1052B0003B617B683A699A607B685B683B6101226D
:1052C0007B6902FA03F3DB433A6913403B613B68B5
:1052D0005B681B0903F001027B6902FA03F33A6978
:1052E00013433B617B683A695A603B685B6803F033
:1052F0000303032B17D07B68DB683B617B695B0092
:10530000032202FA03F3DB433A6913403B613B6833
:105310009A687B695B0002FA03F33A6913433B61C5
:105320007B683A69DA603B685B6803F00303022B31
:1053300023D17B69DA087B68083253F822303B615D
:105340007B6903F007039B000F2202FA03F3DB43A0
:105350003A6913403B613B681A697B6903F00703B4
:105360009B0002FA03F33A6913433B617B69DA0855
:105370007B680832396943F822107B681B683B61FF
:105380007B695B00032202FA03F3DB433A691340B3
:105390003B613B685B6803F003027B695B0002FAD8
:1053A00003F33A6913433B617B683A691A603B68CF
:1053B0005B6803F44033002B00F08C804E4A7B691D
:1053C0009B08023352F823303B617B6903F00303EF
:1053D0009B00072202FA03F3DB433A6913403B6167
:1053E0007B68B3F1904F0DD07B68444A934207D05D
:1053F0007B68434A934201D1022304E0072302E081
:10540000012300E000237A6902F003029200934036
:105410003A6913433B6138497B699B0802333A6917
:1054200041F82320374B1B683B61FB68DB433A693B
:1054300013403B613B685B6803F48013002B03D08F
:105440003A69FB6813433B612E4A3B6913602D4B5D
:105450005B683B61FB68DB433A6913403B613B6837
:105460005B6803F40013002B03D03A69FB68134315
:105470003B61244A3B695360224BD3F880303B6147
:10548000FB68DB433A6913403B613B685B6803F4AC
:105490008033002B03D03A69FB6813433B61194A00
:1054A0003B69C2F88030174BD3F884303B61FB680E
:1054B000DB433A6913403B613B685B6803F40033AC
:1054C000002B03D03A69FB6813433B610D4A3B69EB
:1054D000C2F884307B6901337B613B681A687B6961
:1054E00022FA03F3002B7FF4B7AE00BF00BF1C37D6
:1054F000BD4680BC704700BF00000140000400486A
:10550000000800480008005880B483B000AF7860FD
:105510000B467B8013467B707B78002B03D07A8808
:105520007B689A6102E07A887B689A6200BF0C37D8
:10553000BD4680BC7047000080B400AF044B1B68C0
:10554000034A43F48073136000BFBD4680BC7047BC
:105550000004005880B400AF034B1B6803F4C06321
:105560001846BD4680BC70470004005880B400AFA8
:10557000064B1B6803F48073B3F5807F01D10123D0
:1055800000E000231846BD4680BC70470004005868
:1055900080B400AF4FF0B0431B684FF0B04243F40B
:1055A0000013136000BFBD4680BC704780B400AFDD
:1055B0004FF0B0431B684FF0B04223F40013136068
:1055C00000BFBD4680BC704780B400AF4FF0B04311
:1055D0001B6803F48013B3F5801F01D1012300E0A1
:1055E00000231846BD4680BC704780B400AF4FF022
:1055F000B0431B684FF0B04243F48033136000BFE8
:10560000BD4680BC704780B400AF4FF0B0431B680C
:105610004FF0B04223F48033136000BFBD4680BC1E
:10562000704780B400AF4FF0B0431B6803F4003301
:10563000B3F5003F01D1012300E000231846BD4629
:1056400080BC704780B400AF4FF0B0431B684FF090
:10565000B04243F48073136000BFBD4680BC704706
:1056600080B400AF4FF0B0431B684FF0B04223F45A
:105670008073136000BFBD4680BC704780B400AF2C
:105680004FF0B0431B6803F48063B3F5806F01D122
:10569000012300E000231846BD4680BC704780B45B
:1056A00083B000AF78604FF0B0435B6823F0FE42F8
:1056B0007B681B064FF0B04113434B6000BF0C37B3
:1056C000BD4680BC704780B400AF4FF0B043D3F804
:1056D000903003F00203022B01D1012300E00023EC
:1056E0001846BD4680BC704780B400AF4FF0B04351
:1056F000D3F894304FF0B04243F00103C2F8943035
:1057000000BFBD4680BC704780B400AF4FF0B043CF
:10571000D3F894304FF0B04223F00103C2F8943034
:1057200000BFBD4680BC704780B400AF4FF0B043AF
:10573000D3F8943003F00203022B01D1012300E0DF
:1057400000231846BD4680BC704780B400AF4FF0C0
:10575000B0431B684FF0B04243F00103136000BF39
:10576000BD4680BC704780B400AF4FF0B0431B68AB
:105770004FF0B04223F00103136000BFBD4680BC70
:10578000704780B400AF4FF0B0431B6803F00203D2
:10579000022B01D1012300E000231846BD4680BC46
:1057A000704780B400AF4FF0B0431B6803F00803AC
:1057B000082B01D1012300E000231846BD4680BC20
:1057C000704780B400AF4FF0B0431B6803F0F003A4
:1057D0001846BD4680BC704780B400AF4FF0B04360
:1057E000D3F8943003F470631846BD4680BC70470C
:1057F00080B483B000AF78604FF0B0435B6823F4AF
:105800007F427B681B024FF0B04113434B6000BFE7
:105810000C37BD4680BC704780B483B000AF786061
:105820004FF0B0439B6823F003024FF0B0417B6818
:1058300013438B6000BF0C37BD4680BC704780B4FB
:1058400000AF4FF0B0439B6803F00C031846BD4611
:1058500080BC704780B483B000AF78604FF0B04335
:105860009B6823F0F0024FF0B0417B6813438B60DC
:1058700000BF0C37BD4680BC704780B483B000AF1A
:1058800078604FF0B043D3F8083123F00F027B6803
:105890001B094FF0B0411343C1F8083100BF0C376A
:1058A000BD4680BC704780B483B000AF78604FF0D5
:1058B000B0439B6823F4E0624FF0B0417B68134330
:1058C0008B6000BF0C37BD4680BC704780B483B08E
:1058D00000AF78604FF0B0439B6823F460524FF004
:1058E000B0417B6813438B6000BF0C37BD4680BC62
:1058F000704780B400AF4FF0B0439B6803F0F003F3
:105900001846BD4680BC704780B400AF4FF0B0432E
:10591000D3F808311B0103F0F0031846BD4680BCE4
:10592000704780B400AF4FF0B0439B6803F4E0636E
:105930001846BD4680BC704780B400AF4FF0B043FE
:105940009B6803F460531846BD4680BC704780B422
:1059500000AF4FF0B0431B684FF0B04243F080738C
:10596000136000BFBD4680BC704780B400AF4FF0ED
:10597000B0431B684FF0B04223F08073136000BF48
:10598000BD4680BC704780B400AF4FF0B0431B6889
:1059900003F00073B3F1007F01D1012300E0002385
:1059A0001846BD4680BC704780B400AF4FF0B0438E
:1059B000DB681B0A03F07F031846BD4680BC7047B6
:1059C00080B400AF4FF0B043DB6803F0604318468B
:1059D000BD4680BC704780B400AF4FF0B043DB6879
:1059E00003F070031846BD4680BC704780B400AF1A
:1059F0004FF0B043DB6803F003031846BD4680BC9C
:105A0000704780B400AF4FF0B0439B6803F480331D
:105A1000B3F5803F01D1012300E000231846BD46C5
:105A200080BC704780B400AF4FF0B043D3F808316A
:105A300003F48033B3F5803F01D1012300E000235C
:105A40001846BD4680BC704780B400AF4FF0B043ED
:105A50009B6803F40033B3F5003F01D1012300E05C
:105A600000231846BD4680BC704780B400AF4FF09D
:105A7000B0439B6803F48023B3F5802F01D1012349
:105A800000E000231846BD4680BC704780B588B052
:105A900000AF78607B68002B01D101236FE3FFF733
:105AA000CEFEF861FFF7A2FFB8617B681B6803F0C8
:105AB0002003002B00F0C480FB69002B05D0FB699C
:105AC0000C2B76D1BB69012B73D17B681B6A002B31
:105AD00001D1012353E37B689A6A4FF0B0431B68FE
