:020000040800F2
:1000000000000120B51600087909000881090008E0
:1000100089090008910900089909000800000000FA
:10002000000000000000000000000000E1A7000840
:10003000A109000800000000C1A9000809AA0008E1
:100040000517000805170008AD0900080517000886
:100050000517000805170008051700080517000810
:100060000517000805170008051700080517000800
:100070000517000805170008D5090008C109000880
:10008000E9090008FD090008051700080517000820
:1000900000000000051700080517000805170008F4
:1000A00005170008051700080517000805170008C0
:1000B00005170008051700080517000805170008B0
:1000C00005170008051700080517000805170008A0
:1000D000110A0008250A000805170008051700087E
:1000E0000517000805170008390A00080517000859
:1000F00005170008000000000000000005170008B8
:1001000005170008051700084D0A00080517000824
:10011000051700080517000805170008051700084F
:10012000051700080517000805170008051700083F
:0801300005170008051700087F
:1001400010B5054C237833B9044B13B10448AFF311
:1001500000800123237010BD40010020000000003A
:10016000F02E010808B5034B1BB103490348AFF358
:10017000008008BD0000000044010020F02E0108AE
:10018000034613F8012B002AFBD1181A01387047D7
:1001900001F0FF01102A2BDB10F0070F08D010F838
:1001A000013B013A8B422DD010F0070F42B3F6D13C
:1001B000F0B441EA012141EA014122F007047FF055
:1001C00000070023F0E80256083C85EA010586EAAC
:1001D000010685FA47F5A3FA87F586FA47F6A5FAE8
:1001E00087F68EB9EED1F0BC01F0FF0102F00702F4
:1001F00032B110F8013B013A83EA010313B1F8D19F
:100200000020704701387047002D06BF354603387F
:10021000073815F0010F07D1013015F4807F02BFB8
:10022000013015F4C03F0130F0BC0138704700BF09
:1002300053B94AB9002908BF00281CBF4FF0FF314D
:100240004FF0FF3000F088B9ADF1080C6DE904CE35
:1002500000F006F8DDF804E0DDE9022304B07047A1
:100260002DE9F047089D0F4604468C46002B48D1E7
:100270008A42164661D9B2FA82F34BB1C3F1200229
:1002800001FA03FC20FA02F29E4042EA0C0C9C4068
:100290004FEA164EB7B2BCFBFEF1220C0EFB11CC9E
:1002A00042EA0C4201FB07F0904209D9B21801F171
:1002B000FF3C80F0EE80904240F2EB800239324405
:1002C000121AA4B2B2FBFEF00EFB102244EA024462
:1002D00000FB07F7A74209D9341900F1FF3280F07B
:1002E000DA80A74240F2D7803444023840EA014025
:1002F000E41B00211DB1DC400023C5E90043BDE83B
:10030000F0878B4206D90DB1C5E9000100210846EE
:10031000BDE8F087B3FA83F1002948D1BB4202D38C
:10032000824200F20781841A67EB0302012094469F
:10033000002DE4D0C5E9004CE1E7002A00F09280EE
:10034000B2FA82F3002B40F0A8808A1A4FEA164EC8
:100350001FFA86FC0121200CB2FBFEF70EFB1722D0
:1003600040EA02420CFB07F0904207D9B21807F1AD
:10037000FF3802D2904200F2E2804746121AA4B23D
:10038000B2FBFEF00EFB102244EA02440CFB00FC20
:10039000A44507D9341900F1FF3202D2A44500F276
:1003A000CB801046A4EB0C0440EA0740A2E7C1F161
:1003B00020068B4022FA06FC4CEA030C07FA01F4F3
:1003C00020FA06F3F7404FEA1C49234300FA01F8EC
:1003D0001FFA8CFEB7FBF9F01C0C09FB107744EAFE
:1003E000074400FB0EF7A74202FA01F20AD91CEB00
:1003F000040400F1FF3A80F09B80A74240F298800D
:1004000002386444E41B9FB2B4FBF9F309FB1344C4
:1004100047EA044403FB0EFEA64509D91CEB04047D
:1004200003F1FF3780F08280A6457FD9023B644408
:1004300043EA0040A4EB0E04A0FB02E7BC42734673
:10044000B94663D360D05DB1B8EB030264EB090435
:1004500004FA06F622FA01F31E43CC40C5E9006413
:1004600000214CE76208480842EAC1710B0C43EADC
:1004700000438AB242EA0342B3FBF6F1E407B44612
:100480003746B6461F23B0FBF6F0D21B41EA0041C7
:1004900061E7614614E7104628E7C3F1200120FA1E
:1004A00001F29E4027FA01F19F403A434FEA164E6F
:1004B0001FFA86FCB1FBFEF70EFB1710110C41EA88
:1004C000004107FB0CF8884504FA03F43AD9711887
:1004D00007F1FF3001D288451FD8A1EB0801B1FB1D
:1004E000FEF808FB0CF70EFB181192B242EA01422B
:1004F000BA422FD2B21808F1FF31C6D2BA42C4D2E2
:10050000A8F102013244C0E7F0459CD2BEEB0203E1
:1005100067EB0C070138B94695E7A6EB080841449C
:10052000B81EB1FBFEF808FB0CF7DCE73B467FE7A3
:10053000504667E70846FBE63444023832E7023F9C
:1005400032441BE7A1EB08013846B1FBFEF808FB7B
:100550000CF7C8E7414698E7704700BF80B500AF89
:10056000044A0021044809F09DFB0346034A136036
:1005700000BF80BDC8310108810500085C0500206E
:1005800080B582B000AF786001F0BDF84FF48062B2
:100590000949012003F0B2FD02F032FF02F07AFFB8
:1005A000064802F0EBFF02F09DFB00200BF0E8F99B
:1005B00000BF0837BD4680BD5C010020E142000855
:1005C00080B485B000AF78604FF0B0439A6C4FF0C4
:1005D000B0417B6813438B644FF0B0439A6C7B68E7
:1005E0001340FB60FB6800BF1437BD4680BC7047FA
:1005F00080B500AF0420FFF7E3FF0120FFF7E0FF25
:10060000002205210E2004F064F80E2004F07BF88F
:10061000022205210F2004F05CF80F2004F073F88B
:1006200000220521112004F054F8112004F06BF889
:1006300002220521102004F04CF8102004F063F889
:1006400000BF80BD80B485B000AF78604FF0B0438C
:10065000DA6C4FF0B0417B681343CB644FF0B0438A
:10066000DA6C7B681340FB60FB6800BF1437BD4643
:1006700080BC704780B586B000AF3B1D00221A6079
:100680005A609A60DA601A610220FFF7DBFF0120EE
:10069000FFF7D8FF0420FFF7D5FF00224FF4E271E7
:1006A0000A4804F05BFE4FF4E2737B600123BB60F9
:1006B0000023FB6000233B613B1D1946034804F007
:1006C000EDFC00BF1837BD4680BD00BF00040048E8
:1006D00080B483B000AF78604FF0B043D3F890306F
:1006E00023F018024FF0B0417B681343C1F89030FB
:1006F00000BF0C37BD4680BC704780B500AF03F02B
:1007000001FF00F00BF8FFF7B5FF09F063FAFFF700
:1007100025FF09F091FA00BFFDE7000080B59AB00F
:1007200000AF07F1200348220021184610F02CFFEB
:1007300007F1080300221A605A609A60DA601A61B1
:100740005A6104F023FE0020FFF7C2FF264B1B680E
:1007500023F4C063244A43F400731360224B1B68E4
:1007600003F4C0637B607B6805233B624FF48033F6
:100770007B628123FB620023BB620223FB640323B1
:100780003B6510237B650923BB654FF40033FB6594
:100790004FF080437B664FF000733B6607F1200308
:1007A000184605F09DF80346002B01D000F01EF816
:1007B0004F23BB600323FB6000233B6100237B616D
:1007C0000023BB610023FB6107F1080302211846E7
:1007D00005F008FC0346002B01D000F007F800BF2D
:1007E0006837BD4680BD00BF0004005880B400AF2C
:1007F00072B600BF00BFFDE780B400AF4FF0B0435A
:10080000D3F890304FF0B04243F40043C2F8903038
:1008100000BFBD4680BC704780B485B000AF786033
:100820004FF0B0439A6D4FF0B0417B6813438B6536
:100830004FF0B0439A6D7B681340FB60FB6800BFCC
:100840001437BD4680BC704780B58CB000AF3B1DEF
:100850002C220021184610F097FE224B224A1A60E3
:10086000204B1F229A601F4B00221A611D4B002251
:100870005A611C4B00229A611A4B4FF08042DA6198
:10088000184B00221A62174B4FF480725A621548B7
:1008900006F064F80346002B01D0FFF7A7FF1148CC
:1008A00006F05AFB0346002B01D0FFF79FFF002301
:1008B0003B620023BB600023BB614FF00053FB6130
:1008C0004FF48073FB623B1D00221946054806F079
:1008D000C7F80346002B01D0FFF788FF00BF303771
:1008E000BD4680BD600500200028004080B590B066
:1008F00000AF786007F1080338220021184610F095
:1009000043FE7B681B68164A934225D14FF480331F
:10091000BB604FF48073FB6307F10803184605F0D2
:1009200003FF0346002B01D0FFF760FFFFF764FFD2
:100930004FF48060FFF770FF00220521022003F0D2
:10094000C8FE022003F0DFFE002205212A2003F06A
:10095000C0FE2A2003F0D7FE00BF4037BD4680BD51
:100960000028004080B500AF00220F216FF0010089
:1009700003F0AFFE00BF80BD80B400AF00BFFDE755
:1009800080B400AF00BFFDE780B400AF00BFFDE75B
:1009900080B400AF00BFFDE780B400AF00BFFDE74B
:1009A00080B400AF00BFBD4680BC704780B500AFCB
:1009B000024806F00DFB00BF80BD00BF60050020AF
:1009C00080B500AF024804F091F800BF80BD00BFC1
:1009D000AC07002080B500AF024804F087F800BFE4
:1009E00080BD00BF6C08002080B500AF024804F055
:1009F0007DF800BF80BD00BF4C07002080B500AF70
:100A0000024804F073F800BF80BD00BF0C0800204E
:100A100080B500AF024807F0FDF900BF80BD00BF00
:100A2000B405002080B500AF024807F0F3F900BF1D
:100A300080BD00BF8006002080B500AF024806F0F0
:100A400077F900BF80BD00BF6005002080B500AF12
:100A5000024806F02BFE00BF80BD00BF98050020B5
:100A600080B485B000AF78604FF0B0435A6E4FF05D
:100A7000B0417B6813434B664FF0B0435A6E7B68BE
:100A80001340FB60FB6800BF1437BD4680BC704755
:100A900080B500AF064B08221A60054806F084FBBB
:100AA0000346002B01D0FFF7A1FE00BF80BD00BFB1
:100AB0009805002080B582B000AF78600120FFF774
:100AC000CFFF00220521322003F003FE322003F085
:100AD0001AFE00BF0837BD4680BD80B483B000AFAA
:100AE00078604FF0B0439B6823F400424FF0B04170
:100AF0007B6813438B6000BF0C37BD4680BC7047DA
:100B000080B500AF0020FFF7E8FF0FF0CDFD0A4BE6
:100B100001221A7000F07CF80FF0C6FB07480FF0B6
:100B2000DFFB00200FF0EAFB0FF0A2FC0121012007
:100B30000FF0DEFC00BF80BDA4050020410B0008C3
:100B400080B586B002AF7860396007F108031846B7
:100B50000FF072FDBB68B7F90C200092074A102114
:100B6000786800F015F87868FFF70AFB03469AB238
:100B70003B681A8000BF1037BD4680BD142F0108A6
:100B800080B500AF002102200FF082FC00BF80BDC5
:100B90000CB480B584B000AF7860396007F11C03F5
:100BA000FB603968FB68BA69786810F021F900BF0A
:100BB0001037BD46BDE8804002B0704780B483B0B6
:100BC00000AF7860002318460C37BD4680BC7047E4
:100BD00080B582B000AF00237B60064B1B78002BF2
:100BE00002D000F09DF978607B6818460837BD4652
:100BF00080BD00BFA405002080B582B000AF786042
:100C00007B68184600F013FA00BF0837BD4680BD68
:100C100080B500AF03F096FC03F09AFC03F09EFC55
:100C200000BF80BD80B400AF01231846BD4680BC24
:100C3000704780B582B000AF7860396010F0A4FDD5
:100C4000034616221A604FF0FF3318460837BD4698
:100C500080BD80B582B000AF78604FF0FF3178681A
:100C6000FFF7E7FF00BFFDE780B586B000AFF86093
:100C7000B9607A6000237B610AE0AFF3008001462F
:100C8000BB685A1CBA60CAB21A707B6901337B61B7
:100C90007A697B689A42F0DB7B6818461837BD4654
:100CA00080BD80B586B000AFF860B9607A6000237F
:100CB0007B6109E0BB685A1CBA601B781846AFF329
:100CC00000807B6901337B617A697B689A42F1DB42
:100CD0007B6818461837BD4680BD80B483B000AF2E
:100CE00078604FF0FF3318460C37BD4680BC704724
:100CF00080B483B000AF786039603B684FF4005235
:100D00005A60002318460C37BD4680BC704780B43B
:100D100083B000AF7860012318460C37BD4680BC15
:100D2000704780B485B000AFF860B9607A60002386
:100D300018461437BD4680BC7047000080B586B0A9
:100D400000AF7860144A154BD31A7B617B693B6115
:100D5000134B1B68002B02D1114B124A1A60104B27
:100D60001A687B6813443A699A4207D210F00CFD66
:100D700003460C221A604FF0FF3309E0084B1B6852
:100D8000FB60074B1A687B681344054A1360FB68D5
:100D900018461837BD4680BD00000120000800003D
:100DA000A80500200000001080B483B000AF786078
:100DB0007B689B6818460C37BD4680BC70470000B6
:100DC00080B582B000AF0023FB71144B1B7883F019
:100DD0000103DBB2002B1BD0114B4FF0FF321A6323
:100DE000FFF732FD00F056F84FF480710C4805F023
:100DF00043FF0B4B4FF0FF321A63094806F07AF8B5
:100E0000002000F0D3F900F05FF8044B01221A70C3
:100E1000FB7918460837BD4680BD00BFAC050020F1
:100E20006005002080B58EB000AF7860002387F8A1
:100E3000373007F108032C220021184610F0A4FBDC
:100E400000F028F8114B1B687A6813447B6000237C
:100E50007B627B68DB43FB600023FB614FF0005348
:100E60003B624FF480733B6307F10803012219468C
:100E7000074805F0F5FD0346002B01D0FFF7B6FC4F
:100E800097F8373018463837BD4680BDB00500208A
:100E90006005002080B582B000AF0023FB71084BD5
:100EA0000122DA654FF48071064805F0E5FE054B36
:100EB0004FF0FF321A63FB7918460837BD4680BDF4
:100EC000002800406005002080B500AF00F08EF9DA
:100ED0000346034A1360024B1B68184680BD00BFDF
:100EE000B005002080B400AF024B1B681846BD4619
:100EF00080BC7047B005002080B582B000AF0023F1
:100F00007B6000F073F90246044B1B68D31A7B60C8
:100F10007B6818460837BD4680BD00BFB00500207D
:100F200080B582B000AF00237B60064B1B78002B9E
:100F300002D000F05BF978607B6818460837BD4640
:100F400080BD00BFAC05002080B483B000AF00239B
:100F50007B6003237B607B6818460C37BD4680BCF2
:100F60007047B0B584B000AF78600021F96079684F
:100F700000200A460346950D94024FF47A724FF012
:100F8000000320462946FFF753F902460B46134655
:100F9000FB60FB6818461037BD46B0BD2DE9B00FA9
:100FA00085B000AF78600021F960796800200C46B8
:100FB0000546204629464FF0000A4FF0000B4FEA45
:100FC000411B4BEAD06B4FEA401A50465946021B70
:100FD00061EB05034FF000004FF00001990041EA7A
:100FE0009271900002460B4612EB040843EB050990
:100FF0004FF000024FF000034FEAC90343EA587371
:101000004FEAC80290469946404649464FF00002D2
:101010004FF00003820A42EA81528B0A1346FB60BA
:10102000FB6818461437BD46BDE8B00F704780B561
:1010300084B000AF78607868FFF793FFF86000F045
:10104000D5F8B86000E000BF00F0D0F80246BB68F9
:10105000D31AFA689A42F6D800BF00BF1037BD46CF
:1010600080BD80B582B000AF78600FF06BFC00BF30
:101070000837BD4680BD80B584B000AF786000F011
:10108000A5F8F860FB680133184600F08FF800BF40
:101090001037BD4680BD2DE9B04F8CB000AF7861F0
:1010A0000023FB6200F0A2F8B86200F08FF87862CB
:1010B0007B6A0022BB60FA604FF000024FF0000331
:1010C000B9680B000022B96A00200C46054612EBF5
:1010D000040843EB0509C7E90689D7E906014FF083
:1010E00000024FF00003820A42EA81528B0A134643
:1010F000FB62BB6900223B607A603B68C3F3090A6C
:101100004FF0000BC7E906ABBB691846FFF746FF77
:1011100003469AB27B691A80FB6A18463037BD468F
:10112000BDE8B08F80B582B000AF78607A680021EA
:10113000034805F071FF00BF0837BD4680BD00BF02
:101140006005002080B582B000AF78607A68012128
:10115000034805F061FF00BF0837BD4680BD00BFF2
:101160006005002080B582B000AF00237B600021C5
:10117000044805F069FF78607B6818460837BD466B
:1011800080BD00BF6005002080B582B000AF0023A5
:101190007B600121044805F057FF78607B681846A2
:1011A0000837BD4680BD00BF6005002080B582B015
:1011B00000AF78607A680221034805F02DFF00BF78
:1011C0000837BD4680BD00BF6005002080B582B0F5
:1011D00000AF0221044805F037FF78607B681846AD
:1011E0000837BD4680BD00BF6005002080B582B0D5
:1011F00000AF0B48FFF7D8FD786003E00848FFF721
:10120000D3FD78600648FFF7CFFD02467B68934226
:10121000F4D17B68DB4318460837BD4680BD00BF6C
:101220000028004080B485B000AF78604FF0B04334
:10123000DA6C4FF0B0417B681343CB644FF0B0439E
:10124000DA6C7B681340FB60FB6800BF1437BD4657
:1012500080BC704780B485B000AF78604FF0B04379
:101260009A6D4FF0B0417B6813438B654FF0B043EC
:101270009A6D7B681340FB60FB6800BF1437BD4666
:1012800080BC704780B485B000AF78604FF0B04349
:101290001A6E4FF0B0417B6813430B664FF0B043BA
:1012A0001A6E7B681340FB60FB6800BF1437BD46B5
:1012B00080BC704780B500AF224B234A1A60214B97
:1012C0004FF4E1325A601F4B00229A601D4B0022FE
:1012D000DA601C4B00221A611A4B0C225A61194B1E
:1012E00000229A61174B0022DA61164B00221A6223
:1012F000144B00225A62134B00229A62114806F0E6
:101300009FFB0346002B01D0FFF770FA00210D4828
:1013100008F05DFA0346002B01D0FFF767FA0021C1
:10132000084808F092FA0346002B01D0FFF75EFA56
:10133000044808F014FA0346002B01D0FFF756FAD0
:1013400000BF80BDB40500200038014080B500AF6B
:10135000224B234A1A60214B4FF4E1325A601F4B53
:1013600000229A601D4B0022DA601C4B00221A6199
:101370001A4B0C225A61194B00229A61174B00221A
:10138000DA61164B00221A62144B00225A62134B88
:1013900000229A62114806F053FB0346002B01D04D
:1013A000FFF724FA00210D4808F011FA0346002B3C
:1013B00001D0FFF71BFA0021084808F046FA03465F
:1013C000002B01D0FFF712FA044808F08DF903460C
:1013D000002B01D0FFF70AFA00BF80BD8006002075
:1013E0000044004080B596B000AF786007F1440338
:1013F00000221A605A609A60DA601A6107F10C03E1
:1014000038220021184610F0BFF87B681B688B4A11
:10141000934240F085800123FB604FF440333B61F1
:1014200007F10C03184605F07FF90346002B01D0A5
:10143000FFF7DCF94FF48040FFF724FF0120FFF7AE
:10144000F1FE4FF4C0637B640223BB640023FB64A2
:1014500003233B6507237B6507F1440319464FF0DF
:10146000904003F01BFE764B764A1A60744B1222B2
:101470005A60734B10229A60714B0022DA60704BF5
:1014800080221A616E4B00225A616D4B00229A61D4
:101490006B4B0022DA616A4B00221A62684803F043
:1014A00041F90346002B01D0FFF7A0F97B68644A9D
:1014B000DA67634A7B689362634B644A1A60624BE3
:1014C00011225A60604B00229A605F4B0022DA6062
:1014D0005D4B80221A615C4B00225A615A4B0022FC
:1014E0009A61594B0022DA61574B4FF480521A62CD
:1014F000554803F017F90346002B01D0FFF776F9A2
:101500007B68514AC3F880204F4A7B68936200226F
:101510000521242003F0DDF8242003F0F4F888E00E
:101520007B681B684A4A934240F083800223FB6039
:101530004FF440237B6107F10C03184605F0F4F8E3
:101540000346002B01D0FFF751F94FF40030FFF7AD
:1015500081FE0120FFF766FE0C237B640223BB643F
:101560000023FB6403233B6507237B6507F14403EA
:1015700019464FF0904003F091FD364B364A1A6001
:10158000344B14225A60334B10229A60314B0022A4
:10159000DA60304B80221A612E4B00225A612D4BAB
:1015A00000229A612B4B0022DA612A4B00221A6238
:1015B000284803F0B7F80346002B01D0FFF716F9CF
:1015C0007B68244ADA67234A7B689362234B244A68
:1015D0001A60224B13225A60204B00229A601F4B44
:1015E0000022DA601D4B80221A611C4B00225A61D6
:1015F0001A4B00229A61194B0022DA61174B4FF403
:1016000080521A62154803F08DF80346002B01D072
:10161000FFF7ECF87B68114AC3F880200F4A7B681B
:10162000936200220521252003F053F8252003F0C2
:101630006AF800BF5837BD4680BD00BF0038014082
:101640004C0700206C0002400C0800208000024083
:1016500000440040AC070020580002406C08002005
:101660004400024080B483B000AF78600023184685
:101670000C37BD4680BC704780B400AF00231846CD
:10168000BD4680BC704780B483B000AF78600B4625
:101690007B80002318460C37BD4680BC704780B461
:1016A00083B000AF7860002318460C37BD4680BC7D
:1016B000704700000D48854602F0F4FE0C480D49C5
:1016C0000D4A002302E0D458C4500433C4188C429D
:1016D000F9D30A4A0A4C002301E013600432A24203
:1016E000FBD310F057F8FFF708F8FEE700000120E1
:1016F000000000203C010020703A01084001002059
:101700003CDD0020FEE780B500AFFFF7F9F902F0FD
:10171000C9F800BF80BD80B483B000AF78607B683B
:10172000D3E90023104619460C37BD4680BC7047EC
:1017300090B587B000AFF860B9601346FB80002316
:10174000FB8210E0FB8ADB00BA68D418F868FFF768
:10175000E2FF02460B46C4E90023FB680833FB6046
:10176000FB8A0133FB82FA8AFB889A42EAD300BFE4
:1017700000BF1C37BD4690BD80B58AB000AFF86091
:10178000B9601346FB8000233B620023FB842FE0FB
:10179000BB6803F10802BA60D3E90023C7E9062356
:1017A00003F058FBD7E90623F968012003F00EFB8C
:1017B0000346FB7503F070FBFB7D002B12D003F09A
:1017C00085FB386203F046FB4FF47A7003F088FB28
:1017D000D7E90623F968012003F0F8FA0346FB7500
:1017E00003F05AFBFB680833FB60FB8C0133FB847E
:1017F000FA8CFB889A42CBD300BF00BF2837BD4686
:1018000080BD000080B588B000AFF860B9601346B5
:10181000FB80FB68B3F1006FC0F08480FB68444A32
:1018200093427FD8FB6803F178433B613B69DB0A55
:10183000FB613B69C3F30A03DB087B837B8BC3F546
:1018400080733B83FA883B8B9A4201D8FB883B83A9
:10185000FB6903F58033DB024FF48072354918468B
:10186000FFF766FFFA8A3B8B9A4234D203F0F2FA12
:10187000314B4CF2FA321A61F86903F0F7FB02209F
:101880000AF0F2F82C4B5B692B4A23F47E7323F0A9
:101890000203536103F000FB0023FB8210E0FB8A8C
:1018A000DB00BA681344F98A7A8B1144D3E9002328
:1018B0002048C9000144C1E90023FB8A0133FB82AF
:1018C000FA8A3B8B9A42EAD33B8B1A46B968F8688E
:1018D000FFF752FF05E03B8B1A46B968F868FFF73F
:1018E0004BFFFA883B8B9A421ED0FB690133FB61A8
:1018F00000237B833B8BDB00BA681344BB603B8BCC
:10190000FA681344FB60FA883B8BD31AFB80FB8890
:10191000B3F5807F03D94FF480733B8398E7FB884E
:101920003B8395E700BF00E000BF2037BD4680BD88
:10193000FFFF0308D00800200040005880B5A4B085
:1019400000AFF860B9601346FB7107F11403682219
:10195000002118460FF018FE0123C7F88C30002331
:10196000C7F8883018E097F90730D7F88C209A42EA
:101970000CD0D7F888305A1CC7F88820D7F88C20AC
:1019800052B290333B4403F87C2C00E000BFD7F800
:101990008C300133C7F88C30D7F88C20BB689A4262
:1019A000E1DD0AF0B3F9034618460FF029FCBB68E5
:1019B000013BC7F8843032E00FF050FC0346D7F803
:1019C000842093FBF2F2D7F8841001FB02F29B1AF9
:1019D000DBB20133DBB287F87F3007F11402D7F8AE
:1019E000843013441B7887F87E3097F97F3090332A
:1019F0003B4413F97C1C07F11402D7F884301344DC
:101A00000A461A7097F97F3090333B4497F87E204E
:101A100003F87C2CD7F88430013BC7F88430D7F822
:101A20008430002BC8DCFB68002B06D0BA6807F1B5
:101A300014031946F8680FF0D4FE0023C7F880306D
:101A400015E0D7F880200F4B83FB02131911D31731
:101A5000CB1A322101FB03F3D31A002B02D105204C
:101A60000AF002F8D7F880300A33C7F88030D7F888
:101A70008020BB689A42E4DB00BF00BF9037BD46C0
:101A800080BD00BF1F85EB5180B584B000AF78608A
:101A900039607B68BB600023FB6012E0FA680D4B85
:101AA00083FB02131911D317CB1A322101FB03F365
:101AB000D31A002B02D1012009F0D6FFFB680A33AC
:101AC000FB60FA683B689A42E8DB00BF00BF103752
:101AD000BD4680BD1F85EB5180B582B000AF0023AD
:101AE0003B600E4B19683B4601220D480BF0CEF9C6
:101AF00078607B68002B0AD03B68002B07D0094B2D
:101B00004FF080521A60BFF34F8FBFF36F8F064BB9
:101B1000DB6A984700BF0837BD4680BDC419002066
:101B2000B7A1000804ED00E02437010880B586B0B5
:101B300000AFF860084611461A4603467B810B4603
:101B40003B811346FB7100233B61304B9B69012BAA
:101B500005D17B891A46F9682D4801F0C9FD2D4A47
:101B60003B8913802C4AFB7913707B89FF2B28BF9C
:101B7000FF239BB21A46294B5A60284B04221A6055
:101B80007B89FF2B28BFFF239BB21A46F9682448A4
:101B90000FF027FE1D4B5B6E002B04D1214B5B6BBE
:101BA0004FF4FA609847194B5B6E012B0AD1002362
:101BB0003B611D4B196807F1100304221B480BF011
:101BC00065F978611A4B1B68184609F09DFC0346BD
:101BD000002B16D1164B186807F1100200230F498D
:101BE00009F0E0F978617B69002B0AD03B69002B92
:101BF00007D0104B4FF080521A60BFF34F8FBFF3E6
:101C00006F8F00BF1837BD4680BD00BFD0100020C9
:101C1000A01A00209C1A00209E1A0020B41A00204E
:101C2000BC1A002024370108C4190020B7A10008FD
:101C3000BC19002004ED00E080B400AF034B01228A
:101C40001A6000BFBD4680BC704700BF901A0020DC
:101C500080B582B000AF00237B600E4B01221A607A
:101C60000D4B1B68002B11D00B4B19683B1D082234
:101C70000A480BF00BF97B68002B07D0084B4FF09C
:101C800080521A60BFF34F8FBFF36F8F00BF0837CA
:101C9000BD4680BD941A0020C4190020B7A10008D9
:101CA00004ED00E080B582B000AF00237B60134BF1
:101CB00001221A60124B5B6E002B04D1114B5B6B3F
:101CC0004FF4FA609847104B1B68002B11D00E4B55
:101CD00019683B1D10220D480BF0D8F87B68002BCB
:101CE00007D00B4B4FF080521A60BFF34F8FBFF3FA
:101CF0006F8F00BF0837BD4680BD00BF981A002017
:101D0000D010002024370108C4190020B7A1000812
:101D100004ED00E080B400AF024B1846BD4680BC25
:101D2000704700BFD010002080B500AF0A4B0B4AAF
:101D30001A60094B0A4A9A60074B0A4A5A60064BD6
:101D4000094ADA60044B094A1A61094B1B680248C8
:101D500098470023184680BD741A0020D91A00083D
:101D60002D1B0008391C0008511C0008A51C000888
:101D70002437010890B58FB00AAFF860B9607A6077
:101D8000FB70144BDB68F8689847124BDC6997F9D5
:101D900020107B6A089300230793002306930023F7
:101DA0000593012304930023039306230293FB78F6
:101DB00001937B680093BB6800220120A047054B7C
:101DC0005B6DFF2101209847002318461437BD465C
:101DD00090BD00BF2437010890B58FB00AAFF860FE
:101DE000B9607A60FB70164BDB68F8689847144B53
:101DF0009C69FB7801220992002208920022079236
:101E000000220692012205920022049200220392EF
:101E10000522029206220192002200927A68B96895
:101E20000120A047064B5B6DFF2101209847044B22
:101E30005B6B386A9847002318461437BD4690BD3F
:101E40002437010880B483B000AF78607B68074A0C
:101E5000934205D97B68064A934201D8012300E0EA
:101E6000002318460C37BD4680BC7047806DC335D3
:101E7000FF27503780B487B000AF78607B68254A71
:101E8000A2FB03239B093B613B69224AA2FB03128D
:101E900092094FF47A7101FB02F29B1AFB60002356
:101EA0007B61FB68F92B02D87D237B6123E0FB6813
:101EB000F92B07D9FB68B3F5FA7F03D240F2771309
:101EC0007B6118E0FB68B3F5FA7F08D3FB6840F24A
:101ED000ED22934203D840F271237B610BE0FB6853
:101EE00040F2ED22934206D9FB68B3F57A7F02D225
:101EF00040F26B337B613A697B6913444FF47A7229
:101F000002FB03F33B613B6918461C37BD4680BCAE
:101F1000704700BFD34D621080B582B000AF7860CB
:101F2000294B1B680133284A13607B681C221A6006
:101F30007B680A225A74244B1A687B68DA607B68D3
:101F4000224A5A60224B1B69DAB27B681A747B689A
:101F500003F112001E4B1A6913469B0013445B00E9
:101F600020331B4A13440A2219460FF03AFC184B3F
:101F70001A6913469B0013445B002033144A9818D7
:101F80007B681733052219460FF02BFC104B1A699A
:101F900013469B0013445B00053320330C4A98180A
:101FA0007B681233052219460FF01BFC7B681B6807
:101FB0001946786801F04CFC02467B68DA6100BF84
:101FC0000837BD4680BD00BFD81B0020EDFEEDFEEA
:101FD000CC19002080B485B000AF78600023FB737B
:101FE0007A680A4B13440A4AA2FB03239B09BB608D
:101FF000BB68074AA2FB03231B09FB7397F90F3049
:1020000018461437BD4680BC704700BF80923CCA5A
:10201000D34D621080B485B000AF7860094A7B6808
:102020001344123393F90030FB60FB68064A03FB4C
:1020300002F2064B1344BB60BB6818461437BD461A
:1020400080BC7047541A002090D00300C855C53595
:1020500080B483B000AF0023FB711C4B1A681C4B8B
:102060001B689A4229D1194BDA69194BDB699A42EC
:1020700023D1164B1A6B164B1B6B9A421DD1134B77
:102080009A6C134B9B6C9A4217D1104BDA6C104B25
:10209000DB6C9A4211D10D4B1A6D0D4B1B6D9A42A0
:1020A0000BD10A4B5A6D0A4B5B6D9A4205D1074B17
:1020B000DA6D074BDB6D9A4201D00123FB71FB798E
:1020C00018460C37BD4680BC704700BF4011002049
:1020D000D010002080B592B002AF0523FB6302232D
:1020E000BB6301237B63644B1B6B7B624FF0FF334D
:1020F0003B630023FB620CE0604AFB6A52F833301A
:102100007A6A9A4202D1FB6A3B6305E0FB6A0133BB
:10211000FB62FB6A022BEFDD3B6BB3F1FF3F12D09A
:10212000564A3B6BDB0013441B79BB63534A3B6B42
:10213000DB0013445B79FB63504A3B6BDB001344C9
:102140009B797B6303E04C4B4FF416421A634A4B76
:102150009B69002B03D0484B9B6B032B74D100234E
:10216000BB62454BDB69002B23D1434B9B6CBB62AD
:10217000414BDA6D3B1D424918460FF071F93B1D8A
:102180001846FDF7FDFF03469AB23B1D114618465F
:1021900001F0D8FB7B6BDAB2374BDB6D5BB242F2FE
:1021A0001071019100931346FA6BB96BB86AFFF78F
:1021B000E1FD314BDB69012B0CD12F4BDB6CBB629A
:1021C0007B6BDBB24FF4FA620092FA6BB96BB86AC0
:1021D000FFF702FEB86AFFF735FE0346002B30D04A
:1021E000254B01225A66B86AFFF744FE0346254A8A
:1021F0001360244ABB6B5360224AFB6B93607B6B7A
:10220000DAB2204B1A731F4B00221A611D4B0022B9
:102210005A611C4B00229A61B86AFFF7DBFE034645
:102220001A46184BDA61174B1B68184600F032F853
:10223000144BDB695BB21A4665211348FFF77EFB3E
:1022400002E00D4B00225A66FFF702FF0346002B07
:102250000CD00E4A084B104619466C231A460FF054
:10226000C0FA0D2209490A48FFF7CCFA00231846A4
:102270004037BD4680BD00BFD01000203C32010871
:10228000202F0108CC190020EC190020401100205B
:1022900000E80308B0B58CB00AAF78602A4B5B6EDB
:1022A000012B4DD1284BDB69002B23D1274BDB6859
:1022B00078689847254BDC69234BDB6D59B2244B7A
:1022C0005868234B9B68224A127B42F2107508958E
:1022D00000250795002506950025059501250495FF
:1022E00000250395062502950192009303460022DE
:1022F0000120A047144BDB69012B21D1134BDB6874
:1023000078689847114B9C69114B5968104B9A6833
:102310000F4B1B7B012009900020089000200790A4
:1023200000200690012005900020049000200390DA
:102330000520029006200190002000900120A04777
:1023400000BF0837BD46B0BDD010002024370108BB
:10235000CC19002080B584B002AF7860002204213F
:10236000074802F0FBFF0023009300230022032113
:1023700078680AF053FA00BF0837BD4680BD00BF39
:102380000004004880B582B000AF786000220421CC
:10239000034802F0E3FF00BF0837BD4680BD00BF21
:1023A0000004004880B582B002AF104B00930023B8
:1023B00000225A2100200AF0D3F903460C4A136088
:1023C000002300930B4B00224FF0FF310A480EF020
:1023D0007BF94FF4C87108480EF08AFA00220421F4
:1023E000064802F0BBFF00BFBD4680BD5523000874
:1023F000BC1B002085230008C01B002000040048EF
:1024000090B583B002AF104B1B6818460AF014FD5C
:102410000346002B13D1012204210C4802F09EFF39
:102420000B480EF087F9084B1C6809F06FFC024658
:10243000002300930023012120460AF0EFF900BF9A
:102440000437BD4690BD00BFBC1B002000040048FF
:10245000C01B002080B586B002AF786039600523CC
:10246000FB60074B1868FB68009300230122796822
:1024700007F00AFDB860BB6818461037BD4680BD3E
:10248000C4190020B0B5D2B000AF07F5A473A3F50E
:10249000A27318600023C7F83431002387F847314E
:1024A0000023C7F840310023C7F83C31282009F049
:1024B000DBFABE4BDB69042B01D001F08BFA4FF045
:1024C000FF33C7F830311E23C7F83031B74B1B69D3
:1024D000002B07D0B54B5B69002B03D1B34BDB69F5
:1024E000012B11D0B24B1B68184608F0D9FE0346E9
:1024F0000A2B05D0AE4B1B680021184608F008FBDC
:102500000A2009F0B1FA8EE1A94B1B6807F10C0112
:10251000D7F83021184608F0E1FD0346002B00F003
:10252000558107F5A473A3F59E735B68002BCDD08E
:102530009E4B5B6E012B40F0E88097F8473183F0AB
:102540000103DBB2002B00F0958007F5A473A3F51F
:102550009E735B68202B40F08D8007F10C030833DD
:10256000C7F82831D7F828315B68924A934240F087
:102570008180D7F828311B681C2B7BD18E4B1B68C0
:102580001C21184607F052FDD7F828311B681A465F
:1025900007F10C0308331146184601F059F9C7F842
:1025A0002401D7F828311B6807F10C0208321344C4
:1025B0001B681A4607F5A473A3F5A0731A6007F504
:1025C000A473A3F5A0731B68D7F824219A421ED0E8
:1025D0007A4B1B68C7F83431794AD7F8283114464A
:1025E0001D460FCD0FC495E80F0084E80F00D7F803
:1025F0003401FFF74FFE734B5B6B4FF4FA60984763
:102600000023C7F83C310023C7F840310BE1002319
:10261000C7F84031012387F84731694AD7F8283194
:1026200014461D460FCD0FC495E80F0084E80F0037
:102630000023C7F83C31D7F83C01FFF7EBFCC7F8A3
:102640003401D7F83401FFF725FE5E4B5B6BC820E1
:102650009847D7F840310133C7F84031D7F83C31BB
:102660000133C7F83C31564B5B7C19465648FFF79F
:102670000BFAD8E097F84731002B46D0D7F8403115
:102680000133C7F8403107F5A473A3F59E735B6867
:10269000FE2B15D8002387F84731484B1B68C7F835
:1026A00034312022002146480EF06EFFD7F8340165
:1026B000FFF7F0FD434B5B6B4FF4FA60984724E063
:1026C000D7F83C01FFF7A6FCC7F83401D7F83C3136
:1026D0000133C7F83C31D7F83C31092B0DDD374BBE
:1026E0001B68C7F83431D7F83401FFF7D3FD354BF9
:1026F0005B6B4FF4FA60984707E0D7F83401FFF7B7
:10270000C9FD304B5B6BC8209847FFF779FEFFF798
:1027100001FBC7F820018023C7F81C310023C7F84C
:10272000383138E007F5A473A3F59E735A68D7F8DB
:102730003831D31AD7F81C21934228BF1346C7F863
:10274000183107F10C02D7F8383108331344C7F8B1
:102750001431D7F820319B6E002B08D1D7F81831EF
:102760009BB21946D7F8140100F0DEFE05E0D7F859
:102770001811D7F8140100F011FFD7F83831002BE9
:1027800002D10520FEF738FAD7F83821D7F81C31E6
:102790001344C7F8383107F5A473A3F59E735B683B
:1027A000D7F838219A42BDD390E600BFD010002060
:1027B000BC190020EDFEEDFEC4190020CC1900204C
:1027C000541A002024370108661A0020164B5B6E4D
:1027D000012B7FF47BAE00211820FFF73BFEC7F8EA
:1027E0002C01D7F82C3103F01803002B3FF46EAE08
:1027F000202200210D480EF0C7FE0D4B1B68C7F8C4
:102800003431002387F847310023C7F83C310023D7
:10281000C7F84031D7F83401FFF73CFD054B5B6B3F
:102820004FF4FA60984751E6D0100020541A002067
:10283000CC1900202437010880B500AF074B0122D6
:102840005A61064B0022DA60142009F00DF9034B9F
:1028500000225A610023184680BD00BFD01000201E
:1028600080B500AF054B01225A61044B0122DA60AA
:10287000142009F0F9F80023184680BDD01000207C
:1028800080B5CCB000AF07F59873A3F596731860C8
:102890000023C7F80C310023C7F82C3107F59873D3
:1028A000A3F5927318464FF480731A4600210EF078
:1028B0006BFE002387F82B310023C7F82431A84B87
:1028C0001B69002B07D0A64B5B69002B03D1A44BDF
:1028D000DB69002B14D0A34B1B68184608F0E0FC02
:1028E0000346142B08D09F4B1B680021184608F0A4
:1028F0000FF99D4800F08EFF0A2009F0B5F8ABE112
:102900009A4B1B68012B15D1954BDB69002B0BD122
:10291000934B9B69012B07D1FFF7DCFB944B1B68A2
:102920000121184607F0BBFB904B00221A600220E1
:1029300009F09AF88B4B1B6807F58671052218463B
:1029400008F0CCFBC7F82001874800F073FFC7F8F8
:102950002C01834BDB68002B40F07681D7F82C31BB
:10296000002B00F07181D7F82C31002B69D07C4B03
:102970005B6E012B65D197F82B3183F00103DBB23D
:10298000002B5ED0012387F82B317A4B00225A614D
:102990007948FFF7C1FA012009F066F80A21774863
:1029A000FFF772F8734B1B690133724A1361714B65
:1029B0001B690A2B02D16F4B00221A616D4B1B68F9
:1029C000C7F824316E4BDB68D7F82401984707F12C
:1029D0000C032022684918460EF003FF694B1B6860
:1029E0000133694A136064210120FFF733FDC7F802
:1029F0001C01D7F81C3103F00103002B0DD001207E
:102A000009F032F85E4B9B6A07F10C022021104658
:102A10009847082009F028F809E0052009F024F873
:102A2000574B9B6A07F10C02202110469847554BE3
:102A30001B680133534A13604B4800F0FBFEC7F894
:102A40002C01D7F82C31FE2B40F2A28007F10C03A9
:102A5000FF221946444800F093FEFFF7D1FCC8213D
:102A60000120FFF7F7FCC7F814013D4B5B6E012B0B
:102A70001ED1404B5B691846FFF7CCFAC7F824011A
:102A80003F4BDB68D7F8240198473A4B5B69013329
:102A9000384A5361374B5B69092B09DD354B5B695C
:102AA00019463A4800F0DAFD002387F82B31D3E0CD
:102AB000D7F8143103F00103002B0CD0314B1B6805
:102AC0000133314A13602E4B9B6A07F10C02FF2140
:102AD000104698471FE02B4B1B6801332A4A1360AE
:102AE00064210120FFF7B6FCC7F81001D7F81031B8
:102AF00003F00103002B07D1214B9B6A07F10C0265
:102B0000FF211046984706E01D4B9B6A07F10C0217
:102B1000FF2110469847124B1B6BB3F5964F03D11C
:102B20000C2008F0A1FF15E00D4B1B6BB3F5164F01
:102B300003D1082008F098FF0CE0094B1B6B4FF203
:102B40002442934203D1052008F08EFF02E00A20C0
:102B500008F08AFF0B4B1B6801330A4A13607AE0C6
:102B6000D0100020C0190020AC110020901A0020C5
:102B7000C4190020CC190020541A0020661A002025
:102B800024370108C8190020B01A0020302F01088E
:102B9000D7F82031002B5ED1D7F82C31002B5AD03A
:102BA000D7F82C31FE2B56D82C4B5B6E012B29D13C
:102BB000D7F82C31C7F81831032008F055FF284802
:102BC00000F038FEC7F82C01D7F82C21D7F81831BF
:102BD0009A4207D9D7F82C21D7F81811214800F0CC
:102BE0003DFD39E0204B5B691846FFF713FAC7F843
:102BF0002401D7F82401FFF74DFB1B4B5B69013320
:102C0000194A5361002387F82B3107F10C03D7F8D9
:102C10002C211946124800F0B3FD144B9B6AD7F8DB
:102C20002C21D1B207F10C0210469847104B1B68BB
:102C30000133104A1360082008F016FF0C4B1B6884
:102C400001330B4A136006E0084BDB6A98470A2001
:102C500008F00AFF33E600BF31E600BFD0100020C5
:102C6000AC110020402F0108CC19002024370108A6
:102C7000C8190020B01A002080B584B000AF786079
:102C80000B467B80134B1B69002B1DD0114BDB685F
:102C9000002B19D10F4BDB69002B15D17B881A460D
:102CA00079680D4800F024FD7B88FB600B4B1868A9
:102CB00007F10C010023002208F072F80346002BF4
:102CC00002D1074800F0CAFC002318461037BD4661
:102CD00080BD00BFD0100020AC110020C019002022
:102CE000642F010880B584B002AF644B00221A61E2
:102CF000624B00225A6607F0ADF80346604A136043
:102D0000FFF712F800224FF484710A2007F0E7FF62
:102D100003465C4A136000220421142007F0DFFF01
:102D20000346594A13604FF400625849584800F06E
:102D3000C3FC4FF400625549564800F0BDFC052025
:102D400008F092FE002301933623009300234FF4F2
:102D500080625149514808F0B9FC7860052008F0BC
:102D600083FE002301933623009300234FF48062F7
:102D70004B494C4808F0AAFC7860414B1B68042181
:102D8000184607F08CF93E4B1B680121184607F0E6
:102D900086F9FFF707FB394B434A1A60374B01228C
:102DA0001A61364B00229A61344B01225A61334B2F
:102DB0000122DA60314B0122DA61304B3B4A9A64DE
:102DC0002E4B3A4ADA642D4BFA229A622B4BFA22A6
:102DD000DA622A4B4FF416421A63284B03225A63D5
:102DE000264B5B6B254A9363244B0A22DA65234BFF
:102DF00001229A660D222E492E48FEF799FC2C4B93
:102E00001B68294A93420DD0294A1C4B104619468B
:102E10006C231A460EF0E5FC0D2225492548FEF7E5
:102E2000F1FC1FE0224BDB69144AD361204B9B6C01
:102E3000124A93641E4BDB6C104AD3641C4B1B6B11
:102E40000E4A13631A4B5B6B0C4A5363184B9B6B14
:102E50000A4A9363164BDB6D084AD365144B9B6E8D
:102E6000064A9366054B0422DA61044B0122DA60BC
:102E7000002318460837BD4680BD00BFD010002093
:102E8000C4190020BC190020C0190020BC1100206A
:102E9000AC110020A01A0020782F0108812800081A
:102EA000842F010885240008EFBEEDFEC0CA8936D4
:102EB0004011002000E8030880B483B000AF7860C0
:102EC000064BD3F8802005497B681343C1F8803056
:102ED00000BF0C37BD4680BC704700BF00080058DB
:102EE00080B5ACB000AF78600B467B800023FB6000
:102EF0007B88C7F8A43000237B6100233B61D7F8AF
:102F0000A430002B40F392807B681B68494A9342AF
:102F100043D17B681B6F022B03D07B681B6F002B98
:102F20003BD10023C7F8AC302EE0D7F8A420D7F867
:102F3000AC30D31A802BA8BF8023C7F8A030D7F8B5
:102F4000AC303D4A9918D7F8A02007F11003083398
:102F500018460EF046FCD7F8A0307B61374B1B6853
:102F6000184608F0D1FA0346002B08D1334B1868F5
:102F700007F10C0207F11001002308F013F8D7F84D
:102F8000AC308033C7F8AC30D7F8AC20D7F8A430D9
:102F90009A42CADB786800F099F87B681B68284A77
:102FA000934243D17B681B6F022B03D07B681B6F5E
:102FB000002B3BD10023C7F8A8302EE0D7F8A4207F
:102FC000D7F8A830D31A802BA8BF8023C7F89C302D
:102FD000D7F8A8301B4A9918D7F89C2007F110039E
:102FE000083318460EF0FDFBD7F89C307B61164B7A
:102FF0001B68184608F088FA0346002B08D1124BCC
:10300000186807F10C0207F11001002307F0CAFF4E
:10301000D7F8A8308033C7F8A830D7F8A820D7F859
:10302000A4309A42CADB786800F050F800BFB0378D
:10303000BD4680BD00380140F41B0020DC1B002091
:1030400000440040F8210020E01B002080B584B03F
:1030500000AF78600023BB607B681B68154A934211
:1030600008D1154B196807F108030122134809F02C
:103070000DFFF8607B681B68114A934208D1114B21
:10308000196807F1080302220C4809F0FFFEF860F6
:10309000FB68002B0AD0BB68002B07D00A4B4FF00F
:1030A00080521A60BFF34F8FBFF36F8F00BF10378E
:1030B000BD4680BD00380140E41B0020B7A10008D8
:1030C00000440040E81B002004ED00E080B584B01F
:1030D00000AF78600123FB737B681B681F4A934233
:1030E00018D14FF4C0621E49786806F0ECFB034625
:1030F000FB737B68D3F88030002B0BD07B68D3F850
:1031000080301B681A687B68D3F880301B6822F017
:1031100004021A607B681B68124A934218D14FF46C
:10312000C0621149786806F0CEFB0346FB737B68EA
:10313000D3F88030002B0BD07B68D3F880301B682D
:103140001A687B68D3F880301B6822F004021A608A
:10315000FB7B18461037BD4680BD00BF00380140DC
:10316000F41B002000440040F821002080B5ACB0E2
:1031700000AF78607B68D3F89030102B02D178686C
:10318000FFF7A4FF7B68D3F89030082B40F09D80B8
:103190000023C7F894307B681B684E4A934247D19E
:1031A0007B68B3F85E309BB2C7F8A430D7F8A43080
:1031B000002B3ADD0023BB600023C7F8AC302EE0C3
:1031C000D7F8A420D7F8AC30D31A802BA8BF80231F
:1031D000C7F8A030D7F8AC303F4A9918D7F8A020EC
:1031E00007F10803083318460EF0FBFAD7F8A030B1
:1031F000FB603A4B1B68184608F086F90346002B23
:1032000008D1364B186807F1940207F10801002332
:1032100007F0C8FED7F8AC308033C7F8AC30D7F829
:10322000AC20D7F8A4309A42CADB7868FFF74EFF8B
:103230007B681B682A4A934247D17B68B3F85E30AB
:103240009BB2C7F89C30D7F89C30002B3ADD0023A6
:10325000BB600023C7F8A8302EE0D7F89C20D7F831
:10326000A830D31A802BA8BF8023C7F89830D7F88E
:10327000A8301C4A9918D7F8982007F1080308339A
:1032800018460EF0AEFAD7F89830FB60164B1B6864
:10329000184608F039F90346002B08D1124B18687C
:1032A00007F1940207F10801002307F07BFED7F82D
:1032B000A8308033C7F8A830D7F8A820D7F89C30BA
:1032C0009A42CADB7868FFF701FF00BFB037BD46FE
:1032D00080BD00BF00380140F41B0020DC1B002033
:1032E00000440040F8210020E01B002080B5A8B079
:1032F00000AF78607B681B68C7F894300023C7F87C
:103300009C300023C7F89830D7F89430012B04D0B4
:10331000D7F89430022B07D00EE0294BC7F89C3029
:10332000284BC7F898300BE0274BC7F89C30274B49
:10333000C7F8983000BF03E0002008F021FB3CE014
:10334000D7F89C301B6807F108014FF0FF32184690
:1033500007F0C4FE0346012BF2D1BB68012B03D951
:10336000033B012B25D827E0D7F898301B68002BAA
:1033700011D1FB68002B1ED000F0F8FF0346002B94
:1033800019D0FB689AB207F10803083311461846B2
:10339000FFF772FC0FE0FB68002B0CD0D7F89830D9
:1033A0001B68FA6891B207F1080208321046984784
:1033B00001E000BFC4E700BFC2E7A037BD4680BD43
:1033C000DC1B0020EC1B0020E01B0020F01B002079
:1033D00080B500AFFDF70CF9FDF7B8FF4FF00060C6
:1033E000FFF76AFD00BF80BD80B500AFFDF700F9B3
:1033F000FDF760FF4FF08060FFF75EFD00BF80BD0E
:1034000080B582B002AF00228C21142007F067FC47
:103410000346174A136006F01DFD0346154A136064
:10342000FFF7E2FF134B1B680121184606F037FE39
:1034300000230193372300930F4B4FF400620F4991
:103440000F4808F043F90F4A01210F4804F058FBD8
:103450000E490D4804F00CFC0D4A04210A4804F002
:103460004FFB0948FFF732FE00231846BD4680BDDA
:10347000DC1B0020E41B002054320108902F0108BF
:10348000ED3200084D300008B4050020E12E0008A0
:103490006D31000880B582B002AF00228C2114206B
:1034A00007F01DFC0346174A136006F0D3FC0346E1
:1034B000154A1360FFF78CFF134B1B680221184657
:1034C00006F0EDFD00230193372300930F4B4FF4DB
:1034D00000620F490F4808F0F9F80F4A01210F4820
:1034E00004F00EFB0E490D4804F0C2FB0D4A042106
:1034F0000A4804F005FB0948FFF7E8FD00231846D9
:10350000BD4680BDE01B0020E81B002058320108AA
:103510009C2F0108ED3200084D3000088006002085
:10352000E12E00086D31000880B588B002AF7860E8
:103530000B467B8005233B610E4B18683B6900936B
:1035400000230122012106F09FFCF8604FF0FF33B9
:103550007B617B881A467968074804F0C7FB0346FD
:10356000002B01D100237B617B6918461837BD46CB
:1035700080BD00BFE41B0020B405002080B483B0F0
:1035800000AF7860044A7B681360002318460C374C
:10359000BD4680BC704700BFF01B002080B588B0DE
:1035A00002AF7860396005233B610F4B18683B69B7
:1035B000009300230122022106F066FCF8604FF020
:1035C000FF337B613B689BB21A467968074804F079
:1035D0008DFB0346002B01D100237B617B691846DC
:1035E0001837BD4680BD00BFE81B002080060020C4
:1035F0000CB480B584B000AF7860396007F11C036B
:10360000FB603968FB68BA6978680DF0F1FB00BFB0
:103610001037BD46BDE8804002B0704780B586B027
:1036200002AF7860396007F1080318460DF004F81E
:10363000BB68B7F90C200092074A10217868FFF7A1
:10364000D7FF7868FCF79CFD03469AB23B681A8066
:1036500000BF1037BD4680BDA82F01080FB480B54C
:1036600084B000AF0023FB80BB1D19461148FFF753
:10367000D5FF07F11C03BB60FB881A460D4BD01821
:10368000BB68BA694FF480710DF0B2FB0346FB8151
:10369000FA88FB891344FB81FB891946054800F031
:1036A00051F9FB8918461037BD46BDE8804004B08B
:1036B000704700BFFC27002080B584B000AFF860E1
:1036C000B9607A6010220021F8680DF05DFFFB6898
:1036D000BA68DA60FB6800229A60FB6800225A60D0
:1036E000FB687A681A60002318461037BD4680BD13
:1036F00080B588B000AFF860B9607A60FB681A687E
:10370000FB689B68D21AFB685B681344FB617A68AC
:10371000FB69934228BF13467B60FB689A68FB688D
:103720001B68013B1340BB61FB681A68BB69D31A75
:103730007A68934228BF13467B61FB68DA68BB69ED
:1037400013447A69B96818460EF04BF87A687B69B9
:103750009A420AD9FB68D868BA687B69D1187A6836
:103760007B69D31A1A460EF03CF8FB689A687B68AE
:103770001A44FB689A607B6818462037BD4680BDB6
:1037800080B588B000AFF860B9607A60FB689A686D
:10379000FB685B68D31AFB61FB69002B01D1002336
:1037A00034E07A68FB69934228BF13467B60FB686C
:1037B0005A68FB681B68013B1340BB61FB681A68D1
:1037C000BB69D31A7A68934228BF13467B61FB68B2
:1037D000DA68BB6913447A691946B8680EF001F8D3
:1037E0007A687B699A420AD9BA687B69D018FB6803
:1037F000D9687A687B69D31A1A460DF0F2FFFB6824
:103800005A687B681A44FB685A607B681846203700
:10381000BD4680BD80B483B000AF78607B68002275
:103820005A607B685A687B689A6000BF0C37BD4657
:1038300080BC704780B483B000AF78607B689A68C2
:103840007B685B68D31A18460C37BD4680BC70474E
:1038500080B485B000AF786039600023FB6000233E
:10386000BB6012E0FB681B0223F07F42FB681B0C6D
:10387000B9687868014409784B40094951F8233008
:103880005340FB60BB680133BB60BA683B689A4237
:10389000E8DBFB6818461437BD4680BC704700BFA4
:1038A0005C32010880B500AF0A4B0B4A1A60094B25
:1038B0000A4A9A60074B0A4A5A60064B094ADA607C
:1038C000044B094A1A61094B1B680248984700BF1C
:1038D00080BD00BFFC280020F1380008FD3800083A
:1038E000213900082D39000839390008243701082A
:1038F00080B400AF00BFBD4680BC704780B485B0C7
:1039000000AFF860084611461A4603467B810B4615
:103910003B811346FB7100BF1437BD4680BC704726
:1039200080B400AF00BFBD4680BC704780B400AF1C
:1039300000BFBD4680BC704780B400AF00BFBD462D
:1039400080BC704780B582B000AF78600B467B804A
:103950000A4B1B68002B06D17B8819467868FFF755
:10396000E3FD034605E07B8819467868FFF716FEFD
:10397000034618460837BD4680BD00BF1829002001
:1039800080B584B000AF786039603B68FB600E4959
:103990007A6813469B0013449B000B440C330222AD
:1039A0001A700A4A0A49F8680DF05AFDFEF792FBB0
:1039B000FEF742FFF868FCF7E3FBB860BB68184607
:1039C0001037BD4680BD00BF1C290020B42F010860
:1039D000C82F010880B590B000AF3B4640220021BF
:1039E00018460DF0D1FD064B1B681A463B4619469A
:1039F0001046FFF7C5FF00BF4037BD4680BD00BF82
:103A00001829002080B584B000AF786039600D4B74
:103A10001A680D4913469B0013449B000B440C335A
:103A200000221A700323FB60FB689BB2194607480B
:103A3000FFF788FFFEF714FF002318461037BD4636
:103A400080BD00BF182900201C290020CC2F0108B0
:103A500080B584B000AF786039603B68FB600422B9
:103A6000124938680DF0A6FD0346002B0ED0F86809
:103A7000FCF786FB0246FB6813440D4918460DF01F
:103A8000EFFCF868FCF77CFB03460BE00023BB600F
:103A9000084A0949F8680DF0E3FCF868FCF770FB88
:103AA000B860BB6818461037BD4680BDD02F0108EE
:103AB000D82F0108E42F0108EC2F010880B586B04B
:103AC00000AF786039603B687B61FEF723F93861AD
:103AD0003B69DB69FB603B69DB69FB60FA680649AF
:103AE00078690DF0BDFC7869FCF74AFB034618467F
:103AF0001837BD4680BD00BF0030010880B586B0D4
:103B000000AF786039603B687B61FEF703F938618C
:103B10000023FB6007F10C031A46174978690DF082
:103B2000C1FC0346002B0FDA7869FCF729FB02463B
:103B30007B691344114A124918460DF091FC7869CB
:103B4000FCF71EFB034612E07869FCF719FB0246FE
:103B50007B6913440B4A0A4918460DF081FCFB6847
:103B60001A463B69DA617869FCF70AFB0346184696
:103B70001837BD4680BD00BF14300108D82F01089A
:103B8000C82F01082430010880B586B000AF7860E6
:103B900039603B687B61FEF7BDF838610023FB604C
:103BA00007F10C031A46154978690DF07BFC0346B2
:103BB000002B0BDA7869FCF7E3FA02467B691344C1
:103BC0000F4A104918460DF04BFC0EE0FB681A46F0
:103BD0003B699A617869FCF7D3FA02467B69134422
:103BE000094A084918460DF03BFC7869FCF7C8FA09
:103BF000034618461837BD4680BD00BF2C3001086B
:103C0000D82F0108C82F01082430010880B584B0DE
:103C100000AF786039603B68FB60FEF77BF8B86006
:103C2000BB689B691A460649F8680DF019FCF868EC
:103C3000FCF7A6FA034618461037BD4680BD00BF04
:103C40003C30010880B586B000AF786039603B68D1
:103C50007B61FEF75FF838610023FB6007F10C031E
:103C60001A46154978690DF01DFC0346002B0BDA46
:103C70007869FCF785FA02467B6913440F4A1049BC
:103C800018460DF0EDFB0EE0FB681A463B69DA655D
:103C90007869FCF775FA02467B691344094A0849BA
:103CA00018460DF0DDFB7869FCF76AFA0346184602
:103CB0001837BD4680BD00BF50300108D82F01081D
:103CC000C82F01082430010880B584B000AF7860A7
:103CD0003960FEF71FF8F8603B68BB60FB68DB6D7E
:103CE0001A460649B8680DF0BBFBB868FCF748FAFD
:103CF000034618461037BD4680BD00BF5C30010842
:103D000080B58AB002AF786039603B68FB61FEF72E
:103D100001F8B86107F10C0107F1140207F108037B
:103D2000019307F1100300930B462049F8690DF049
:103D3000B9FB0346002B0BDAF869FCF721FA0246BF
:103D4000FB6913441A4A1B4918460DF089FB24E00D
:103D50007B69194A03FB02F2FB684FF47A7101FB9D
:103D600003F313441A46BB699A643B69124A03FB86
:103D700002F2BB684FF47A7101FB03F313441A4655
:103D8000BB69DA64F869FCF7FBF90246FB69134486
:103D90000A4A084918460DF063FBF869FCF7F0F988
:103DA000034618462037BD4680BD00BF703001086D
:103DB000D82F0108C82F010840420F002430010805
:103DC000B0B586B002AF78603960FDF7A3FFF86048
:103DD0003B68BB60FB689B6C1C4AA2FB03239B0CEB
:103DE0001C46FB689A6C194BA3FB02139B0C1849E9
:103DF00001FB03F3D31A174AA2FB03239B091D46B9
:103E0000FB68DB6C114AA2FB03239B0C1846FB6882
:103E1000DA6C0E4BA3FB02139B0C0D4901FB03F361
:103E2000D31A0C4AA2FB03239B09019300902B4653
:103E300022460949B8680DF013FBB868FCF7A0F9F1
:103E4000034618461037BD46B0BD00BF83DE1B4396
:103E500040420F00D34D62108C30010880B586B00F
:103E600000AF786039603B687B61FDF753FF3861D4
:103E70004FF4FA73BB604FF4FA73FB6007F1080369
:103E800007F10802164978690DF00CFB0346002B78
:103E90000BDA7869FCF774F902467B691344114A1E
:103EA000114918460DF0DCFA11E0BB681A463B696F
:103EB0009A62FA683B69DA627869FCF761F902464E
:103EC0007B691344094A084918460DF0C9FA786914
:103ED000FCF756F9034618461837BD4680BD00BFAB
:103EE000AC300108D82F0108C82F01082430010880
:103EF00080B584B000AF78603960FDF70BFFF860E3
:103F00003B68BB60FB689A6AFB68DB6A0549B86876
:103F10000DF0A6FAB868FCF733F9034618461037D7
:103F2000BD4680BDBC30010880B586B000AF78606A
:103F300039603B687B61FDF7EDFE386107F10C03EA
:103F40001A46154978690DF0ADFA0346002B0BDAD5
:103F50007869FCF715F902467B6913440F4A10494A
:103F600018460DF07DFA0EE0FB681A463B691A63AD
:103F70007869FCF705F902467B691344094A084948
:103F800018460DF06DFA7869FCF7FAF80346184602
:103F90001837BD4680BD00BFD4300108D82F0108B6
:103FA000C82F01082430010880B584B000AF7860C4
:103FB0003960FDF7AFFEF8603B68BB60FB681B6BC8
:103FC0001A460649B8680DF04BFAB868FCF7D8F8FD
:103FD000034618461037BD4680BD00BFE0300108DB
:103FE00080B58AB000AFB9607B600346FB731346AF
:103FF000BB7300237B62FA7B13469B0013449B0038
:104000003A4A13443B623B6A1B69FB610023BB6174
:104010003B6A1B7B022B23D13549B8680DF0EAFAC5
:104020000346002B0FD03B6A00229A603B6A5B6814
:104030001A460021F8690DF0A7FAFB7BF9691846CA
:10404000FFF7E0FC0AE000F091F90346002B05D0F1
:10405000BB7B9BB21946B868FEF70EFE002340E01A
:10406000BA7B3B6A9B681A443B6A5B689A420BD9ED
:104070003B6A00229A603B6A5B681A460021F86935
:104080000DF082FA00232CE03B6A1A693B6A9B68B8
:104090001344BA7BB96818460DF0A3FB3B6A9B68D2
:1040A0005A003B6A9A601349F8690DF0A3FAB861A7
:1040B0001149F8690DF09EFA78617B69002B0FD0E9
:1040C000BB69002B0CD07A69BB69D31A02337B62BF
:1040D0003B6A00229A607B68BA691A607B6A00E0DA
:1040E000002318462837BD4680BD00BF1C2900208C
:1040F000CC2F0108F4300108F830010880B485B0F5
:1041000000AF0346B9607A60FB73BB68002B37D001
:104110007B687F2B34D9FA7B1C4913469B001344E0
:104120009B000B441033BA681A60FA7B1749134698
:104130009B0013449B000B4404337A681A60FA7B9B
:10414000124913469B0013449B000B440C3300227E
:104150001A70FA7B0D4913469B0013449B000B44D5
:1041600000221A60FA7B094913469B0013449B0006
:104170000B44083300221A60FB7B054A136000E001
:1041800000BF1437BD4680BC704700BF1C2900200B
:104190001829002080B588B000AFF860B9607A6057
:1041A0003B600023FB6100237B613B683B617B68D4
:1041B000402B02D94FF0FF3389E00023BB6181E03F
:1041C0004549BA6913469B0013449B000B441B7876
:1041D000002B74D0BA6913469B0013449B003E4ADF
:1041E000134401331946B8680DF004FA78617B690D
:1041F000002B64D08022002138690DF0C5F97A685F
:10420000B96838690DF0EDFA3F21B8680DF0C4F9CE
:104210000346002B22D03049BA6913469B00134451
:104220009B000B4410331B68002B48D02A49BA6905
:1042300013469B0013449B000B4410331B683969E1
:10424000F86898470346FB61FB69002B37DDFB6983
:104250009BB219463869FFF775FB30E01E49BA6911
:1042600013469B0013449B000B440C331B68002B2C
:1042700017D01949BA6913469B0013449B000B449D
:104280000C331B683969F86898470346FB61FB6982
:10429000002B14DDFB699BB219463869FFF752FB0E
:1042A0000DE0BA690D4938690DF0DAF83869FBF7A5
:1042B00067FF03469BB219463869FFF743FBBB69AA
:1042C0000133BB61BB69092B7FF77AAFFB691846E5
:1042D0002037BD4680BD00BF00000020FC30010833
:1042E00080B586B000AF78600B467B8000237B6191
:1042F00000233B610023FB60194B1B68002B29DB6B
:10430000174B1B68D8B27B88DAB207F10C037968C7
:10431000FFF766FE03463B613B69002B1ADD3B69F4
:10432000802B17DC802200210E480DF02DF9802211
:1043300000210D480DF028F9FB683A691946094833
:104340000DF04FFA064B1B6818463A69064B0549B3
:10435000FFF720FF7B6918461837BD4680BD00BFB8
:104360001829002044290020C829002080B582B0E7
:1043700000AF0023FB710D4B1A680D4913469B00DB
:1043800013449B000B440C331B78022B08D1FDF720
:10439000C1FC38603B68DB69002B01D10123FB7154
:1043A000FB7918460837BD4680BD00BF182900209C
:1043B0001C29002080B586B000AF786039603B686A
:1043C0007B61FDF7A7FC386107F10C031A4615491C
:1043D00078690DF067F80346002B0BDA7869FBF774
:1043E000CFFE02467B6913440F4A104918460DF070
:1043F00037F80EE0FB681A463B699A667869FBF766
:10440000BFFE02467B691344094A084918460DF06D
:1044100027F87869FBF7B4FE034618461837BD46FF
:1044200080BD00BF10310108D82F0108C82F010836
:104430002430010880B500AF05F0FEFA03461846A7
:1044400080BD80B582B000AF0346FB71FB79184692
:1044500005F032FB034618460837BD4680BD80B5DF
:1044600000AF05F089FB0346184680BD80B500AF5C
:1044700005F089FB0346184680BD80B500AF05F006
:1044800089FB0346184680BD80B582B000AF034665
:10449000FB71FB79184605F084FB03461846083784
:1044A000BD4680BD80B400AF00BFBD4680BC704734
:1044B00080B400AF044B5B68034A23F001035360F0
:1044C00000BFBD4680BC7047002004E080B400AF50
:1044D000044B5B68034A23F00203536000BFBD46F0
:1044E00080BC7047002004E080B400AF044B5B68E0
:1044F000034A23F00403536000BFBD4680BC7047ED
:10450000002004E080B582B000AF0023FB710320DF
:1045100000F0D4F801F02AFF0346094A13600F2087
:10452000FCF74CFB0346002B02D00123FB7101E09A
:10453000FCF718FAFB7918460837BD4680BD00BF66
:10454000C800002080B500AFFFF7B2FF00BF80BDFC
:1045500080B500AFFFF7BAFF00BF80BD80B500AFE8
:10456000FFF7C2FF00BF80BD80B485B000AF7860A8
:104570007B6803F00703FB600C4BDB68BB60BA6829
:104580004FF6FF031340BB60FB681A02BB6813437E
:1045900043F0BF6343F40033BB60044ABB68D3609D
:1045A00000BF1437BD4680BC704700BF00ED00E07F
:1045B00080B400AF044BDB681B0A03F00703184606
:1045C000BD4680BC704700BF00ED00E080B483B002
:1045D00000AF0346FB7197F90730002B0BDBFB792B
:1045E00003F01F02064997F907305B09012000FA22
:1045F00002F241F8232000BF0C37BD4680BC704753
:1046000000E100E080B483B000AF03463960FB7185
:1046100097F90730002B0ADB3B68DAB20C4997F9AF
:1046200007301201D2B20B4483F800230AE03B6842
:10463000DAB20849FB7903F00F03043B1201D2B24E
:104640000B441A7600BF0C37BD4680BC704700BFD4
:1046500000E100E000ED00E080B489B000AFF86058
:10466000B9607A60FB6803F00703FB61FB69C3F183
:104670000703042B28BF0423BB61FB690433062B0B
:1046800002D9FB69033B00E000237B614FF0FF325E
:10469000BB6902FA03F3DA43BB681A407B699A40AC
:1046A0004FF0FF317B6901FA03F3D9437B680B407C
:1046B000134318462437BD4680BC704780B582B08E
:1046C00000AF78607868FFF74FFF00BF0837BD463E
:1046D00080BD80B586B000AF0346B9607A60FB73D9
:1046E000FFF766FF78617A68B9687869FFF7B4FF09
:1046F000024697F90F3011461846FFF783FF00BFB7
:104700001837BD4680BD80B582B000AF0346FB714F
:1047100097F907301846FFF759FF00BF0837BD4625
:1047200080BD000080B582B000AF78607B68002B50
:1047300001D101238EE07B681B681A46474B9A42E1
:104740000FD87B681B681A46454B1344454AA2FBA9
:1047500003231B099A007B685A647B68424A1A64E7
:104760000EE07B681B681A46404B13443D4AA2FB8F
:1047700003231B099A007B685A647B683C4A1A64CD
:104780007B68022283F825207B681B681B687A6897
:10479000126823F4FF4323F0700313607B681B68E7
:1047A00019687B689A687B68DB681A437B681B69B9
:1047B0001A437B685B691A437B689B691A437B6871
:1047C000DB691A437B681B6A1A437B681B680A43D0
:1047D0001A60786800F08EFA7B689B68B3F5804FAA
:1047E00002D17B6800225A607B685A687B689B6CA8
:1047F00002F07F021A607B68DB6C7A68126D5A6087
:104800007B685B68002B10D07B685B68042B0CD83E
:10481000786800F0B7FA7B685B6D00221A607B68ED
:104820009B6D7A68D26D5A6008E07B6800225A65F9
:104830007B6800229A657B680022DA657B6800222B
:10484000DA637B68012283F825207B68002283F8E5
:104850002420002318460837BD4680BD07040240C7
:10486000F8FFFDBFCDCCCCCC00000240F8FBFDBF73
:104870000004024080B586B000AFF860B9607A608D
:104880003B600023FB75FB6893F82430012B01D1BA
:10489000022369E0FB68012283F82420FB6893F877
:1048A0002530DBB2012B55D1FB68022283F825208D
:1048B000FB680022DA63FB681B681A68FB681B68E8
:1048C00022F001021A603B687A68B968F86800F063
:1048D000D3F9FB681B6B002B08D0FB681B681A68B8
:1048E000FB681B6842F00E021A600FE0FB681B6851
:1048F0001A68FB681B6822F004021A60FB681B68D8
:104900001A68FB681B6842F00A021A60FB689B6C1D
:104910001B6803F48033002B07D0FB689B6C1A687C
:10492000FB689B6C42F480721A60FB685B6D002B25
:1049300007D0FB685B6D1A68FB685B6D42F48072A0
:104940001A60FB681B681A68FB681B6842F001026A
:104950001A6008E0FB688022DA63FB68002283F8B3
:1049600024200123FB75FB7D18461837BD4680BD0A
:1049700080B483B000AF78607B68002B01D1012345
:104980004FE07B6893F82530DBB2022B08D07B68C0
:104990000422DA637B68002283F82420012340E0AC
:1049A0007B681B681A687B681B6822F00E021A601D
:1049B0007B689B6C1A687B689B6C22F480721A601F
:1049C0007B681B681A687B681B6822F001021A600A
:1049D0007B685B6C03F01C027B681B6C012101FA95
:1049E00002F25A607B68DB6C7A68126D5A607B68F1
:1049F0005B6D002B0CD07B685B6D1A687B685B6D10
:104A000022F480721A607B689B6D7A68D26D5A605E
:104A10007B68012283F825207B68002283F824200C
:104A2000002318460C37BD4680BC704780B584B063
:104A300000AF78600023FB737B6893F82530DBB20E
:104A4000022B05D07B680422DA630123FB7347E065
:104A50007B681B681A687B681B6822F00E021A606C
:104A60007B681B681A687B681B6822F001021A6069
:104A70007B689B6C1A687B689B6C22F480721A605E
:104A80007B685B6C03F01C027B681B6C012101FAE4
:104A900002F25A607B68DB6C7A68126D5A607B6840
:104AA0005B6D002B0CD07B685B6D1A687B685B6D5F
:104AB00022F480721A607B689B6D7A68D26D5A60AE
:104AC0007B68012283F825207B68002283F824205C
:104AD0007B689B6B002B03D07B689B6B7868984747
:104AE000FB7B18461037BD4680BD000080B584B002
:104AF00000AF78607B681B6C1B68FB607B681B6881
:104B00001B68BB607B685B6C03F01C0304229A404B
:104B1000FB681340002B27D0BB6803F00403002B75
:104B200022D07B681B681B6803F02003002B07D191
:104B30007B681B681A687B681B6822F004021A6095
:104B40007B685B6C03F01C027B681B6C042101FA20
:104B500002F25A607B681B6B002B00F081807B683F
:104B60001B6B786898477BE07B685B6C03F01C03E9
:104B700002229A40FB681340002B3DD0BB6803F033
:104B80000203002B38D07B681B681B6803F02003EE
:104B9000002B0BD17B681B681A687B681B6822F0AE
:104BA0000A021A607B68012283F825207B681B6853
:104BB0001A462E4B9A4209D97B685B6C03F01C03A2
:104BC0002B4A022101FA03F3536008E07B685B6C17
:104BD00003F01C03274A022101FA03F353607B68A8
:104BE000002283F824207B68DB6A002B38D07B68A6
:104BF000DB6A7868984733E07B685B6C03F01C03E2
:104C000008229A40FB681340002B2AD0BB6803F0AF
:104C10000803002B25D07B681B681A687B681B681B
:104C200022F00E021A607B685B6C03F01C027B684A
:104C30001B6C012101FA02F25A607B680122DA63DF
:104C40007B68012283F825207B68002283F82420DA
:104C50007B685B6B002B04D07B685B6B7868984744
:104C600000BF00BF1037BD4680BD00BF80000240BE
:104C7000000402400000024080B485B000AFF8603C
:104C8000B9607A603B60FB68DB6CFA68126D5A6051
:104C9000FB685B6D002B04D0FB689B6DFA68D26DDE
:104CA0005A60FB685B6C03F01C02FB681B6C012103
:104CB00001FA02F25A60FB681B683A685A60FB68A6
:104CC0009B68102B08D1FB681B687A689A60FB68A8
:104CD0001B68BA68DA6007E0FB681B68BA689A600C
:104CE000FB681B687A68DA6000BF1437BD4680BC79
:104CF0007047000080B485B000AF78607B681B68A7
:104D00001A461C4B9A4213D87B685B6C9B089B002D
:104D100003F1804303F502337A6893647B681B6870
:104D2000DBB2083B144AA2FB03231B09FB6011E022
:104D30007B685B6C9B089A00104B13447A68936401
:104D40007B681B68DBB2083B0B4AA2FB03231B09F1
:104D50000733FB607B680A4ADA64FB6803F01F03D1
:104D600001229A407B681A6500BF1437BD4680BC9B
:104D7000704700BF07040240CDCCCCCC1C080240D9
:104D80008008024080B485B000AF78607B685B68C3
:104D900003F07F03FB60FA680A4B13449B001A463A
:104DA0007B685A657B68084A9A65FB68013B03F09B
:104DB000030301229A407B68DA6500BF1437BD46C1
:104DC00080BC70473F8200104009024080B586B029
:104DD00000AFF860B960C7E900231C4B1B78012BBA
:104DE00001D102232DE0194B01221A70174B00222A
:104DF0005A604FF47A7000F073F80346FB75FB7D40
:104E0000002B1AD1FB68012B05D1D7E90023B86824
:104E100000F0C8F804E03B681946B86800F0E8F80C
:104E20004FF47A7000F05CF80346FB75084B5A6942
:104E3000FB68DB43064913404B61044B00221A70A8
:104E4000FB7D18461837BD4680BD00BF4C2A0020A8
:104E50000040005880B483B000AF0023FB710B4BBF
:104E60005B69002B0BDA094B094A9A60074B094A28
:104E70009A60064B5B69002B01DA0123FB71FB7919
:104E800018460C37BD4680BC704700BF0040005834
:104E900023016745AB89EFCD80B483B000AF002319
:104EA000FB71094B5B69084A43F000435361064BB1
:104EB0005B69002B01DB0123FB71FB7918460C3782
:104EC000BD4680BC704700BF0040005880B400AFB2
:104ED000024B5B681846BD4680BC70474C2A0020D8
:104EE00080B584B000AF7860FBF772FEF86009E02F
:104EF000FBF76EFE0246FB68D31A7A689A4201D825
:104F0000032346E0254B1B6903F48033B3F5803F50
:104F1000EED0224B1B69BB60BB6803F00103002B82
:104F200002D01E4B01221A61BA684CF2FA331340C8
:104F3000BB60BB68B3F1804F07D3184B9A69BB685D
:104F400003F04043154913438B61BB6823F0404392
:104F5000002B04D0114ABB6823F040431361BB68A7
:104F6000002B0ED00E4ABB685360012311E0FBF703
:104F70002FFE0246FB68D31A7A689A4201D80323AF
:104F800007E0064B1B6903F48023B3F5802FEED0B6
:104F9000002318461037BD4680BD00BF00400058B2
:104FA0004C2A002080B485B000AFF860C7E9002328
:104FB0000E4B5B690D4A43F001035361FB683A688D
:104FC0001A60BFF36F8F00BFD7E900014FF00002F6
:104FD0004FF000030A000023F968043113460B6008
:104FE00000BF1437BD4680BC704700BF004000586A
:104FF00080B489B000AF786039604023FB777B686C
:10500000BB613B687B61184B5B69174A43F48023A3
:105010005361EFF31083FB60FB683B6172B600BF26
:105020007B691A68BB691A60BB690433BB617B6921
:1050300004337B61FB7F013BFB77FB7F002BEFD1D0
:1050400000BF094B1B6903F48033B3F5803FF8D0F0
:105050003B69BB60BB6883F3108800BF00BF243787
:10506000BD4680BC704700BF0040005880B483B08C
:1050700000AF7860084B5B6923F47E727B68DB00CD
:105080001343054A43F4803343F00203536100BFE6
:105090000C37BD4680BC70470040005880B487B0D4
:1050A00000AF7860396000237B6140E13B681A689B
:1050B00001217B6901FA03F31340FB60FB68002BBD
:1050C00000F032813B685B6803F00303012B05D0DD
:1050D0003B685B6803F00303022B30D17B689B685D
:1050E0003B617B695B00032202FA03F3DB433A690D
:1050F00013403B613B68DA687B695B0002FA03F3AB
:105100003A6913433B617B683A699A607B685B68E4
:105110003B6101227B6902FA03F3DB433A691340E6
:105120003B613B685B681B0903F001027B6902FA83
:1051300003F33A6913433B617B683A695A603B6801
:105140005B6803F00303032B17D07B68DB683B61CC
:105150007B695B00032202FA03F3DB433A691340E5
:105160003B613B689A687B695B0002FA03F33A692A
:1051700013433B617B683A69DA603B685B6803F024
:105180000303022B23D17B69DA087B68083253F8CA
:1051900022303B617B6903F007039B000F2202FA78
:1051A00003F3DB433A6913403B613B681A697B694F
:1051B00003F007039B0002FA03F33A6913433B61D0
:1051C0007B69DA087B680832396943F822107B680A
:1051D0001B683B617B695B00032202FA03F3DB433C
:1051E0003A6913403B613B685B6803F003027B69EB
:1051F0005B0002FA03F33A6913433B617B683A6947
:105200001A603B685B6803F44033002B00F08C802D
:105210004E4A7B699B08023352F823303B617B691D
:1052200003F003039B00072202FA03F3DB433A690E
:1052300013403B617B68B3F1904F0DD07B68444ACB
:10524000934207D07B68434A934201D1022304E092
:10525000072302E0012300E000237A6902F0030241
:10526000920093403A6913433B6138497B699B083C
:1052700002333A6941F82320374B1B683B61FB68D6
:10528000DB433A6913403B613B685B6803F480137E
:10529000002B03D03A69FB6813433B612E4A3B69FC
:1052A00013602D4B5B683B61FB68DB433A6913403D
:1052B0003B613B685B6803F40013002B03D03A6941
:1052C000FB6813433B61244A3B695360224BD3F88C
:1052D00080303B61FB68DB433A6913403B613B68CC
:1052E0005B6803F48033002B03D03A69FB681343F7
:1052F0003B61194A3B69C2F88030174BD3F88430C0
:105300003B61FB68DB433A6913403B613B685B6888
:1053100003F40033002B03D03A69FB6813433B616D
:105320000D4A3B69C2F884307B6901337B613B687D
:105330001A687B6922FA03F3002B7FF4B7AE00BF33
:1053400000BF1C37BD4680BC704700BF0000014055
:1053500000040048000800480008005880B483B0EA
:1053600000AF78600B467B8013467B707B78002B08
:1053700003D07A887B689A6102E07A887B689A62B7
:1053800000BF0C37BD4680BC7047000080B400AF42
:10539000044B1B68034A43F48073136000BFBD468F
:1053A00080BC70470004005880B400AF034B1B68FA
:1053B00003F4C0631846BD4680BC70470004005823
:1053C00080B400AF064B1B6803F48073B3F5807F95
:1053D00001D1012300E000231846BD4680BC704780
:1053E0000004005880B400AF4FF0B0431B684FF08A
:1053F000B04243F40013136000BFBD4680BC704749
:1054000080B400AF4FF0B0431B684FF0B04223F4BC
:105410000013136000BFBD4680BC704780B400AF6E
:105420004FF0B0431B6803F48013B3F5801F01D124
:10543000012300E000231846BD4680BC704780B4BD
:1054400000AF4FF0B0431B684FF0B04243F48033DD
:10545000136000BFBD4680BC704780B400AF4FF002
:10546000B0431B684FF0B04223F48033136000BF99
:10547000BD4680BC704780B400AF4FF0B0431B689E
:1054800003F40033B3F5003F01D1012300E0002312
:105490001846BD4680BC704780B400AF4FF0B043A3
:1054A0001B684FF0B04243F48073136000BFBD46E9
:1054B00080BC704780B400AF4FF0B0431B684FF022
:1054C000B04223F48073136000BFBD4680BC7047B8
:1054D00080B400AF4FF0B0431B6803F48063B3F5B2
:1054E000806F01D1012300E000231846BD4680BC37
:1054F000704780B483B000AF78604FF0B0435B6812
:1055000023F0FE427B681B064FF0B04113434B6013
:1055100000BF0C37BD4680BC704780B400AF4FF071
:10552000B043D3F8903003F00203022B01D10123E2
:1055300000E000231846BD4680BC704780B400AF31
:105540004FF0B043D3F894304FF0B04243F0010332
:10555000C2F8943000BFBD4680BC704780B400AF35
:105560004FF0B043D3F894304FF0B04223F0010332
:10557000C2F8943000BFBD4680BC704780B400AF15
:105580004FF0B043D3F8943003F00203022B01D163
:10559000012300E000231846BD4680BC704780B45C
:1055A00000AF4FF0B0431B684FF0B04243F001032F
:1055B000136000BFBD4680BC704780B400AF4FF0A1
:1055C000B0431B684FF0B04223F00103136000BFEB
:1055D000BD4680BC704780B400AF4FF0B0431B683D
:1055E00003F00203022B01D1012300E0002318463F
:1055F000BD4680BC704780B400AF4FF0B0431B681D
:1056000003F00803082B01D1012300E00023184612
:10561000BD4680BC704780B400AF4FF0B0431B68FC
:1056200003F0F0031846BD4680BC704780B400AF5D
:105630004FF0B043D3F8943003F470631846BD467E
:1056400080BC704780B483B000AF78604FF0B04347
:105650005B6823F47F427B681B024FF0B041134329
:105660004B6000BF0C37BD4680BC704780B483B030
:1056700000AF78604FF0B0439B6823F003024FF017
:10568000B0417B6813438B6000BF0C37BD4680BCC4
:10569000704780B400AF4FF0B0439B6803F00C0339
:1056A0001846BD4680BC704780B483B000AF7860B8
:1056B0004FF0B0439B6823F0F0024FF0B0417B689D
:1056C00013438B6000BF0C37BD4680BC704780B46D
:1056D00083B000AF78604FF0B043D3F8083123F0C7
:1056E0000F027B681B094FF0B0411343C1F808312A
:1056F00000BF0C37BD4680BC704780B483B000AF9C
:1057000078604FF0B0439B6823F4E0624FF0B04103
:105710007B6813438B6000BF0C37BD4680BC70476D
:1057200080B483B000AF78604FF0B0439B6823F43F
:1057300060524FF0B0417B6813438B6000BF0C3761
:10574000BD4680BC704780B400AF4FF0B0439B684B
:1057500003F0F0031846BD4680BC704780B400AF2C
:105760004FF0B043D3F808311B0103F0F0031846A3
:10577000BD4680BC704780B400AF4FF0B0439B681B
:1057800003F4E0631846BD4680BC704780B400AFA8
:105790004FF0B0439B6803F460531846BD4680BC8D
:1057A000704780B400AF4FF0B0431B684FF0B04279
:1057B00043F08073136000BFBD4680BC704780B467
:1057C00000AF4FF0B0431B684FF0B04223F080733E
:1057D000136000BFBD4680BC704780B400AF4FF07F
:1057E000B0431B6803F00073B3F1007F01D10123C4
:1057F00000E000231846BD4680BC704780B400AF6F
:105800004FF0B043DB681B0A03F07F031846BD4628
:1058100080BC704780B400AF4FF0B043DB6803F04A
:1058200060431846BD4680BC704780B400AF4FF05F
:10583000B043DB6803F070031846BD4680BC704778
:1058400080B400AF4FF0B043DB6803F003031846A9
:10585000BD4680BC704780B400AF4FF0B0439B683A
:1058600003F48033B3F5803F01D1012300E000232E
:105870001846BD4680BC704780B400AF4FF0B043BF
:10588000D3F8083103F48033B3F5803F01D101230D
:1058900000E000231846BD4680BC704780B400AFCE
:1058A0004FF0B0439B6803F40033B3F5003F01D1E0
:1058B000012300E000231846BD4680BC704780B439
:1058C00000AF4FF0B0439B6803F48023B3F5802F03
:1058D00001D1012300E000231846BD4680BC70477B
:1058E00080B588B000AF78607B68002B01D10123C0
:1058F0006FE3FFF7CEFEF861FFF7A2FFB8617B68A8
:105900001B6803F02003002B00F0C480FB69002B10
:1059100005D0FB690C2B76D1BB69012B73D17B6859
:105920001B6A002B01D1012353E37B689A6A4FF075
:10593000B0431B6803F00803002B05D04FF0B043C1
:105940001B6803F0F00306E04FF0B043D3F8943047
:105950001B0903F0F003934222D27B689B6A18462E
:1059600000F03CFD0346002B01D0012331E34FF052
:10597000B0431B684FF0B04243F0080313604FF090
:10598000B0431B6823F0F0027B689B6A4FF0B04184
:1059900013430B607B685B6A1846FFF753FE21E0F8
:1059A0004FF0B0431B684FF0B04243F00803136060
:1059B0004FF0B0431B6823F0F0027B689B6A4FF006
:1059C000B04113430B607B685B6A1846FFF73AFEF1
:1059D0007B689B6A184600F001FD0346002B01D04E
:1059E0000123F6E200F0C2FC0346A74A1360A74B6E
:1059F0001B681846FBF7E2F80346FB74FB7C002BA0
:105A000047D0FB7CE5E27B681B6A002B2CD0FFF7BC
:105A1000C6FDFBF7DDF8786108E0FBF7D9F8024630
:105A20007B69D31A022B01D90323D2E2FFF7D3FDFE
:105A30000346002BF1D04FF0B0431B684FF0B0424B
:105A400043F0080313604FF0B0431B6823F0F002EB
:105A50007B689B6A4FF0B04113430B607B685B6AC5
:105A60001846FFF7EFFD15E0FFF7A7FDFBF7B0F8CD
:105A7000786108E0FBF7ACF802467B69D31A022B89
:105A800001D90323A5E2FFF7A6FD0346002BF1D1C0
:105A900000E000BF7B681B6803F00103002B58D0B7
:105AA000FB69082B05D0FB690C2B08D1BB69032BC4
:105AB00005D17B685B68002B4BD1012389E24FF055
:105AC000B0431B6823F480127B689B684FF0B041A1
:105AD00013430B607B685B68B3F5803F02D1FFF72F
